:020000040800F2
:1000000000000220E91A0008311A0008331A00081B
:10001000351A0008371A0008391A000800000000D5
:100020000000000000000000000000005150000827
:100030003B1A000800000000F15000089D4D000828
:10004000391B0008391B0008391B0008391B000840
:10005000391B0008391B0008391B0008391B000830
:10006000391B0008391B0008391B0008391B000820
:10007000391B0008391B0008391B0008391B000810
:10008000391B0008391B0008391B0008391B000800
:10009000391B0008391B0008391B0008391B0008F0
:1000A000391B0008391B0008391B0008391B0008E0
:1000B000391B0008391B0008391B0008391B0008D0
:1000C000391B0008391B0008391B0008391B0008C0
:1000D000391B0008391B0008391B0008391B0008B0
:1000E000391B0008391B0008391B0008391B0008A0
:1000F000391B0008391B0008391B0008391B000890
:10010000391B0008391B0008391B0008391B00087F
:10011000391B0008391B00083D1A0008391B00086C
:100120004D1A0008391B0008391B0008391B00084C
:10013000391B00080000000000000000391B000807
:10014000391B0008391B0008391B00085D1A00081C
:10015000391B0008391B0008391B0008391B00082F
:10016000391B0008391B0008391B0008391B00081F
:10017000391B0008391B00080000000000000000C7
:08018000391B0008391B0008BF
:1001900010B5054C237833B9044B13B10448AFF3C1
:1001A00000800123237010BD5808002000000000CB
:1001B0008072000808B5034B1BB103490348AFF335
:1001C000008008BD000000005C080020807200086C
:1001D00053B94AB9002908BF00281CBF4FF0FF31AE
:1001E0004FF0FF3001F0DEB8ADF1080C6DE904CE40
:1001F00000F006F8DDF804E0DDE9022304B0704702
:100200002DE9F047089D04468E46002B4DD18A42C9
:10021000944669D9B2FA82F252B101FA02F3C2F1FC
:10022000200120FA01F10CFA02FC41EA030E94408D
:100230004FEA1C48210CBEFBF8F61FFA8CF708FBAE
:1002400016E341EA034306FB07F199420AD91CEB86
:10025000030306F1FF3080F01F81994240F21C81B8
:10026000023E63445B1AA4B2B3FBF8F008FB103300
:1002700044EA034400FB07F7A7420AD91CEB040435
:1002800000F1FF3380F00A81A74240F20781644405
:10029000023840EA0640E41B00261DB1D44000238A
:1002A000C5E900433146BDE8F0878B4209D9002DEE
:1002B00000F0EF800026C5E9000130463146BDE878
:1002C000F087B3FA83F6002E4AD18B4202D38242E2
:1002D00000F2F980841A61EB030301209E46002D91
:1002E000E0D0C5E9004EDDE702B9FFDEB2FA82F2E6
:1002F000002A40F09280A1EB0C014FEA1C471FFA44
:100300008CFE0126200CB1FBF7F307FB131140EA2A
:1003100001410EFB03F0884208D91CEB010103F1F7
:10032000FF3802D2884200F2CB804346091AA4B2B9
:10033000B1FBF7F007FB101144EA01440EFB00FE8D
:10034000A64508D91CEB040400F1FF3102D2A645F2
:1003500000F2BB800846A4EB0E0440EA03409CE791
:10036000C6F12007B34022FA07FC4CEA030C20FA3E
:1003700007F401FA06F31C43F9404FEA1C4900FA5E
:1003800006F3B1FBF9F8200C1FFA8CFE09FB1811DB
:1003900040EA014108FB0EF0884202FA06F20BD94E
:1003A0001CEB010108F1FF3A80F08880884240F29E
:1003B0008580A8F102086144091AA4B2B1FBF9F0E2
:1003C00009FB101144EA014100FB0EFE8E4508D9DD
:1003D0001CEB010100F1FF346CD28E456AD9023862
:1003E000614440EA0840A0FB0294A1EB0E01A14247
:1003F000C846A64656D353D05DB1B3EB080261EBB5
:100400000E0101FA07F722FA06F3F1401F43C5E98E
:10041000007100263146BDE8F087C2F12003D840C4
:100420000CFA02FC21FA03F3914001434FEA1C4706
:100430001FFA8CFEB3FBF7F007FB10360B0C43EAF8
:10044000064300FB0EF69E4204FA02F408D91CEBA8
:10045000030300F1FF382FD29E422DD902386344A6
:100460009B1B89B2B3FBF7F607FB163341EA034146
:1004700006FB0EF38B4208D91CEB010106F1FF3895
:1004800016D28B4214D9023E6144C91A46EA00468C
:1004900038E72E46284605E70646E3E61846F8E61E
:1004A0004B45A9D2B9EB020864EB0C0E0138A3E767
:1004B0004646EAE7204694E74046D1E7D0467BE748
:1004C000023B614432E7304609E76444023842E7C0
:1004D00003685A004CBF43F0004323F00043184424
:1004E000704700BF2DE9F84329B34F1E0446154657
:1004F0003E464FF0000808EB060101EBD1714910B0
:1005000004EBC1094846FFF7E3FF0346C800083083
:100510008F42204409D0AB4209D8FFF7D9FF0138F8
:10052000A8420AD201F10108E5E7AB4205D98845A6
:1005300001D04E1EDFE74FF000094846BDE8F883C2
:10054000012807D0022807D0044B00280CBF18460A
:10055000002070470248704702487047190C000895
:100560001D0C0008210C000830B5234B83B0044655
:100570008D1E3BB301A92846AFF30080E8B1019975
:100580002A46FFF7AFFF0146B8B1FFF7A1FF4B685E
:10059000A064012B2CD0002B01F1040024DBFFF719
:1005A00097FF0023C4E913030368002B11DBFFF757
:1005B0008FFF2061002003B030BD0023092023619C
:1005C00003B030BD0D4B0E49C91AC9101846019130
:1005D000D6E7C3F30360FFF7B3FF0028206114BF21
:1005E0000020092003B030BD0123C4E91303DBE779
:1005F000002323610520DEE70000000020730008CF
:10060000087400080368DA0710B5044606D49B078F
:1006100000F1480009D500F05BFC2368590709D5B3
:100620001A070ED5DB0613D510BD00F049FC236870
:100630005907F5D404F1D00000F052FC23681A07E2
:10064000F0D404F5A87000F053FC2368DB06EBD46B
:1006500004F5E870BDE8104000F08EBC092070473A
:100660000346006800B11844704700BF704700BFE0
:1006700070B504460E46316C2046FFF775FF0546FF
:1006800088B9326C6261236932462146012098475D
:100690000828F0D0072806D12846316CFFF7E6FF7E
:1006A000301D00F001FC06F0D1FA00BF2DE9F04743
:1006B0000D1DD0F80C80D0F81890074614460FCDC9
:1006C000ADF5727D0DF10C0CACE80F000FCDACE870
:1006D0000F000FCDACE80F0095E80F0002AE4FF011
:1006E000000E8CE80F00C6F800E020E0336C7B6160
:1006F0004FF4F07231467AA800F056FE3B697AAAB0
:10070000394650469847889B73642146CDE9006975
:1007100005463B463A460120C0470446E0B94FF43F
:10072000F0727AA9304600F03FFE082D1AD1316CE4
:100730003846FFF719FF09345FFA84FA05460028A6
:10074000D4D0B36B73643A46CDE900693B464AF0B6
:1007500010010120C04700B1092528460DF5727D22
:10076000BDE8F087072DF7D12046316CFFF77EFFFB
:1007700003A800F099FB00BF406C7047F0B5CB6B4D
:100780000B6401F1040C0E460546BCE80F00F9B0FD
:1007900001AC0FC4BCE80F000FC4BCE80F000FC4CD
:1007A0009CE80F004FF0FF3784E80F00009706E049
:1007B0002B696A46294698470828044608D11099AB
:1007C0002846FFF7D1FE0028F2D0092079B0F0BD0D
:1007D0006846FFF717FF062CF7D131462846FFF78A
:1007E00047FF00BFC160D96B8261196400221946BE
:1007F0005CE700BF70B5C66843690B64AEB90369B6
:100800000A4604460D46014602209847072805D0AF
:1008100008280FD129462046FFF72AFF3046296CC9
:10082000FFF724FF281D00F03FFB0122FFF73EFFEA
:1008300006F00CFA06F00AFAC2681AB1CA6B0A642A
:10084000002233E79AE700BF704700BF8368014684
:100850000BB1012018477047012912D009D873B98C
:100860000F2A0CD800EB820218465368009A1360D6
:1008700070470339012994BF0120022070470220EC
:1008800070470846704700BF00B585B00A46002390
:1008900003A900911946FFF7DFFF039805B05DF843
:1008A00004FB00BF012912D009D873B90F2A0CD854
:1008B00000EB8200009A12684260184670470339C4
:1008C000012994BF0120022070470220704708468A
:1008D000704700BF10B584B0002303AC03920094AE
:1008E0000A461946FFF7DEFF04B010BD70B5D36BA2
:1008F000136402F1040C05460C46BCE80F00ADF58C
:100900000E7D0DF15C0EAEE80F00BCE80F00AEE806
:100910000F00BCE80F00AEE80F009CE80F004FF09E
:10092000FF368EE80F00169610E0FFF7D3FF214642
:1009300016A8A847034616AA6946082083B9049B4F
:100940009847052806460CD0092809D026996846FC
:10095000FFF70AFE03466A460C2116A8002BE4D0D6
:10096000092616A8FFF74EFE30460DF50E7D70BD28
:100970002DE9F04FCC6C89B01E4654F8043B069428
:100980000D46174600F00308002E79D01A0C1B0400
:1009900005938DF81D200223D2B204EB82048DF85A
:1009A0001C302B6DB8F1020F08BFAC6B13F00103C4
:1009B0000CD005A9384600F079FB18B9082009B019
:1009C000BDE8F08F092009B0BDE8F08FD4F800A091
:1009D000BAF1000FEDD0019300F008030293022E4C
:1009E0004AD0B4F800A0B4F802900434AB6C29F0FB
:1009F000010B0F2138469B44FFF746FF834539D84A
:100A00002AF001039B44834594BF002001204FEA54
:100A1000490303F002030AF0010A43EA0A03012B27
:100A200049D0022B32D0002BCCD1B8F1000F02D02C
:100A3000002840F0CD800434D4F800A0BAF1000FB3
:100A4000CDD105A9384600F031FB0028BAD1019B71
:100A5000002BB3D00F213846FFF716FF0E210246B8
:100A60003846FFF737FF38466A4A0F21FFF732FF53
:100A70000720A8E70020CAE7D4F804900834B5E7B7
:100A80001B0205930323ADF81C308AE7236823F08B
:100A9000004BB8F1000F45D128B1029A002A5CD072
:100AA000BBF1000F74D0002B00DA04340BF1010B02
:100AB00004EB8B04C0E7B8F1000F19D1B0B1636843
:100AC0002268991C4FEAD2723FF47CAF05F15801BD
:100AD0000133049100F09080201DFFF7C1FD04ABAD
:100AE00001462846AFF3008000285BD10834A3E715
:100AF0000D213846D5F82090FFF7C6FE8145F5D187
:100B0000AB6A9C42F2D12046FFF7E2FC0F2102467D
:100B10003846FFF7DFFE38462A460021FFF7DAFEA7
:100B2000072050E70D213846D5F82090FFF7ACFE9E
:100B3000814501D02368B6E7AB6A9C42FAD1042311
:100B40000022C5E90B23E318C5F828B06B632368BE
:100B5000002B59DB01230193A8E705F15803CDF8D9
:100B60000C8004F1040AB04691461E460EE0504641
:100B70000496FFF775FD0022014604AB284609F1F3
:100B800001090AF1040AAFF30080E0B9D945EED1BA
:100B90000D213846FFF778FE049BAC62C5E90803D7
:100BA000062010E781460D213846FFF76DFEB9F1AA
:100BB000020F286225D12B46049A43F82C2F6B6232
:100BC000AC620620FFE646462368DDF80C806AE743
:100BD0002046FFF77DFC04340246AC6328461446E9
:100BE000AFF3008000283FF4EDAE384622460F21D7
:100BF000FFF770FE0720E6E60D213846FFF744FEBA
:100C00002862049B6B62DBE70BF1010004EB8000C0
:100C10007AE700BF000000000023A9E60123A7E651
:100C20000223A5E62DE9F0430646C3B015461C464F
:100C3000042900F2BF80DFE801F09E57BD2D0300BC
:100C4000002C40F0B780102A00F2B4800368D80668
:100C500000F1F98020AF384600F098F9B46B3946BE
:100C600000234FF0010C0CFA03F22A42204603F154
:100C7000010303D050F8042B0A600446042B01F151
:100C80000401F0D13846B46300F076F9002043B097
:100C9000BDE8F083032C40F08D8094B204EB124346
:100CA000102B4FEA124500F2858003681F0700F100
:100CB000D28020AF384600F03DF9B26B07EBC5019A
:100CC00054B10B46D01A01EBC401E4001D5843F89F
:100CD000045B8B42FAD122443846B26300F008F933
:100CE000002043B0BDE8F083012C4FEA124895B2D2
:100CF0005CD0052C5ED108EB0509B9F1200F59D85D
:100D0000B8F10F0F79D9A946002D40F08A80B36B56
:100D10006DB320AF4FF0000907EBC807043F03EBAA
:100D2000C50553F8041B47F8041FAB42F9D1B9F1CC
:100D3000000F0FD06F464146102938BF102107EB36
:100D4000C101843903EBC90553F8040B41F8040FC2
:100D5000AB42F9D1012C00F08680B8F10F0FB563DA
:100D600047D9B9F1000F02D0684600F0B9F8002069
:100D700043B0BDE8F083ECB9806B23461FFA82FCD8
:100D80000124371D04FA03F212EA0C0F014604D0C5
:100D900051F8042B47F8232008460133102BF1D1DA
:100DA00015F40055E3D1B063284604E008EB0503D1
:100DB000102B03D9022043B0BDE8F083B8F10F0F28
:100DC000F8D83368DA0706D5304623F0030340F835
:100DD000483B00F079F820AF384600F075F8B36B67
:100DE000002D97D11D460435B563384600F068F8EC
:100DF000BDE720A800F06CF8B3E7B9F1100F40D9B7
:100E0000A9F110093368D90708D523F0010330464A
:100E100043F0020340F8483B00F05EF8B9F1000FE0
:100E200032D033685A0720D4B8F10F0F25D96F4656
:100E30003846C8F1100500F057F8002DB36B7FF766
:100E40007AAF20AF68E723F01003336006F5E8704F
:100E500000F09CF8FEE623F00803036000F5A8709C
:100E600000F068F825E720AFBDE7304623F0040323
:100E700040F8D03B00F038F8D6E720A800F02CF876
:100E8000D5E74FF00009BDE7B8F10F0F3FF63FAFD0
:100E900020AF384600F020F8B36B002D7FF43AAF56
:100EA000384600F015F862E700F1340191E83800A7
:100EB0009C46A6464CF8045D90E8FF0FE54600BD51
:100EC00090EC210B704700BF80EC210B704700BFF6
:100ED00090EC200B704700BF80EC200B704700BFE8
:100EE000D0EC200B704700BFC0EC200B704700BF58
:100EF000F0EC0201F0EC0211F0EC0221F0EC023116
:100F0000F0EC0241F0EC0251F0EC0261F0EC027105
:100F1000F0EC0281F0EC0291F0EC02A1F0EC02B1F5
:100F2000F0EC02C1F0EC02D1F0EC02E1F0EC02F1E5
:100F3000704700BFE0EC0201E0EC0211E0EC02219E
:100F4000E0EC0231E0EC0241E0EC0251E0EC026145
:100F5000E0EC0271E0EC0281E0EC0291E0EC02A135
:100F6000E0EC02B1E0EC02C1E0EC02D1E0EC02E125
:100F7000E0EC02F1704700BFB0FC0181B0FC0191D0
:100F8000B0FC01A1B0FC01B1704700BFA0FC018121
:100F9000A0FC0191A0FC01A1A0FC01B1704700BF21
:100FA000EC4600B52DE900502DE9FF1F4FF000037E
:100FB0002DE90C0001A9FFF7E1FBDDF840E012B0DC
:100FC000704700BFEC4600B52DE900502DE9FF1F2A
:100FD0004FF000032DE90C0001A9FFF70BFCDDF831
:100FE00040E012B0704700BFEC4600B52DE900505C
:100FF0002DE9FF1F4FF000032DE90C0001A9FFF7B9
:101000001BFCDDF840E012B0704700BFEC4600B5B5
:101010002DE900502DE9FF1F4FF000032DE90C00D2
:1010200001ABFFF7DFFBDDF840E012B0704700BF17
:10103000EC4600B52DE900502DE9FF1F4FF00003ED
:101040002DE90C0001AAFFF751FCDDF840E012B0D9
:10105000704700BF027A03467AB9427AA2B141686A
:10106000013A10B44272086803220C1D1A7202027F
:101070005C60000E10BC1A6070470068013A1A727A
:1010800002021A60000E7047B020704700B585B0AC
:10109000002303AA009219460C22FFF7DDFB0398F8
:1010A00005B05DF804FB00BFF0E700BF2DE9F04399
:1010B000054685B00E464FF000083046FFF7CAFFE0
:1010C000B028044600F0BA80070620D500F0F003EF
:1010D000802B4DD0902B36D0A02B60D0B02B74D06D
:1010E000C02B00F08B8000F0F803D02B0BD100F068
:1010F00007020132052342F4002201212846FFF7AE
:1011000091FD0028D9D0092005B0BDE8F083830007
:10111000DBB21F1D0DF10C0900231946CDF800901C
:101120000D222846FFF798FB039BCDF80090600640
:101130004CBFDF1BFF1800230D22194628460397DA
:10114000FFF7B0FBB9E700F00D030D2BDBD003AFC9
:10115000002300F00F02194600972846FFF77CFB9A
:10116000002300970D2219462846FFF79BFBA4E7B2
:101170003046FFF76FFF24022043B0F5004FC2D086
:1011800004010023A2B219462846FFF74BFD0028B0
:10119000B9D114F4004F18BF4FF001088DE7C243D6
:1011A00002F007034FF47F621A41010702F47F62E5
:1011B0004FF0000348BF42F4804219462846FFF72B
:1011C00031FD00283FF479AF9DE7B1283BD0B2282C
:1011D00000F09380B32841D000F0FC03B42B92D0F0
:1011E00000F007020132012342F40022194628468A
:1011F000FFF718FD00283FF460AF84E7C6284AD007
:10120000C72854D000F0F803C02B63D0C82868D09A
:10121000C9287FF478AF3046FFF71CFF020300F0C7
:101220000F0002F4702201300243012105232846F9
:10123000FFF7F8FC00283FF440AF64E7B8F1000F77
:1012400018D0002060E73046FFF704FF0246002870
:101250003FF459AF10F0F003C8D054E73046FFF721
:10126000F9FE020300F00F03013302F470221A4367
:101270000123BBE703AC43460E22414600942846B7
:10128000FFF7EAFA009443460F2241462846FFF74B
:1012900009FB404638E73046FFF7DCFE020300F06A
:1012A0000F03013302F470221A4303239EE73046F2
:1012B000FFF7D0FE024600283FF425AF10F0F00300
:1012C0007FF421AF04212846FFF7ACFC00283FF44F
:1012D000F4AE18E700F00F020132032342F420229B
:1012E00084E73046FFF7B6FE00F0F00200F00F038F
:1012F0001032013343EA023297E700230DF10C0963
:101300000D221946CDF800902846FFF7A5FA304681
:10131000FFF7A0FE02064FF002040CD5039B00F07D
:101320007F00A040184403903046FFF793FE030669
:1013300004F10704F2D4039BCDF8009000F07F0283
:10134000A24003F501731A440023039219460D22AB
:101350002846FFF7A7FAB0E610B5C26C536884B010
:101360004FF0030C08321C0208461B0E01A9019421
:1013700002928DF80CC08DF80D30FFF797FE04B087
:1013800010BD00BF08B5FFF78FFE806C08BD00BF21
:1013900008B5FFF789FEC06CC379023300EB830008
:1013A00008BD00BF704700BF844641EA000313F048
:1013B00003036DD1403A41D351F8043B40F8043B5C
:1013C00051F8043B40F8043B51F8043B40F8043B1F
:1013D00051F8043B40F8043B51F8043B40F8043B0F
:1013E00051F8043B40F8043B51F8043B40F8043BFF
:1013F00051F8043B40F8043B51F8043B40F8043BEF
:1014000051F8043B40F8043B51F8043B40F8043BDE
:1014100051F8043B40F8043B51F8043B40F8043BCE
:1014200051F8043B40F8043B51F8043B40F8043BBE
:1014300051F8043B40F8043B403ABDD2303211D35E
:1014400051F8043B40F8043B51F8043B40F8043B9E
:1014500051F8043B40F8043B51F8043B40F8043B8E
:10146000103AEDD20C3205D351F8043B40F8043B5E
:10147000043AF9D2043208D0D2071CBF11F8013B5C
:1014800000F8013B01D30B8803806046704700BF22
:10149000082A13D38B078DD010F003038AD0C3F131
:1014A0000403D21ADB071CBF11F8013B00F8013B13
:1014B00080D331F8023B20F8023B7BE7043AD9D3D2
:1014C000013A11F8013B00F8013BF9D20B780370A7
:1014D0004B7843708B7883706046704708B5012164
:1014E000034801F0FFF84FF4FA7003F0F0FCF6E760
:1014F0000004024000B58BB000F0E6F800F0EAF816
:1015000003F058FC2422002101A805F0D1FB094B6F
:1015100001934FF4007306931823079301AA002147
:10152000054803F075FC03F057FC00200BB05DF894
:1015300004FB00BF98720008DD14000810B58CB0E1
:101540000024089409940A940B94202221466846AA
:1015500005F0AEFB2D482E4B03604FF48033436003
:10156000846001230361037680F82040C462294A25
:101570008262C460C36180F83030436100F0A4FB34
:10158000002833D10A2308930123099300230A93E7
:1015900008A91E4800F0C4FB58BB0A23009301238E
:1015A0000193032304930023029307931A4A06929C
:1015B0008DF815308DF8143003936946134800F008
:1015C0007BFCC8B90B2300930223019369460F48A3
:1015D00000F072FC98B90C23009303230193694631
:1015E0000A4800F069FC68B90CB010BD00F0FEF8C4
:1015F000C8E700F0FBF8D0E700F0F8F8E2E700F009
:10160000F5F8E8E700F0F2F8EEE700BF7408002014
:10161000002001400100000F01000F0030B589B02B
:10162000002303930493059306930793026803F141
:10163000804303F590339A4201D009B030BD04468F
:101640000025019503F58C335A6C42F480725A647C
:101650005A6C02F480720192019A02951A6B42F060
:1016600004021A631B6B03F004030293029B07231B
:1016700003930323049303A9104800F03BFF104891
:10168000104B036045608560C5604FF48063036163
:101690004FF4006343614FF4005383614FF4807350
:1016A000C3610562456200F0D1FD18B9044BA36324
:1016B0009C63C2E700F09AF8F8E700BF0008024018
:1016C000BC0800201064024008B500F037FA00F0B2
:1016D0008FF808BD08B500F023F800F007F8FFF711
:1016E0002DFF00F0D9F8012008BD000000B583B03F
:1016F00000220192094B196B41F4800119631B6BA5
:1017000003F480030193019B0521382000F0EEFCD7
:10171000382000F023FD03B05DF804FB00380240E0
:10172000F0B58BB0002405940694079408940994AE
:101730000194254B1A6B42F080021A631A6B02F077
:1017400080020192019A02941A6B42F004021A6319
:101750001A6B02F004020292029A03941A6B42F08E
:1017600002021A631A6B02F002020392039A0494B3
:101770001A6B42F001021A631B6B03F0010304931E
:10178000049B124F22462321384600F0A5FF104D3E
:1017900022464FF40071284600F09EFF2323059354
:1017A000012606960794089405A9384600F0A2FE83
:1017B0004FF40073059306960794089405A92846EC
:1017C00000F098FE0BB0F0BD00380240000402406B
:1017D0000008024008B50268034B9A4200D008BDD9
:1017E00000F0C6F9FBE700BF0010004072B6FEE74C
:1017F00000B595B03022002108A805F059FA002361
:10180000039304930593069307930193204A116C65
:1018100041F080511164126C02F080520192019AE1
:1018200002931C4B1A6842F480421A601B6803F44E
:1018300080430293029B012308934FF48033099362
:1018400002230E934FF480020F9204221092A822DA
:10185000119212930723139308A801F079FC98B909
:101860000F23039302230493002305934FF4A05303
:1018700006934FF480530793052103A801F0CEFE91
:1018800020B915B05DF804FBFFF7B0FFFFF7AEFF1E
:10189000003802400070004008B50D480D4B036051
:1018A0004FF48273436000238360C360036143612C
:1018B0004FF400728261C3610362436283620A2350
:1018C000C36201F08FFF00B908BDFFF78FFFFBE790
:1018D0001C090020003C004000B589B000230393A0
:1018E00004930593069307930268154B9A4202D01E
:1018F00009B05DF804FB0021019103F5FE331A6C79
:1019000042F400421A641A6C02F400420192019AF5
:1019100002911A6B42F004021A631B6B03F004037A
:101920000293029B4FF4E053039302230493032397
:1019300006930623079303A9024800F0DBFDD7E7CF
:10194000003C00400008024000B583B00022009235
:101950000D4B596C41F480415964596C01F480413C
:10196000009100990192196C41F0805119641B6C2F
:1019700003F080530193019B0F216FF0010000F0F1
:10198000B5FB03B05DF804FB0038024030B589B008
:10199000044600230193214B1A6C42F010021A6492
:1019A0001B6C03F010030193019B02A903A801F033
:1019B000FBFE069BCBB901F0E7FE03461848A0FBEF
:1019C00003239B0C013B1748174A026040F2E732A1
:1019D000C2604360002303618360836102F0C6F844
:1019E000054630B1284609B030BD01F0CDFE4300B8
:1019F000E4E70C4801F056FF05460028F2D13620F6
:101A000000F0ACFB0F2C01D90125EBE700222146A9
:101A1000362000F06BFB054B1C60E3E7003802400A
:101A200083DE1B43740900200010004008000020E2
:101A3000FEE7FEE7FEE7FEE7FEE7704708B502486F
:101A400001F078FF08BD00BF7409002008B5024806
:101A500000F062FC08BD00BFBC08002008B50248C9
:101A600001F096F808BD00BF745B002001207047AC
:101A700008B505F0F3F8162303604FF0FF3008BDFA
:101A800008B54FF0FF31FFF7F3FFFEE710B503464F
:101A90000C4A0D490D48006840B10C4800680344E9
:101AA000521A934206D8094A136010BD0748084CE1
:101AB0000460F2E705F0D2F80C2303604FF0FF302A
:101AC000F3E700BF0000022000040000BC09002072
:101AD00090600020034AD2F8883043F47003C2F8C3
:101AE0008830704700ED00E0DFF834D0FFF7F2FFF8
:101AF0000C480D490D4A002302E0D458C450043369
:101B0000C4188C42F9D30A4A0A4C002301E013603E
:101B10000432A242FBD305F0A7F8FFF7EBFC7047B5
:101B20000000022000000020540800201474000867
:101B30005808002090600020FEE7000008B50B4B1D
:101B40001A6842F400721A601A6842F480621A60DD
:101B50001A6842F480721A60032000F0B5FA0F2070
:101B6000FFF714FFFFF7F0FE002008BD003C024025
:101B7000034A1168034B1B780B441360704700BF86
:101B8000C009002004000020014B1868704700BF06
:101B9000C00900204A4B5A6822F440325A605A6801
:101BA00041680A435A600268536823F480735360A3
:101BB00002685368016943EA01235360026853686D
:101BC00023F0407353600268536881680B4353608D
:101BD0000268936823F40063936002689368C168A5
:101BE0000B439360826A374B9A4257D002689368DE
:101BF00023F07063936002689368816A0B4393607B
:101C00000268936823F04053936002689368C16A46
:101C10000B4393600268936823F0020393600268A9
:101C20009368017E43EA4103936090F82030002BD3
:101C30003FD00268536843F40063536002685368FE
:101C400023F46043536001684B68426A013A43EAF7
:101C500042334B600268D36A23F47003D362016895
:101C6000CB6AC269013A43EA0253CB6202689368C5
:101C700023F4007393600268936890F8301043EA8D
:101C8000412393600268936823F480639360026841
:101C90009368416943EA81239360704702689368BF
:101CA00023F0706393600268936823F0405393605D
:101CB000B0E70268536823F400635360CAE700BFCB
:101CC000002301400100000F38B310B50446036C37
:101CD00043B1236C13F0100F0BD00120002384F8C4
:101CE0003C3010BDFFF79AFC0023636484F83C305D
:101CF000EFE7236C23F4885323F0020343F002033D
:101D000023642046FFF746FF00206064236C23F025
:101D1000030343F001032364E0E701207047000060
:101D200030B482B00023019390F83C30012B00F0D6
:101D3000BB80012380F83C300B68092B41D9046833
:101D4000E2689BB203EB43031E3B4FF0070C0CFA17
:101D500003F322EA0303E3600468E2680B8803EB01
:101D600043031E3B8D6805FA03F31343E3604B689E
:101D7000062B3DD80468626B03EB8303053B4FF0F1
:101D80001F0C0CFA03F322EA030363630468626B1B
:101D90004B6803EB8303053BB1F800C00CFA03F377
:101DA000134363630268414B9A4251D002683F4B30
:101DB0009A4256D0002380F83C30184602B030BC1E
:101DC0007047046822699BB203EB43034FF0070C92
:101DD0000CFA03F322EA03032361046822690B88E7
:101DE00003EB43038D6805FA03F313432361BEE756
:101DF0000C2B16D805682A6B03EB8303233B1F24A7
:101E000004FA03F322EA03032B6305682A6B4B6889
:101E100003EB8303233B0C8804FA03F313432B6384
:101E2000C0E70568EA6A03EB8303413B1F2404FA19
:101E300003F322EA0303EB620568EA6A4B6803EBEB
:101E40008303413B0C8804FA03F31343EB62A9E7D5
:101E50000B68122BAAD1164A536843F480035360CF
:101E6000A4E70B68103B012BA4D8114A536843F434
:101E7000000353600B68102B9CD10E4B1B6802F1C2
:101E8000467202F52E3202F28332A2FB03239B0C30
:101E900003EB83035B00019302E0019B013B019391
:101EA000019B002BF9D185E7022087E70020014044
:101EB000002301400000002090F83C30012B00F08E
:101EC000FB8030B4012380F83C300B68092B7FD9AC
:101ED0000568EA689BB203EB43031E3B072404FA40
:101EE00003F322EA0303EB600568EA688C680B8859
:101EF00003EB43031E3B04FA03F31343EB60026856
:101F0000936B23F4401393630468A36B0A69013A4B
:101F100043EA0253A3630468A26B4B680D695B1B21
:101F2000DBB20333DBB203EB83034FF01F0C0CFA7D
:101F300003F322EA0303A3630468A26B4B680D69F1
:101F40005B1BDBB20333DBB203EB8303B1F800C0EE
:101F50000CFA03F31343A3638A69584B9A424DD09A
:101F60000268936823F470239360026893688C6915
:101F7000234393600268936823F4401393600268DC
:101F80009368CC69234393604B7D002B41D002685A
:101F9000536843F4806353600B7D002B3FD002688D
:101FA000536843F4805353604B68022B57D0032B84
:101FB00062D0012B39D00268136A23F47F6323F0C7
:101FC0000F0313620268136ACC682343136238E07C
:101FD00005682A699BB203EB4303072404FA03F361
:101FE00022EA03032B6105682A698C680B8803EBDE
:101FF000430304FA03F313432B6180E702689368F9
:1020000023F4702393600268936823F44013936071
:10201000BAE70268536823F480635360BCE7026840
:10202000536823F480535360BEE70268536923F476
:102030007F6323F00F03536102685369CC68234325
:10204000536102681E4B9A4223D002681C4B9A428D
:1020500028D0002380F83C30184630BC7047026816
:10206000936923F47F6323F00F03936102689369FC
:10207000CC6823439361E4E70268D36923F47F6368
:1020800023F00F03D3610268D369CC682343D36183
:10209000D7E70B68122BD8D10A4A536843F4800360
:1020A0005360D2E70B68103B012BD2D8054A536826
:1020B00043F400035360CCE70220704701000F0097
:1020C0000020014000230140074AD36823F4E06365
:1020D0001B041B0C000200F4E060034343F0BF63E9
:1020E00043F40033D360704700ED00E000B5194BB6
:1020F000DB68C3F30223C3F1070CBCF1040F28BF54
:102100004FF0040C03F1040EBEF1060F18D9033B87
:102110004FF0FF3E0EFA0CFC21EA0C0199400EFA3A
:1021200003F322EA0303194300280BDB0901C9B2B8
:1021300000F1604000F5614080F800135DF804FB99
:102140000023E5E700F00F000901C9B2024B195462
:10215000F4E700BF00ED00E014ED00E0002807DB2D
:1021600000F01F02400901239340024A42F8203048
:10217000704700BF00E100E010B40368D9B2103925
:102180000C4AA2FB014212090B4CA25CC2655F29FA
:1021900009D923F47F7323F0030304338365806D2F
:1021A0005DF8044B704723F47F7323F003038365CA
:1021B000F5E700BFABAAAAAAC0720008836A8269C9
:1021C00092B9012B0AD0022B02D00BB1002070472C
:1021D000C36A13F0807F28D100207047C36AB3F12F
:1021E000C07F24D000207047B2F5005F09D0022BD9
:1021F00025D9032B25D1C36A13F0807F23D100207A
:102200007047032B03D8DFE803F01404140A0020FE
:102210007047C36A13F0807F0DD100207047C36AF6
:10222000B3F1C07F09D00020704701207047012022
:10223000704701207047012070470120704701203E
:1022400070470020704701207047000070B50446B9
:10225000FFF79AFC002C5BD00546022384F835304A
:10226000002384F834302268136823F001031360DC
:1022700023681A6812F0010F0AD0FFF785FC431B90
:10228000052BF5D920236365032084F8350070BD44
:102290001A68204810406168A2680A43E1680A434E
:1022A00021690A4361690A43A1690A43E1690A4352
:1022B000216A0A430243616A04291ED01A60266813
:1022C000756925F00705636A1D43042B07D1A36ACE
:1022D0001D43E36A1BB12046FFF770FF90B975619B
:1022E0002046FFF749FFE26D3F23934083600020C3
:1022F0006065012384F83530C9E7E16A206B01434A
:102300000A43DBE740236365012084F83500BEE71C
:102310000120BCE73F8010F0F0B583B004460023F5
:102320000193724B1D68724BA3FB0535AD0A876D97
:102330003E68C26D08239340334210D003681A6888
:1023400012F0040F0BD01A6822F004021A60C26D5A
:1023500008239340BB60436D43F001034365E26D86
:1023600001239340334209D02268526912F0800F52
:1023700004D0BB60636D43F002036365E26D042328
:102380009340334209D02268126812F0020F04D041
:10239000BB60636D43F004036365E26D10239340FB
:1023A000334224D02268126812F0080F1FD0BB609D
:1023B00023681A6812F4802F0DD01B6813F4002FC5
:1023C00004D1236C9BB12046984710E0A36C73B1F5
:1023D000204698470BE01A6812F4807F03D11A68F0
:1023E00022F008021A60236C0BB120469847E26D78
:1023F00020239340334255D02268126812F0100F08
:1024000050D0BB6094F83530DBB2052B0ED023687A
:102410001A6812F4802F33D01B6813F4002F2AD1CE
:10242000636C002B3ED0204698473BE0226813683F
:1024300023F0160313602268536923F0800353616D
:10244000236CA3B12268136823F008031360E26DC4
:102450003F239340BB60012384F83530002384F888
:102460003430236D002B3FD0204698473CE0A36CCE
:10247000002BE7D1EBE7E36BA3B12046984711E0CF
:102480001A6812F4807F09D11A6822F010021A60CB
:10249000012384F83530002384F83430E36B0BB12A
:1024A00020469847636DFBB1636D13F0010F17D0A1
:1024B000052384F835302268136823F00103136084
:1024C000019B01330193AB4204D823681B6813F0CE
:1024D000010FF5D1012384F83530002384F834301E
:1024E000E36C0BB12046984703B0F0BD000000201C
:1024F000B5814E1B00230F2B00F2E48070B582B033
:1025000060E085685E000324B44025EA0405CC68D9
:10251000B4402C438460456825EA02054C68C4F346
:1025200000129A402A4342605AE0DC08083450F80E
:10253000246003F0070295000F22AA4026EA020E4B
:102540000A69AA4042EA0E0240F824205CE0072211
:1025500000E0002202FA0EF22A4302345A4D45F8F6
:1025600024205A4A94686FEA0C0224EA0C054E684B
:1025700016F4801F01D04CEA0405544CA560E468B1
:1025800002EA04054E6816F4001F01D04CEA040567
:102590004E4CE560646802EA04054E6816F4003F9C
:1025A00001D04CEA0405494C6560246822404D681E
:1025B00015F4803F01D04CEA0402444C2260013300
:1025C0000F2B7DD801229A400C6804EA020C32EAF3
:1025D0000404F4D14C6804F00304013C012C90D9AC
:1025E0004A6802F00302032A09D0C4685D0003228E
:1025F000AA4024EA02048A68AA402243C2604A68C8
:1026000002F00302022A90D004684FEA430E03222C
:1026100002FA0EF224EA02044A6802F0030202FA05
:102620000EF2224302604A6812F4403FC7D00022F3
:102630000192274A546C44F480445464526C02F46E
:1026400080420192019A9C08A51C1F4A52F825500D
:1026500003F003024FEA820E0F2202FA0EF225EA7D
:1026600002051C4A90423FF474AF02F5806290422A
:102670001AD002F58062904218D002F58062904232
:1026800016D002F58062904214D002F5806290422A
:1026900012D002F58062904210D002F58062904222
:1026A0003FF455AF082255E7012253E7022251E7D4
:1026B00003224FE704224DE705224BE7062249E7B4
:1026C00002B070BD704700BF00380140003C0140BF
:1026D00000380240000002400AB1816170470904DD
:1026E00081617047436901EA030221EA030141EA7B
:1026F0000241816170472DE9F04383B0D0F800803A
:1027000001EBC10300EB83039A6A5B6A9A4254D8D7
:1027100007460C469B1A01EBC10200EB8202D2690C
:102720009A4200D31A4602F103094FEA990915E0CB
:1027300006F103094FEA9909BB7904EBC40507EBDD
:102740008505296A0093B3B2E2B2404601F091FBDD
:102750002B6A33442B62AB6A3344AB6208EB4413FD
:1027600003F510639B699BB24B4512D304EBC40283
:1027700007EB8202916A536A99420AD24BB15B1A03
:1027800004EBC40207EB8202D6699E42D0D31E46F8
:10279000CEE704EBC40007EB80077A6ABB6A9A4273
:1027A0000FD804F00F040123A340D8F8344824EADA
:1027B0000304C8F83448002000E0012003B0BDE85D
:1027C000F0830020FAE7000070B504460D4600686B
:1027D000066C00EB411303F530639A68A179012977
:1027E00011D038498E4256D03DB905EBC50304EBF4
:1027F0008303D3F86432002B5ED0E9B2204604F0A4
:102800006AF9002070BD12F0080F09D02E498E42DF
:10281000F7D912F4004FF4D04FF400429A60F0E779
:1028200012F0200F02D020229A60EAE712F0280F5F
:10283000E7D125498E4206D912F4004F03D04FF458
:1028400000429A60DDE705EBC50204EB8202D2F894
:1028500074121B69C3F31203CB1AC2F868327DB934
:1028600005EBC50204EB8202D2F864226AB105EBE3
:10287000C50204EB8202D2F860120B44C2F8603247
:10288000E9B2204604F027F9BBE704F29C4201219B
:1028900001F004FDF4E712F4004F03D04FF40042BE
:1028A0009A60AEE712F0200F01D020229A60E9B2C0
:1028B000204604F010F9A4E704F29C42002101F044
:1028C000EDFC9AE70A31544F0A30544F38B50446AC
:1028D00003681D6C03EB4113D3F8081B0E4A9542A5
:1028E00007D903F5306311F4004F02D04FF40042D2
:1028F0009A60204604F0E7F8074B9D4202D9A3797D
:10290000012B01D0002038BD04F29C420121206837
:1029100001F0C4FCF6E700BF0A30544F90F894343D
:10292000012B0CD010B50446012380F89434417477
:10293000006801F05EFC002084F8940410BD0220C1
:10294000704738B505468C4611F0800F2BD101F049
:102950000F0E0EEBCE04A40004F514740444211DE4
:102960000EEBCE0E00EB8E0E00208EF855020CF012
:102970000F0C81F800C0C2F30A028A600B714A781A
:102980000AB1A1F81AC0022B1CD095F89434012B7F
:102990001BD0012385F89434286801F0BDF900208C
:1029A00085F8940438BD01F00F0000EBC0018900E8
:1029B00010312944043100EBC00005EB80000124F4
:1029C0004475D4E700234B71DFE70220EAE710B536
:1029D000144601F00F0C0CEBCC01890001F51471C9
:1029E000014404310CEBCC0E00EB8E0ECEF86022CD
:1029F000CEF864320023CEF868328EF855328EF865
:102A000054C28279012A04D0006801F049FA0020FA
:102A100010BDCEF87042F7E710B5144601F00F0C68
:102A20000CEBCC0189001031014404310CEBCC0ECD
:102A300000EB8E0ECEF82020CEF824300023CEF806
:102A4000283001238EF815308EF814C082799A420E
:102A500004D0006801F024FA002010BDCEF8304008
:102A6000F7E738B501F00F050279AA4238D30446DA
:102A70000B4611F0800F1FD101EBC101890001F558
:102A800014710144043103EBC30300EB8303002200
:102A900083F8552201238B700D7094F89434012B28
:102AA00020D0012384F89434206801F047FB85B1DD
:102AB000002084F8940438BD05EBC501890010316D
:102AC0000144043105EBC50300EB830301225A7571
:102AD000E0E704F29C42A179206801F0DFFBE7E720
:102AE0000120E8E70220E6E701F00F0302799A42AD
:102AF00030D310B5044611F0800F1ED103EBC30193
:102B0000890001F514710144043103EBC30200EBA9
:102B10008202002082F8550200228A700B7094F81D
:102B20009434012B18D0012384F89434206801F0E8
:102B300032FB002084F8940410BD03EBC30189002C
:102B400010310144043103EBC30200EB8202012087
:102B50005075E1E7012070470220EDE708B511F05C
:102B6000800F0CD101F00F0101EBC101890001F5CB
:102B7000147101440431006801F01CF908BD01F032
:102B80000F0101EBC1018900103101440431F2E76A
:102B90002DE9F04F83B004460568284601F06AFB32
:102BA00010B103B0BDE8F08F0646206801F031FB9C
:102BB0000028F6D005F50067BB68C3F30D23C4F801
:102BC000D434206801F025FB10F0020F04D02268F5
:102BD000536903F002035361206801F01AFB10F0FF
:102BE000100F13D02268936923F010039361D5F876
:102BF000208008F00F09C8F34343022B4BD0062B6B
:102C00006FD02268936943F010039361206801F04C
:102C100000FB10F4002F76D1206801F0FAFA10F4CE
:102C2000802F40F0E080206801F0F3FA0028C0F225
:102C30006181206801F0EDFA10F4006F09D0BB68E3
:102C400013F0010F40F06E812268536903F40063B2
:102C50005361206801F0DDFA10F4805F40F0668176
:102C6000206801F0D6FA10F4005F40F0B3812068CC
:102C700001F0CFFA10F0080F40F0C481206801F095
:102C8000C8FA10F0800F00F0D781AB6923F0800301
:102C9000AB610126C0E147F6F07318EA030FB0D02C
:102CA0004FEA181B4FEAC903019309EBC90A04EB69
:102CB0008A0AC8F30A12DAF86012284601F014FAF8
:102CC000CBF30A0BDAF860325B44CAF86032019B3E
:102CD0004B4404EB8303D3F868325B44CAF8683290
:102CE0008FE7082204F29C41284601F0FDF9C8F361
:102CF0000A1809EBC90204EB8202D2F86832434495
:102D0000C2F868327DE7206801F087FA8046B14654
:102D100035E005EB49130122C3F8082B494620464C
:102D2000FFF752FD3CE005EB49130822C3F8082BDE
:102D300049462046FFF7CAFD35E009EBC90304EB1D
:102D4000830393F85732012B41D005EB491302223C
:102D5000C3F8082B1AF0200F04D005EB49132022EA
:102D6000C3F8082B1AF4005F05D005EB49134FF4A4
:102D70000052C3F8082B09F101094FEA5808B8F1CD
:102D8000000F3FF449AF18F0010FF4D05FFA89FB50
:102D90005946206801F051FA824610F0010FB8D16F
:102DA0001AF0080FBFD11AF0100F04D005EB491329
:102DB0001022C3F8082B1AF0020FCBD06B6913F066
:102DC000800FBAD07B6843F480637B60B5E709EB82
:102DD000C90304EB8303002283F857225946204697
:102DE00003F0C8FEB1E7206801F01FFA8046B14643
:102DF00025E05946204603F07AFE1AF0080F04D069
:102E000005EB49130822C3F808291AF0100F04D063
:102E100005EB49131022C3F808291AF0400F04D01B
:102E200005EB49134022C3F808291AF0020F40D1DC
:102E30001AF0800F59D109F101094FEA5808B8F189
:102E4000000F3FF4F0AE18F0010FF4D05FFA89FBE9
:102E50005946206801F0FAF9824610F0010FCCD0F3
:102E600009F00F03012101FA03F27B6B23EA02034D
:102E70007B6305EB4913C3F80819A3798B42B8D1DA
:102E800009EBC90304EB8303D9691A6A0A441A627D
:102E9000B9F1000FADD109EBC90304EB83035B6A01
:102EA000002BA6D104F29C420121206801F0F6F922
:102EB0009FE74946284600F0F9FE09EBC90304EBF9
:102EC0008303DB7D012B05D005EB49130222C3F8F8
:102ED0000829ADE709EBC90304EB83030022DA7587
:102EE0005946204603F04CFEEEE749462046FFF7E0
:102EF00002FCA0E77B6823F001037B6094F8CC34EC
:102F0000012B08D0204603F02FFE2268536903F0FE
:102F1000004353618DE6002184F8CC14204600F074
:102F200015F9F2E7204603F007FE8DE67B6823F0F3
:102F300001037B601021206800F0B8FE1AE005EB69
:102F400046134FF67F31C3F80819D3F8002922F44D
:102F50000012C3F80029C3F8081BD3F8002B22F491
:102F60000012C3F8002BD3F8002B42F00062C3F824
:102F7000002B01362379B342E1D8FB6943F00113FA
:102F8000FB61E37BDBB1D7F8843043F00B03C7F878
:102F900084307B6C43F00B037B64D5F8003823F45A
:102FA000FE63C5F8003804F29C42A179206801F064
:102FB00075F92268536903F48053536150E67B69C5
:102FC00043F4005343F02B037B613B6943F00B0355
:102FD0003B61E2E7206801F051F9206800F08BFEC8
:102FE000E071266800F0CAFB0146E279304600F045
:102FF000EBFD204603F08CFD2268536903F4005377
:10300000536134E6204603F07DFD2268536903F0E6
:103010000803536132E601362379B3420CD906EB3B
:10302000C60304EB830393F85732012BF3D1F1B2BB
:103030002046FFF793FDEEE7206801F0EAF810F470
:10304000801F25D1206801F0E4F810F4001F59D04A
:10305000012326E001362379B3421BD905EB461341
:10306000D3F8002906EBC60304EB83031B7E012B78
:10307000F0D1002AEEDA06EBC60304EB830301224B
:10308000DA7566F07F01C9B22046FFF767FDE1E718
:103090000126E0E72268536903F480135361D1E706
:1030A000013322799A4228D905EB4312D2F8001B4A
:1030B00003EBC30204EB820292F85822012AEFD1FB
:1030C0000029EDDA01F48031D4F8D42402F00102B1
:1030D0009142E5D103EBC30204EB8202012182F8A5
:1030E0005712AA6942F08002AA616A6912F0800F41
:1030F000D6D17B6843F400737B602268536903F484
:1031000000135361206801F084F810F0804F10D153
:10311000206801F07EF810F0040F3FF442AD236800
:103120005D6815F0040F0DD1226853682B4353607E
:1031300037E5204603F02AFD2268536903F08043F7
:103140005361E5E7204603F027FDEDE770470000F7
:10315000002800F0E08170B582B00446036813F0E7
:10316000010F3BD09F4B9B6803F00C03042B2CD02A
:103170009C4B9B6803F00C03082B21D06368B3F5CC
:10318000803F4FD0B3F5A02F52D0964B1A6822F44F
:1031900080321A601A6822F480221A606368002B59
:1031A00050D0FEF7F1FC05468E4B1B6813F4003F30
:1031B00014D1FEF7E9FC401B6428F5D90320B1E1E6
:1031C000884B5B6813F4800FD8D0864B1B6813F4D0
:1031D000003F03D06368002B00F09F81236813F049
:1031E000020F54D07F4B9B6813F00C0F3ED07D4BE9
:1031F0009B6803F00C03082B33D0E368002B68D0E6
:10320000794B01221A60FEF7BFFC0546754B1B681F
:1032100013F0020F54D1FEF7B7FC401B0228F5D97A
:1032200003207FE16F4A136843F480331360B5E7EE
:103230006C4B1A6842F480221A601A6842F4803299
:103240001A60ABE7FEF7A0FC0546664B1B6813F45B
:10325000003FC3D0FEF798FC401B6428F5D903203B
:1032600060E1604B5B6813F4800FC6D15D4B1B6857
:1032700013F0020F03D0E368012B40F05081594A4C
:10328000136823F0F803216943EAC103136023683C
:1032900013F0080F42D063696BB3534B0122C3F89C
:1032A000802EFEF771FC05464E4B5B6F13F0020F4C
:1032B00034D1FEF769FC401B0228F5D9032031E127
:1032C000484A136823F0F803216943EAC1031360F5
:1032D000DDE7454B00221A60FEF756FC0546414BE0
:1032E0001B6813F0020FD2D0FEF74EFC401B0228E1
:1032F000F5D9032016E13C4B0022C3F8802EFEF7DF
:1033000043FC0546374B5B6F13F0020F06D0FEF708
:103310003BFC401B0228F5D9032003E1236813F08E
:10332000040F77D02F4B1B6C13F0805F33D1002339
:1033300001932C4B1A6C42F080521A641B6C03F000
:1033400080530193019B0125284B1B6813F4807F58
:1033500023D0A368012B34D0052B38D0214B1A6F12
:1033600022F001021A671A6F22F004021A67A3689A
:10337000002B3DD0FEF708FC06461A4B1B6F13F0DE
:10338000020F46D1FEF700FC801B41F288339842C1
:10339000F3D90320C6E00025D6E7144A136843F4A6
:1033A00080731360FEF7F0FB0646104B1B6813F4A6
:1033B000807FCED1FEF7E8FB801B0228F5D90320E1
:1033C000B0E0084A136F43F001031367CFE7054BE2
:1033D0001A6F42F004021A671A6F42F001021A676C
:1033E000C5E700BF003802400000474200700040BF
:1033F000FEF7CAFB0646524B1B6F13F0020F08D0B4
:10340000FEF7C2FB801B41F288339842F3D90320B8
:1034100088E0EDB9A369002B00F08380484A9268E8
:1034200002F00C02082A51D0022B17D0454B002283
:103430001A66FEF7A9FB0446414B1B6813F0007F98
:1034400042D0FEF7A1FB001B0228F5D9032069E05A
:103450003B4A136C23F080531364DBE7394B0022A3
:103460001A66FEF791FB0546354B1B6813F0007F8B
:1034700006D0FEF789FB401B0228F5D9032051E056
:10348000E369226A1343626A43EA8213A26A52081A
:10349000013A43EA0243E26A43EA0263284A53607C
:1034A000284B01221A66FEF76FFB0446244B1B686B
:1034B00013F0007F06D1FEF767FB001B0228F5D949
:1034C00003202FE000202DE000202BE0012B2BD04B
:1034D0001B4B5B6803F48001E269914226D103F043
:1034E0003F02216A8A4223D1616A47F6C0721A40BC
:1034F000B2EB811F1ED103F44031A26A5208013A97
:10350000B1EB024F18D103F07063E26AB3EB026FC4
:1035100014D1002006E001207047012002E00120C4
:1035200000E0002002B070BD0120FBE70120F9E7B8
:103530000120F7E70120F5E70120F3E70120F1E79B
:10354000003802400000474208B5314B9B6803F049
:103550000C03042B57D0082B57D12D4B5A6802F07F
:103560003F025B6813F4800F2AD0294B5968C1F3DE
:10357000881C4FEA4C11B1EB0C006EEB0E0E4FEABB
:103580008E1343EA90638101091A63EB0E03DB009B
:1035900043EA5173C90011EB0C0C43F100035902CB
:1035A00000234FEA4C2041EADC51FCF711FE184B96
:1035B0005B68C3F3014301335B00B0FBF3F025E02C
:1035C000134B5968C1F3881C4FEA4C11B1EB0C0046
:1035D0006EEB0E0E4FEA8E1343EA90638101091AD7
:1035E00063EB0E03DB0043EA5173C90011EB0C0CD3
:1035F00043F10003990200234FEA8C2041EA9C51D9
:10360000FCF7E6FDD3E7034800E0034808BD00BF30
:103610000038024000127A000024F400002800F074
:103620009B8070B50D4604464F4B1B6803F00703A3
:103630008B4208D2CBB24C4A1370136803F00703D5
:103640008B4240F08B80236813F0020F17D013F0E9
:10365000040F04D0454A936843F4E0539360236811
:1036600013F0080F04D0414A936843F46043936019
:103670003E4A936823F0F003A1680B4393602368EC
:1036800013F0010F32D06368012B21D09A1E012A5A
:1036900025D9364A126812F0020F61D033498A6880
:1036A00022F0030213438B60FEF76EFA06462F4B9F
:1036B0009B6803F00C036268B3EB820F16D0FEF731
:1036C00063FA801B41F288339842F0D9032042E02C
:1036D000264A126812F4003FE0D101203BE0234A61
:1036E000126812F0007FD9D1012034E01E4B1B6814
:1036F00003F00703AB4207D9EAB21B4B1A701B68F1
:1037000003F00703AB422DD1236813F0040F06D05A
:10371000164A936823F4E053E1680B4393602368EF
:1037200013F0080F07D0114A936823F4604321690E
:1037300043EAC1039360FFF707FF0C4B9B68C3F399
:1037400003130B4AD35CD8400A4B18600A4B186825
:10375000FEF71CF9002070BD012070470120FAE738
:103760000120F8E70120F6E7003C02400038024063
:10377000A87200080000002008000020014B186813
:10378000704700BF0000002008B5FFF7F7FF044BAB
:103790009B68C3F38223034AD35CD84008BD00BFB3
:1037A00000380240B87200080F2303600B4B9A6880
:1037B00002F0030242609A6802F0F00282609A68A6
:1037C00002F4E052C2609B68DB0803F4E05303613B
:1037D000034B1B6803F007030B607047003802407F
:1037E000003C024000285AD010B50446436A33B961
:1037F0004368B3F5827F05D00023C36102E0002354
:10380000036143610023A36294F85130002B40D040
:10381000022384F851302268136823F040031360B8
:10382000636803F48273A26802F404421343E268FB
:1038300002F400621343226902F002021343626938
:1038400002F001021343A26902F400721343E26919
:1038500002F038021343226A02F080021343A26A84
:1038600002F40052216813430B60638B03F00403DE
:10387000626A02F01002216813434B602268D36928
:1038800023F40063D36100206065012384F8513084
:1038900010BD84F850302046FEF71EF8B8E701202E
:1038A0007047704790F83D30DBB2012B37D10223CF
:1038B00080F83D300268D36843F00103D3600368A9
:1038C000194A934220D0B3F1804F1DD0A2F57C421B
:1038D000934219D002F58062934215D002F58062BE
:1038E000934211D002F5784293420DD002F5705206
:1038F000934209D0A2F59432934205D01A6842F05F
:1039000001021A60002070479A6802F00702062A36
:1039100007D01A6842F001021A60002070470120A7
:1039200070470020704700BF00000140704770479B
:103930007047704770B504460368DE681D6915F06E
:10394000020F10D016F0020F0DD06FF002021A61B4
:103950000123037703689B6913F0030F5ED0FFF721
:10396000E6FF0023237715F0040F12D016F0040FA2
:103970000FD023686FF004021A61022323772368B3
:103980009B6913F4407F4FD02046FFF7D0FF002300
:10399000237715F0080F12D016F0080F0FD0236808
:1039A0006FF008021A61042323772368DB6913F0A0
:1039B000030F40D02046FFF7BAFF0023237715F00E
:1039C000100F12D016F0100F0FD023686FF01002F6
:1039D0001A61082323772368DB6913F4407F31D011
:1039E0002046FFF7A4FF0023237715F0010F02D034
:1039F00016F0010F2DD115F0800F02D016F0800FB8
:103A00002FD115F0400F02D016F0400F31D115F034
:103A1000200F02D016F0200F33D170BDFFF786FFC4
:103A20002046FFF785FF9CE72046FFF77FFF2046F3
:103A3000FFF77EFFABE72046FFF778FF2046FFF752
:103A400077FFBAE72046FFF771FF2046FFF770FFC8
:103A5000C9E723686FF001021A612046FDF7BAFE3C
:103A6000C9E723686FF080021A61204600F0ABF8C6
:103A7000C7E723686FF040021A612046FFF759FF3D
:103A8000C5E723686FF020021A61204600F09AF81B
:103A9000C3E700000368344A904212D0B0F1804F6F
:103AA0000FD0A2F57C4290420BD002F5806290428A
:103AB00007D002F58062904203D002F5784290422E
:103AC00003D123F070034A681343274A90422AD057
:103AD000B0F1804F27D0A2F57C42904223D002F56E
:103AE000806290421FD002F5806290421BD002F5A6
:103AF0007842904217D002F57052904213D002F5EE
:103B0000806290420FD002F5806290420BD0A2F505
:103B10009832904207D002F58062904203D002F5BD
:103B20008062904203D123F44073CA68134323F0A8
:103B300080034A69134303608B68C3620B68836226
:103B4000094B984203D003F58063984201D10B6979
:103B5000036301234361036913F0010F03D0036979
:103B600023F00103036170470000014040B310B52A
:103B7000044690F83D30F3B1022384F83D302146ED
:103B800051F8040BFFF786FF012384F8463084F8D0
:103B90003E3084F83F3084F8403084F8413084F877
:103BA000423084F8433084F8443084F8453084F857
:103BB0003D30002010BD80F83C30FFF772FEDBE79F
:103BC0000120704770477047022A0AD00921C26855
:103BD00022F47052C260C36843EA8123C3600020AC
:103BE0007047234B0B44234A93422FD9224B0B445B
:103BF000224A93422CD9A1F57403A3F51053204A0D
:103C0000934227D9A1F18373A3F5E7431D4A934259
:103C100022D31D4B0B441D4A93421FD91C4B0B440E
:103C20001C4A93421CD31C4B0B441C4A934219D38D
:103C3000A1F1B773A3F55853194A934214D3194B02
:103C40000B44194A934211D20721C0E70F21BEE766
:103C50000E21BCE70D21BAE70C21B8E70B21B6E72E
:103C60000A21B4E70921B2E70821B0E70621AEE74F
:103C7000405327FFFF340C00401E1BFF3F420F0044
:103C80007F4F120020D6130060B6E5FE5FE31600FA
:103C900000D3CEFE40771B00C05BB3FEC091210075
:103CA00020753800E05459FEE09C410082B00023AA
:103CB0000193019B01330193019BB3F1706F15D800
:103CC0000369002BF5DA00230193890141F02001FB
:103CD0000161019B01330193019BB3F1706F08D81F
:103CE000036913F0200FF4D1002000E0032002B09C
:103CF00070470320FBE7D0F8083813F0060307D01D
:103D0000022B07D0062B01D00F20704702207047EE
:103D1000002070470220704710B591F800C04B7822
:103D2000012B23D000F5006ED0F81C380CF00F04E6
:103D30000122A24043EA0243C0F81C3800EB4C10B9
:103D4000D0F8003B13F4004F0ED1D0F8003B8A6846
:103D5000C2F30A02097942EA8142134343F08053D5
:103D600043F40043C0F8003B002010BDD0F81C28ED
:103D70000CF00F0E03FA0EF39BB21343C0F81C387D
:103D800000EB4C10D0F8003913F4004FECD1D0F810
:103D900000398A68C2F30A02097942EA814242EA9A
:103DA0008C5C43EA0C0343F0805343F40043C0F8B7
:103DB0000039D9E710B483B0024600230193487854
:103DC00001280BD00B7802EB4313D3F8000B00282B
:103DD0002DDB002003B05DF8044B70470B7802EB3D
:103DE0004313D3F80049002C01DB0020F2E7D3F89D
:103DF000004944F00064C3F800490B7802EB431318
:103E0000D3F8004944F08044C3F80049019B0133D2
:103E10000193019C42F210739C42DBD80B7802EBB9
:103E20004313D3F80039002BF0DB0020D2E7D3F89E
:103E3000000B40F00060C3F8000B0B7802EB43135B
:103E4000D3F8000B40F08040C3F8000B019B013316
:103E50000193019842F21073984208D80B7802EB54
:103E60004313D3F8003B002BF0DB0020B2E7012026
:103E7000B0E710B59DF8084084B903334FEA930EBC
:103E80004FF0000C08E000EB023303F5805351F8CB
:103E9000044B1C600CF1010CF445F4D3002010BD60
:103EA000F0B583B00C784B78012B2FD000EB441C7D
:103EB0000CF530631D69ED0CED041D611D6925F0E5
:103EC000FF5525F4C0151D61002C40F0CF800C6912
:103ED0000CB18C680C618C680C621D69C4F312040F
:103EE0002C431C611C6944F400241C61012A00F06D
:103EF000E0800B79012B00F0E280DCF8003B43F01E
:103F00000443CCF8003B002003B0F0BD0B6983BB39
:103F100000EB4413D3F8105925F0FF5525F4C015D4
:103F2000C3F81059D3F8105945F40025C3F81059B7
:103F3000D3F81059ED0CED04C3F81059012A53D0F1
:103F400000EB4414D4F8003943F00443C4F80039BA
:103F50000B79012B71D00B69002BD4D0D0F83438F9
:103F60000A7802F00F0101228A401343C0F8343866
:103F7000C9E700EB441303F510631D69ED0CED0474
:103F80001D611D6925F0FF5525F4C0151D6184B91B
:103F90000E698D68AE4200D90D611D6945F400259A
:103FA0001D611D690E69C6F3120C45EA0C051D6101
:103FB000C4E70D698E683544013DB5FBF6F51E6911
:103FC000484F07EAC54C46EA0C061E610E79012EE1
:103FD000E7D11E6926F0C0461E611E696D0705F017
:103FE000C04535431D61DCE7CB691BB100EB4412D2
:103FF000C2F814390B79012B08D000EB4410D0F82B
:10400000003943F00443C0F800397CE7D0F80838A1
:1040100013F4807F08D100EB4412D2F8003943F04A
:104020000053C2F80039E8E700EB4412D2F8003937
:1040300043F08053C2F80039DFE7D0F8083813F4B2
:10404000807F0CD1D4F8003943F00053C4F8003914
:1040500000920B8A0A78C968FFF70BFF53E7D4F880
:10406000003943F08053C4F80039F1E70C6954B9C2
:104070001C698D68C5F312052C431C611C6944F44E
:1040800000241C6132E78D682C44013CB4FBF5F43C
:10409000A4B204FB05F50D621D69124E06EAC44484
:1040A0002C431C611C690D6AC5F312052C431C616D
:1040B0001CE7CA68002A3FF41CAF5A6119E7D0F820
:1040C000083813F4807F06D1DCF8003B43F000533E
:1040D000CCF8003B11E7DCF8003B43F08053CCF810
:1040E000003B0AE70000F81F00B583B0844608468D
:1040F0004FEA920E02F00302002305E00CF5805116
:10410000096840F8041B01337345F7D39AB10CF5E5
:10411000805CDCF8003001934FF0000C5FFA8CF308
:10412000D900019BCB4000F8013B0CF1010C013A96
:1041300092B2002AF2D103B05DF804FB0B784A7802
:10414000012A14D000EB4310D0F8002B002A06DB24
:104150002BB1D0F8003B23F08043C0F8003BD0F8EF
:10416000003B43F40013C0F8003B0020704700EB15
:104170004310D0F80029002A06DB2BB1D0F8003913
:1041800023F08043C0F80039D0F8003943F400131D
:10419000C0F80039E9E70B784A78012A0ED000EB25
:1041A0004310D0F8003B23F40013C0F8003B0B7918
:1041B000023BDBB2012B15D90020704700EB431006
:1041C000D0F8003923F40013C0F800390B79023B12
:1041D000DBB2012BF0D8D0F8003943F08053C0F89F
:1041E0000039E9E7D0F8003B43F08053C0F8003BCA
:1041F000E2E7D0F8003823F4FE63C0F80038D0F8C6
:104200000038090101F4FE611943C0F800180020CC
:1042100070474269806910407047D0F8183800F53F
:104220000060C0691840000C7047D0F8183800F5DD
:104230000060C069184080B2704700EB4111D1F8AE
:10424000082B00F5006040691040704710B4D0F8AA
:104250001048D0F8343801F00F02D340DB01DBB254
:10426000234300EB411000F51060806818405DF8B2
:10427000044B7047406900F001007047D0F80039E6
:1042800023F4FF6323F00703C0F80039D0F80438A3
:1042900043F48073C0F804380020704710B4046CF5
:1042A000154B9C4203D9D0F8003B002B16DB0024B1
:1042B000C0F8104BD0F8104B44F40024C0F8104B59
:1042C000D0F8104B44F01804C0F8104BD0F8104B45
:1042D00044F0C044C0F8104B012903D000205DF821
:1042E000044B7047C0F8142BD0F8003B43F08023F8
:1042F000C0F8003BF2E700BF0A30544F08B5D0F8D1
:10430000B83213B11B68984708BD0020FCE708B518
:10431000D0F8B8325B68984700B908BD0320FCE7C5
:1043200038B5044600F2AA25284600F099F9012381
:10433000C4F89432B4F8B032C4F8983294F8AA129F
:1043400001F01F03012B0DD0022B10D02BB101F077
:104350008001204602F051FC03E02946204600F08F
:1043600055FB38BD2946204600F08BFBF9E729466E
:10437000204600F0C8FBF4E7F8B50446012380F8B6
:104380009C320023C0F894324360C0F8A43280F815
:10439000A032D0F8B832DBB15B68DBB100219847BE
:1043A0000746C8B9402300221146204602F01AFCF5
:1043B0000126A4F864614025C4F860512B46002210
:1043C0008021204602F00EFCA68425623846F8BD06
:1043D0000027E7E70027E5E70327E3E7017400206C
:1043E000704790F89C32DBB2042B04D090F89C32DA
:1043F000DBB280F89D32042380F89C3200207047A5
:1044000090F89C32DBB2042B01D00020704790F86A
:104410009D32DBB280F89C32F7E708B590F89C3209
:10442000DBB2032B01D0002008BDD0F8B832002B3E
:10443000F9D0DB69002BF6D09847F4E708B5D0F83F
:10444000D432AE3350F823205AB190F89C32DBB20C
:10445000032B01D0002008BD136A23B19847002028
:10446000F9E70320F7E70020F5E708B5D0F8D432E4
:10447000AE3350F823205AB190F89C32DBB2032BB4
:1044800001D0002008BD536A23B198470020F9E706
:104490000320F7E70020F5E70020704708B5012367
:1044A00080F89C32D0F8B83223B15B680179984724
:1044B00010B908BD0020FCE70320FAE70020704790
:1044C0000020704738B504460D46002943D11346F5
:1044D000D0F89422032A01D0084638BDD0F85C11E8
:1044E000D0F86021914212D890F8AA3203F01F034D
:1044F000012B17D0022B1CD0284694F89C32DBB23B
:10450000032B1BD0204600F033FC2846E5E7891A30
:10451000C0F85C118A4228BF0A46194600F020FC08
:104520002846DAE790F8AE12FFF7C8FF0028E9D175
:10453000E3E790F8AE12FFF7C3FFF7E700F1AE0331
:1045400054F823301A69002ADCD0C4F8D4021B695D
:1045500020469847D6E701F07F01FFF7B1FF90B9F9
:1045600094F89C32DBB2032BB7D100F1AE0354F8C0
:1045700023309A69002AB0D0C4F8D4029B69294636
:1045800020469847A9E70020A7E738B504460D461E
:1045900000294BD11346D0F89422022A07D094F870
:1045A000A00218B1002384F8A032284638BDC269A1
:1045B000016A8A420ED88A4218D094F89C32DBB243
:1045C000032B27D08021204602F017FB204600F065
:1045D000DAFBE4E7521AC261194600F0B9FB002386
:1045E0001A461946204602F028FBD8E7836999420B
:1045F000E3D8D0F898229342DFD20022114600F08F
:10460000A7FB0021C4F898120B460A46204602F088
:1046100014FBC4E7D4F8B832DA68002AD2D00022FA
:10462000C4F8D422DB6820469847CBE741F08001EC
:10463000FFF746FF90B994F89C32DBB2032BB5D15B
:1046400000F1AE0354F823305A69002AAED0C4F802
:10465000D4025B69294620469847A7E70020A5E7D2
:104660000B7803704B7843708B78CA7843EA022347
:1046700043800B794A7943EA022383808B79CA7994
:1046800043EA0223C380704710B50446802102F03C
:10469000B4FA0021204602F0B0FA10BD30B583B064
:1046A00004460D460023ADF806304A88130A013B44
:1046B000062B00F2AB80DFE803F0041F33A9A98DBD
:1046C0009A00D0F8B4321B680DF10601007C9847BF
:1046D000EA88002A00F0A380BDF80630002B00F025
:1046E00099809A4228BF1A46ADF806200146204616
:1046F00000F021FB03B030BD037C43B9D0F8B832E1
:104700009B6A0DF10600984702234370E0E7D0F85A
:10471000B832DB6A0DF10600984702234370D7E7F1
:10472000D2B2052A52D8DFE802F003101D2A37441E
:10473000D0F8B4325B6823B10DF10601007C9847D4
:10474000C6E72946FFF7A0FFD4E7D0F8B4329B684C
:1047500023B10DF10601007C9847B9E72946FFF720
:1047600093FFC7E7D0F8B432DB6823B10DF106013F
:10477000007C9847ACE72946FFF786FFBAE7D0F8F8
:10478000B4321B6923B10DF10601007C98479FE705
:104790002946FFF779FFADE7D0F8B4325B6923B162
:1047A0000DF10601007C984792E72946FFF76CFF60
:1047B000A0E7D0F8B4329B6923B10DF10601007C6B
:1047C000984785E72946FFF75FFF93E72946FFF7FC
:1047D0005BFF8FE7037C33B9D0F8B8325B6B0DF128
:1047E0000600984774E72946FFF74EFF82E7037CEF
:1047F00043B9D0F8B8321B6B0DF106009847072378
:10480000437065E72946FFF73FFF73E72946FFF747
:104810003BFF6FE729462046FFF736FF6AE7204651
:1048200000F0A6FA66E738B504468B88FBB9CB885A
:10483000EBB94B887F2B1AD803F07F0590F89C3298
:10484000DBB2032B0CD080F89E52294602F0E5F92A
:10485000204600F08DFA35B1022384F89C3209E03D
:10486000FFF712FF06E0012384F89C3202E02046A5
:10487000FFF70AFF38BD000070B504460E468D787C
:104880002F4B1D70012D10D890F89C32DBB2022BFB
:104890000FD0032B26D0FFF7F7FE294B19782046BF
:1048A000FFF735FD0325284670BDFFF7EDFE032514
:1048B000F9E7A5B145602946FFF720FD054638B167
:1048C00031462046FFF7E0FE022384F89C32EAE7F7
:1048D000204600F04DFA032384F89C32E3E700F011
:1048E00047FAE0E7CDB141688D4225D0C9B2FFF764
:1048F0000EFD134B197861602046FFF7FFFC05465B
:10490000B0B131462046FFF7BFFE21792046FFF7C0
:10491000FEFC022384F89C32C5E7022380F89C3217
:1049200045602946FFF7F3FC204600F021FABAE77C
:10493000204600F01DFAB6E700F01AFA0025B2E7AB
:10494000C409002008B5CB88012B0BD190F89C320C
:10495000DBB2022B09D9032B09D10122011D00F082
:10496000EAF901E0FFF790FE08BD5BB213B9FFF76B
:104970008BFEF9E70146002341F8083F012200F0D1
:10498000DAF9F1E708B590F89C32013B022B12D816
:10499000CB88022B0CD10123C360D0F8A4320BB119
:1049A0000323C360022200F10C0100F0C4F908BD2A
:1049B000FFF76AFEFBE7FFF767FEF8E708B54B88ED
:1049C000012B04D0022B07D0FFF75EFE08BDC0F814
:1049D000A43200F0CDF9F9E78B881B0A80F8A032E9
:1049E00000F0C6F9F2E708B590F89C32013B022BC3
:1049F00009D84B88012B00D008BD0023C0F8A43291
:104A000000F0B6F9F8E7FFF73FFEF5E738B50C78A8
:104A100004F06004202C06D0402C04D06CB1FFF7C9
:104A200033FE002407E0D0F8D432AE3350F8233000
:104A30009B6898470446204638BD4D78092D1DD8FF
:104A4000DFE805F012191C161C08051C0F0BFFF7F8
:104A500025FEF0E7FFF7E7FEEDE7FFF70DFF044661
:104A6000E9E7FFF76FFFE6E7FFF78CFF2C46E2E789
:104A7000FFF7A4FFDFE7FFF7B6FFDCE7FFF704FE71
:104A8000D9E770B505460C460B7803F06003202B80
:104A900007D0402B05D023B1FFF7F6FD00263046A6
:104AA00070BD95F89C32013B022B26D82179012953
:104AB00005D921462846FFF7E7FD0026EFE72846FF
:104AC000FFF7FCFC68B900F1AE0255F822209168AE
:104AD00089B1C5F8D402936821462846984706460E
:104AE00000E00326E388002BD9D1002ED7D1284639
:104AF00000F03EF9D3E70326F4E721462846FFF706
:104B0000C3FD0026CBE72DE9F04106460D468B8814
:104B1000DFB20C7804F06004202C08D0402C06D0C2
:104B2000DCB1FFF7B1FD00242046BDE8F081394635
:104B30003046FFF7C5FC0446002840F0F880C6F870
:104B4000D40200F1AE0356F823309B68002BEBD063
:104B50002946304698470446E6E791F80180B8F1C7
:104B6000010F31D0B8F1030F05D0B8F1000F67D0B5
:104B7000FFF78AFDD8E790F89C32DBB2022B04D015
:104B8000032B12D0FFF780FDCEE70FB1802F04D1A9
:104B900029463046FFF778FDC6E7394602F02DF882
:104BA0008021304602F029F8BEE74B8823B91FB1B7
:104BB000802F01D0CB881BB1304600F0D9F8B3E785
:104BC000394602F01AF8F7E790F89C32DBB2022B74
:104BD00004D0032B12D0FFF757FDA5E70FB1802FAC
:104BE00004D129463046FFF74FFD9DE7394602F0D4
:104BF00004F88021304602F000F895E74B88002B3E
:104C000092D117F07F0F17D1304600F0B1F8394636
:104C10003046FFF755FC002886D1C6F8D40200F1D3
:104C2000AE0256F822209268002A00F082802946BF
:104C300030469047044677E7394601F0E6FFE3E760
:104C400090F89C22D2B2022A05D0032A27D0FFF77F
:104C50001BFD444668E70FB1802F13D113F0800F7E
:104C600014D107F07F0707EB8707B90001F5A8719A
:104C70003144043100230B600222304600F05BF81F
:104C8000444651E7FFF700FD44464DE707F07F0734
:104C900007EB8707B900103131440431EAE75BB212
:104CA000002B1FDB07F00F0202EB820200EB8202F7
:104CB000B2F864211AB3002B25DB07F07F0303EB66
:104CC00083039C0004F5A874344404340FB1802F8E
:104CD00022D10023236002222146304600F02BF827
:104CE000444621E707F00F0202EB820200EB82024A
:104CF000928C002ADFD1FFF7C7FC444614E7FFF788
:104D0000C3FC444610E707F07F0303EB83039C00DA
:104D1000103434440434D9E73946304601F042FFB8
:104D200010B101232360D6E700232360D3E70024DA
:104D3000FAE60446F8E608B513460222C0F89422C3
:104D40008361C3610A46002101F06FFF002008BDA6
:104D500008B513460A46002101F067FF002008BD90
:104D600008B513460A46002101F067FF002008BD80
:104D700008B50422C0F8942200231A46194601F00F
:104D800054FF002008BD08B50522C0F89422002376
:104D90001A46194601F051FF002008BD08B54FF032
:104DA000E0231B6901F00EFC012800D108BD00F0D2
:104DB000D1F9FBE7EFF305832BB9064B186828B947
:104DC00001221A6070476FF0050070474FF0FF3006
:104DD000704700BF50100020EFF3058373B90A4BF2
:104DE0001B68012B0DD110B50024084BDC77064B56
:104DF00002221A6001F036F9204610BD6FF005005E
:104E000070474FF0FF3070475010002000ED00E079
:104E1000F0B587B000240594EFF305847CBB70B334
:104E20002AB31568936903B918235C1E372C4AD836
:104E3000546814F0010F48D1566976B14FEA960CC8
:104E4000946834B1D768B7F5916F02D3176907B189
:104E5000C6B92CB14FF0FF340EE04FF0800CEFE7F5
:104E6000D4688CB9146994B14FF0FF3404E015464E
:104E7000002418234FF0800C012C0AD0ACB1059807
:104E800007B0F0BD0124F7E74FF0FF34F4E700244A
:104E9000F2E7146992680292019400930B4662460D
:104EA000294601F06DF80590E9E705AA0192009303
:104EB0000B461FFA8CF2294601F09FF80128DED03C
:104EC00000230593DBE70020DAE70020D8E708B5E8
:104ED000EFF3058333B908B9002008BD01F02EFABD
:104EE0000020FAE76FF00500F7E70000034B0360CE
:104EF000034B0B6080231360704700BFC80B00207A
:104F0000C8090020034B0360034B0B604FF4807310
:104F100013607047581400205410002000F108035B
:104F200043604FF0FF328260C3600361002303607F
:104F3000704700230361704743684B609A688A603A
:104F4000516099600861036801330360704730B4B1
:104F50000D68B5F1FF3F11D000F108031C465B68F6
:104F60001A68AA42FAD963684B6099608C606160E4
:104F7000086103680133036030BC70470469F2E7DD
:104F80000369416882688A60416851605A68824258
:104F900006D0002202611A68013A1A601868704748
:104FA00082685A60F5E7000082B0002301930D4B40
:104FB0001B68B3F1FF3F08D04FF0500383F3118813
:104FC000BFF36F8FBFF34F8FFEE74FF0500383F3B4
:104FD0001188BFF36F8FBFF34F8F019B002BFCD065
:104FE00002B070470C00002008480068006880F399
:104FF00008884FF0000080F3148862B661B6BFF3F2
:105000004F8FBFF36F8F00DF00BF000008ED00E09F
:10501000DFF80C00016841F4700101607047000086
:1050200088ED00E04FF0807340F8043C21F001016E
:1050300040F8081C054B40F80C3C40F8202C6FF061
:10504000020340F8243C4438704700BFA94F0008D1
:10505000074B19680868B0E8F04F80F30988BFF380
:105060006F8F4FF0000080F311887047AFF300801E
:10507000485500204FF0500383F31188BFF36F8F22
:10508000BFF34F8F0B4A136801331360012B00D01D
:1050900070474FF0E023D3F8043D13F0FF0FF7D033
:1050A0004FF0500383F31188BFF36F8FBFF34F8F1F
:1050B000FEE700BF0C000020094B1B6843B94FF00E
:1050C000500383F31188BFF36F8FBFF34F8FFEE759
:1050D000013B034A13600BB983F31188704700BF8B
:1050E0000C00002000000000000000000000000094
:1050F000EFF30980BFF36F8F154B1A681EF0100F86
:1051000008BF20ED108A20E9F04F10602DE909005A
:105110004FF0500080F31188BFF34F8FBFF36F8FB4
:1051200001F032F94FF0000080F3118809BC1968D2
:105130000868B0E8F04F1EF0100F08BFB0EC108AFE
:1051400080F30988BFF36F8F704700BFAFF3008013
:105150004855002008B54FF0500383F31188BFF382
:105160006F8FBFF34F8F00F0E1FF28B14FF0E023C6
:105170004FF08052C3F8042D002383F3118808BD3B
:105180004FF0E022002313619361054B1B68054932
:10519000A1FB03139B09013B536107231361704774
:1051A00000000020D34D62104FF0E023D3F8002D13
:1051B0003D4B9A421CD04FF0E023D3F8002D3B4BDF
:1051C0009A421ED030B583B0394B1A78D2B20192D0
:1051D000FF221A701B78DBB28DF803309DF8033084
:1051E00003F05003334A1370334B07221A601BE05D
:1051F0004FF0500383F31188BFF36F8FBFF34F8FCE
:10520000FEE74FF0500383F31188BFF36F8FBFF3B6
:105210004F8FFEE7284A1368013B13609DF8033067
:105220005B00DBB28DF803309DF8033013F0800F84
:10523000F0D1214B1B68032B08D04FF0500383F3B0
:105240001188BFF36F8FBFF34F8FFEE71B021A4A1F
:10525000136003F4E0631360019BDBB2144A137024
:105260004FF0E024D4F8203D43F47003C4F8203D0F
:10527000D4F8203D43F07043C4F8203DFFF780FF91
:1052800000250E4B1D60FFF7C3FED4F8343F43F0FA
:105290004043C4F8343FFFF7A7FE01F075F8FFF76D
:1052A00083FE284603B030BD71C20F4170C20F416A
:1052B00000E400E0E0180020E41800200C000020CA
:1052C000EFF305830F2B0FD9114A9B5CDBB2114A18
:1052D00012789A4208D94FF0500383F31188BFF334
:1052E0006F8FBFF34F8FFEE74FF0E023D3F80C3DF5
:1052F00003F4E063084A1268934208D94FF0500360
:1053000083F31188BFF36F8FBFF34F8FFEE77047B2
:10531000F0E300E0E0180020E4180020124A12F048
:10532000070F1ED0D11D21F00701C1F570531344A2
:105330000A460E480260002141601344083B23F0F6
:1053400007030B48036059601960991A5160136094
:10535000084B1960084B1960084B4FF000421A6067
:1053600070474FF47053E4E7EC180020005500201C
:10537000E8180020F4540020F0540020EC540020E1
:10538000164B1A461B688342FBD3516802EB010C93
:10539000844509D0416800EB010C634509D00360E6
:1053A000904219D010607047406801445160104627
:1053B000F0E710B40A4C2468A3420BD05B68194490
:1053C000416013681B680360904200D010605DF874
:1053D000044B70470460F7E7704700BF005500209A
:1053E000E818002070B5054600F092FE364B1B68A9
:1053F000A3B1364B1B681D424ED135B1083515F0AF
:10540000070F02D025F007050835002D46D0304B98
:105410001B68AB4251D32F4A146804E0FFF77EFFAC
:10542000E7E722461C466368AB4202D22368002BA2
:10543000F7D1254B1B68A34241D016680836236874
:10544000136063685B1B102B10D9601910F0070FF5
:1054500008D04FF0500383F31188BFF36F8FBFF371
:105460004F8FFEE743606560FFF78AFF6268184967
:105470000B689B1A0B60184909688B4201D21649C8
:105480000B60124B1B681343636000232360134AB5
:1054900013680133136002E0002600E0002600F0EC
:1054A000D1FE16F0070F0CD04FF0500383F3118894
:1054B000BFF36F8FBFF34F8FFEE70026EFE70026A5
:1054C000EDE7304670BD00BFE8180020EC54002026
:1054D000F054002000550020F4540020F85400201F
:1054E000002834D038B50446A0F1080550F8043C33
:1054F000174A1268134208D14FF0500383F3118802
:10550000BFF36F8FBFF34F8FFEE750F8081C41B118
:105510004FF0500383F31188BFF36F8FBFF34F8FAA
:10552000FEE723EA020340F8043C00F0F1FD54F8E2
:10553000041C084A13680B4413602846FFF720FF39
:10554000054A13680133136000F07CFE38BD7047D4
:10555000EC540020F0540020FC54002010B5044608
:10556000FFF788FDA26BE36B9A4204D00024FFF79B
:10557000A3FD204610BD0124F9E710B50446FFF74E
:1055800079FDA36B23B90124FFF796FD204610BDDA
:105590000024F9E770B504461546866B026C5AB9CB
:1055A00003681BB100200136A66370BD806801F05E
:1055B00019F80023A360F6E76DB94068FBF7F4FE25
:1055C000226C636813446360A268934219D3236812
:1055D00063602846E7E7C068FBF7E6FE226C5142AD
:1055E000E3689B1AE3602268934202D2A3680B44EB
:1055F000E360022D01D00020D5E726B1013E002056
:10560000D1E72846CFE70020CDE70346026C6AB118
:1056100010B50846D9681144D9609C68A14201D3ED
:105620001968D960D968FBF7BFFE10BD704738B55F
:105630000546FFF71FFD95F8454064B201E0013CC7
:1056400064B2002C0ADD6B6A43B105F1240000F05E
:105650001FFF0028F3D000F0AFFFF0E7FF2385F82D
:105660004530FFF729FDFFF705FD95F8444064B28A
:1056700001E0013C64B2002C0ADD2B6943B105F165
:10568000100000F005FF0028F3D000F095FFF0E7D0
:10569000FF2385F84430FFF70FFD38BD38B5E0B182
:1056A0000D460446FFF7E6FC2368E26B216C01FB24
:1056B0000230A0600020A0636360013A02FB013366
:1056C000E360FF2384F8443084F84530FDB9236952
:1056D00063B9FFF7F1FC012038BD4FF0500383F3AD
:1056E0001188BFF36F8FBFF34F8FFEE704F11000F7
:1056F00000F0CEFE0028ECD04FF0E0234FF08052B7
:10570000C3F8042DBFF34F8FBFF36F8FE1E704F1B0
:105710001000FFF703FC04F12400FFF7FFFBD8E7BC
:1057200038B51D46049C0B4649B92460E0632364E8
:1057300001212046FFF7B2FF84F84C5038BD2260AB
:10574000F4E740B94FF0500383F31188BFF36F8F34
:10575000BFF34F8FFEE710B584B01C46844653B1AB
:1057600092B189B94FF0500383F31188BFF36F8F63
:10577000BFF34F8FFEE74FF0500383F31188BFF361
:105780006F8FBFF34F8FFEE76AB150230393039BE4
:10579000502B13D04FF0500383F31188BFF36F8F5A
:1057A000BFF34F8FFEE70029EFD04FF0500383F394
:1057B0001188BFF36F8FBFF34F8FFEE7039B012369
:1057C00084F8463000949DF818306046FFF7A8FF33
:1057D000204604B010BDF0B585B0019288B10F46E7
:1057E0001D460446B1B1022D20D1E36B012B1DD023
:1057F0004FF0500383F31188BFF36F8FBFF34F8FC8
:10580000FEE74FF0500383F31188BFF36F8FBFF3B0
:105810004F8FFEE7036C002BE5D04FF0500383F36E
:105820001188BFF36F8FBFF34F8FFEE700F0CAFE02
:10583000064658B9019B002B48D04FF0500383F324
:105840001188BFF36F8FBFF34F8FFEE700263DE057
:105850002A4639462046FFF79DFE636A7BB948B168
:105860004FF0E0234FF08052C3F8042DBFF34F8F69
:10587000BFF36F8FFFF720FC012005B0F0BD04F1EE
:10588000240000F005FE0028F4D04FF0E0234FF094
:105890008052C3F8042DBFF34F8FBFF36F8FE9E73A
:1058A000FFF70AFC0020E8E702A800F037FE012617
:1058B00019E0002384F8443021E0002384F84530C7
:1058C00023E02046FFF7B3FE00F0BCFCFFF7D2FB5D
:1058D000A26BE36B9A42BBD3022DB9D0019B002B84
:1058E000DED0002EE0D0FFF7E7FB00F011FCFFF761
:1058F000C1FB94F8442052B2B2F1FF3FD9D094F8E2
:10590000452052B2B2F1FF3FD7D0FFF7D5FB01A936
:1059100002A800F00FFED8B92046FFF71FFE0028AE
:10592000CFD0019904F1100000F07EFD2046FFF772
:105930007EFE00F087FC0028C8D14FF0E0234FF036
:105940008052C3F8042DBFF34F8FBFF36F8FBDE7B5
:105950002046FFF76CFE00F075FC00208DE72DE976
:10596000F84390B10F4616461C460546B1B1022CCD
:1059700020D1EB6B012B1DD04FF0500383F3118826
:10598000BFF36F8FBFF34F8FFEE74FF0500383F3EA
:105990001188BFF36F8FBFF34F8FFEE7036C002BAF
:1059A000E5D04FF0500383F31188BFF36F8FBFF33F
:1059B0004F8FFEE7FFF784FCEFF311894FF05003A0
:1059C00083F31188BFF36F8FBFF34F8FAA6BEB6B1D
:1059D0009A4206D3022C04D0002089F31188BDE836
:1059E000F88395F845804FFA88F8AB6B2246394624
:1059F0002846FFF7CFFDB8F1FF3F06D008F10103BD
:105A00005BB285F845300120E7E76B6A0BB90120EE
:105A1000E3E705F1240000F03BFD18B126B10120B9
:105A20003060DAE70120D8E70120D6E7F0B585B08D
:105A3000019290B10F460446C1B100F0C3FD064685
:105A400000BB019B002B5ED04FF0500383F3118805
:105A5000BFF36F8FBFF34F8FFEE74FF0500383F319
:105A60001188BFF36F8FBFF34F8FFEE7036C002BDE
:105A7000E3D04FF0500383F31188BFF36F8FBFF370
:105A80004F8FFEE700263EE039462046FFF7BDFD7A
:105A9000013DA563236923B9FFF70EFB012005B083
:105AA000F0BD04F1100000F0F3FC0028F4D04FF03A
:105AB000E0234FF08052C3F8042DBFF34F8FBFF3A4
:105AC0006F8FE9E7FFF7F8FA0020E8E702A800F097
:105AD00025FD012621E0002384F8443029E000233D
