:020000040800F2
:1000000000000220B91D0008C11A0008C31A000828
:10001000C51A0008C71A0008C91A00080000000025
:10002000000000000000000000000000D173000884
:10003000CB1A000800000000717400081571000858
:10004000091E0008091E0008091E0008091E0008F4
:10005000091E0008091E0008091E0008091E0008E4
:10006000091E0008091E0008091E0008091E0008D4
:10007000091E0008091E0008091E0008091E0008C4
:10008000091E0008091E0008091E0008091E0008B4
:10009000091E0008091E0008091E0008091E0008A4
:1000A000091E0008CD1A0008091E0008091E0008D4
:1000B000091E0008091E0008091E0008091E000884
:1000C000091E0008091E0008091E0008091E000874
:1000D000091E0008091E0008091E0008091E000864
:1000E000091E0008091E0008091E0008091E000854
:1000F000091E0008091E0008091E0008091E000844
:10010000091E0008091E0008091E0008091E000833
:10011000091E0008091E0008E11A0008091E00084F
:10012000F11A0008091E0008091E0008091E00082F
:10013000091E00080000000000000000091E000861
:10014000091E0008091E0008091E0008011B0008FE
:10015000091E0008091E0008091E0008091E0008E3
:10016000091E0008091E0008091E0008091E0008D3
:10017000091E0008091E0008000000000000000021
:08018000091E0008091E000819
:1001C00081F0004102E000BF83F0004330B54FEA08
:1001D00041044FEA430594EA050F08BF90EA020F75
:1001E0001FBF54EA000C55EA020C7FEA645C7FEA08
:1001F000655C00F0E2804FEA5454D4EB5555B8BF2B
:100200006D420CDD2C4480EA020281EA030382EA9B
:10021000000083EA010180EA020281EA0303362D2D
:1002200088BF30BD11F0004F4FEA01314FF4801C00
:100230004CEA113102D0404261EB410113F0004F12
:100240004FEA03334CEA133302D0524263EB4303C9
:1002500094EA050F00F0A780A4F10104D5F1200E67
:100260000DDB02FA0EFC22FA05F2801841F10001C2
:1002700003FA0EF2801843FA05F359410EE0A5F196
:1002800020050EF1200E012A03FA0EFC28BF4CF0C7
:10029000020C43FA05F3C01851EBE37101F000457D
:1002A00007D54FF0000EDCF1000C7EEB00006EEB8A
:1002B0000101B1F5801F1BD3B1F5001F0CD3490814
:1002C0005FEA30004FEA3C0C04F101044FEA44526B
:1002D00012F5800F80F09A80BCF1004F08BF5FEAF2
:1002E000500C50F1000041EB045141EA050130BDD2
:1002F0005FEA4C0C404141EB0101013C28BFB1F5E4
:10030000801FE9D291F0000F04BF01460020B1FA2E
:1003100081F308BF2033A3F10B03B3F120020CDA01
:100320000C3208DD02F1140CC2F10C0201FA0CF0DF
:1003300021FA02F10CE002F11402D8BFC2F1200C44
:1003400001FA02F120FA0CFCDCBF41EA0C019040FA
:10035000E41AA2BF01EB0451294330BD6FEA040443
:100360001F3C1CDA0C340EDC04F11404C4F120022E
:1003700020FA04F001FA02F340EA030021FA04F340
:1003800045EA030130BDC4F10C04C4F1200220FA97
:1003900002F001FA04F340EA0300294630BD21FAD5
:1003A00004F0294630BD94F0000F83F4801306BF9B
:1003B00081F480110134013D4EE77FEA645C18BF8F
:1003C0007FEA655C29D094EA050F08BF90EA020F26
:1003D00005D054EA000C04BF1946104630BD91EA1E
:1003E000030F1EBF0021002030BD5FEA545C05D121
:1003F0004000494128BF41F0004130BD14F5800460
:100400003CBF01F5801130BD01F0004545F0FE41D3
:1004100041F470014FF0000030BD7FEA645C1ABF08
:10042000194610467FEA655C1CBF0B46024650EA3F
:10043000013406BF52EA033591EA030F41F400216B
:1004400030BD00BF90F0000F04BF0021704730B5F1
:100450004FF4806404F132044FF000054FF00001C6
:1004600050E700BF90F0000F04BF0021704730B587
:100470004FF4806404F1320410F0004548BF40425C
:100480004FF000013EE700BF42004FEAE2014FEAB1
:1004900031014FEA02701FBF12F07F4393F07F4F8C
:1004A00081F06051704732F07F4208BF704793F08F
:1004B0007F4F04BF41F40021704730B54FF46074A2
:1004C00001F0004521F000411CE700BF50EA0102A5
:1004D00008BF704730B54FF000050AE050EA01024E
:1004E00008BF704730B511F0004502D5404261EBBE
:1004F00041014FF4806404F132045FEA915C3FF4FF
:10050000D8AE4FF003025FEADC0C18BF03325FEA9B
:10051000DC0C18BF033202EBDC02C2F1200300FA4C
:1005200003FC20FA02F001FA03FE40EA0E0021FA71
:1005300002F11444BDE600BF70B54FF0FF0C4CF45F
:10054000E06C1CEA11541DBF1CEA135594EA0C0F11
:1005500095EA0C0F00F0DEF82C4481EA030621EA4C
:100560004C5123EA4C5350EA013518BF52EA033587
:1005700041F4801143F4801338D0A0FB02CE4FF039
:100580000005E1FB02E506F00042E0FB03E54FF069
:100590000006E1FB03569CF0000F18BF4EF0010E61
:1005A000A4F1FF04B6F5007F64F5407404D25FEA5D
:1005B0004E0E6D4146EB060642EAC62141EA555110
:1005C0004FEAC52040EA5E504FEACE2EB4F1FD0C52
:1005D00088BFBCF5E06F1ED8BEF1004F08BF5FEAD0
:1005E000500E50F1000041EB045170BD06F0004682
:1005F00046EA010140EA020081EA0301B4EB5C042F
:10060000C2BFD4EB0C0541EA045170BD41F4801126
:100610004FF0000E013C00F3AB8014F1360FDEBF4B
:10062000002001F0004170BDC4F10004203C35DA27
:100630000C341BDC04F11404C4F1200500FA05F3AA
:1006400020FA04F001FA05F240EA020001F000424B
:1006500021F0004110EBD37021FA04F642EB0601C1
:100660005EEA430E08BF20EAD37070BDC4F10C04EB
:10067000C4F1200500FA04F320FA05F001FA04F2AF
:1006800040EA020001F0004110EBD37041F100019B
:100690005EEA430E08BF20EAD37070BDC4F12005A6
:1006A00000FA05F24EEA020E20FA04F301FA05F20E
:1006B00043EA020321FA04F001F0004121FA04F2B6
:1006C00020EA020000EBD3705EEA430E08BF20EA86
:1006D000D37070BD94F0000F0FD101F000464000C0
:1006E00041EB010111F4801F08BF013CF7D041EA42
:1006F000060195F0000F18BF704703F00046520046
:1007000043EB030313F4801F08BF013DF7D043EA16
:100710000603704794EA0C0F0CEA135518BF95EACC
:100720000C0F0CD050EA410618BF52EA4306D1D153
:1007300081EA030101F000414FF0000070BD50EA72
:10074000410606BF1046194652EA430619D094EAFC
:100750000C0F02D150EA013613D195EA0C0F05D1E6
:1007600052EA03361CBF104619460AD181EA03013A
:1007700001F0004141F0FE4141F470014FF00000F2
:1007800070BD41F0FE4141F4780170BD70B54FF08D
:10079000FF0C4CF4E06C1CEA11541DBF1CEA13550D
:1007A00094EA0C0F95EA0C0F00F0A7F8A4EB0504EF
:1007B00081EA030E52EA03354FEA013100F08880E6
:1007C0004FEA03334FF0805545EA131343EA1263AF
:1007D0004FEA022245EA111545EA10654FEA002664
:1007E0000EF000419D4208BF964244F1FD0404F51D
:1007F000407402D25B084FEA3202B61A65EB030579
:100800005B084FEA32024FF480104FF4002CB6EB35
:10081000020E75EB030E22BFB61A754640EA0C00B5
:100820005B084FEA3202B6EB020E75EB030E22BFF5
:10083000B61A754640EA5C005B084FEA3202B6EB36
:10084000020E75EB030E22BFB61A754640EA9C00F5
:100850005B084FEA3202B6EB020E75EB030E22BFC5
:10086000B61A754640EADC0055EA060E18D04FEA83
:10087000051545EA16754FEA06164FEAC30343EA23
:1008800052734FEAC2025FEA1C1CC0D111F4801FF0
:100890000BD141EA00014FF000004FF0004CB6E7E9
:1008A00011F4801F04BF01430020B4F1FD0C88BF88
:1008B000BCF5E06F3FF6AFAEB5EB030C04BFB6EB93
:1008C000020C5FEA500C50F1000041EB045170BD86
:1008D0000EF0004E4EEA113114EB5C04C2BFD4EBB3
:1008E0000C0541EA045170BD41F480114FF0000E37
:1008F000013C90E645EA060E8DE60CEA135594EAB3
:100900000C0F08BF95EA0C0F3FF43BAF94EA0C0FB5
:100910000AD150EA01347FF434AF95EA0C0F7FF42A
:1009200025AF104619462CE795EA0C0F06D152EA7E
:1009300003353FF4FDAE1046194622E750EA410662
:1009400018BF52EA43067FF4C5AE50EA41047FF473
:100950000DAF52EA43057FF4EBAE12E74FF0FF3CD8
:1009600006E000BF4FF0010C02E000BF4FF0010CA9
:100970004DF804CD4FEA410C7FEA6C5C4FEA430C22
:1009800018BF7FEA6C5C1BD001B050EA410C0CBF71
:1009900052EA430C91EA030F02BF90EA020F0020D3
:1009A000704710F1000F91EA030F58BF994208BF3A
:1009B00090422CBFD8176FEAE37040F001007047F7
:1009C0004FEA410C7FEA6C5C02D150EA013C07D14E
:1009D0004FEA430C7FEA6C5CD6D152EA033CD3D099
:1009E0005DF8040B704700BF8446104662468C4693
:1009F0001946634600E000BF01B5FFF7B7FF0028C6
:100A000048BF10F1000F01BD4DF808EDFFF7F4FFEE
:100A10000CBF012000205DF808FB00BF4DF808ED79
:100A2000FFF7EAFF34BF012000205DF808FB00BF9C
:100A30004DF808EDFFF7E0FF94BF012000205DF8BE
:100A400008FB00BF4DF808EDFFF7CEFF94BF012073
:100A500000205DF808FB00BF4DF808EDFFF7C4FF6C
:100A600034BF012000205DF808FB00BF4FEA4102BF
:100A700012F5001215D211D56FF47873B3EB6252F0
:100A800012D94FEAC12343F0004343EA505311F017
:100A9000004F23FA02F018BF404270474FF00000A9
:100AA000704750EA013005D111F0004008BF6FF0E7
:100AB000004070474FF00000704700BF53B94AB97B
:100AC000002908BF00281CBF4FF0FF314FF0FF3056
:100AD00000F0E2B8ADF1080C6DE904CE10F048FC6E
:100AE000DDF804E0DDE9022304B0704700F13401D1
:100AF00091E838009C46A6464CF8045D90E8FF0F4C
:100B0000E54600BD90EC210B704700BF80EC210B47
:100B1000704700BF90EC200B704700BF80EC200BAB
:100B2000704700BFD0EC200B704700BFC0EC200B1B
:100B3000704700BFF0EC0201F0EC0211F0EC022172
:100B4000F0EC0231F0EC0241F0EC0251F0EC026109
:100B5000F0EC0271F0EC0281F0EC0291F0EC02A1F9
:100B6000F0EC02B1F0EC02C1F0EC02D1F0EC02E1E9
:100B7000F0EC02F1704700BFE0EC0201E0EC021182
:100B8000E0EC0221E0EC0231E0EC0241E0EC025149
:100B9000E0EC0261E0EC0271E0EC0281E0EC029139
:100BA000E0EC02A1E0EC02B1E0EC02C1E0EC02D129
:100BB000E0EC02E1E0EC02F1704700BFB0FC018123
:100BC000B0FC0191B0FC01A1B0FC01B1704700BFC5
:100BD000A0FC0181A0FC0191A0FC01A1A0FC01B13D
:100BE000704700BFEC4600B52DE900502DE9FF1F0E
:100BF0004FF000032DE90C0001A910F073FEDDF8A1
:100C000040E012B0704700BFEC4600B52DE900503F
:100C10002DE9FF1F4FF000032DE90C0001A910F092
:100C20009DFEDDF840E012B0704700BFEC4600B515
:100C30002DE900502DE9FF1F4FF000032DE90C00B6
:100C400001A910F0ADFEDDF840E012B0704700BF22
:100C5000EC4600B52DE900502DE9FF1F4FF00003D1
:100C60002DE90C0001AB10F071FEDDF840E012B090
:100C7000704700BFEC4600B52DE900502DE9FF1F7D
:100C80004FF000032DE90C0001AA10F0E9FEDDF899
:100C900040E012B0704700BF704700BF0000000086
:100CA00002780B78012A28BF9A4240F0D8806DE97B
:100CB000044540EA0104CDE902676FF0000C4FEAF9
:100CC00044721AB380EA010414F0070F6BD100F0EC
:100CD000070420F0070004F0030521F007014FEAA4
:100CE000C505F0E8042314F0040FF1E804670CFADA
:100CF00005F462EA040266EA04060BD063EA040320
:100D0000624667EA0407664604E000BFF0E8042391
:100D1000F1E8046782FA4CF582EA0604A4FA8CF43E
:100D20006CBB83FA4CF583EA0705A5FA8CF595B9F7
:100D300050E9022351E9026782FA4CF582EA06047F
:100D4000A4FA8CF483FA4CF583EA0705A5FA8CF52E
:100D50002543DBD09CB92DBAB5FA85F424F00704FD
:100D600027FA04F1DDE9026723FA04F303F0FF0038
:100D700001F0FF01FDE80445A0EB0100704724BA33
:100D8000B4FA84F424F0070426FA04F1DDE90267DA
:100D900022FA04F202F0FF0001F0FF01FDE8044531
:100DA000A0EB0100704714F0030F3CD110F00304D6
:100DB00028D150F8082B51F8083B82FA4CF582EA0A
:100DC0000305A5FA8CF55DB950F8042C51F8043CE4
:100DD00082FA4CF582EA0305A5FA8CF5002DE8D0DD
:100DE0002DBAB5FA85F424F0070423FA04F122FAA7
:100DF00004F202F0FF0001F0FF01FDE80445A0EB62
:100E0000010070474FEAC40420F0030050F8082B9B
:100E100021F0030151F8083B0CFA04F462EA0402E1
:100E200063EA0403C9E710F003041DD0A1EB040139
:100E300020F00300E40750F8042B06D012D28B7880
:100E40005FFAA2F4E41A06D12BB1CB785FFAB2F4C0
:100E5000E41A00D133B920465DF8104B7047A2EB7D
:100E60000300704701F1040150F8042BCC0721F076
:100E7000030151F8043B48D824D222F07F4482FA7F
:100E80004CF594EA1325A5FA8CF50AD165B951F809
:100E9000043B84EA0204B4EB036F0ED150F8042B38
:100EA000EBE74FEA132355E035F07F454DD1087845
:100EB000FDE80445C0F1000070474FEA126203F0FC
:100EC000FF0347E002EA1C4482FA4CF594EA13451A
:100ED000A5FA8CF50AD165B951F8043B84EA0204FD
:100EE000B4EB034F0CD150F8042BEBE74FEA13435C
:100EF00030E015EA1C4528D10B884FEA124229E060
:100F00004FEA124203EA1C4324E002F0FF0482FA93
:100F10004CF594EA1365A5FA8CF50AD165B951F838
:100F2000043B84EA0204B4EB032F09D150F8042BEC
:100F3000EBE74FEA13630DE015F0FF0F05D10B68E7
:100F40004FEA122223F07F4304E04FF00000FDE857
:100F50000445704712BA1BBA82FA4CF482EA0304C1
:100F6000A4FA8CF5B5FA85F402FA04F203FA04F354
:100F70004FEA1260FDE80445A0EB1360704700BF24
:100F800001F0FF01102A2BDB10F0070F08D010F83A
:100F9000013B013A8B422DD010F0070F42B3F6D13E
:100FA000F0B441EA012141EA014122F007047FF057
:100FB00000070023F0E80256083C85EA010586EAAE
:100FC000010685FA47F5A3FA87F586FA47F6A5FAEA
:100FD00087F68EB9EED1F0BC01F0FF0102F00702F6
:100FE00032B110F8013B013A83EA010313B1F8D1A1
:100FF0000020704701387047002D06BF3546033882
:10100000073815F0010F07D1013015F4807F02BFBA
:10101000013015F4C03F0130F0BC0138704700BF0B
:10102000844641EA000313F003036DD1403A41D3F3
:1010300051F8043B40F8043B51F8043B40F8043BB2
:1010400051F8043B40F8043B51F8043B40F8043BA2
:1010500051F8043B40F8043B51F8043B40F8043B92
:1010600051F8043B40F8043B51F8043B40F8043B82
:1010700051F8043B40F8043B51F8043B40F8043B72
:1010800051F8043B40F8043B51F8043B40F8043B62
:1010900051F8043B40F8043B51F8043B40F8043B52
:1010A00051F8043B40F8043B51F8043B40F8043B42
:1010B000403ABDD2303211D351F8043B40F8043BE2
:1010C00051F8043B40F8043B51F8043B40F8043B22
:1010D00051F8043B40F8043B103AEDD20C3205D3F2
:1010E00051F8043B40F8043B043AF9D2043208D0EA
:1010F000D2071CBF11F8013B00F8013B01D30B885C
:1011000003806046704700BF082A13D38B078DD039
:1011100010F003038AD0C3F10403D21ADB071CBF0B
:1011200011F8013B00F8013B80D331F8023B20F875
:10113000023B7BE7043AD9D3013A11F8013B00F8AE
:10114000013BF9D20B7803704B7843708B78837036
:101150006046704700000000000000000000000032
:10116000000000000000000000000000000000007F
:10117000000000000000000000000000000000006F
:1011800030B490F800F020F007016FF0000C10F080
:10119000070491F820F040F048804FF000046FF011
:1011A0000700D1E9002391F840F000F1080082FA2D
:1011B0004CF2A4FA8CF283FA4CF3A2FA8CF34BBBF8
:1011C000D1E9022382FA4CF200F10800A4FA8CF271
:1011D00083FA4CF3A2FA8CF3E3B9D1E9042382FA3F
:1011E0004CF200F10800A4FA8CF283FA4CF3A2FA54
:1011F0008CF37BB9D1E9062301F1200182FA4CF28C
:1012000000F10800A4FA8CF283FA4CF3A2FA8CF3F2
:10121000002BC6D0002A04BF04301A4612BAB2FA14
:1012200082F200EBD20030BC7047D1E9002304F019
:101230000305C4F100004FEAC50514F0040F91F84E
:1012400040F00CFA05F562EA05021CBF63EA0503EB
:1012500062464FF00004AAE74FEA410C7FEA6C5C5B
:1012600002D150EA013C0AD14FEA430C7FEA6C5CA0
:1012700002D152EA033C02D14FF0000070474FF018
:10128000010070470348044B834202D0034B03B173
:1012900018477047D8070020D8070020000000003A
:1012A0000548064B1B1AD90F01EBA301491002D0C8
:1012B000034B03B118477047D8070020D807002018
:1012C0000000000010B5064C237843B9FFF7DAFFA1
:1012D000044B13B10448AFF300800123237010BD09
:1012E000D8070020000000006C8B010808B5054BF2
:1012F0001BB105490548AFF30080BDE80840FFF782
:10130000CFBF00BF00000000DC0700206C8B01088D
:10131000024B034A1A6001229A807047F4070020AA
:101320000004024008B500231A460121074807F0CF
:1013300097FD074B986800F007FE01F02BF907F0C6
:10134000E3FE0A2005F07FFFF9E700BFF407002065
:10135000A408002000B58BB000F064F900F068F933
:1013600005F0E4FE2422002101A812F04BFB094BFA
:1013700001934FF4007306931823079301AA0021E9
:10138000054805F001FF05F0E3FE00200BB05DF815
:1013900004FB00BF888B01082513000808B5FFF780
:1013A000B7FF08BD10B58CB00024089409940A94C6
:1013B0000B9420222146684612F024FB2C482D4B2A
:1013C00003604FF48033436084600123036103763C
:1013D00080F82040C462284A8262C460C36180F8F9
:1013E0003030436101F0D6FB002832D10D23089341
:1013F000012309930A9308A91D4801F0F7FB58BB84
:101400000A230093012301930322049202930023F1
:1014100007931A4A06928DF815308DF8143003930D
:101420006946134801F0ACFCC8B90B2300930223B2
:10143000019369460E4801F0A3FC98B90C23009370
:101440000323019369460A4801F09AFC68B90CB07D
:1014500010BD00F0BDF9C9E700F0BAF9D0E700F01F
:10146000B7F9E2E700F0B4F9E8E700F0B1F9EEE728
:101470005C080020002001400100000F01000F0067
:1014800030B589B000230393049305930693079323
:10149000026803F1804303F590339A4201D009B00A
:1014A00030BD04460025019503F58C335A6C42F497
:1014B00080725A645A6C02F480720192019A029509
:1014C0001A6B42F004021A631B6B03F004030293CD
:1014D000029B0F2303930323049303A9104801F0F5
:1014E00071FF1048104B036045608560C5604FF484
:1014F000806303614FF4006343614FF400538361E1
:101500004FF48073C3610562456201F007FE18B9AC
:10151000044BA3639C63C2E700F05AF9F8E700BFED
:1015200000080240FC07002010640240F0B597B0AC
:101530003049314B0B6000274F60304C304B2360FB
:101540006760304D284600F07BFC2F4B10934FF422
:101550000073ADF844302D4B12932022ADF84C208F
:1015600014938023ADF854300AAE10AB93E8030017
:1015700086E803000DF1300E12AB93E803008EE80D
:1015800003000EAA16AB13E9030082E80300204B08
:101590009C464CF8044B96E803008CE8030003F1EA
:1015A0000C069EE8030086E8030003F1140692E8A7
:1015B000030086E8030083F82470164EEE46BCE86C
:1015C0000F00AEE80F00BCE80F00AEE80F00DCF83B
:1015D0000030CEF8003023469FED0F0A06220F4957
:1015E000304601F081F8324629460D4800F00DFCE6
:1015F00017B0F0BD2C0B00208C0B0020240B00201A
:10160000340B0020500A0020000802400004024071
:10161000280A0020C8080020FFFFF944340C0020ED
:10162000A408002008B501F0DBF900F0D3F808BDEC
:1016300008B500F04BF800F02FF8FFF7B3FE00F00C
:1016400043F900F01BF900F02DFB07F06DFD0120C0
:1016500008BD000008B5024B186803F009FC08BD7E
:10166000C808002008B5074B1B686FF001021A611B
:101670008021054801F0A2FF044B986800F043FC6C
:1016800008BD00BF340C002000080240A408002060
:1016900008B5FFF74BFF08BD00B583B000220192EB
:1016A000094B196B41F4800119631B6B03F4800330
:1016B0000193019B0521382001F0B6FC382001F090
:1016C000C3FC03B05DF804FB003802402DE9F04193
:1016D0008AB0002405940694079408940994019410
:1016E000314B1A6B42F080021A631A6B02F08002CF
:1016F0000192019A02941A6B42F004021A631A6B67
:1017000002F004020292029A03941A6B42F0010260
:101710001A631A6B02F001020392039A04941A6B83
:1017200042F002021A631B6B03F002030493049B52
:10173000DFF8808022461021404601F039FF1B4D22
:1017400022466321284601F033FF194F22464FF409
:101750002071384601F02CFF1023059301260696D0
:101760000794089405A9404601F02CFE63230593D5
:1017700006960794089405A9284601F023FE4FF425
:101780002073059306960794089405A9384601F03E
:1017900019FE802305930694079405A9284601F0B5
:1017A00011FE0AB0BDE8F08100380240000402409A
:1017B000000802400000024008B50268034B9A424C
:1017C00000D008BD01F026F9FBE700BF0010004083
:1017D00072B6FEE700B595B03022002108A812F0DD
:1017E00011F9002303930493059306930793019340
:1017F000204A116C41F080511164126C02F0805249
:101800000192019A02931C4B1A6842F480421A60BA
:101810001B6803F480430293029B012308934FF457
:101820008033099302230E934FF480020F92042217
:101830001092A822119212930723139308A802F082
:1018400001FD98B90F23039302230493002305930A
:101850004FF4A05306934FF480530793052103A838
:1018600002F05AFF20B915B05DF804FBFFF7B0FF96
:10187000FFF7AEFF003802400070004008B5104886
:10188000104B03604FF482734360002383604FF476
:101890000062C26002220261012242614FF40072C2
:1018A00082611822C2610362436283620A23C362B7
:1018B00003F0BAF800B908BDFFF78AFFFBE700BFE5
:1018C0008C0B00200030014008B50F480F4B03601F
:1018D0004FF482734360002383604FF40062C26060
:1018E0000361012242614FF4007282611822C261D9
:1018F0000362436283620A23C36203F095F800B96E
:1019000008BDFFF765FFFBE7340B0020003C0040FB
:1019100000B58BB0002305930693079308930993B2
:101920000368284A934205D0274A934225D00BB03A
:101930005DF804FB00210191244B5A6C42F4805263
:101940005A645A6C02F480520192019A02911A6B05
:1019500042F001021A631B6B03F001030293029B26
:10196000E023059302230693032308930523099399
:1019700005A9174801F026FDD9E700210391134B73
:101980001A6C42F400421A641A6C02F40042039288
:10199000039A04911A6B42F004021A631B6B03F062
:1019A00004030493049B4FF4E0530593022306932E
:1019B000032308930623099305A9064801F002FDB5
:1019C000B5E700BF00300140003C00400038024055
:1019D000000002400008024000B583B000220092DF
:1019E0000D4B596C41F480415964596C01F48041AC
:1019F000009100990192196C41F0805119641B6C9F
:101A000003F080530193019B0F216FF0010001F05F
:101A10000BFB03B05DF804FB0038024030B589B021
:101A2000044600230193214B1A6C42F010021A6401
:101A30001B6C03F010030193019B02A903A802F0A1
:101A400031FF069BCBB902F01DFF0346184AA2FBEB
:101A500003239B0C013B1748174A026040F2E73210
:101A6000C2604360002303618360836103F064FB11
:101A7000054630B1284609B030BD02F003FF4300EF
:101A8000E4E70C4803F0F4F905460028F2D13620CB
:101A900001F0DAFA0F2C01D90125EBE700222146EB
:101AA000362001F0C1FA054B1C60E3E70038024024
:101AB00083DE1B43E40B0020001000400C000020DC
:101AC000FEE7FEE7FEE7FEE7FEE7704708B50348DE
:101AD00003F017FAFFF7C6FD08BD00BF340C002065
:101AE00008B5024803F00DFA08BD00BFE40B002062
:101AF00008B5024801F078FB08BD00BFFC070020D4
:101B000008B5024802F093F808BD00BF60730020DA
:101B10000120704708B512F055F9162303604FF005
:101B2000FF3008BD08B54FF0FF31FFF7F3FFFEE7C8
:101B300070B50C461646002506E0AFF3008021463E
:101B400001F8010B01350C46B542F6DB304670BD9D
:101B500070B50C461646002504E014F8010BAFF3EF
:101B600000800135B542F8DB304670BD4FF0FF30E4
:101B700070474FF400534B600020704701207047BE
:101B80000020704710B503460C4A0D490D48006807
:101B900040B10C4800680344521A934206D8094ADF
:101BA000136010BD0748084C0460F2E712F00AF910
:101BB0000C2303604FF0FF30F3E700BF000002206A
:101BC00000040000300C0020807B0020034AD2F883
:101BD000883043F47003C2F88830704700ED00E0AD
:101BE00002680E4B9A4200D0704700B583B00022C5
:101BF000019203F59C33596C41F0010159645B6C0F
:101C000003F001030193019B0521192001F00CFA57
:101C1000192001F019FA03B05DF804FB000001403F
:101C200070B588B00023039304930593069307933C
:101C30000268194B9A4201D008B070BD002401948B
:101C400003F59C331A6B42F002021A631A6B02F01E
:101C500002020192019A02941A6B42F001021A6385
:101C60001B6B03F001030293029B4FF46043039349
:101C7000022604960125079503A9084801F0A2FB56
:101C80004FF4E0630393049605940694079503A923
:101C9000034801F097FBCFE7000001400004024039
:101CA0000000024010B592B00024109411940994E1
:101CB0000A940B940C940D940E940F9420222146B8
:101CC00001A811F09FFE3A483A4B0360446060233C
:101CD000836040F6AC53C3600461022343618461B6
:101CE00003F082FA00284BD1314803F051FA002862
:101CF00049D1202310930023119310A92C4803F0FD
:101D000075FB002842D17023099300220A920B929E
:101D10000C920D920E920F9209A9254803F0F7FA42
:101D2000002836D1042209A9214803F0F0FA00283E
:101D300032D1082209A91E4803F0E9FA78BB002332
:101D400009930C2209A91A4803F0B2FA50BB4FF4C8
:101D5000006301934FF480630293002303931422E2
:101D6000049205934FF400520692089301A910487B
:101D700003F082FBC8B90E48FFF752FF12B010BD46
:101D8000FFF726FDB0E7FFF723FDB2E7FFF720FDE1
:101D9000B9E7FFF71DFDC5E7FFF71AFDC9E7FFF734
:101DA00017FDCCE7FFF714FDD1E7FFF711FDE2E7E0
:101DB000340C002000000140DFF834D0FFF706FFAC
:101DC0000C480D490D4A002302E0D458C450043396
:101DD000C4188C42F9D30A4A0A4C002301E013606C
:101DE0000432A242FBD311F0F3FFFFF7B3FA7047BE
:101DF0000000022000000020D8070020D0B1010818
:101E0000D8070020807B0020FEE710B40024047077
:101E10004470847044608160C26004610222027573
:101E200000F11502C0F81540C0F81940A0F81D4097
:101E30000262C860C26810645DF8044B704700001D
:101E400010B40022026002718160C26040F2011190
:101E500001821A49416182610021C1614FF400543D
:101E600004624262012480F82840C26280F8302077
:101E7000022444638163C463016441648164C16476
:101E8000016541658265C265016641668466C16619
:101E9000046741678467C167C0F88220C0F8862064
:101EA0000749C0F88C101021A0F89010C0F8C0208D
:101EB000A0F8C4205DF8044B704700BF00007A44CE
:101EC0000000024008B5B0F8803013F4807F01D1E3
:101ED000012008BDD0F88C30C0F8C030B0F8903088
:101EE000A0F8C43000F18203C0F8C83000F18603C6
:101EF000C0F8CC300223C0F8D03000F194018068E3
:101F000007F0AFF8E4E708B5B0F8802040F201131D
:101F10009A4200D008BD48F2FF33A0F882304FF655
:101F2000FF73A0F88430FFF7CDFFF3E710B500F1A1
:101F30008C04002301221146204606F091FF012166
:101F4000204607F065F810BD10B5028AA0F8802081
:101F5000A2F580739BB2012B24D900214FF4827328
:101F6000C0F894300023C0F898304FF40064C0F8F3
:101F70009C40C0F8A0100121C0F8A4104FF40071DB
:101F8000C0F8A8101821C0F8AC10C0F8B030C0F8E4
:101F9000B430C0F8B8300A23C0F8BC3012F4807FE7
:101FA00002D110BD0221D9E7FFF7C0FFF9E7406871
:101FB0007047000082B010B58AB0844602A880E85D
:101FC00006000D9300230593069307939DF8403078
:101FD000B3B1DDED0E7A9DED0F7A77EEC77A9FED06
:101FE000117A67EE877A0D9B0893CDED097A05ABE0
:101FF0000AAA12E9030083E8030001238DF81C30CC
:10200000DCF8002006AB93E803008DE80300059B95
:10201000D46802AA06CA6046A0470AB0BDE81040CC
:1020200002B070473ACD133F0023C0F89430C0F897
:10203000983090F87C3063B1002380F87C3090F8C1
:10204000883053B1002380F888300023C0F8A430D2
:102050007047002380F87C30F1E7002380F8883057
:10206000F3E730B589B00C46002505950695079530
:1020700003681B6905A99847DDED060A9DED050A71
:1020800001A800F0AFFB049B2360039B6360029BED
:10209000A360284609B030BDF0B52DED0A8B93B092
:1020A000044690F87C00002800F04B810D4616464F
:1020B00094F88830002B00F045810AAB04F15802F7
:1020C00092E8030083E8030094ED19AAD4ED1BAA5B
:1020D000D4ED1E8A07AF002307930893099305AB3D
:1020E00004F1800292E8030083E80300636F626CEE
:1020F0009B1A07EE903AF8EEE77A9FED947A87EE16
:10210000878A28EE2A8A38EE0A8AB0EE480A07F053
:10211000A7FAB0EE409AB0EE480A07F05BFADDEDA0
:10212000056A26EE897ADDED067A27EE806A37EEBB
:10213000067A67EE897A66EE806A77EEE67A8DED4A
:102140000C7ACDED0D7A0CAB93E8030087E8030021
:1021500001238DF82430D4ED056A94ED236A37EE1F
:10216000467A26EE877A36EE076A84ED236A94ED86
:10217000247A77EEC77A66EEA76A37EE267A84ED80
:10218000247ADFED739A68EEA99AF7EE007A87EE6B
:10219000A9BA94F84830002B5DD19DED0A9A29EE3A
:1021A0000B9ADDED0B7A27EE8BBAD4ED117AF8EEAF
:1021B000E77A67EEAA7ADFED656A87EEA67A37EEF0
:1021C0000AAAB0EE4A0A07F04BFAB0EE408AB0EE27
:1021D0004A0A07F0FFF969EE087A2BEE007A77EEEB
:1021E000C77A2BEE088A29EE000A38EE000A27EE9D
:1021F000A97A84ED277A60EE299AC4ED289ACDED6C
:102200000E7A8DED0F0A2B7A002B00F09280C5ED2F
:10221000007A85ED010A05AB07AA92E8030083E87E
:102220000300DDED057A67EE897A9DED067A27EEEB
:102230000B7A77EE877ACDED107A01238DF8443052
:1022400012AB13E9030086E8030067EEA87AC4ED39
:10225000297A002076E001AB04F1080292E803003D
:1022600083E8030003ABD7E9000183E8030005AB73
:1022700004F14C0292E8030083E803009DED058A17
:10228000DDED037A38EE678A9DED06CADDED047A4E
:102290003CEE67CAD4ED25BA9DED0A9A39EE2B9A29
:1022A0009DED017A67EE087A39EE279A29EE0B9AAE
:1022B000D4ED26CADDED0B7A77EEAC7A27EE0C7AF8
:1022C00077EE877A27EE8BBA29EE090A6BEE0B7A46
:1022D00030EE270A0FF026F89FED1E7AC7EE007A3F
:1022E000B7EE007AF4EEC77AF1EE10FA12D4DDED13
:1022F000027A9FED197A67EE877A27EE888A7BEE5D
:1023000088BAC4ED25BA67EE8C7A7CEEA7CAC4ED14
:1023100026CA4AE729EE279A2BEE27BADFED0F7A75
:102320006BEEA7BAC4ED25BA6CEEA77AC4ED267A97
:102330003BE70EAB93E8030085E8030001232B7213
:1023400069E7012013B0BDEC0A8BF0BDA037204D2A
:10235000ABAA2A3FAC5C313F6F120339A4707D3FBA
:1023600010B50446024B036007F058FB204610BD31
:10237000AC98010810B50446044B036007F04EFB0F
:102380000821204607F034FA204610BDAC98010819
:1023900010B50446082007F099FA044A0260044A7E
:1023A00002604460034A044907F0C8FB00A2010828
:1023B000AC980108612300083C98010808B510B1E9
:1023C0000248FFF7E5FF0248FFF7E2FF988B01089C
:1023D000B88B010808B50346087A022809D00128FD
:1023E00019D020BB03C983E8030001221A721846E2
:1023F00008BD0A6862B1116839B9043292E8030075
:1024000083E8030001221A72F1E700221A72EEE754
:1024100000221A72EBE70A6832B192E8030083E8FF
:10242000030001221A72E2E700221A72DFE7FF2896
:1024300014BF00200120FFF7C1FF08B50B79022B64
:1024400007D0012B14D0EBB90B6803600123037193
:1024500008BD0B684BB11A6822B95B6803600123A1
:102460000371F5E700230371F2E700230371EFE73F
:102470000B6823B11B68036001230371E8E70023A5
:102480000371E5E70020FFF799FF0346027A32B1B6
:10249000087A20B10A681A604A685A607047087A58
:1024A00028B103C983E8030001221A72704712B1F0
:1024B00000221A72704700221A72704782B000B56B
:1024C00083B08446684680E806000DF1100E4EF891
:1024D000043F0CF1780303C883E8050071460CF152
:1024E0008000FFF7D2FF002003B05DF804EB02B0DC
:1024F00070470346027A32B1087A20B10A681A603E
:102500004A685A607047087A28B103C983E8030013
:1025100001221A72704712B100221A72704700220B
:102520001A72704730B589B004464164037E80F862
:10253000483000F11C0102A8FFF74CFF02A904F18A
:102540004C00FFF7D6FF04F1280105A8FFF742FF72
:1025500005A904F15800FFF7CCFF6D4604F13401E2
:102560002846FFF76AFF04F1640395E8030083E857
:10257000030004F13C012846FFF75FFF6C3495E847
:10258000030084E8030009B030BDA0F10400FFF7A8
:10259000C9BF000008B51A4B1B68196840F2D66223
:1025A0004A6319688A631968CA6319680A6A42F03B
:1025B00001020A6219680A6A42F004020A62196892
:1025C0000A6A42F010020A6219680A6A42F040027E
:1025D0000A6219680A6A42F480720A621A68136A07
:1025E00043F480631362074B1A68936843F0010356
:1025F0009360022004F027FEFFF72CF808BD00BF0F
:10260000C80800205C0800201B4A02601B4A0260C8
:102610001B4A42601B4A0260203242600022027460
:102620004FF07E51416102760021C161016280F864
:1026300024208162C16280F83020416380F8382014
:10264000C16380F8402080F8482080F8542080F84A
:10265000602080F8682080F8702080F87C2080F866
:102660008820C0F89410C0F89810C0F89C10C0F8EA
:10267000A010C0F8A4107047F898010890980108BD
:10268000EC980108C098010882B00346D0ED0C7A9E
:10269000D0ED086A67EEA67A90ED096A86EE267A92
:1026A00027EE877ACDED007A8DED017A90F88820BB
:1026B0002AB1C0ED207A80ED217A02B0704700F196
:1026C000800202A911E9030082E80300012283F8D5
:1026D0008820F2E708B5C063027C80F85120FFF73C
:1026E000D3FF012008BD000082B0F0B587B00446DA
:1026F0000CA840F8043F2160227184ED020AE060DA
:102700000026267407236361304FA7614FF0804392
:10271000E3610025256265622D4BA3622D4BE362C8
:102720002D4B23632D4B63632D4BA363E66326641C
:1027300000220023C4E9122384F8506084F8516019
:1027400084F8526084F860606566A566E566256772
:10275000656704F17800FFF757FFC4F82071C4F8EB
:102760002451C4F82851C4F82C5184F83061C4F8BD
:10277000345184F83861C4F83C51029503956B4696
:1027800002AA92E8030083E803000222C4F8402171
:1027900004F5A27693E8030086E803000495059506
:1027A00006A911E9030083E80300C4F84C2104F5ED
:1027B000A87293E8030082E803002046FFF78AFF2F
:1027C000204607B0BDE8F04002B07047000020414D
:1027D0000AD7233D0000704200007A440000C8423E
:1027E0000000F042F5EEC00AF1EE10FA46DBB5EE5D
:1027F000C00AF1EE10FA1DDBDFED757A60EEA77A04
:10280000F4EEC07AF1EE10FA7DDC30EE670ADFED0F
:10281000716A60EEA66AF7EE007A77EEC07A77EE1C
:10282000E67AB6EE007A67EE877A37EE807A77EE50
:10283000266A7EE0DFED687A60EEA77AF4EEC07A71
:10284000F1EE10FA5FDDDFED636A60EEA66AB1EECD
:10285000400ADFED5F7A60EEA77A70EE677AB7EE36
:10286000007A37EE667A37EE677AB6EE006A27EEC0
:10287000067A77EE266A76EEA77A5AE0B5EEC00AB7
:10288000F1EE10FA21DBDFED547A60EEA77AF4EE78
:10289000C07AF1EE10FA5ADC9FED507A20EE877A7A
:1028A000DFED4B7A60EEA70A30EE800AF7EE007A91
:1028B00077EEC77A77EEC07AF6EE006A67EEA67A10
:1028C00077EE806A36EE877A33E0DFED417A60EEAC
:1028D000A77AF4EEC07AF1EE10FA38DD77EEC07A1E
:1028E0009FED3E7A60EE870AF7EE006A76EEE76AC1
:1028F00076EEE06AB6EE007A66EE876A36EEA07A89
:1029000077EE277A15E0DFED327A60EEA70A70EEF7
:10291000806A30EEC00AB7EE007A37EE667A37EE9C
:10292000407AF6EE007A27EE277A77EE007A77EE95
:10293000A66AF5EEC07AF1EE10FA39DBB7EE006A5E
:10294000F4EEC67AF1EE10FA1AD9002331E0F1EE76
:10295000407A9FED1F7A60EE870A77EEE07A30EEDC
:10296000600AF7EE006A76EEE76A76EEC06AB6EEC7
:10297000007A66EE876A76EEA77A37EE807AD8E735
:10298000B5EEC07AF1EE10FA1BDBB4EEC67AF1EECA
:1029900010FA01D900230CE0F5EEC06AF1EE10FA4E
:1029A00011DBF4EEC66AF1EE10FA0ED9002300E056
:1029B00000230370C0ED016A80ED027AC0ED037A56
:1029C00070470023F5E70023F3E70123F1E700BF99
:1029D0003ACD133F3ACD933F3ACD13BF3ACD93BF93
:1029E00008B50B4B1A6842F400721A601A6842F478
:1029F00080621A601A6842F480721A60032000F044
:102A000001FB0F20FFF70AF8FEF7E6FF002008BDE4
:102A1000003C0240034A1168034B1B780B441360CF
:102A2000704700BF7C0C002008000020014B186894
:102A3000704700BF7C0C002038B50446FFF7F6FF56
:102A40000546B4F1FF3F02D0044B1B781C44FFF74E
:102A5000EDFF401BA042FAD338BD00BF08000020A4
:102A60004A4B5A6822F440325A605A6841680A4315
:102A70005A600268536823F4807353600268536895
:102A8000016943EA012353600268536823F04073ED
:102A900053600268536881680B435360026893680F
:102AA00023F40063936002689368C1680B439360EA
:102AB000826A374B9A4257D00268936823F070635A
:102AC000936002689368816A0B439360026893681D
:102AD00023F04053936002689368C16A0B4393608C
:102AE0000268936823F00203936002689368017E92
:102AF00043EA4103936090F82030002B3FD00268F6
:102B0000536843F4006353600268536823F46043DE
:102B1000536001684B68426A013A43EA42334B60B2
:102B20000268D36A23F47003D3620168CB6AC26976
:102B3000013A43EA0253CB620268936823F40073BC
:102B400093600268936890F8301043EA41239360E1
:102B50000268936823F48063936002689368416914
:102B600043EA8123936070470268936823F070639F
:102B700093600268936823F040539360B0E7026863
:102B8000536823F400635360CAE700BF0023014089
:102B90000100000F38B310B50446036C43B1236C39
:102BA00013F0100F0BD00120002384F83C3010BD2F
:102BB000FEF766FC0023636484F83C30EFE7236C87
:102BC00023F4885323F0020343F0020323642046D6
:102BD000FFF746FF00206064236C23F0030343F0FB
:102BE00001032364E0E701207047000030B482B0A5
:102BF0000022019290F83C20012A00F0B6800346A2
:102C0000012280F83C200A68092A40D90468E0685B
:102C100092B202EB42021E3A4FF0070C0CFA02F29B
:102C200020EA0202E2601C68E0680A8802EB4202C5
:102C30001E3A8D6805FA02F20243E2604A68062AEB
:102C40003CD81C68606B02EB8202053A4FF01F0C07
:102C50000CFA02F220EA020262631C68606B4A68A6
:102C600002EB8202053AB1F800C00CFA02F202430C
:102C7000626318683E4A904250D018683C4A9042BD
:102C800055D0002083F83C0002B030BC7047046887
:102C9000206992B202EB42024FF0070C0CFA02F2EA
:102CA00020EA020222611C6820690A8802EB4202C3
:102CB0008D6805FA02F202432261BFE70C2A16D89A
:102CC0001D68286B02EB8202233A1F2404FA02F2E9
:102CD00020EA02022A631D68286B4A6802EB82021E
:102CE000233A0C8804FA02F202432A63C1E71D6802
:102CF000E86A02EB8202413A1F2404FA02F220EA57
:102D00000202EA621D68E86A4A6802EB8202413AFE
:102D10000C8804FA02F20243EA62AAE70A68122A5D
:102D2000ABD11448426842F480024260A5E70A68C9
:102D3000103A012AA5D80F48426842F400024260C6
:102D40000A68102A9DD10C4A12680C49A1FB021294
:102D5000920C02EB82025200019202E0019A013AC7
:102D60000192019A002AF9D18BE702208CE700BF7B
:102D700000200140002301400400002083DE1B43AB
:102D800090F83C20012A00F0F28030B40346012282
:102D900080F83C200A68092A40F289800568E868C2
:102DA00092B202EB42021E3A072404FA02F220EA2F
:102DB0000202EA601D68E8688C680A8802EB420239
:102DC0001E3A94402043E8601868826B22F4401257
:102DD00082631C68A26B0869013842EA0052A26350
:102DE0001C68A06B4A680D69521BD2B20332D2B282
:102DF00002EB82024FF01F0C0CFA02F220EA0202F0
:102E0000A2631C68A06B4A680D69521BD2B20332E0
:102E1000D2B202EB8202B1F800C00CFA02F2024315
:102E2000A2638869534A904256D01868826822F497
:102E300070228260186882688C69224382601868F8
:102E4000826822F44012826018688268CC6922434A
:102E500082604A7D002A4AD01868426842F4806243
:102E600042600A7D002A48D01868426842F48052C5
:102E700042604A68022A46D0032A4FD0012A58D11C
:102E8000186842696FF30B02426118684269CC68A6
:102E9000224342611868384A904255D01868364A31
:102EA00090425AD0002083F83C0030BC704705683F
:102EB000286992B202EB4202072404FA02F220EAE5
:102EC00002022A611D6828698C680A8802EB4202A6
:102ED00094402043286177E71868826822F47022C2
:102EE00082601868826822F440128260B1E7186834
:102EF000426822F480624260B3E71868426822F4B4
:102F000080524260B5E7186882696FF30B028261F4
:102F100018688269CC6822438261BBE71868C2697D
:102F20006FF30B02C2611868C269CC682243C261A8
:102F3000B0E71868026A6FF30B0202621868026A4F
:102F4000CC6822430262A5E70A68122AA6D10B4880
:102F5000426842F480024260A0E70A68103A012AFF
:102F6000A0D806494A6842F400024A609AE7022063
:102F7000704700BF01000F00002001400023014006
:102F8000002807DB00F01F02400901239340024A9A
:102F900042F82030704700BF00E100E0002808DB65
:102FA0000901C9B200F1604000F5614080F80013EA
:102FB000704700F00F000901C9B2014B1954704766
:102FC00014ED00E000B500F00700C0F1070CBCF103
:102FD000040F28BF4FF0040C031D062B0FD9C31E8E
:102FE0004FF0FF3E0EFA0CF021EA000199400EFA74
:102FF00003FE22EA0E0241EA02005DF804FB002310
:10300000EEE70000074AD36823F4E0631B041B0CBF
:10301000000200F4E060034343F0BF6343F4003375
:10302000D360704700ED00E010B50446054BD8684A
:10303000C0F30220FFF7C6FF01462046FFF7AEFFB0
:1030400010BD00BF00ED00E008B5FFF799FF08BD17
:1030500010B40368D9B210390A4AA2FB014212091E
:10306000094CA25CC2655F2907D96FF309030433D9
:103070008365806D5DF8044B70476FF309038365CA
:10308000F7E700BFABAAAAAA04990108836A82697C
:1030900092B9012B0AD0022B02D00BB1002070474D
:1030A000C36A13F0807F28D100207047C36AB3F150
:1030B000C07F24D000207047B2F5005F09D0022BFA
:1030C00025D9032B25D1C36A13F0807F23D100209B
:1030D0007047032B03D8DFE803F01404140A002020
:1030E0007047C36A13F0807F0DD100207047C36A18
:1030F000B3F1C07F09D00020704701207047012044
:10310000704701207047012070470120704701205F
:1031100070470020704701207047000070B50446DA
:10312000FFF784FC002C5BD00546022384F8353081
:10313000002384F834302268136823F001031360FD
:1031400023681A6812F0010F0AD0FFF76FFC431BC7
:10315000052BF5D920236365032084F8350070BD65
:103160001A68204911406268A0680243E06802437F
:103170002069024360690243A0690243E069024397
:10318000206A02430A43616A04291ED01A60266835
:10319000756925F00705636A1D43042B07D1A36AEF
:1031A0001D43E36A1BB12046FFF770FF90B97561BC
:1031B0002046FFF74DFFE26D3F23934083600020E0
:1031C0006065012384F83530C9E7E16A206B01436B
:1031D0000A43DBE740236365012084F83500BEE73E
:1031E0000120BCE73F8010F0F0B583B00446002317
:1031F0000193724B1D68724BA3FB0535AD0A876DB9
:103200003E68C26D08239340334210D003681A68A9
:1032100012F0040F0BD01A6822F004021A60C26D7B
:1032200008239340BB60436D43F001034365E26DA7
:1032300001239340334209D02268526912F0800F73
:1032400004D0BB60636D43F002036365E26D042349
:103250009340334209D02268126812F0020F04D062
:10326000BB60636D43F004036365E26D102393401C
:10327000334224D02268126812F0080F1FD0BB60BE
:1032800023681A6812F4802F0DD01B6813F4002FE6
:1032900004D1236C9BB12046984710E0A36C73B116
:1032A000204698470BE01A6812F4807F03D11A6811
:1032B00022F008021A60236C0BB120469847E26D99
:1032C00020239340334255D02268126812F0100F29
:1032D00050D0BB6094F83530DBB2052B0ED023689C
:1032E0001A6812F4802F33D01B6813F4002F2AD1F0
:1032F000636C002B3ED0204698473BE02268136861
:1033000023F0160313602268536923F0800353618E
:10331000236CA3B12268136823F008031360E26DE5
:103320003F239340BB60012384F83530002384F8A9
:103330003430236D002B3FD0204698473CE0A36CEF
:10334000002BE7D1EBE7E36BA3B12046984711E0F0
:103350001A6812F4807F09D11A6822F010021A60EC
:10336000012384F83530002384F83430E36B0BB14B
:1033700020469847636DFBB1636D13F0010F17D0C2
:10338000052384F835302268136823F001031360A5
:10339000019B01330193AB4204D823681B6813F0EF
:1033A000010FF5D1012384F83530002384F834303F
:1033B000E36C0BB12046984703B0F0BD0400002039
:1033C000B5814E1B00230F2B00F2E98070B582B04F
:1033D00065E085684FEA430E032404FA0EF425EAFB
:1033E0000405CC6804FA0EF42C438460446824EA93
:1033F00002044A68C2F300129A40224342605CE031
:10340000DC08083450F8242003F00705AD004FF025
:103410000F0E0EFA05FE22EA0E0E0A69AA4042EAD3
:103420000E0240F824205CE0072200E0002202FAAD
:103430000EF22A4302345A4D45F82420594A946822
:103440006FEA0C0224EA0C054E6816F4801F01D0C6
:103450004CEA0405534CA560E46802EA04054E6892
:1034600016F4001F01D04CEA04054E4CE560646878
:1034700002EA04054E6816F4003F01D04CEA040548
:10348000484C6560246822404D6815F4803F01D0A7
:103490004CEA0402434C226001330F2B7DD80122F9
:1034A0009A400C6804EA020C32EA0404F4D14C6835
:1034B00004F00304013C012C8BD94A6802F003029A
:1034C000032A09D0C4685D000322AA4024EA02044A
:1034D0008A68AA402243C2604A6802F00302022AB4
:1034E0008ED004684FEA430E032202FA0EF224EA59
:1034F00002044A6802F0030202FA0EF2224302605A
:103500004A6812F4403FC7D000220192264A546C08
:1035100044F480445464526C02F480420192019A53
:103520009C08A51C1E4A52F8255003F0030E4FEAD2
:103530008E0E0F2202FA0EF225EA02051B4A904275
:103540003FF474AF02F5806290421AD002F58062B7
:10355000904218D002F58062904216D002F5806247
:10356000904214D002F58062904212D002F580623F
:10357000904210D002F5806290423FF455AF08228D
:1035800055E7012253E7022251E703224FE70422C5
:103590004DE705224BE7062249E702B070BD7047B0
:1035A00000380140003C0140003802400000024069
:1035B0000AB181617047090481617047436901EA7A
:1035C000030221EA030141EA0241816170472DE9CA
:1035D000F04383B0D0F8008001EBC10300EB83031C
:1035E0009A6A5B6A9A4254D807460C469B1A01EBCA
:1035F000C10200EB8202D2699A4200D31A4602F15C
:1036000003094FEA990915E006F103094FEA990900
:10361000BB7904EBC40507EB8505296A0093B3B2B7
:10362000E2B2404602F087FA2B6A33442B62AB6A5F
:103630003344AB6208EB441303F510639B699BB200
:103640004B4512D304EBC40307EB83039A6A5B6A0E
:103650009A420AD24BB19B1A04EBC40207EB8202D6
:10366000D6699E42D0D31E46CEE704EBC40307EBD7
:1036700083077A6ABB6A9A420FD804F00F040122CA
:10368000A240D8F8343823EA0203C8F834380020BE
:1036900000E0012003B0BDE8F0830020FAE730B578
:1036A00083B000287AD00446056890F89534C3B1F9
:1036B000032384F89534B5F1A04F17D0206801F0AA
:1036C000EDFF237C8DF80030231D0ECB206801F028
:1036D00023FF70B1022384F895340125284603B0F6
:1036E00030BD80F8943405F021FEE1E70023A3719A
:1036F000E4E70021206802F034FC024608B90346E2
:1037000017E0022384F895340125E7E703EBC301B2
:1037100004EB8101012048750B75CB8500200876EC
:10372000C861086203EBC30104EB81014862013305
:10373000DBB220799842E9D816E002EBC20304EB31
:103740008303002183F8551283F8542283F858121A
:10375000C3F85C12C3F8601202EBC20304EB8303EC
:10376000C3F864120132D2B29042E6D8237C8DF8BD
:103770000030231D0ECB206801F0E6FF054620B186
:10378000022384F895340125A8E7002363740123FC
:1037900084F89534206802F0A3FB9FE701259DE79C
:1037A000036890F89424012A1AD010B50446012227
:1037B00080F89424DA6812F0400F02D0427B012A8C
:1037C00009D0206801F064FF206802F07BFB002034
:1037D00084F8940410BD9A6B42F480329A63F0E747
:1037E0000220704770B504460D460068066C00EB79
:1037F000411303F530639A68A179012911D0384942
:103800008E4256D03DB905EBC50304EB8303D3F8D4
:103810006432002B5ED0E9B2204605F0D1FD0020D5
:1038200070BD12F0080F09D02E498E42F7D912F45C
:10383000004FF4D04FF400429A60F0E712F0200FEE
:1038400002D020229A60EAE712F0280FE7D125493A
:103850008E4206D912F4004F03D04FF400429A6012
:10386000DDE705EBC50204EB8202D2F874121B6996
:10387000C3F31203CB1AC2F868327DB905EBC50257
:1038800004EB8202D2F864226AB105EBC50204EBB4
:103890008202D2F860121944C2F86012E9B22046DE
:1038A00005F08EFDBBE704F29C42012102F098FB7B
:1038B000F4E712F4004F03D04FF400429A60AEE7F1
:1038C00012F0200F01D020229A60E9B2204605F0C4
:1038D00077FDA4E704F29C42002102F081FB9AE705
:1038E0000A31544F0A30544F38B5044603681D6CF2
:1038F00003EB4113D3F8081B0E4A954207D903F591
:10390000306311F4004F02D04FF400429A60204619
:1039100005F04EFD074B9D4202D9A379012B01D042
:10392000002038BD04F29C420121206802F058FBBF
:10393000F6E700BF0A30544F90F89434012B0CD0B6
:1039400010B50446012380F894344174006802F0F5
:10395000A9FA002084F8940410BD0220704738B5FD
:1039600005468C4611F0800F2BD101F00F0E0EEBA7
:10397000CE04A40004F514740444211D0EEBCE0EF5
:1039800000EB8E0E00208EF855020CF00F0C81F823
:1039900000C0C2F30A028A600B714A780AB1A1F82A
:1039A0001AC0022B1CD095F89434012B1BD0012394
:1039B00085F89434286801F0A2FF002085F894046B
:1039C00038BD01F00F0000EBC0018900103129441F
:1039D000043100EBC00005EB800001244475D4E7FE
:1039E00000234B71DFE70220EAE710B504460A46E0
:1039F00011F0800F20D101F00F0000EBC0039B00FD
:103A000003F514732344191D00EBC00004EB800080
:103A1000002380F8553202F00F020A7094F89434B3
:103A2000012B18D0012384F89434206801F0B4FFEE
:103A3000002084F8940410BD01F00F0000EBC003D7
:103A40009B0010332344191D00EBC00004EB8000E1
:103A500001234375DFE70220EDE710B5144601F0BE
:103A60000F0C0CEBCC01890001F5147101440431F9
:103A70000CEBCC0E00EB8E0ECEF86022CEF864324A
:103A80000023CEF868328EF855328EF854C282790F
:103A9000012A04D0006802F065F8002010BDCEF8BD
:103AA0007042F7E701F00F0101EBC10100EB81006B
:103AB000D0F86802704710B5144601F00F0C0CEBFB
:103AC000CC0189001031014404310CEBCC0E00EB29
:103AD0008E0ECEF82020CEF824300023CEF82830E9
:103AE00001238EF815308EF814C082799A4204D0E2
:103AF000006802F037F8002010BDCEF83040F7E73C
:103B000038B501F00F050279AA4238D304460B46B6
:103B100011F0800F1FD101EBC101890001F5147173
:103B20000144043103EBC30300EB8303002283F859
:103B3000552201238B700D7094F89434012B20D002
:103B4000012384F89434206802F051F985B10020F3
:103B500084F8940438BD05EBC50189001031014497
:103B6000043105EBC50300EB830301225A75E0E73E
:103B700004F29C42A179206802F032FAE7E70120C2
:103B8000E8E70220E6E701F00F0302799A4230D31A
:103B900010B5044611F0800F1ED103EBC30189005C
:103BA00001F514710144043103EBC30200EB8202FE
:103BB000002082F8550200228A700B7094F8943429
:103BC000012B18D0012384F89434206802F03CF9CA
:103BD000002084F8940410BD03EBC3018900103168
:103BE0000144043103EBC30200EB82020120507553
:103BF000E1E7012070470220EDE708B511F0800FE2
:103C00000CD101F00F0101EBC101890001F5147124
:103C100001440431006801F02FFF08BD01F00F01DD
:103C200001EBC1018900103101440431F2E72DE9B3
:103C3000F04F83B004460568284602F08EF910B1B3
:103C400003B0BDE8F08F0646206802F057F900285F
:103C5000F6D005F50067BB68C3F30D23C4F8D43470
:103C6000206802F04BF910F0020F04D0226853696B
:103C700003F002035361206802F040F910F0100FC6
:103C800015D02268936923F010039361D5F8208042
:103C900008F00F0908F4F013B3F5802F4CD0B3F5FA
:103CA000402F6FD02268936943F01003936120681E
:103CB00002F024F910F4002F76D1206802F01EF9EA
:103CC00010F4802F40F0E080206802F017F90028FF
:103CD000C0F26181206802F011F910F4006F09D080
:103CE000BB6813F0010F40F06E812268536903F442
:103CF00000635361206802F001F910F4805F40F026
:103D00006681206802F0FAF810F4005F40F0B38199
:103D1000206802F0F3F810F0080F40F0C48120682A
:103D200002F0ECF810F0800F00F0D781AB6923F0BF
:103D30008003AB610126C0E147F6F07318EA030F78
:103D4000B0D04FEA181A4FEAC903019309EBC90B27
:103D500004EB8B0BC8F30A12DBF86012284602F062
:103D600023F8DBF86032CAF30A0A5344CBF8603216
:103D7000DBF86832019A4A4404EB82025344C2F8E9
:103D800068328FE7082204F29C41284602F00CF8C2
:103D900009EBC90304EB8303D3F86822C8F30A18BC
:103DA0004244C3F868227DE7206802F0ABF8804601
:103DB000B14635E005EB49130122C3F8082B49460B
:103DC0002046FFF70FFD3CE005EB49130822C3F83E
:103DD000082B49462046FFF787FD35E009EBC9036C
:103DE00004EB830393F85732012B41D005EB4913C1
:103DF0000222C3F8082B1AF0200F04D005EB491358
:103E00002022C3F8082B1AF4005F05D005EB4913F4
:103E10004FF40052C3F8082B09F101094FEA580882
:103E2000B8F1000F3FF449AF18F0010FF4D05FFA7A
:103E300089FB5946206802F075F8824610F0010FA0
:103E4000B8D11AF0080FBFD11AF0100F04D005EB4B
:103E500049131022C3F8082B1AF0020FCBD06B695C
:103E600013F0800FBAD07B6843F480637B60B5E7C2
:103E700009EBC90304EB8303002283F85722594658
:103E8000204605F0EDFAB1E7206802F043F88046DD
:103E9000B14625E05946204605F09EFA1AF0080F73
:103EA00004D005EB49130822C3F808291AF0100FB3
:103EB00004D005EB49131022C3F808291AF0400F6B
:103EC00004D005EB49134022C3F808291AF0020F69
:103ED00040D11AF0800F59D109F101094FEA580871
:103EE000B8F1000F3FF4F0AE18F0010FF4D05FFA14
:103EF00089FB5946206802F01EF8824610F0010F37
:103F0000CCD009F00F02012101FA02F27B6B23EA07
:103F100002037B6305EB4913C3F80819A3798B42AD
:103F2000B8D109EBC90304EB83031A6AD9690A44BF
:103F30001A62B9F1000FADD109EBC90304EB830399
:103F40005B6A002BA6D104F29C420121206802F09A
:103F500047F89FE74946284601F0A6FB09EBC9034D
:103F600004EB8303DB7D012B05D005EB4913022213
:103F7000C3F80829ADE709EBC90304EB830300226A
:103F8000DA755946204605F071FAEEE749462046B3
:103F9000FFF71DFBA0E77B6823F001037B6094F82B
:103FA000CC34012B08D0204605F054FA226853691E
:103FB00003F0004353618DE6002184F8CC142046C1
:103FC00000F03FF9F2E7204605F02CFA8DE67B6819
:103FD00023F001037B601021206801F065FB1AE0EB
:103FE00005EB46134FF67F31C3F80819D3F80029C3
:103FF00022F40012C3F80029C3F8081BD3F8002BE1
:1040000022F40012C3F8002BD3F8002B42F0006218
:10401000C3F8002B01362379B342E1D8FB6943F0A2
:104020000113FB61E37BDBB1D7F8843043F00B0372
:10403000C7F884307B6C43F00B037B64D5F8003801
:1040400023F4FE63C5F8003804F29C42A17920688D
:1040500001F0C6FF2268536903F48053536150E6B0
:104060007B6943F4005343F02B037B613B6943F0CE
:104070000B033B61E2E7206801F0A4FF206801F038
:104080002DFCE071266800F0F7FB0146E27930462E
:1040900001F08CFA204605F0B0F92268536903F468
:1040A0000053536134E6204605F0A1F922685369B4
:1040B00003F00803536132E601362379B3420CD989
:1040C00006EBC60304EB830393F85732012BF3D1BD
:1040D000F1B22046FFF791FDEEE7206801F00EFFF8
:1040E00010F4801F25D1206801F008FF10F4001F94
:1040F00059D0012326E001362379B3421BD905EBC1
:104100004613D3F8002906EBC60304EB83031B7E9A
:10411000012BF0D1002AEEDA06EBC60304EB830391
:104120000122DA7566F07F01C9B22046FFF765FD0E
:10413000E1E70126E0E72268536903F48013536145
:10414000D1E7013322799A4228D905EB4312D2F8FC
:10415000001B03EBC30204EB820292F85822012AEF
:10416000EFD10029EDDA01F48031D4F8D42402F043
:1041700001029142E5D103EBC30204EB820201216B
:1041800082F85712AA6942F08002AA616A6912F0A5
:10419000800FD6D17B6843F400737B60226853693B
:1041A00003F400135361206801F0A8FE10F0804F63
:1041B00010D1206801F0A2FE10F0040F3FF440ADD2
:1041C00023685D6815F0040F0DD1226853682B43F6
:1041D000536035E5204605F04FF92268536903F036
:1041E00080435361E5E7204605F04CF9EDE710B454
:1041F0000468606A31B940EA0240A06200205DF8BC
:10420000044B70478C46A36A00EB1340002308E080
:1042100003F1400104EB8101496800EB11400133D7
:10422000DBB20CF1FF318B42F2D340EA02400CF1D9
:104230003F0104EB81046060E0E7036859620020FD
:1042400070477047002800F0E08170B582B00446E6
:10425000036813F0010F3BD09F4B9B6803F00C03E6
:10426000042B2CD09C4B9B6803F00C03082B21D013
:104270006368B3F5803F4FD0B3F5A02F52D0964B73
:104280001A6822F480321A601A6822F480221A60B6
:104290006368002B50D0FEF7C9FB05468E4B1B68A8
:1042A00013F4003F14D1FEF7C1FB401B6428F5D97D
:1042B0000320B1E1884B5B6813F4800FD8D0864BA4
:1042C0001B6813F4003F03D06368002B00F09F814C
:1042D000236813F0020F54D07F4B9B6813F00C0F30
:1042E0003ED07D4B9B6803F00C03082B33D0E36872
:1042F000002B68D0794B01221A60FEF797FB054628
:10430000754B1B6813F0020F54D1FEF78FFB401B57
:104310000228F5D903207FE16F4A136843F4803304
:104320001360B5E76C4B1A6842F480221A601A6871
:1043300042F480321A60ABE7FEF778FB0546664B25
:104340001B6813F4003FC3D0FEF770FB401B6428CA
:10435000F5D9032060E1604B5B6813F4800FC6D190
:104360005D4B1B6813F0020F03D0E368012B40F094
:104370005081594A136823F0F803216943EAC103C5
:104380001360236813F0080F42D063696BB3534B7B
:104390000122C3F8802EFEF749FB05464E4B5B6FAA
:1043A00013F0020F34D1FEF741FB401B0228F5D970
:1043B000032031E1484A136823F0F803216943EAF6
:1043C000C1031360DDE7454B00221A60FEF72EFBA8
:1043D0000546414B1B6813F0020FD2D0FEF726FBB7
:1043E000401B0228F5D9032016E13C4B0022C3F8FC
:1043F000802EFEF71BFB0546374B5B6F13F0020F59
:1044000006D0FEF713FB401B0228F5D9032003E179
:10441000236813F0040F77D02F4B1B6C13F0805FD1
:1044200033D1002301932C4B1A6C42F080521A6452
:104430001B6C03F080530193019B0125284B1B68E3
:1044400013F4807F23D0A368012B34D0052B38D000
:10445000214B1A6F22F001021A671A6F22F0040230
:104460001A67A368002B3DD0FEF7E0FA06461A4B08
:104470001B6F13F0020F46D1FEF7D8FA801B41F2F2
:1044800088339842F3D90320C6E00025D6E7144AC2
:10449000136843F480731360FEF7C8FA0646104BA6
:1044A0001B6813F4807FCED1FEF7C0FA801B022870
:1044B000F5D90320B0E0084A136F43F001031367F6
:1044C000CFE7054B1A6F42F004021A671A6F42F0E9
:1044D00001021A67C5E700BF0038024000004742EA
:1044E00000700040FEF7A2FA0646524B1B6F13F015
:1044F000020F08D0FEF79AFA801B41F288339842E7
:10450000F3D9032088E0EDB9A369002B00F0838084
:10451000484A926802F00C02082A51D0022B17D0A8
:10452000454B00221A66FEF781FA0446414B1B6890
:1045300013F0007F42D0FEF779FA001B0228F5D96C
:10454000032069E03B4A136C23F080531364DBE7DC
:10455000394B00221A66FEF769FA0546354B1B688F
:1045600013F0007F06D0FEF761FA401B0228F5D950
:10457000032051E0E369226A1343626A43EA82132B
:10458000A26A5208013A43EA0243E26A43EA02633A
:10459000284A5360284B01221A66FEF747FA044660
:1045A000244B1B6813F0007F06D1FEF73FFA001B77
:1045B0000228F5D903202FE000202DE000202BE079
:1045C000012B2BD01B4B5B6803F48001E269914205
:1045D00026D103F03F02216A8A4223D1616A47F65D
:1045E000C0721A40B2EB811F1ED103F44031A26A9F
:1045F0005208013AB1EB024F18D103F07063E26A3E
:10460000B3EB026F14D1002006E0012070470120B7
:1046100002E0012000E0002002B070BD0120FBE7B5
:104620000120F9E70120F7E70120F5E70120F3E792
:104630000120F1E7003802400000474208B5334B43
:104640009B6803F00C03042B5BD0082B5BD12F4B32
:104650005A6802F03F025B6813F4800F2CD02B4B9A
:104660005868C0F388104FEA401CBCEB000C6EEB9E
:104670000E0E4FEA8E1343EA9C634FEA8C11B1EBA6
:104680000C0163EB0E03DB0043EA5173C90011EB2D
:10469000000C43F10003590200234FEA4C2041EA89
:1046A000DC51FCF70BFA194B5B68C3F30143013390
:1046B0005B00B0FBF3F008BD144B5868C0F38810E2
:1046C0004FEA401CBCEB000C6EEB0E0E4FEA8E1353
:1046D00043EA9C634FEA8C11B1EB0C0163EB0E03D0
:1046E000DB0043EA5173C90011EB000C43F10003F6
:1046F000990200234FEA8C2041EA9C51FCF7DEF935
:10470000D1E70348D7E70348D5E700BF00380240A8
:1047100000127A000024F400002800F09B8070B59D
:104720000D4604464F4B1B6803F007038B4208D22B
:10473000CBB24C4A1370136803F007038B4240F06E
:104740008B80236813F0020F17D013F0040F04D0EE
:10475000454A936843F4E0539360236813F0080FCD
:1047600004D0414A936843F4604393603E4A93689F
:1047700023F0F003A1680B439360236813F0010F4B
:1047800032D06368012B21D09A1E012A25D9364ADE
:10479000126812F0020F61D033498A6822F00302D6
:1047A00013438B60FEF742F906462F4B9B6803F0DC
:1047B0000C036268B3EB820F16D0FEF737F9801B4B
:1047C00041F288339842F0D9032042E0264A126829
:1047D00012F4003FE0D101203BE0234A126812F0BE
:1047E000007FD9D1012034E01E4B1B6803F0070382
:1047F000AB4207D9EAB21B4B1A701B6803F00703E0
:10480000AB422DD1236813F0040F06D0164A9368EB
:1048100023F4E053E1680B439360236813F0080F1F
:1048200007D0114A936823F46043216943EAC10326
:104830009360FFF703FF0C4B9B68C3F303130B4A12
:10484000D35CD8400A4B18600A4B1868FDF7E6F8AD
:10485000002070BD012070470120FAE70120F8E731
:104860000120F6E7003C024000380240CC970108E6
:10487000040000200C000020014B1868704700BFA6
:104880000400002008B5FFF7F7FF044B9B68C3F353
:104890008223034AD35CD84008BD00BF00380240E1
:1048A000C49701080F2303600B4B9A6802F00302C0
:1048B00042609A6802F0F00282609A6802F4E05264
:1048C000C2609B68DB0803F4E0530361034B1B6881
:1048D00003F007030B60704700380240003C0240C1
:1048E0002DE9F04782B00546884617461E46FEF77A
:1048F0009DF80A9B1B1A03EB0609FEF797F8824600
:10490000284B1B68C3F3CB3309FB03F301932B68DC
:104910009C6838EA04040CBF01230023BB423DD04D
:10492000B6F1FF3FF3D0FEF781F8A0EB0A0048454F
:1049300007D2019A02B14A46019B013B019391467D
:10494000E5E72A68536823F0E00353606B68B3F52A
:10495000827F0BD0AB6AB3F5005F14D0012385F8DA
:104960005130002385F85030032018E0AB68B3F5D0
:10497000004F02D0B3F5806FECD12A68136823F0A2
:1049800040031360E6E72A68136823F400531360BA
:104990002A68136843F400531360DFE7002002B075
:1049A000BDE8F0870400002070B584B004460D46D1
:1049B000164600920B4601220221FFF791FFD0B963
:1049C000174B1B68174AA2FB03235B0D4FF47A7247
:1049D00002FB03F303936368B3F5827F11D0039B5B
:1049E0003BB1039B013B039323689B6813F0800F4B
:1049F000F5D104B070BD636D43F0200363650320FF
:104A0000F7E700962B46002280212046FFF768FF3B
:104A10000028EED0636D43F0200363650320E8E7D0
:104A200004000020819F5E1600285AD010B504466D
:104A3000436A33B94368B3F5827F05D00023C3616D
:104A400002E00023036143610023A36294F8513024
:104A5000002B40D0022384F851302268136823F0E1
:104A600040031360636803F48273A26802F4044293
:104A70001343E26802F400621343226902F0020267
:104A80001343626902F001021343A26902F4007247
:104A90001343E26902F038021343226A02F08002F3
:104AA0001343A26A02F40052216813430B60638B24
:104AB00003F00403626A02F01002216813434B60A2
:104AC0002268D36923F40063D36100206065012369
:104AD00084F8513010BD84F850302046FCF718FFA0
:104AE000B8E7012070472DE9F04383B004468846BB
:104AF00091461F460A9DFDF799FF064694F85130EE
:104B0000DBB26268012B0AD0B2F5827F40F00581EA
:104B1000A268002A40F00581042B40F00481B8F11E
:104B2000000F00F00281B9F1000F00F00081002FAA
:104B300000F0FF8094F85030012B00F0FC8001233E
:104B400084F8503094F85130DBB2042B02D00523A6
:104B500084F8513000236365C4F83890E787A7874D
:104B6000C4F83080E786A7862364636423681A68E4
:104B700012F0400F03D11A6842F040021A60E36855
:104B8000B3F5006F11D063680BB1012F0BD1226B0D
:104B9000236812781A73236B01332363E38E9BB26D
:104BA000013B9BB2E386012771E063680BB1012FE3
:104BB0000BD1226B23681288DA60236B02332363E4
:104BC000E38E9BB2013B9BB2E38601271BE0236887
:104BD0009A6812F0010F0ED0E28F92B25AB1DA68E1
:104BE000A36B1A80A36B0233A363E38F9BB2013BD9
:104BF0009BB2E3870127FDF719FF801BA84202D370
:104C0000B5F1FF3F1ED1E38E9BB21BB9E38F9BB280
:104C1000002B62D023689A6812F0020FD7D0E28E80
:104C200092B2002AD3D0002FD1D0226B1288DA6042
:104C3000236B02332363E38E9BB2013B9BB2E3867B
:104C40000027C4E7012384F85130002384F8503052
:104C5000032063E023689A6812F0010F0ED0E28F00
:104C600092B25AB1DA68A36B1A70A36B0133A363D3
:104C7000E38F9BB2013B9BB2E3870127FDF7D6FE92
:104C8000831BAB4202D3B5F1FF3F1ED1EDB1E38EE2
:104C90009BB213B9E38F9BB2FBB123689A6812F001
:104CA000020FD7D0E28E92B2002AD3D0002FD1D0FB
:104CB000226B12781A73236B01332363E38E9BB24A
:104CC000013B9BB2E3860027C4E7012384F85130FF
:104CD000002384F85030032020E032462946204645
:104CE000FFF762FE90B9A36833B901932368DA68CD
:104CF00001929B680193019B012384F851300023AA
:104D000084F85030636D4BB1012007E020236365C8
:104D1000002384F85030012000E0022003B0BDE8F9
:104D2000F0830220FAE70220F8E70120F6E70120ED
:104D3000F4E70120F2E70220F0E7000030B4036A54
:104D4000026A22F0010202624268846924F0730C54
:104D50000C6844EA0C0423F0020C8B6843EA0C0351
:104D6000114DA84203D005F58065A84205D123F076
:104D70000803CD682B4323F004030B4DA84203D056
:104D800005F58065A84207D122F440724D6945EAD5
:104D9000020C8A6942EA0C02426084614A684263FA
:104DA000036230BC704700BF0000014030B4036AAA
:104DB000026A22F4807202624268C46924F0730CB1
:104DC0000C6844EA0C0523F400738C6843EA04235E
:104DD000114CA04203D004F58064A04206D123F414
:104DE0000063CC6843EA042323F480630A4CA042A6
:104DF00003D004F58064A04207D122F440524C69EC
:104E000042EA04128C6942EA04124260C5614A68AF
:104E1000C263036230BC70470000014030B4036AD3
:104E2000026A22F4805202624468C26922F4E642B5
:104E30000D6842EA052223F400538D6843EA0533E6
:104E4000094DA84203D005F58065A84204D124F499
:104E500080444D6944EA85144460C2614A68026432
:104E6000036230BC704700BF000001407047000083
:104E700090F83D30DBB2012B37D1022380F83D3072
:104E80000268D36843F00103D3600368194A934270
:104E900020D0B3F1804F1DD0A2F57C42934219D0AF
:104EA00002F58062934215D002F58062934211D0E0
:104EB00002F5784293420DD002F57052934209D028
:104EC000A2F59432934205D01A6842F001021A60AA
:104ED000002070479A6802F00702062A07D01A6875
:104EE00042F001021A600020704701207047002044
:104EF000704700BF0000014070477047704770471F
:104F0000704770B504460368DE681D6915F0020F2E
:104F100010D016F0020F0DD06FF002021A610123BB
:104F2000037703689B6913F0030F5ED0FFF7E6FF7A
:104F30000023237715F0040F12D016F0040F0FD0C2
:104F400023686FF004021A610223237723689B69A8
:104F500013F4407F4FD02046FFF7D0FF0023237784
:104F600015F0080F12D016F0080F0FD023686FF05D
:104F700008021A61042323772368DB6913F0030F07
:104F800040D02046FFF7BAFF0023237715F0100F1B
:104F900012D016F0100F0FD023686FF010021A61B4
:104FA000082323772368DB6913F4407F31D0204640
:104FB000FFF7A4FF0023237715F0010F02D016F0AE
:104FC000010F2DD115F0800F02D016F0800F2FD1D8
:104FD00015F0400F02D016F0400F31D115F0200F20
:104FE00002D016F0200F33D170BDFFF786FF2046A8
:104FF000FFF785FF9CE72046FFF77FFF2046FFF77E
:105000007EFFABE72046FFF778FF2046FFF777FFEC
:10501000BAE72046FFF771FF2046FFF770FFC9E7A8
:1050200023686FF001021A612046FCF7C5FBC9E74F
:1050300023686FF080021A61204600F047FAC7E744
:1050400023686FF040021A612046FFF759FFC5E759
:1050500023686FF020021A61204600F036FAC3E799
:105060000368344A904212D0B0F1804F0FD0A2F5BD
:105070007C4290420BD002F58062904207D002F54C
:105080008062904203D002F57842904203D123F02F
:1050900070034A681343274A90422AD0B0F1804FE8
:1050A00027D0A2F57C42904223D002F58062904244
:1050B0001FD002F5806290421BD002F578429042E8
:1050C00017D002F57052904213D002F580629042E0
:1050D0000FD002F5806290420BD0A2F59832904238
:1050E00007D002F58062904203D002F580629042C0
:1050F00003D123F44073CA68134323F080034A6941
:10510000134303608B68C3620B688362094B984248
:1051100003D003F58063984201D10B690363012337
:105120004361036913F0010F03D0036923F0010306
:10513000036170470000014040B310B5044690F889
:105140003D30F3B1022384F83D30214651F8040B81
:10515000FFF786FF012384F8463084F83E3084F858
:105160003F3084F8403084F8413084F8423084F88D
:10517000433084F8443084F8453084F83D300020D2
:1051800010BD80F83C30FFF771FEDBE7012070476F
:1051900040B310B5044690F83D30F3B1022384F8D3
:1051A0003D30214651F8040BFFF75AFF012384F8E4
:1051B000463084F83E3084F83F3084F8403084F83C
:1051C000413084F8423084F8433084F8443084F825
:1051D000453084F83D30002010BD80F83C30FFF7AA
:1051E0008BFEDBE70120704740B310B5044690F812
:1051F0003D30F3B1022384F83D30214651F8040BD1
:10520000FFF72EFF012384F8463084F83E3084F8FF
:105210003F3084F8403084F8413084F8423084F8DC
:10522000433084F8443084F8453084F83D30002021
:1052300010BD80F83C30FCF7D3FCDBE70120704761
:1052400030B4036A026A22F0100202624468826982
:1052500022F4E6420D6842EA052223F020038D681D
:1052600043EA0513114DA84203D005F58065A84215
:1052700006D123F08003CD6843EA051323F04003F1
:105280000A4DA84203D005F58065A84207D124F451
:1052900040644D6944EA85048D6944EA85044460AC
:1052A00082614A688263036230BC7047000001403B
:1052B00090F83C30012B28D010B50446012380F82B
:1052C0003C300C2A1CD8DFE802F0071B1B1B0C1B10
:1052D0001B1B111B1B1B16000068FFF72FFD002076
:1052E0000FE00068FFF7ACFF00200AE00068FFF75E
:1052F0005DFD002005E00068FFF790FD002000E064
:105300000120002384F83C3010BD0220704738B5DE
:1053100090F83C30012B66D004460D46012380F8FE
:105320003C300C2A5AD8DFE802F0075959591B596A
:1053300059593059595944000068FFF7FFFC226859
:10534000936943F0080393612268936923F004038F
:1053500093612268936929690B43936100203EE0C1
:105360000068FFF76DFF2268936943F4006393615F
:105370002268936923F480639361226893692969A1
:1053800043EA01239361002029E00068FFF70EFD46
:105390002268D36943F00803D3612268D36923F0FC
:1053A0000403D3612268D36929690B43D3610020C8
:1053B00015E00068FFF732FD2268D36943F400630B
:1053C000D3612268D36923F48063D3612268D369EF
:1053D000296943EA0123D361002000E00120002372
:1053E00084F83C3038BD0220FCE7000090F83C20F7
:1053F000012A3DD010B40346012280F83C2002224D
:1054000080F83D2002685068946820F0700C0868AD
:1054100040EA0C0050601A68164882421AD0B2F175
:10542000804F17D0A0F57C40824213D000F58060F9
:1054300082420FD000F5806082420BD000F57840A8
:10544000824207D000F57050824203D0A0F594301C
:10545000824204D124F080044968214391600122F2
:1054600083F83D20002083F83C005DF8044B704732
:105470000220704700000140024690F83C30012BAA
:1054800021D0012380F83C30CB6823F44073886836
:10549000034323F480634868034323F400630868EC
:1054A000034323F480530869034323F400534869FA
:1054B000034323F48043C9690B4311684B64002004
:1054C00082F83C007047022070477047704782B0F6
:1054D00000230193019B01330193019BB3F1706F92
:1054E00015D80369002BF5DA00230193036943F013
:1054F00001030361019B01330193019BB3F1706FC1
:1055000008D8036913F0010FF4D1002000E0032054
:1055100002B070470320FBE784B010B5044603A82F
:1055200080E80E009DF81130012B21D1A36B23F4EC
:105530008033A363E36823F4840323F04003E36030
:10554000E36823F44013E3609DF81830012B0AD080
:105550002046FFF7BCFF9DF80E30012B1CD0BDE8A4
:10556000104004B07047E36843F48013E360EFE752
:10557000E36843F04003E3602046FFF7A8FF9DF88F
:10558000153023B9A36B43F48033A363E3E7A36B24
:1055900023F48033A363DEE7A36843F00603A3602C
:1055A000A36843F02003A360D9E70000022A0AD0D1
:1055B0000922C36823F47053C360C36843EA82239B
:1055C000C36000207047234B0B44234A93422FD9DA
:1055D000224B0B44224A93422CD9A1F57403A3F524
:1055E0001053204A934227D9A1F18373A3F5E743CF
:1055F0001D4A934222D31D4B0B441D4A93421FD98F
:105600001C4B0B441C4A93421CD31C4B0B441C4A9E
:10561000934219D3A1F1B773A3F55853194A934292
:1056200014D3194B0B44194A934211D20722C0E7F5
:105630000F22BEE70E22BCE70D22BAE70C22B8E724
:105640000B22B6E70A22B4E70922B2E70822B0E744
:105650000622AEE7405327FFFF340C00401E1BFF1D
:105660003F420F007F4F120020D6130060B6E5FEC8
:105670005FE3160000D3CEFE40771B00C05BB3FE95
:10568000C091210020753800E05459FEE09C410093
:10569000836843F00103836000207047836823F030
:1056A000010383600020704782B000230193019BB7
:1056B00001330193019BB3F1706F15D80369002B7F
:1056C000F5DA00230193890141F020010161019B7A
:1056D00001330193019BB3F1706F08D8036913F094
:1056E000200FF4D1002000E0032002B07047032017
:1056F000FBE782B000230193019B01330193019BDF
:10570000B3F1706F13D80369002BF5DA002301930E
:1057100010230361019B01330193019BB3F1706F6F
:1057200008D8036913F0100FF4D1002000E0032023
:1057300002B070470320FBE7D0F800381943C0F8E7
:10574000001800207047000084B0F8B5044607A890
:1057500080E80E00002306E003F1400204EB820221
:105760000021516001330E2BF6D99DF8266006BB4F
:10577000D4F8043843F00203C4F80438A36B43F4AC
:105780000013A363A36B23F40023A363A36B23F48D
:105790008023A3630023C4F8003E9DF82130012B31
:1057A00015D19DF81F306BB900212046FFF7C4FFCB
:1057B00011E0A36B23F40013A363A36B43F4002352
:1057C000A363E7E701212046FFF7B6FF03E00321CB
:1057D0002046FFF7B1FF10212046FFF765FF054681
:1057E00000B101252046FFF784FF00B1012504F533
:1057F000006C0023CCF81030CCF81430CCF81C30FE
:105800000AE0CBB94FF00060C2F8000900220A613B
:105810004FF67F328A6001339DF81C10994210D9EF
:1058200004EB431202F51061D2F800090028E8DB0E
:105830000020C2F80009E9E74FF09040C2F80009E3
:10584000E4E700230AE0BBB14FF09047C2F8007BC9
:10585000002202614FF67F3282600133994210D9F3
:1058600004EB431202F53060D2F8007B002FEADB34
:105870000027C2F8007BEBE74FF00067C2F8007B1F
:10588000E6E7DCF8103023F48073CCF81030002306
:10589000A3616FF0804363619DF81E301BB9A3695B
:1058A00043F01003A361A2690B4B1343A3619DF85E
:1058B00022301BB1A36943F00803A361012E04D079
:1058C0002846BDE8F84004B07047A36943F0804320
:1058D00043F00403A361F3E700383C80D0F80838B4
:1058E00003F00603022B04D0062B04D02BB90020B2
:1058F000704702207047022070470F20704710B594
:1059000091F800C04B78012B23D000F5006ED0F841
:105910001C380CF00F040122A24043EA0243C0F8F5
:105920001C3800EB4C10D0F8003B13F4004F0ED1A4
:10593000D0F8003B8A68C2F30A02097942EA814240
:10594000134343F0805343F40043C0F8003B00206E
:1059500010BDD0F81C280CF00F0E03FA0EF39BB20A
:105960001343C0F81C3800EB4C10D0F8003913F486
:10597000004FECD1D0F800398A68C2F30A020979E5
:1059800042EA814242EA8C52134343F0805343F48B
:105990000043C0F80039DAE730B40B784A78012ABE
:1059A00026D000EB4313D3F8002B002A52DBD0F8AB
:1059B0003C480A7802F00F024FF0010C0CFA02F298
:1059C00024EA0242C0F83C28D0F81C28097801F0EB
:1059D0000F010CFA01FC22EA0C42C0F81C28D3F893
:1059E000001B234A0A40C3F8002B002030BC70473C
:1059F00000EB4313D3F80029002A1EDBD0F83C58F3
:105A00000A7802F00F02012404FA02F292B225EAA7
:105A10000202C0F83C28D0F81C28097801F00F01D8
:105A20008C40A4B222EA0402C0F81C28D3F8001962
:105A3000104A0A40C3F80029D7E7D3F8002942F0FA
:105A40000062C3F80029D3F8002942F08042C3F86D
:105A50000029D3E7D3F8002B42F00062C3F8002BF3
:105A6000D3F8002B42F08042C3F8002B9FE700BF21
:105A70000078F3EF007833EC10B483B002460023D3
:105A80000193487801280BD00B7802EB4313D3F82D
:105A9000000B00282DDB002003B05DF8044B70479D
:105AA0000B7802EB4313D3F80049002C01DB0020F4
:105AB000F2E7D3F8004944F00064C3F800490B78DA
:105AC00002EB4313D3F8004944F08044C3F8004983
:105AD000019B01330193019C42F210739C42DBD87D
:105AE0000B7802EB4313D3F80039002BF0DB0020D6
:105AF000D2E7D3F8000B40F00060C3F8000B0B783E
:105B000002EB4313D3F8000B40F08040C3F8000BC6
