:020000040800F2
:1000000000000220351F00084D1C00084F1C00088E
:10001000511C0008531C0008551C0008000000007B
:1000200000000000000000000000000091880008AF
:10003000571C00080000000031890008A585000851
:10004000851F0008851F0008851F0008851F000800
:10005000851F0008851F0008851F0008851F0008F0
:10006000851F0008851F0008851F0008851F0008E0
:10007000851F0008851F0008851F0008851F0008D0
:10008000851F0008851F0008851F0008851F0008C0
:10009000851F0008851F0008851F0008851F0008B0
:1000A000851F0008591C0008851F0008851F0008CF
:1000B000851F0008851F0008851F0008851F000890
:1000C000851F0008851F0008851F0008851F000880
:1000D000851F0008851F0008851F0008851F000870
:1000E000851F0008851F0008851F0008851F000860
:1000F000851F0008851F0008851F0008851F000850
:10010000851F0008851F0008851F0008851F00083F
:10011000851F0008851F00086D1C0008851F00084A
:100120007D1C0008851F0008851F0008851F00082A
:10013000851F00080000000000000000851F000867
:10014000851F0008851F0008851F00088D1C0008FA
:10015000851F0008851F0008851F0008851F0008EF
:10016000851F0008851F0008851F0008851F0008DF
:10017000851F0008851F0008000000000000000027
:08018000851F0008851F00081F
:1001C00081F0004102E000BF83F0004330B54FEA08
:1001D00041044FEA430594EA050F08BF90EA020F75
:1001E0001FBF54EA000C55EA020C7FEA645C7FEA08
:1001F000655C00F0E2804FEA5454D4EB5555B8BF2B
:100200006D420CDD2C4480EA020281EA030382EA9B
:10021000000083EA010180EA020281EA0303362D2D
:1002200088BF30BD11F0004F4FEA01314FF4801C00
:100230004CEA113102D0404261EB410113F0004F12
:100240004FEA03334CEA133302D0524263EB4303C9
:1002500094EA050F00F0A780A4F10104D5F1200E67
:100260000DDB02FA0EFC22FA05F2801841F10001C2
:1002700003FA0EF2801843FA05F359410EE0A5F196
:1002800020050EF1200E012A03FA0EFC28BF4CF0C7
:10029000020C43FA05F3C01851EBE37101F000457D
:1002A00007D54FF0000EDCF1000C7EEB00006EEB8A
:1002B0000101B1F5801F1BD3B1F5001F0CD3490814
:1002C0005FEA30004FEA3C0C04F101044FEA44526B
:1002D00012F5800F80F09A80BCF1004F08BF5FEAF2
:1002E000500C50F1000041EB045141EA050130BDD2
:1002F0005FEA4C0C404141EB0101013C28BFB1F5E4
:10030000801FE9D291F0000F04BF01460020B1FA2E
:1003100081F308BF2033A3F10B03B3F120020CDA01
:100320000C3208DD02F1140CC2F10C0201FA0CF0DF
:1003300021FA02F10CE002F11402D8BFC2F1200C44
:1003400001FA02F120FA0CFCDCBF41EA0C019040FA
:10035000E41AA2BF01EB0451294330BD6FEA040443
:100360001F3C1CDA0C340EDC04F11404C4F120022E
:1003700020FA04F001FA02F340EA030021FA04F340
:1003800045EA030130BDC4F10C04C4F1200220FA97
:1003900002F001FA04F340EA0300294630BD21FAD5
:1003A00004F0294630BD94F0000F83F4801306BF9B
:1003B00081F480110134013D4EE77FEA645C18BF8F
:1003C0007FEA655C29D094EA050F08BF90EA020F26
:1003D00005D054EA000C04BF1946104630BD91EA1E
:1003E000030F1EBF0021002030BD5FEA545C05D121
:1003F0004000494128BF41F0004130BD14F5800460
:100400003CBF01F5801130BD01F0004545F0FE41D3
:1004100041F470014FF0000030BD7FEA645C1ABF08
:10042000194610467FEA655C1CBF0B46024650EA3F
:10043000013406BF52EA033591EA030F41F400216B
:1004400030BD00BF90F0000F04BF0021704730B5F1
:100450004FF4806404F132044FF000054FF00001C6
:1004600050E700BF90F0000F04BF0021704730B587
:100470004FF4806404F1320410F0004548BF40425C
:100480004FF000013EE700BF42004FEAE2014FEAB1
:1004900031014FEA02701FBF12F07F4393F07F4F8C
:1004A00081F06051704732F07F4208BF704793F08F
:1004B0007F4F04BF41F40021704730B54FF46074A2
:1004C00001F0004521F000411CE700BF50EA0102A5
:1004D00008BF704730B54FF000050AE050EA01024E
:1004E00008BF704730B511F0004502D5404261EBBE
:1004F00041014FF4806404F132045FEA915C3FF4FF
:10050000D8AE4FF003025FEADC0C18BF03325FEA9B
:10051000DC0C18BF033202EBDC02C2F1200300FA4C
:1005200003FC20FA02F001FA03FE40EA0E0021FA71
:1005300002F11444BDE600BF70B54FF0FF0C4CF45F
:10054000E06C1CEA11541DBF1CEA135594EA0C0F11
:1005500095EA0C0F00F0DEF82C4481EA030621EA4C
:100560004C5123EA4C5350EA013518BF52EA033587
:1005700041F4801143F4801338D0A0FB02CE4FF039
:100580000005E1FB02E506F00042E0FB03E54FF069
:100590000006E1FB03569CF0000F18BF4EF0010E61
:1005A000A4F1FF04B6F5007F64F5407404D25FEA5D
:1005B0004E0E6D4146EB060642EAC62141EA555110
:1005C0004FEAC52040EA5E504FEACE2EB4F1FD0C52
:1005D00088BFBCF5E06F1ED8BEF1004F08BF5FEAD0
:1005E000500E50F1000041EB045170BD06F0004682
:1005F00046EA010140EA020081EA0301B4EB5C042F
:10060000C2BFD4EB0C0541EA045170BD41F4801126
:100610004FF0000E013C00F3AB8014F1360FDEBF4B
:10062000002001F0004170BDC4F10004203C35DA27
:100630000C341BDC04F11404C4F1200500FA05F3AA
:1006400020FA04F001FA05F240EA020001F000424B
:1006500021F0004110EBD37021FA04F642EB0601C1
:100660005EEA430E08BF20EAD37070BDC4F10C04EB
:10067000C4F1200500FA04F320FA05F001FA04F2AF
:1006800040EA020001F0004110EBD37041F100019B
:100690005EEA430E08BF20EAD37070BDC4F12005A6
:1006A00000FA05F24EEA020E20FA04F301FA05F20E
:1006B00043EA020321FA04F001F0004121FA04F2B6
:1006C00020EA020000EBD3705EEA430E08BF20EA86
:1006D000D37070BD94F0000F0FD101F000464000C0
:1006E00041EB010111F4801F08BF013CF7D041EA42
:1006F000060195F0000F18BF704703F00046520046
:1007000043EB030313F4801F08BF013DF7D043EA16
:100710000603704794EA0C0F0CEA135518BF95EACC
:100720000C0F0CD050EA410618BF52EA4306D1D153
:1007300081EA030101F000414FF0000070BD50EA72
:10074000410606BF1046194652EA430619D094EAFC
:100750000C0F02D150EA013613D195EA0C0F05D1E6
:1007600052EA03361CBF104619460AD181EA03013A
:1007700001F0004141F0FE4141F470014FF00000F2
:1007800070BD41F0FE4141F4780170BD70B54FF08D
:10079000FF0C4CF4E06C1CEA11541DBF1CEA13550D
:1007A00094EA0C0F95EA0C0F00F0A7F8A4EB0504EF
:1007B00081EA030E52EA03354FEA013100F08880E6
:1007C0004FEA03334FF0805545EA131343EA1263AF
:1007D0004FEA022245EA111545EA10654FEA002664
:1007E0000EF000419D4208BF964244F1FD0404F51D
:1007F000407402D25B084FEA3202B61A65EB030579
:100800005B084FEA32024FF480104FF4002CB6EB35
:10081000020E75EB030E22BFB61A754640EA0C00B5
:100820005B084FEA3202B6EB020E75EB030E22BFF5
:10083000B61A754640EA5C005B084FEA3202B6EB36
:10084000020E75EB030E22BFB61A754640EA9C00F5
:100850005B084FEA3202B6EB020E75EB030E22BFC5
:10086000B61A754640EADC0055EA060E18D04FEA83
:10087000051545EA16754FEA06164FEAC30343EA23
:1008800052734FEAC2025FEA1C1CC0D111F4801FF0
:100890000BD141EA00014FF000004FF0004CB6E7E9
:1008A00011F4801F04BF01430020B4F1FD0C88BF88
:1008B000BCF5E06F3FF6AFAEB5EB030C04BFB6EB93
:1008C000020C5FEA500C50F1000041EB045170BD86
:1008D0000EF0004E4EEA113114EB5C04C2BFD4EBB3
:1008E0000C0541EA045170BD41F480114FF0000E37
:1008F000013C90E645EA060E8DE60CEA135594EAB3
:100900000C0F08BF95EA0C0F3FF43BAF94EA0C0FB5
:100910000AD150EA01347FF434AF95EA0C0F7FF42A
:1009200025AF104619462CE795EA0C0F06D152EA7E
:1009300003353FF4FDAE1046194622E750EA410662
:1009400018BF52EA43067FF4C5AE50EA41047FF473
:100950000DAF52EA43057FF4EBAE12E74FF0FF3CD8
:1009600006E000BF4FF0010C02E000BF4FF0010CA9
:100970004DF804CD4FEA410C7FEA6C5C4FEA430C22
:1009800018BF7FEA6C5C1BD001B050EA410C0CBF71
:1009900052EA430C91EA030F02BF90EA020F0020D3
:1009A000704710F1000F91EA030F58BF994208BF3A
:1009B00090422CBFD8176FEAE37040F001007047F7
:1009C0004FEA410C7FEA6C5C02D150EA013C07D14E
:1009D0004FEA430C7FEA6C5CD6D152EA033CD3D099
:1009E0005DF8040B704700BF8446104662468C4693
:1009F0001946634600E000BF01B5FFF7B7FF0028C6
:100A000048BF10F1000F01BD4DF808EDFFF7F4FFEE
:100A10000CBF012000205DF808FB00BF4DF808ED79
:100A2000FFF7EAFF34BF012000205DF808FB00BF9C
:100A30004DF808EDFFF7E0FF94BF012000205DF8BE
:100A400008FB00BF4DF808EDFFF7CEFF94BF012073
:100A500000205DF808FB00BF4DF808EDFFF7C4FF6C
:100A600034BF012000205DF808FB00BF4FEA4102BF
:100A700012F5001215D211D56FF47873B3EB6252F0
:100A800012D94FEAC12343F0004343EA505311F017
:100A9000004F23FA02F018BF404270474FF00000A9
:100AA000704750EA013005D111F0004008BF6FF0E7
:100AB000004070474FF00000704700BF53B94AB97B
:100AC000002908BF00281CBF4FF0FF314FF0FF3056
:100AD00000F0E2B8ADF1080C6DE904CE11F0A4FC11
:100AE000DDF804E0DDE9022304B0704700F13401D1
:100AF00091E838009C46A6464CF8045D90E8FF0F4C
:100B0000E54600BD90EC210B704700BF80EC210B47
:100B1000704700BF90EC200B704700BF80EC200BAB
:100B2000704700BFD0EC200B704700BFC0EC200B1B
:100B3000704700BFF0EC0201F0EC0211F0EC022172
:100B4000F0EC0231F0EC0241F0EC0251F0EC026109
:100B5000F0EC0271F0EC0281F0EC0291F0EC02A1F9
:100B6000F0EC02B1F0EC02C1F0EC02D1F0EC02E1E9
:100B7000F0EC02F1704700BFE0EC0201E0EC021182
:100B8000E0EC0221E0EC0231E0EC0241E0EC025149
:100B9000E0EC0261E0EC0271E0EC0281E0EC029139
:100BA000E0EC02A1E0EC02B1E0EC02C1E0EC02D129
:100BB000E0EC02E1E0EC02F1704700BFB0FC018123
:100BC000B0FC0191B0FC01A1B0FC01B1704700BFC5
:100BD000A0FC0181A0FC0191A0FC01A1A0FC01B13D
:100BE000704700BFEC4600B52DE900502DE9FF1F0E
:100BF0004FF000032DE90C0001A911F0C9FEDDF84A
:100C000040E012B0704700BFEC4600B52DE900503F
:100C10002DE9FF1F4FF000032DE90C0001A911F091
:100C2000F3FEDDF840E012B0704700BFEC4600B5BF
:100C30002DE900502DE9FF1F4FF000032DE90C00B6
:100C400001A911F003FFDDF840E012B0704700BFCA
:100C5000EC4600B52DE900502DE9FF1F4FF00003D1
:100C60002DE90C0001AB11F0C7FEDDF840E012B039
:100C7000704700BFEC4600B52DE900502DE9FF1F7D
:100C80004FF000032DE90C0001AA11F03BFFDDF845
:100C900040E012B0704700BF704700BF0000000086
:100CA000A2EB0300704700BF02780B78012A28BF2F
:100CB0009A42F5D16DE9044540EA0104CDE90267A5
:100CC0006FF0000C4FEA447212B380EA010414F092
:100CD000070F6AD100F0070420F0070004F00305B5
:100CE00021F007014FEAC505F0E8042314F0040FD2
:100CF000F1E804670CFA05F462EA040266EA040605
:100D00000AD063EA0403624667EA0407664603E022
:100D1000F0E80423F1E8046782FA4CF582EA06045D
:100D2000A4FA8CF46CBB83FA4CF583EA0705A5FAA8
:100D30008CF595B950E9022351E9026782FA4CF526
:100D400082EA0604A4FA8CF483FA4CF583EA0705D8
:100D5000A5FA8CF52543DBD09CB92DBAB5FA85F4FC
:100D600024F0070427FA04F1DDE9026723FA04F30B
:100D700003F0FF0001F0FF01FDE80445A0EB0100D6
:100D8000704724BAB4FA84F424F0070426FA04F174
:100D9000DDE9026722FA04F202F0FF0001F0FF0130
:100DA000FDE80445A0EB0100704714F0030F3CD1AF
:100DB00010F0030428D150F8082B51F8083B82FAB0
:100DC0004CF582EA0305A5FA8CF55DB950F8042CC0
:100DD00051F8043C82FA4CF582EA0305A5FA8CF539
:100DE000002DE8D02DBAB5FA85F424F0070423FAD3
:100DF00004F122FA04F202F0FF0001F0FF01FDE825
:100E00000445A0EB010070474FEAC40420F0030042
:100E100050F8082B21F0030151F8083B0CFA04F4B8
:100E200062EA040263EA0403C9E710F003041AD07B
:100E3000A1EB040120F00300E40750F8042B06D0D6
:100E40000FD28B785FFAA2F4E41A06D12BB1CB78DB
:100E50005FFAB2F4E41A00D11BB920465DF8104BDA
:100E6000704701F1040150F8042BCC0721F0030175
:100E700051F8043B48D824D222F07F4482FA4CF542
:100E800094EA1325A5FA8CF50AD165B951F8043B0B
:100E900084EA0204B4EB036F0ED150F8042BEBE7A5
:100EA0004FEA132355E035F07F454DD10878FDE832
:100EB0000445C0F1000070474FEA126203F0FF03DF
:100EC00047E002EA1C4482FA4CF594EA1345A5FA7D
:100ED0008CF50AD165B951F8043B84EA0204B4EBFD
:100EE000034F0CD150F8042BEBE74FEA134330E0EB
:100EF00015EA1C4528D10B884FEA124229E04FEA37
:100F0000124203EA1C4324E002F0FF0482FA4CF58B
:100F100094EA1365A5FA8CF50AD165B951F8043B3A
:100F200084EA0204B4EB032F09D150F8042BEBE759
:100F30004FEA13630DE015F0FF0F05D10B684FEA80
:100F4000122223F07F4304E04FF00000FDE8044547
:100F5000704712BA1BBA82FA4CF482EA0304A4FA6C
:100F60008CF5B5FA85F402FA04F203FA04F34FEAB9
:100F70001260FDE80445A0EB13607047000000001C
:100F800001F0FF01102A2BDB10F0070F08D010F83A
:100F9000013B013A8B422DD010F0070F42B3F6D13E
:100FA000F0B441EA012141EA014122F007047FF057
:100FB00000070023F0E80256083C85EA010586EAAE
:100FC000010685FA47F5A3FA87F586FA47F6A5FAEA
:100FD00087F68EB9EED1F0BC01F0FF0102F00702F6
:100FE00032B110F8013B013A83EA010313B1F8D1A1
:100FF0000020704701387047002D06BF3546033882
:10100000073815F0010F07D1013015F4807F02BFBA
:10101000013015F4C03F0130F0BC0138704700BF0B
:10102000844641EA000313F003036DD1403A41D3F3
:1010300051F8043B40F8043B51F8043B40F8043BB2
:1010400051F8043B40F8043B51F8043B40F8043BA2
:1010500051F8043B40F8043B51F8043B40F8043B92
:1010600051F8043B40F8043B51F8043B40F8043B82
:1010700051F8043B40F8043B51F8043B40F8043B72
:1010800051F8043B40F8043B51F8043B40F8043B62
:1010900051F8043B40F8043B51F8043B40F8043B52
:1010A00051F8043B40F8043B51F8043B40F8043B42
:1010B000403ABDD2303211D351F8043B40F8043BE2
:1010C00051F8043B40F8043B51F8043B40F8043B22
:1010D00051F8043B40F8043B103AEDD20C3205D3F2
:1010E00051F8043B40F8043B043AF9D2043208D0EA
:1010F000D2071CBF11F8013B00F8013B01D30B885C
:1011000003806046704700BF082A13D38B078DD039
:1011100010F003038AD0C3F10403D21ADB071CBF0B
:1011200011F8013B00F8013B80D331F8023B20F875
:10113000023B7BE7043AD9D3013A11F8013B00F8AE
:10114000013BF9D20B7803704B7843708B78837036
:101150006046704700000000000000000000000032
:10116000000000000000000000000000000000007F
:10117000000000000000000000000000000000006F
:1011800090F800F06DE9024520F007016FF0000CC7
:1011900010F0070491F820F040F049804FF000046F
:1011A0006FF00700D1E9002391F840F000F108004A
:1011B00082FA4CF2A4FA8CF283FA4CF3A2FA8CF382
:1011C0004BBBD1E9022382FA4CF200F10800A4FAE9
:1011D0008CF283FA4CF3A2FA8CF3E3B9D1E904233D
:1011E00082FA4CF200F10800A4FA8CF283FA4CF374
:1011F000A2FA8CF37BB9D1E9062301F1200182FA2E
:101200004CF200F10800A4FA8CF283FA4CF3A2FA33
:101210008CF3002BC6D0002A04BF04301A4612BA41
:10122000B2FA82F2FDE8024500EBD2007047D1E944
:10123000002304F00305C4F100004FEAC50514F0D3
:10124000040F91F840F00CFA05F562EA05021CBFA4
:1012500063EA050362464FF00004A9E74FEA410C38
:101260007FEA6C5C02D150EA013C0AD14FEA430CA0
:101270007FEA6C5C02D152EA033C02D14FF00000DD
:1012800070474FF0010070470348044B834202D07F
:10129000034B03B118477047C4070020C407002060
:1012A000000000000548064B1B1AD90F01EBA301F3
:1012B000491002D0034B03B118477047C407002000
:1012C000C40700200000000010B5064C237843B985
:1012D000FFF7DAFF044B13B10448AFF3008001239A
:1012E000237010BDC8070020000000009C9C01086E
:1012F00008B5054B1BB105490548AFF30080BDE8B3
:101300000840FFF7CFBF00BF00000000CC0700205F
:101310009C9C010810B50D4B9868038A13F4807FDC
:1013200010D10A4CE06801F0E1FEA06801F040FA3B
:1013300001F08EFD204600F087FE054B186807F08F
:10134000CAF910BD01F026FAEBE700BFA80800209B
:10135000E407002008B5024B986801F0A2F808BD28
:10136000A808002010B5134CA068036C0133036477
:10137000836C01338364836F01338367D0F88030DB
:101380000133C0F88030D0F888300133C0F888309D
:10139000E368D3F854210132C3F85421D3F8602113
:1013A0000132C3F8602101F08FF8E06802F012F812
:1013B00010BD00BFA808002000B58BB000F08CF96C
:1013C00000F090F907F0FAF82422002101A813F0A8
:1013D0004FFA0A4B01934FF4805306931823079357
:1013E00001AA0021064807F017F9064B186007F01C
:1013F000F7F800200BB05DF804FB00BFC89C0108A3
:1014000015130008E407002000B585B00023009301
:101410000193029303932848284A02604FF48032D4
:101420004260836001220261027680F82030C3624C
:1014300023498162C3600423C36180F83020426184
:1014400002F004FC40BB0A23009301230193002314
:1014500002936946184802F03FFD00BB0B2300933E
:10146000022301936946144802F036FDD0B90C23DB
:1014700000930323019369460F4802F02DFDA0B9A4
:101480000D2300930423019369460B4802F024FDC9
:1014900070B905B05DF804FB00F060FAD3E700F026
:1014A0005DFADBE700F05AFAE1E700F057FAE7E708
:1014B00000F054FAEDE700BFE807002000200140EB
:1014C0000100000F30B589B0002303930493059306
:1014D00006930793026803F1804303F590339A4221
:1014E00001D009B030BD04460025019503F58C33C9
:1014F0005A6C42F480725A645A6C02F480720192FF
:10150000019A02951A6B42F004021A631B6B03F0F6
:1015100004030293029B0F2303930323049303A961
:10152000104803F005F81048104B036045608560D3
:10153000C5604FF4806303614FF4006343614FF46F
:10154000005383614FF48073C3610562456202F00A
:1015500065FE18B9044BA3639C63C2E700F0FEF973
:10156000F8E700BF00080240300800201064024085
:10157000012800D070474FF6FF739942FAD12DE948
:10158000F04F97B0444B454D1D6001229A8044496D
:10159000444B0B6000244C60434E444B33607460FA
:1015A000434F384600F0DEFE424B10934FF4007379
:1015B000ADF8443012952023ADF84C3014958023BB
:1015C000ADF85430EE46119910988EE803000DF1F5
:1015D000080C139928468CE8030004AB16AA12E9FC
:1015E000030083E80300344ADFF8E0B0C2F800B03B
:1015F000DFF8DCA0C2F804A0DFF8D880C2F80080D1
:1016000008F11809C2F80490966002F10C059EE8F2
:10161000030085E8030002F1140E9CE803008EE845
:10162000030002F11C0C93E803008CE8030082F82D
:101630002C40CDF810B0CDF814A0CDF81080CDF826
:101640001490069607AE95E8030086E8030009ADFE
:101650009EE8030085E803000BAD9CE8030085E8E5
:101660000300516A0D91118DADF83810528DADF80F
:101670003A208DF83C40114C9FED110A0622114989
:10168000204601F061FC224639460F4800F07CFC00
:1016900017B0BDE8F08F00BF340A002000040240FC
:1016A000B00B0020C00B0020B80B0020180C00204D
:1016B000500900200008024020090020400A0020B4
:1016C000FFFFF944BC0C0020A8080020109D010871
:1016D000209D01089C9D010808B502F0DDF900F08D
:1016E0003FF908BD08B500F0B7F800F09BF8FFF728
:1016F0008BFE00F0AFF900F087F900F099FB09F0DC
:101700001FF8012008BD000008B5024804F054FE8F
:1017100008BD00BFBC0C002008B50C2202490348DC
:1017200002F0C0FA08BD00BF90080020E8070020C2
:1017300070B58AB006461B4CE08801F0C5FB1A4D17
:101740002288294605A801F003FD6288294603A8DE
:1017500001F0FEFCA288294601A801F0F9FC9DF8E1
:1017600018302BB19DF8103013B19DF8083013B923
:1017700001200AB070BD059B0793039B0893019B52
:101780000993337B2BB10AAB13E9070086E8070006
:10179000EEE70AAB13E9070086E80700012333737D
:1017A000E6E700BF90080020400A002070B586B030
:1017B000144B1B686FF001021A618021124802F07D
:1017C000B3FF124E3046FFF7C5FD02AC0023029373
:1017D0000393049305932046FFF7AAFF0C4D059B46
:1017E000009394E80E00284601F0D4FC3046FFF741
:1017F000B9FD059B009394E80E00284601F092FD88
:1018000006B070BDBC0C00200008024000000020A3
:10181000400A002008B54FF6FF710120FFF7A8FE2F
:1018200008BD000000B583B000220192094B196B7E
:1018300041F4800119631B6B03F480030193019B46
:101840000521382002F024FC382002F059FC03B0B6
:101850005DF804FB003802402DE9F0418AB0002415
:10186000059406940794089409940194314B1A6BDB
:1018700042F080021A631A6B02F080020192019A10
:1018800002941A6B42F004021A631A6B02F004020B
:101890000292029A03941A6B42F001021A631A6BC5
:1018A00002F001020392039A04941A6B42F00202BE
:1018B0001A631B6B03F002030493049BDFF8808020
:1018C00022461021404602F029FF1B4D224663218B
:1018D000284602F023FF194F22464FF42071384664
:1018E00002F01CFF10230593012606960794089426
:1018F00005A9404602F01CFE632305930696079453
:10190000089405A9284602F013FE4FF420730593AE
:1019100006960794089405A9384602F009FE80232C
:1019200005930694079405A9284602F001FE0AB023
:10193000BDE8F08100380240000402400008024087
:101940000000024008B50268034B9A4200D008BD6F
:1019500002F0BCF8FBE700BF0010004072B6FEE7E3
:1019600000B595B03022002108A812F081FF0023B5
:10197000039304930593069307930193204A116CF4
:1019800041F080511164126C02F080520192019A70
:1019900002931C4B1A6842F480421A601B6803F4DD
:1019A00080430293029B012308934FF480330993F1
:1019B00002230E934FF480020F9204221092A82269
:1019C000119212930723139308A803F0EFFC98B920
:1019D0000F23039302230493002305934FF4A05392
:1019E00006934FF480530793052103A803F048FFA3
:1019F00020B915B05DF804FBFFF7B0FFFFF7AEFFAD
:101A0000003802400070004008B51048104B0360D9
:101A10004FF482734360002383604FF40062C2601E
:101A200002220261012242614FF400728261182297
:101A3000C2610362436283620A23C36204F0F2F864
:101A400000B908BDFFF78AFFFBE700BFC00B00200D
:101A50000030014008B50F480F4B03604FF482730C
:101A60004360002383604FF40062C260036101227F
:101A700042614FF4007282611822C26103624362C4
:101A800083620A23C36204F0CDF800B908BDFFF7F2
:101A900065FFFBE7180C0020003C004000B58BB050
:101AA0000023059306930793089309930368284A34
:101AB000934205D0274A934225D00BB05DF804FB32
:101AC00000210191244B5A6C42F480525A645A6CA2
:101AD00002F480520192019A02911A6B42F00102C3
:101AE0001A631B6B03F001030293029BE02305932F
:101AF00002230693032308930523099305A9174896
:101B000002F016FDD9E700210391134B1A6C42F441
:101B100000421A641A6C02F400420392039A049180
:101B20001A6B42F004021A631B6B03F00403049364
:101B3000049B4FF4E0530593022306930323089379
:101B40000623099305A9064802F0F2FCB5E700BF99
:101B500000300140003C00400038024000000240DC
:101B60000008024000B583B0002200920D4B596C72
:101B700041F480415964596C01F48041009100990D
:101B80000192196C41F0805119641B6C03F0805371
:101B90000193019B0F216FF0010002F079FA03B06D
:101BA0005DF804FB0038024030B589B004460023DC
:101BB0000193214B1A6C42F010021A641B6C03F063
:101BC00010030193019B02A903A803F01FFF069BCA
:101BD000CBB903F00BFF0346184AA2FB03239B0C6F
:101BE000013B1748174A026040F2E732C260436087
:101BF000002303618360836104F042FD054630B138
:101C0000284609B030BD03F0F1FE4300E4E70C487C
:101C100004F0D2FB05460028F2D1362002F070FA1B
:101C20000F2C01D90125EBE700222146362002F0D6
:101C30002FFA054B1C60E3E70038024083DE1B43AC
:101C4000700C00200010004018000020FEE7FEE7A6
:101C5000FEE7FEE7FEE7704708B5034804F0F4FB33
:101C6000FFF7A4FD08BD00BFBC0C002008B502486A
:101C700004F0EAFB08BD00BF700C002008B5024864
:101C800002F068FB08BD00BF3008002008B502481C
:101C900003F083F808BD00BF9C710020012070474D
:101CA00008B512F057FF162303604FF0FF3008BD50
:101CB00008B54FF0FF31FFF7F3FFFEE770B50C46B4
:101CC0001646002506E0AFF30080214601F8010B1F
:101CD00001350C46B542F6DB304670BD70B50C469A
:101CE0001646002504E014F8010BAFF3008001351F
:101CF000B542F8DB304670BD4FF0FF3070474FF40F
:101D000000534B600020704701207047002070474F
:101D100010B503460C4A0D490D48006840B10C4807
:101D200000680344521A934206D8094A136010BD52
:101D30000748084C0460F2E712F00CFF0C23036024
:101D40004FF0FF30F3E700BF000002200004000066
:101D5000B80C0020D87B0020034AD2F8883043F426
:101D60007003C2F88830704700ED00E002680E4B47
:101D70009A4200D0704700B583B00022019203F56B
:101D80009C33596C41F0010159645B6C03F0010311
:101D90000193019B0521192002F07AF9192002F024
:101DA000AFF903B05DF804FB0000014070B588B0E6
:101DB0000023039304930593069307930268194B3A
:101DC0009A4201D008B070BD0024019403F59C3301
:101DD0001A6B42F002021A631A6B02F002020192BD
:101DE000019A02941A6B42F001021A631B6B03F012
:101DF00001030293029B4FF460430393022604966F
:101E00000125079503A9084802F092FB4FF4E0630F
:101E10000393049605940694079503A9034802F0DA
:101E200087FBCFE7000001400004024000000240B1
:101E300010B592B000241094119409940A940B9454
:101E40000C940D940E940F942022214601A812F0B8
:101E50000FFD3648364B036044604023836041F2F7
:101E60006803C36004614461846104F035FC0028A8
:101E700047D1202310930023119310A92B4804F07D
:101E8000FDFC002840D16023099300220A920B92A6
:101E90000C920D920E920F9209A9244804F080FC36
:101EA000002834D1042209A9204804F079FC002834
:101EB00030D1082209A91D4804F072FC68BB41F228
:101EC00067030A930C2209A9184804F069FC38BB7F
:101ED0004FF4006301934FF4806302930023039354
:101EE0001422049205934FF400520692089301A91C
:101EF0000E4804F009FDB0B90C48FFF757FF12B0C7
:101F000010BDFFF72BFDB4E7FFF728FDBBE7FFF798
:101F100025FDC7E7FFF722FDCBE7FFF71FFDCEE763
:101F2000FFF71CFDD4E7FFF719FDE5E7BC0C002027
:101F300000000140DFF834D0FFF70EFF0C480D49D8
:101F40000D4A002302E0D458C4500433C4188C4214
:101F5000F9D30A4A0A4C002301E013600432A2427A
:101F6000FBD312F0FDFDFFF727FA704700000220B7
:101F700000000020C4070020B4C40108C8070020E6
:101F8000D47B0020FEE7000070B586B00346002435
:101F900004704470847044608160C26028490161AB
:101FA000284901614FF0FF4141618161C1614FF0FA
:101FB000000CC0F820C0C0F824C0C0F828C0C0F889
:101FC0002CC0CDF810C0CDF814C0EE4606A911E91A
:101FD00003008EE8030002251D6303F134069EE82A
:101FE000030086E80300CDF808C0CDF80CC002A9B4
:101FF00003C98EE80300DD6303F140069EE8030099
:1020000086E803009D64C3F84CC01D65C3F854C046
:102010009D65C3F85CC083F860405C6683F86850D7
:1020200003F16902C3F86940C3F86D40A3F8714039
:102030005A679A68D360DA685365184606B070BD6F
:10204000649D0108809F010810B58AB004462422CF
:10205000002101A812F00CFC084B01934FF400532F
:1020600006931823079301AA0021054806F0D4FA25
:10207000012384F860300AB010BD00BFC89C01087D
:102080008D20000808B508F02BFBFCE708B5FFF72A
:10209000F9FF01207047B6EE000A7047B6EE000A5D
:1020A000704700009FED010A704700BF5E74513F0A
:1020B0009FED010A704700BF5E74513F90F82C00FD
:1020C000022814BF002001207047A0F10400FFF790
:1020D000F5BF000010B586B084460C461C4B0FCBF4
:1020E0000DF1180E0EE90F00032301E0013B9BB236
:1020F0004BB106AA02EB830252ED047AF4EEC07AE9
:10210000F1EE10FAF2DC2CB106AA02EB830252F8CF
:10211000102C22604FF4AA62ADF804209B009BB201
:10212000ADF80630BCF82420B2F5AA6F03D1BCF894
:102130002620934209D0019BCCF8243000218CF852
:102140002C100CF1140008F063FA012006B010BD49
:10215000B89C010870B50446164641F40045058553
:10216000012001F08DFB25854FF6FF73638501206B
:1021700001F086FB638D4BF6EF62934205D036B1DA
:10218000C3F30A033380012070BD0020FCE7012067
:10219000FAE710B582B004460DF106020021FFF700
:1021A000D9FF80B101AA4FF400612046FFF7D2FFAA
:1021B00048B1BDF80600BDF804301B0403F4000369
:1021C000184302B010BD4FF0FF30FAE708B5C2F374
:1021D0000A0211430185012001F052FB012008BDD4
:1021E00090F82C30022B7DD030B583B0044600F13E
:1021F00014050121284608F00BFA282001F040FBC5
:10220000002384F82C300121284608F001FA14201C
:1022100006F079FAA28C4FF480512046FFF7D6FFE2
:1022200010B9002003B030BDA28C4FF4805120467D
:10223000FFF7CCFF0028F4D0A28C4FF48051204649
:10224000FFF7C4FF0028ECD0A28C4FF48051204649
:10225000FFF7BCFF0028E4D0A28C4FF48051204649
:10226000FFF7B4FF0028DCD0E28C4FF4C0512046C9
:10227000FFF7ACFF0028D4D0642001F001FB01235C
:1022800084F82C300DF106024FF480512046FFF700
:1022900061FF20B1A28CBDF806309A4201D0002027
:1022A000C0E70DF106024FF4C0512046FFF752FF80
:1022B0000028F4D0E28CBDF806309A42EFD12046D7
:1022C000FFF767FF80B994F82C30012B06D094F803
:1022D0002C00022814BF00200120A3E7022384F869
:1022E0002C30F4E70120704700209BE740687047DE
:1022F00010B50446024B036008F034FE204610BDC2
:10230000309E010810B50446044B036008F02AFE15
:102310000821204608F078FD204610BD309E0108B7
:1023200010B50446082008F0E1FD044A0260044AA2
:1023300002604460034A044909F0C8F918A9010879
:10234000309E0108F12200081C9E010808B510B15A
:102350000248FFF7E5FF0248FFF7E2FFC09D0108D2
:10236000E09D010810B40024046004718160C46021
:1023700040F2011202821F4A42611F4A82611F4AD3
:10238000C2611F4A02624462002282624FF48021CD
:10239000C1620121016380F83410846380F83C40FD
:1023A0000221016442648164C264026542658265FF
:1023B000C265026644668466C266026742678167D8
:1023C000C267C0F88010C0F88420C0F88810C0F838
:1023D0008C20C0F89240C0F896400A4AC0F89C2071
:1023E0001022A0F8A020C0F8D040A0F8D4405DF89A
:1023F000044B70470AD7A33CDB0F4942DB0F49412E
:1024000000007A4400000240D0ED087A77EEA77A07
:10241000C0ED1B7A67EEA77AB5EE007A67EE877A91
:10242000C0ED1C7A7047B0F8901040F20112914252
:1024300003D00360012303717047B0F896309B020C
:1024400003F47F33B0F89820910901F47C710B43B9
:10245000C2F303121343ECE7B0F8903013F4807F1B
:1024600001D10120704710B50446D0F89C30C0F867
:10247000D030B0F8A030A0F8D43000F19203C0F80A
:10248000D83000F19603C0F8DC30FFF7CCFF022310
:10249000C4F8E03004F1A401A06808F0F7F80120C6
:1024A00010BD08B5B0F8902040F201139A4200D058
:1024B00008BD48F2FF33A0F892304FF6FF73A0F842
:1024C0009430FFF7C9FFF3E730B52DED068B85B0EB
:1024D0000568B0F89030A3F58073012B04D9002073
:1024E00005B0BDEC068B30BD0446FFF7B5FFE16AD1
:1024F000A06E01F0A9F9A066B4F8903013F4807FC3
:1025000000D0A56694ED16AAD4ED189ADFED9CAA2A
:1025100069EEAA7AD4ED158A77EEA88AC4ED158AF9
:1025200037EE8A9A84ED169AD4ED1A7AB8EEE78AD5
:10253000B0EE490A0FF030FF38EE400AD4ED0B7AC6
:10254000B8EEE77AC0EE077AFDEE677AF8EEE77A42
:1025500067EE277A30EE670AD4ED177A70EE676A75
:102560009FED886A66EE866A77EEA67AC4ED177AE2
:10257000D4ED1B7A67EEAA7A67EE807A78EEA78AA6
:10258000C4ED158A79EE277AC4ED167AC7EE876A0C
:10259000FDEE666AF8EEE66A67EE266A77EEE67AA0
:1025A000F5EEC07AF1EE10FA00F18580C4ED167AEE
:1025B000D4ED1C6ADFED727A66EEA77A67EE807A58
:1025C00079EEA77AC4ED187AF0EEE77A9FED6E6A9D
:1025D00066EE866AF4EEE76AF1EE10FA6EDD00232D
:1025E00023660120C8EE877AC4ED1F7A0023A36713
:1025F000D4ED186AC6EE877A04F18001C4ED217A21
:10260000C4F88030D4F88C30009301238DF8043066
:1026100094ED167A37EE4A7AD4ED0B7AF8EEE76A43
:10262000C7EE267ABDEE677AB8EEC77A77EEC77A3C
:102630009DED007A77EE877ABDEE677AB8EEC77ABD
:1026400077EEC77AF5EEC07AF1EE10FA38D4C4ED21
:10265000237A0023C4F88830A36E626A9B1A07EEBF
:10266000903A10B994F834307BBB4FF07C5323651B
:10267000F8EEE77A94ED147A77EE877AE368DB6810
:102680005B695B0007EE103AB8EEC77A9FED3F6AD0
:1026900027EE067AF7EE005A85EEA66A27EE067A4E
:1026A000D4ED0A6A77EEE67A67EE877A94F83C0012
:1026B00050BB012014E777EE877A77E7002091E797
:1026C000B7EE007A77EE877AC1E794ED187A9FED3E
:1026D0002C6A27EE067A94ED146A37EE067A84EDBA
:1026E000147AB7EE006AB4EEC67AF1EE10FA01DDA4
:1026F00084ED146A94ED147AB5EEC07AF1EE10FA16
:10270000B6D500232365B3E7DFED216A87EEA67A0D
:10271000BDEE477AB8EEC77A27EE267A77EEC77A0B
:1027200094ED0C7AB8EEC77A67EE277AC4ED117A89
:1027300000232364D4F88030DBB100238DF80C3003
:10274000DDED027A9FED127A67EE877AE368DB6847
:1027500093ED057AB8EEC77A27EE277AD4ED0C7A96
:10276000F8EEE77A67EE877AC4ED137A0023A36464
:10277000B6E64B68029301238DF80C30E0E700BF0A
:1027800017B75138CDCCCC3D17B7D137DB0F494007
:10279000DB0FC94010B500F19C0400230122114653
:1027A000204607F05DFE0121204607F031FF10BDF5
:1027B00010B50446028AA0F89020A2F580739BB25F
:1027C000012B2AD900214FF48273C4F8A4300023CE
:1027D000C4F8A8304FF40060C4F8AC00C4F8B010DE
:1027E0000121C4F8B4104FF40071C4F8B8101821D6
:1027F000C4F8BC10C4F8C030C4F8C430C4F8C83041
:102800000A23C4F8CC3012F4807F08D12046FFF7A9
:10281000FBFD012384F83C3010BD0221D3E72046A4
:10282000FFF7B8FFF2E70000004870473C9E010840
:1028300082B010B58AB0844602A880E806000D93E5
:1028400000230593069307939DF84030B3B1DDED67
:102850000E7A9DED0F7A77EEC77A9FED117A67EECB
:10286000877A0D9B0893CDED097A05AB0AAA12E988
:10287000030083E8030001238DF81C30DCF80020FE
:1028800006AB93E803008DE80300059BD46802AA19
:1028900006CA6046A0470AB0BDE8104002B07047C3
:1028A0003ACD133F0023C0F89430C0F8983090F828
:1028B0007C3013B1002380F87C3090F8883013B15D
:1028C000002380F888300023C0F8A430704782B01D
:1028D00082B08446684680E8060003930CF17803D2
:1028E00003C883E805000CF180039CF8882042B1FE
:1028F0009DF8141029B1039ACCF88020049A5A60EC
:1029000009E09DF8141051B103AA92E8030083E88E
:10291000030001221A72002002B002B07047002AA0
:10292000F9D000221A72F6E730B589B00C460025BE
:1029300005950695079503681B6905A99847DDED80
:10294000060A9DED050A01A800F0A8FF049B23607C
:10295000039B6360029BA360284609B030BD000062
:10296000F0B52DED0A8B93B0044690F87C0000285A
:1029700000F05D810E46154694F88830002B00F07B
:1029800057810AAB04F1580292E8030083E8030080
:1029900094ED19AAD4ED1BAAD4ED1E8A07AF00232B
:1029A00007930893099305AB04F1800292E80300B2
:1029B00083E80300636F626C9B1A07EE903AF8EEAF
:1029C000E77A9FED9D7A87EE878A28EE2A8A38EE8D
:1029D0000A8AB0EE480A08F04FF9B0EE409AB0EE1D
:1029E000480A08F003F9DDED056A26EE897ADDED87
:1029F000067A27EE806A37EE067A67EE897A66EE07
:102A0000806A77EEE67A8DED0C7ACDED0D7A0CAB1F
:102A100093E8030087E8030001238DF82430D4ED08
:102A2000056A94ED236A37EE467A26EE877A36EE0B
:102A3000076A84ED236A94ED247A77EEC77A66EE0E
:102A4000A76A37EE267A84ED247ADFED7C9A68EE69
:102A5000A99AF7EE007A87EEA9BA94F84830002BCD
:102A600062D19DED0A9A29EE0B9ADDED0B7A27EEE5
:102A70008BBAD4ED117AF8EEE77A67EEAA7ADFED39
:102A80006E6A87EEA67A37EE0AAAB0EE4A0A08F016
:102A9000F3F8B0EE408AB0EE4A0A08F0A7F869EE03
:102AA000087A2BEE007A77EEC77A2BEE088A29EEA9
:102AB000000A38EE000A27EEA97A84ED277A60EE44
:102AC000299AC4ED289ACDED0E7A8DED0F0A337A4E
:102AD000002B00F09780C6ED007A86ED010A05AB69
:102AE00007AA92E8030083E80300DDED057A67EEAC
:102AF000897A9DED067A27EE0B7A77EE877ACDED0F
:102B0000107A01238DF8443012AB13E9030085E8F5
:102B100003002B79002B7DD0D5ED007A67EEA87AE3
:102B2000C4ED297A002083E001AB04F1080292E8A9
:102B3000030083E8030003ABD7E9000183E8030047
:102B400005AB04F14C0292E8030083E803009DED1D
:102B5000058ADDED037A38EE678A9DED06CADDED64
:102B6000047A3CEE67CAD4ED25BA9DED0A9A39EE97
:102B70002B9A9DED017A67EE087A39EE279A29EEB5
:102B80000B9AD4ED26CADDED0B7A77EEAC7A27EE00
:102B90000C7A77EE877A27EE8BBA29EE090A6BEE6C
:102BA0000B7A30EE270A0FF0D1FB9FED257AC7EEA6
:102BB000007AB7EE007AF4EEC77AF1EE10FA12D48A
:102BC000DDED027A9FED1F7A67EE877A27EE888A1D
:102BD0007BEE88BAC4ED25BA67EE8C7A7CEEA7CA84
:102BE000C4ED26CA45E729EE279A2BEE27BADFED7A
:102BF000167A6BEEA7BAC4ED25BA6CEEA77AC4EDCF
:102C0000267A36E70EAB93E8030086E8030001233B
:102C1000337264E7042008F069F9002202600B4A6D
:102C200002600B4A02600B4A0B4908F04FFD01207D
:102C300013B0BDEC0A8BF0BDA037204DABAA2A3FE4
:102C4000AC5C313F17B75138A4707D3F18A901081B
:102C50009C9E01085D2C0008689E010810B5044682
:102C6000024B036008F07EF9204610BD9C9E0108CF
:102C700010B50446044B036008F074F904212046A3
:102C800008F0C2F8204610BD9C9E010808B5034616
:102C90000A7A022A0CD0012A24D0087A002836D1D8
:102CA000D1E9000183E8030001221A72184608BD29
:102CB000104606D10A6892B1116841B100221A7219
:102CC000F4E7FF2A14BF00200120FFF73FFB043286
:102CD00092E8030083E8030001221A72E6E700226B
:102CE0001A72E3E7087A012808D10A6862B192E80B
:102CF000030083E8030001221A72D7E7FF2814BFFC
:102D000000200120FFF722FB00221A72CEE7FF28E5
:102D100014BF00200120FFF719FB000008B50B7954
:102D2000022B08D0012B19D00B793BBB0B68036039
:102D30000123037108BD06D10B6863B11A682AB17B
:102D400000230371F6E70F48FFF7EAFA5B680360B8
:102D500001230371EEE700230371EBE70B79012BED
:102D600006D10B683BB11B68036001230371E1E7E7
:102D70000448FFF7D5FA00230371DBE70148FFF7AA
:102D8000CFFA00BFE09D010830B589B00446037E4C
:102D900080F8483000F11C0102A8FFF777FF04F12A
:102DA0004C0394F854203AB19DF8101021B1029AC6
:102DB000E264039A5A6009E09DF81010C1B102AABA
:102DC00092E8030083E8030001221A7204F128014B
:102DD00005A8FFF75BFF04F1580394F8602062B187
:102DE0009DF81C1049B1059AA265069A5A600EE03A
:102DF000002AEBD000221A72E8E79DF81C10F1B10E
:102E000005AA92E8030083E8030001221A726D46C6
:102E100004F134012846FFF781FF04F1640395E8CB
:102E2000030083E8030004F13C012846FFF776FF26
:102E30006C3495E8030084E8030009B030BD002A33
:102E4000E5D000221A72E2E7A0F10400FFF79CBF70
:102E500008B51B4B1B68196840F634024A631968B1
:102E60008A631968CA6319680A6A42F001020A6231
:102E700019680A6A42F004020A6219680A6A42F092
:102E800010020A6219680A6A42F040020A6219686E
:102E90000A6A42F480720A621A68136A43F4806311
:102EA0001362084B1A68936843F001039360022091
:102EB00005F029FCFEF728FCFEF72EFC08BD00BF3C
:102EC000400A0020E807002007EE900AF8EE677A33
:102ED0009FED037A67EE877A024BC3ED007A704765
:102EE000A742773C1000002082B00346D0ED0E7A56
:102EF000D0ED086A67EEA67A90ED096A86EE267A2A
:102F000027EE877ACDED007A8DED017A90F89C203E
:102F10002AB1C0ED257A80ED267A02B0704700F123
:102F2000940202A911E9030082E80300012283F858
:102F30009C20F2E708B50065027C80F86220FFF76C
:102F4000D3FF012008BD000030B587B00446016002
:102F5000027180ED020AC3600022027407234361FC
:102F6000DFF884C1C0F818C04FF08043C36100236C
:102F7000036243625148A062C4F82CC04FF0824003
:102F800020634F4860634F48A0634F48E0634F4859
:102F900020644F4860644FF0FF40A0644D48E064F7
:102FA0002265626500200021C4E9160184F86020D2
:102FB00084F8612084F8622084F8632084F870200B
:102FC0006367A367E367C4F88030C4F88430C4F84B
:102FD000883004F18C014048C4F88C003F48C4F8A4
:102FE0008C003F4848603F48C4F88C00203048605F
:102FF0000A744FF07E5048610A76C4F8A830C4F8CD
:10300000AC3084F8B020C4F8B430C4F8B83084F8D8
:10301000BC20C4F8C03084F8C420C4F8C83084F898
:10302000CC2081F8482081F8542081F8602081F874
:10303000682081F8702081F87C2081F88820C1F810
:103040009430C1F89830C1F89C30C1F8A030C1F874
:10305000A430C4F834C1C4F83831C4F83C31C4F8E1
:10306000403184F84421C4F8483184F84C21C4F834
:103070005031029303936A4602A903C982E8030010
:103080000225C4F8545104F5AC7C92E803008CE8A6
:1030900003000493059306AB13E9030082E80300E1
:1030A000C4F8605104F5B27392E8030083E80300AA
:1030B0002046FFF73FFF204607B030BD0AD7233D2B
:1030C0000000704200007A440000C8420000F04254
:1030D000000080FFCDCC4C3E489F0108009F0108B6
:1030E000649D01081C9F01080000204110B52DEDD2
:1030F000028B82B0044690ED028ADFED137A28EE4F
:10310000278A90ED0D0A01A988EE000AC068FEF733
:10311000E1FF18B902B0BDEC028B10BDF7EE006AFA
:103120009DED017AC6EE877AC4ED227A67EE887A41
:10313000C4ED4E7A9FED057A67EE877AC4ED4F7A3B
:10314000E068FFF74DF8E5E71F859B3FCDCCCC3D10
:10315000A2F5BA7C40F617539C4502D900230371AF
:103160007047A2F5006307EE903AF8EEE77A9FED1C
:10317000087A67EE877A91ED227A27EE277AD1EDE9
:10318000027A67EE877AC0ED007A012303717047F7
:103190003333533A84B030B595B0844619A880E8EB
:1031A0000E009CED207ADCED137AF1EE0E6A67EEEC
:1031B000A67AB4EEE77AF1EE10FA1EDBDCED1D7AAA
:1031C000F0EEE77A9CED4F7AB4EEE77AF1EE10FA82
:1031D00049DDDCED1E7AF0EEE77AB4EEE77AF1EE47
:1031E00010FA42DDDCED1F7AF0EEE77AB4EEE77A12
:1031F000F1EE10FA3BDD012200E000229CF8613084
:10320000013BDBB2012B34D99DF870300BB1002AA1
:1032100049D19CF8703013B100238CF870309CF8C1
:103220007030DBB1DCF86C41C4B123685D683C4BA5
:103230001B680B9301238DF830309CF87030002B05
:103240005AD100238DF840300EAB93E807008DE88B
:1032500007000D9B0BAA06CA2046A84715B0BDE87B
:10326000304004B070470022C8E70022C6E70022C1
:10327000C4E700230593069307930CF164039CF8BD
:1032800070204AB105AA07CA83E807009CF861309C
:1032900001338CF86130C2E705AA07CA83E807004A
:1032A00001221A73F2E79CED1D7ADDED197A77EEB3
:1032B000C77ACDED087A9CED1E7ADDED1A7A77EEAD
:1032C000C77ACDED097A9CED1F7ADDED1B7A77EE9A
:1032D000C77ACDED0A7A0CF164039CF8702022B114
:1032E00008AA07CA83E8070099E708AA07CA83E87B
:1032F000070001221A7392E7DCF864301193DCF8BE
:1033000068301293DCF86C3013930DAB14AA12E9F9
:10331000070083E8070001238DF8403094E700BFE1
:103320001000002084B082B00DF10C0C8CE80E006F
:103330009DF81830002B44D0D0ED137ADFED246ACD
:1033400086EEA77A8DED007AF7EE007ACDED017A60
:10335000B4EEE77AF1EE10FA31DC6B46D3ED006A99
:1033600090ED1D7ADDED037A77EEC77A67EEA67AE7
:1033700037EE277A80ED1D7A90ED1E7ADDED047A26
:1033800077EEC77A67EEA67A37EE277A80ED1E7A57
:1033900090ED1F7ADDED057A77EEC77A67EEA67AB3
:1033A00037EE277A80ED1F7AD0ED207A9FED087AEC
:1033B00077EE877AC0ED207A02B004B0704701AB97
:1033C000CCE7002343678367C367C0F88030F3E727
:1033D00017B7513810B52DED028B98B0044600F5A3
:1033E000A07108A8FFF79AFC9DF82430002B00F08C
:1033F000B88094ED547ADDED087A27EE277AD4F878
:103400006031012B33D000238DF8303000230D9331
:103410000E939DF83030ABB30AAB93E8030018ABC2
:1034200003E9030014AB18AA12E9030083E80300C0
:1034300006AA82E803004E4BDB6893ED4D0ADFEDF0
:103440004D7A60EE677ACDED0F7AB1EE676A8DED59
:10345000106ADDED066AF4EEE67AF1EE10FA18DC99
:10346000B4EEE66AF1EE10FA3FD510AB12E004F5C7
:10347000B2730AAA93E8030082E8030001238DF8DF
:103480003030C3E70DAB93E8030018AB03E903004A
:10349000C8E70FABD3ED007ACDED067A636DDB683C
:1034A000D3ED0A6A87EE268A8DED078A20EE000AA0
:1034B00067EEA77A30EE670AB5EEC00AF1EE10FAB1
:1034C00015D89FED2D0A8DED050AF1EE407ACDED70
:1034D000117AB4EEE78AF1EE10FA0BD4B4EEC08A9A
:1034E000F1EE10FA41DD05AB05E006ABD2E70EF0D8
:1034F0002DFFE8E711AB1B68079304F5A47103A83F
:10350000FFF70CFC94ED087ADDED037A67EE877A1D
:10351000DDED076A27EEA67ADFED175A35EEC77A9A
:103520009DED066A67EE867A77EEA57AD4ED095AA4
:1035300026EE256A37EE067A66EEA56A77EEA67A5B
:103540008DED127ACDED137A01AB12AA92E8030049
:1035500083E8030084ED567AC4ED577A0023C4F85B
:10356000543118B0BDEC028B10BD07ABC3E700BFF0
:10357000A8080020A4707D3F0000000010B52DEDCC
:10358000028BA8B00446036A012B00F0828000235E
:103590008DF82030002309930A939DF82030002BEA
:1035A00000F0828006AB93E8030028AB03E9030038
:1035B00024AB28AA12E9030083E8030004AA82E8E6
:1035C0000300E36A012B76D000238DF8343000230A
:1035D0000E930F939DF83430002B77D022AB0BAABB
:1035E00092E8030083E8030020AB22AA92E80300DC
:1035F00083E8030002AA82E80300A36B012B6CD0CE
:1036000000238DF844309DF84430002B6BD09DEDA5
:10361000108A236C012B69D000238DF84C309DF863
:103620004C30002B68D0DDED128A00F05BFA804B45
:103630001860804B1B68C01A07EE900AB8EE677AD4
:10364000DFED7D6AC7EE267AFCEEE77A7B4BC3EDB1
:10365000007A04F114039DED047AD4ED016AF8EECA
:10366000677A66EEA76A37EE666A8DED166A37EE00
:10367000267A8DED177AD4ED056AB4EEE66AF1EE9E
:1036800010FA3CDCB4EEE67AF1EE10FA38D517AB5E
:1036900036E000F1240306AA93E8030082E8030061
:1036A00001238DF8203075E709AB93E8030028ABC0
:1036B00003E903007CE704F130030BAA93E803005D
:1036C00082E8030001238DF8343080E722AB0EAA94
:1036D00092E8030083E8030086E7E36B109301237D
:1036E0008DF844308FE794ED078A92E7636C12936C
:1036F00001238DF84C3092E7DFED518A95E716AB48
:103700001A68149200231593EC4614A903C98CE897
:1037100003006262A3620023236204F118039DED9B
:10372000027AD4ED026A67EEA66A37EE666A8DED1C
:103730001A6A37EE267A8DED1B7AD4ED066AB4EE5E
:10374000E66AF1EE10FA06DCB4EEE67AF1EE10FA73
:1037500002D51BAB00E01AAB1A681892002319932C
:10376000EC4618A903C98CE80300226363630023B5
:10377000E36204F1100394ED037A27EE877A78EE82
:10378000C76ACDED1C6A37EE287A8DED1D7A94ED6F
:10379000046AF4EEC66AF1EE10FA06DCB4EEC67AFC
:1037A000F1EE10FA02D51DAB00E01CABD3ED006AC0
:1037B000C4ED116A0023236467EEA67A77EE887A57
:1037C0009FED206A87EE867ABDEE477AB8EEC77A1B
:1037D00027EE067A77EEC77AC4ED0F7AA363A36C5F
:1037E000012B1CD000238DF87C309DF87C30E3B198
:1037F0009DED1E7A114BD3ED007AF8EE677A67EEF5
:10380000A67A77EE877AC4ED137A0023A364084B77
:103810001A68084B1A6028B0BDEC028B10BDE36C2F
:103820001E9301238DF87C30DFE79FED057AE1E7F9
:103830000C0D0020100D0020A037204D080D002099
:1038400000000000DB0FC94090FBF1F301FB130007
:10385000002800DB70470844FCE7000038B500F0A2
:1038600041F90446054B5D6A00F03CF98442F6D10B
:103870004FF47A7000FB045038BD00BF00200040B8
:1038800038B50546FFF7EAFF044600E000BFFFF742
:10389000E5FF001BA842F9D338BD0000F5EEC00AD1
:1038A000F1EE10FA46DBB5EEC00AF1EE10FA1DDBC0
:1038B000DFED757A60EEA77AF4EEC07AF1EE10FAD9
:1038C0007DDC30EE670ADFED716A60EEA66AF7EE26
:1038D000007A77EEC07A77EEE67AB6EE007A67EE97
:1038E000877A37EE807A77EE266A7EE0DFED687AB7
:1038F00060EEA77AF4EEC07AF1EE10FA5FDDDFED4C
:10390000636A60EEA66AB1EE400ADFED5F7A60EEB0
:10391000A77A70EE677AB7EE007A37EE667A37EEFE
:10392000677AB6EE006A27EE067A77EE266A76EEBA
:10393000A77A5AE0B5EEC00AF1EE10FA21DBDFED0E
:10394000547A60EEA77AF4EEC07AF1EE10FA5ADCFF
:103950009FED507A20EE877ADFED4B7A60EEA70A72
:1039600030EE800AF7EE007A77EEC77A77EEC07A0B
:10397000F6EE006A67EEA67A77EE806A36EE877A10
:1039800033E0DFED417A60EEA77AF4EEC07AF1EE33
:1039900010FA38DD77EEC07A9FED3E7A60EE870A46
:1039A000F7EE006A76EEE76A76EEE06AB6EE007A47
:1039B00066EE876A36EEA07A77EE277A15E0DFEDBD
:1039C000327A60EEA70A70EE806A30EEC00AB7EE77
:1039D000007A37EE667A37EE407AF6EE007A27EE16
:1039E000277A77EE007A77EEA66AF5EEC07AF1EEE6
:1039F00010FA39DBB7EE006AF4EEC67AF1EE10FA8F
:103A00001AD9002331E0F1EE407A9FED1F7A60EE83
:103A1000870A77EEE07A30EE600AF7EE006A76EE1B
:103A2000E76A76EEC06AB6EE007A66EE876A76EEF0
:103A3000A77A37EE807AD8E7B5EEC07AF1EE10FAC1
:103A40001BDBB4EEC67AF1EE10FA01D900230CE0CC
:103A5000F5EEC06AF1EE10FA11DBF4EEC66AF1EE93
:103A600010FA0ED9002300E000230370C0ED016AB4
:103A700080ED027AC0ED037A70470023F5E700235A
:103A8000F3E70123F1E700BF3ACD133F3ACD933F6F
:103A90003ACD13BF3ACD93BF08B50B4B1A6842F429
:103AA00000721A601A6842F480621A601A6842F45E
:103AB00080721A60032000F0D9FA0F20FEF774F824
:103AC000FEF750F8002008BD003C0240034A116890
:103AD000034B1B780B441360704700BF140D00208C
:103AE00014000020014B1868704700BF140D00201F
:103AF00038B50446FFF7F6FF0546B4F1FF3F02D0A4
:103B0000044B1B781C44FFF7EDFF401BA042FAD387
:103B100038BD00BF140000204A4B5A6822F44032DE
:103B20005A605A6841680A435A600268536823F42D
:103B30008073536002685368016943EA012353604C
:103B40000268536823F040735360026853688168C9
:103B50000B4353600268936823F400639360026828
:103B60009368C1680B439360826A374B9A4257D07F
:103B70000268936823F07063936002689368816AB7
:103B80000B4393600268936823F04053936002688C
:103B90009368C16A0B4393600268936823F0020341
:103BA000936002689368017E43EA4103936090F852
:103BB0002030002B3FD00268536843F40063536009
:103BC0000268536823F46043536001684B68426A9B
:103BD000013A43EA42334B600268D36A23F470032C
:103BE000D3620168CB6AC269013A43EA0253CB62ED
:103BF0000268936823F4007393600268936890F8F6
:103C0000301043EA412393600268936823F4806391
:103C1000936002689368416943EA81239360704727
:103C20000268936823F0706393600268936823F0DE
:103C300040539360B0E70268536823F40063536015
:103C4000CAE700BF002301400100000F38B310B5E0
:103C50000446036C43B1236C13F0100F0BD001200A
:103C6000002384F83C3010BDFDF72CFC0023636476
:103C700084F83C30EFE7236C23F4885323F00203ED
:103C800043F0020323642046FFF746FF00206064F0
:103C9000236C23F0030343F001032364E0E70120D6
:103CA0007047000010B582B013460022019290F8D0
:103CB0003C20012A00F0AE800446012280F83C201E
:103CC0000268906810F0010F13D1906840F0010075
:103CD0009060534A1068534AA2FB0020800C00EB0E
:103CE0004000019002E001980138019001980028FD
:103CF000F9D12268906810F4807F03D0906820F496
:103D0000807090602268906810F0010F77D0206C6E
:103D100020F4E06020F0010040F4807020645268DC
:103D200012F4806F05D0226C22F4405242F480528B
:103D30002264226C12F4805F36D0626C22F006029C
:103D40006264002284F83C20A26B3748D063A26BE7
:103D500036481064A26B3648D06422686FF02200A7
:103D600010602068426842F0806242602068826889
:103D700042F48072826020680A4600F14C01A06B18
:103D800000F0B2FA2B4B5B6813F01F0F27D12368AA
:103D9000294A934211D002F58072934207D0274AF4
:103DA000934214D0002033E000226264C9E702F598
:103DB0000072526812F01F0FF1D19A6812F0405F42
:103DC0002AD19A6842F080429A60002020E002F5F1
:103DD0008072526812F0100FEFD0002018E02368B4
:103DE000154A934201D0002012E09A6812F0405F19
:103DF00014D19A6842F080429A60002008E0236C57
:103E000043F010032364636C43F0010363640020F8
:103E100002B010BD0220FBE70020F9E70020F7E721
:103E20000C00002083DE1B43673E0008453E00086F
:103E3000513E0008002301400020014000220140C3
:103E40007047704708B5806BFFF7FBFF08BD7047F0
:103E500008B5806B40230364436C43F00403436460
:103E6000FFF7F5FF08BD08B50346806B026C12F042
:103E7000500F25D1036C43F40073036403689A6800
:103E800012F0405F19D1027EBAB9DA6A12F4700FEB
:103E900003D09A6812F4806F0FD15A6822F0200282
:103EA0005A60036C23F480730364036C13F4805F23
:103EB00003D1036C43F001030364FFF7C1FF08BDA6
:103EC000026C12F0100F04D1826BD26C184690472E
:103ED000F5E7FFF7BCFFF2E730B482B000220192B1
:103EE00090F83C20012A00F0B6800346012280F8B9
:103EF0003C200A68092A40D90468E06892B202EBC3
:103F000042021E3A4FF0070C0CFA02F220EA0202BB
:103F1000E2601C68E0680A8802EB42021E3A8D6883
:103F200005FA02F20243E2604A68062A3CD81C689D
:103F3000606B02EB8202053A4FF01F0C0CFA02F2A2
:103F400020EA020262631C68606B4A6802EB82022C
:103F5000053AB1F800C00CFA02F202436263186835
:103F60003E4A904250D018683C4A904255D00020BA
:103F700083F83C0002B030BC70470468206992B2FC
:103F800002EB42024FF0070C0CFA02F220EA0202A6
:103F900022611C6820690A8802EB42028D6805FADA
:103FA00002F202432261BFE70C2A16D81D68286B73
:103FB00002EB8202233A1F2404FA02F220EA0202F0
:103FC0002A631D68286B4A6802EB8202233A0C8838
:103FD00004FA02F202432A63C1E71D68E86A02EBB1
:103FE0008202413A1F2404FA02F220EA0202EA6243
:103FF0001D68E86A4A6802EB8202413A0C8804FABA
:1040000002F20243EA62AAE70A68122AABD1144814
:10401000426842F480024260A5E70A68103A012A29
:10402000A5D80F48426842F4000242600A68102A8C
:104030009DD10C4A12680C49A1FB0212920C02EBB2
:1040400082025200019202E0019A013A0192019A21
:10405000002AF9D18BE702208CE700BF0020014045
:10406000002301400C00002083DE1B43074AD36875
:1040700023F4E0631B041B0C000200F4E060034324
:1040800043F0BF6343F40033D360704700ED00E0BA
:1040900000B5194BDB68C3F30223C3F1070CBCF175
:1040A000040F28BF4FF0040C03F1040EBEF1060FFD
:1040B00018D9033B4FF0FF3E0EFA0CFC21EA0C012D
:1040C00099400EFA03FE22EA0E020A4300280BDB97
:1040D0001201D2B200F1604000F5614080F8002387
:1040E0005DF804FB0023E5E700F00F001201D2B2F7
:1040F000024B1A54F4E700BF00ED00E014ED00E0BD
:10410000002807DB00F01F02400901239340024A08
:1041100042F82030704700BF00E100E030B405688D
:104120002C6824F480242C60046863608368402B2E
:1041300005D0036899600368DA6030BC7047036893
:104140009A600368D960F8E710B40368D9B21039EF
:104150000C4AA2FB014212090B4CA25CC2655F290A
:1041600009D923F47F7323F0030304338365806D3F
:104170005DF8044B704723F47F7323F003038365DA
:10418000F5E700BFABAAAAAA849F0108836A8269E7
:1041900092B9012B0AD0022B02D00BB1002070473C
:1041A000C36A13F0807F28D100207047C36AB3F13F
:1041B000C07F24D000207047B2F5005F09D0022BE9
:1041C00025D9032B25D1C36A13F0807F23D100208A
:1041D0007047032B03D8DFE803F01404140A00200F
:1041E0007047C36A13F0807F0DD100207047C36A07
:1041F000B3F1C07F09D00020704701207047012033
:10420000704701207047012070470120704701204E
:1042100070470020704701207047000070B50446C9
:10422000FFF760FC002C5BD00546022384F8353094
:10423000002384F834302268136823F001031360EC
:1042400023681A6812F0010F0AD0FFF74BFC431BDA
:10425000052BF5D920236365032084F8350070BD54
:104260001A68204911406268A0680243E06802436E
:104270002069024360690243A0690243E069024386
:10428000206A02430A43616A04291ED01A60266824
:10429000756925F00705636A1D43042B07D1A36ADE
:1042A0001D43E36A1BB12046FFF770FF90B97561AB
:1042B0002046FFF749FFE26D3F23934083600020D3
:1042C0006065012384F83530C9E7E16A206B01435A
:1042D0000A43DBE740236365012084F83500BEE72D
:1042E0000120BCE73F8010F038B50446856D90F89A
:1042F000340001282BD0012084F8340094F83500D4
:10430000C0B2012804D0002384F83430022038BD24
:10431000022084F83500002060652046FFF7FEFE8D
:10432000E26D3F239340AB602268136843F01603AD
:104330001360236C23B12268136843F008031360F1
:104340002268136843F0010313600020DFE70220B6
:10435000DDE70000F0B583B0044600230193724B03
:104360001D68724BA3FB0535AD0A876D3E68C26DB3
:1043700008239340334210D003681A6812F0040FE8
:104380000BD01A6822F004021A60C26D0823934011
:10439000BB60436D43F001034365E26D012393402D
:1043A000334209D02268526912F0800F04D0BB60FA
:1043B000636D43F002036365E26D0423934033426F
:1043C00009D02268126812F0020F04D0BB60636D3E
:1043D00043F004036365E26D10239340334224D01D
:1043E0002268126812F0080F1FD0BB6023681A6899
:1043F00012F4802F0DD01B6813F4002F04D1236C0E
:104400009BB12046984710E0A36C73B120469847B3
:104410000BE01A6812F4807F03D11A6822F00802B8
:104420001A60236C0BB120469847E26D202393401D
:10443000334255D02268126812F0100F50D0BB6082
:1044400094F83530DBB2052B0ED023681A6812F4CD
:10445000802F33D01B6813F4002F2AD1636C002BFC
:104460003ED0204698473BE02268136823F01603AD
:1044700013602268536923F080035361236CA3B156
:104480002268136823F008031360E26D3F23934012
:10449000BB60012384F83530002384F83430236D69
:1044A000002B3FD0204698473CE0A36C002BE7D17F
:1044B000EBE7E36BA3B12046984711E01A6812F4CA
:1044C000807F09D11A6822F010021A60012384F853
:1044D0003530002384F83430E36B0BB12046984725
:1044E000636DFBB1636D13F0010F17D0052384F8E2
:1044F00035302268136823F001031360019B0133F8
:104500000193AB4204D823681B6813F0010FF5D167
:10451000012384F83530002384F83430E36C0BB188
:104520002046984703B0F0BD0C000020B5814E1B1B
:1045300000230F2B00F2E98070B582B065E085683A
:104540004FEA430E032404FA0EF425EA0405CC686E
:1045500004FA0EF42C438460446824EA02044A6896
:10456000C2F300129A40224342605CE0DC08083447
:1045700050F8242003F00705AD004FF00F0E0EFA9F
:1045800005FE22EA0E0E0A69AA4042EA0E0240F82F
:1045900024205CE0072200E0002202FA0EF22A4307
:1045A00002345A4D45F82420594A94686FEA0C02A7
:1045B00024EA0C054E6816F4801F01D04CEA04056D
:1045C000534CA560E46802EA04054E6816F4001F27
:1045D00001D04CEA04054E4CE560646802EA04052B
:1045E0004E6816F4003F01D04CEA0405484C656063
:1045F000246822404D6815F4803F01D04CEA040243
:10460000434C226001330F2B7DD801229A400C6865
:1046100004EA020C32EA0404F4D14C6804F0030406
:10462000013C012C8BD94A6802F00302032A09D00D
:10463000C4685D000322AA4024EA02048A68AA40F2
:104640002243C2604A6802F00302022A8ED0046844
:104650004FEA430E032202FA0EF224EA02044A68E9
:1046600002F0030202FA0EF2224302604A6812F4D8
:10467000403FC7D000220192264A546C44F4804443
:104680005464526C02F480420192019A9C08A51C69
:104690001E4A52F8255003F0030E4FEA8E0E0F22E9
:1046A00002FA0EF225EA02051B4A90423FF474AF6B
:1046B00002F5806290421AD002F58062904218D0D2
:1046C00002F58062904216D002F58062904214D0CA
:1046D00002F58062904212D002F58062904210D0C2
:1046E00002F5806290423FF455AF082255E701225F
:1046F00053E7022251E703224FE704224DE7052248
:104700004BE7062249E702B070BD70470038014010
:10471000003C014000380240000002400AB18161C3
:104720007047090481617047436901EA030221EA85
:10473000030141EA0241816170472DE9F04383B0F2
:10474000D0F8008001EBC10300EB83039A6A5B6A37
:104750009A4254D807460C469B1A01EBC10200EB63
:104760008202D2699A4200D31A4602F103094FEA43
:10477000990915E006F103094FEA9909BB7904EBA1
:10478000C40507EB8505296A0093B3B2E2B240463F
:1047900002F019FC2B6A33442B62AB6A3344AB62E0
:1047A00008EB441303F510639B699BB24B4512D38E
:1047B00004EBC40307EB83039A6A5B6A9A420AD24A
:1047C0004BB19B1A04EBC40207EB8202D6699E42EE
:1047D000D0D31E46CEE704EBC40307EB83077A6A07
:1047E000BB6A9A420FD804F00F040122A240D8F805
:1047F000343823EA0203C8F83438002000E00120EE
:1048000003B0BDE8F0830020FAE730B583B000289C
:104810007AD00446056890F89534C3B1032384F830
:104820009534B5F1A04F17D0206802F07FF9237CB2
:104830008DF80030231D0ECB206802F0B5F870B162
:10484000022384F895340125284603B030BD80F852
:10485000943406F077F8E1E70023A371E4E7002140
:10486000206802F0C8FD024608B9034617E002239B
:1048700084F895340125E7E703EBC30104EB8101DC
:10488000012048750B75CB8500200876C861086249
:1048900003EBC30104EB810148620133DBB22079F1
:1048A0009842E9D816E002EBC20304EB830300212F
:1048B00083F8551283F8542283F85812C3F85C1217
:1048C000C3F8601202EBC20304EB8303C3F8641263
:1048D0000132D2B29042E6D8237C8DF80030231DFD
:1048E0000ECB206802F078F9054620B1022384F847
:1048F00095340125A8E700236374012384F89534D7
:10490000206802F037FD9FE701259DE7036890F8D6
:104910009424012A1AD010B50446012280F8942468
:10492000DA6812F0400F02D0427B012A09D02068D9
:1049300002F0F6F8206802F00FFD002084F89404DD
:1049400010BD9A6B42F480329A63F0E70220704700
:1049500070B504460D460068066C00EB411303F584
:1049600030639A68A179012911D038498E4256D016
:104970003DB905EBC50304EB8303D3F86432002B88
:104980005ED0E9B2204606F027F8002070BD12F094
:10499000080F09D02E498E42F7D912F4004FF4D0F7
:1049A0004FF400429A60F0E712F0200F02D020226C
:1049B0009A60EAE712F0280FE7D125498E4206D91E
:1049C00012F4004F03D04FF400429A60DDE705EB8C
:1049D000C50204EB8202D2F874121B69C3F31203FE
:1049E000CB1AC2F868327DB905EBC50204EB82022E
:1049F000D2F864226AB105EBC50204EB8202D2F858
:104A000060121944C2F86012E9B2204605F0E4FFD2
:104A1000BBE704F29C42012102F02EFDF4E712F400
:104A2000004F03D04FF400429A60AEE712F0200F1F
:104A300001D020229A60E9B2204605F0CDFFA4E71C
:104A400004F29C42002102F017FD9AE70A31544F0C
:104A50000A30544F38B5044603681D6C03EB41130C
:104A6000D3F8081B0E4A954207D903F5306311F4B9
:104A7000004F02D04FF400429A60204605F0A4FF98
:104A8000074B9D4202D9A379012B01D0002038BDEC
:104A900004F29C420121206802F0EEFCF6E700BF20
:104AA0000A30544F90F89434012B0CD010B50446C2
:104AB000012380F894344174006802F03DFC00202A
:104AC00084F8940410BD0220704738B505468C4622
:104AD00011F0800F2BD101F00F0E0EEBCE04A400CD
:104AE00004F514740444211D0EEBCE0E00EB8E0E63
:104AF00000208EF855020CF00F0C81F800C0C2F3B4
:104B00000A028A600B714A780AB1A1F81AC0022B16
:104B10001CD095F89434012B1BD0012385F89434D4
:104B2000286802F034F9002085F8940438BD01F0BB
:104B30000F0000EBC001890010312944043100EB63
:104B4000C00005EB800001244475D4E700234B71BD
:104B5000DFE70220EAE710B504460A4611F0800FAD
:104B600020D101F00F0000EBC0039B0003F514738C
:104B70002344191D00EBC00004EB8000002380F8E3
:104B8000553202F00F020A7094F89434012B18D0B9
:104B9000012384F89434206802F046F9002084F858
:104BA000940410BD01F00F0000EBC0039B00103314
:104BB0002344191D00EBC00004EB80000123437562
:104BC000DFE70220EDE710B5144601F00F0C0CEB07
:104BD000CC01890001F51471014404310CEBCC0EB9
:104BE00000EB8E0ECEF86022CEF864320023CEF8B1
:104BF00068328EF855328EF854C28279012A04D078
:104C0000006802F0F7F9002010BDCEF87042F7E717
:104C100001F00F0101EBC10100EB8100D0F8680247
:104C2000704710B5144601F00F0C0CEBCC01890055
:104C30001031014404310CEBCC0E00EB8E0ECEF89B
:104C40002020CEF824300023CEF8283001238EF81F
:104C500015308EF814C082799A4204D0006802F0B0
:104C6000C9F9002010BDCEF83040F7E738B501F0A3
:104C70000F050279AA4238D304460B4611F0800F83
:104C80001FD101EBC101890001F514710144043108
:104C900003EBC30300EB8303002283F855220123B7
:104CA0008B700D7094F89434012B20D0012384F87C
:104CB0009434206802F0E5FA85B1002084F8940469
:104CC00038BD05EBC501890010310144043105EB05
:104CD000C50300EB830301225A75E0E704F29C420E
:104CE000A179206802F0C8FBE7E70120E8E702208D
:104CF000E6E701F00F0302799A4230D310B504467B
:104D000011F0800F1ED103EBC301890001F514716E
:104D10000144043103EBC30200EB8202002082F85D
:104D2000550200228A700B7094F89434012B18D02D
:104D3000012384F89434206802F0D0FA002084F82B
:104D4000940410BD03EBC301890010310144043108
:104D500003EBC30200EB820201205075E1E7012062
:104D600070470220EDE708B511F0800F0CD101F07B
:104D70000F0101EBC101890001F5147101440431F7
:104D8000006802F0C1F808BD01F00F0101EBC1019C
:104D90008900103101440431F2E72DE9F04F83B06E
:104DA00004460568284602F022FB10B103B0BDE8B6
:104DB000F08F0646206802F0EBFA0028F6D005F5E1
:104DC0000067BB68C3F30D23C4F8D434206802F035
:104DD000DFFA10F0020F04D02268536903F00203D7
:104DE0005361206802F0D4FA10F0100F13D022683B
:104DF000936923F010039361D5F8208008F00F0920
:104E0000C8F34343022B4BD0062B6FD02268936923
:104E100043F010039361206802F0BAFA10F4002FF7
:104E200076D1206802F0B4FA10F4802F40F0E080D0
:104E3000206802F0ADFA0028C0F26181206802F01B
:104E4000A7FA10F4006F09D0BB6813F0010F40F00F
:104E50006E812268536903F400635361206802F095
:104E600097FA10F4805F40F06681206802F090FAB3
:104E700010F4005F40F0B381206802F089FA10F06E
:104E8000080F40F0C481206802F082FA10F0800F11
:104E900000F0D781AB6923F08003AB610126C0E14C
:104EA00047F6F07318EA030FB0D04FEA181B4FEA29
:104EB000C903019309EBC90A04EB8A0AC8F30A1271
:104EC000DAF86012284602F0B9F9CBF30A0BDAF8E7
:104ED00060325B44CAF86032019B4B4404EB8303AD
:104EE000D3F868325B44CAF868328FE7082204F2CC
:104EF0009C41284602F0A2F9C8F30A1809EBC9023E
:104F000004EB8202D2F868324344C2F868327DE78B
:104F1000206802F041FA8046B14635E005EB4913BE
:104F20000122C3F8082B49462046FFF711FD3CE05B
:104F300005EB49130822C3F8082B49462046FFF722
:104F400089FD35E009EBC90304EB830393F857327D
:104F5000012B41D005EB49130222C3F8082B1AF0AC
:104F6000200F04D005EB49132022C3F8082B1AF4B4
:104F7000005F05D005EB49134FF40052C3F8082B2E
:104F800009F101094FEA5808B8F1000F3FF449AFA1
:104F900018F0010FF4D05FFA89FB5946206802F03F
:104FA0000BFA824610F0010FB8D11AF0080FBFD1EA
:104FB0001AF0100F04D005EB49131022C3F8082B88
:104FC0001AF0020FCBD06B6913F0800FBAD07B6858
:104FD00043F480637B60B5E709EBC90304EB83030B
:104FE000002283F857225946204605F045FDB1E7D7
:104FF000206802F0D9F98046B14625E0594620469E
:1050000005F0F6FC1AF0080F04D005EB491308224E
:10501000C3F808291AF0100F04D005EB4913102229
:10502000C3F808291AF0400F04D005EB49134022B9
:10503000C3F808291AF0020F40D11AF0800F59D195
:1050400009F101094FEA5808B8F1000F3FF4F0AE3A
:1050500018F0010FF4D05FFA89FB5946206802F07E
:10506000B4F9824610F0010FCCD009F00F020121F3
:1050700001FA02F27B6B23EA02037B6305EB49131F
:10508000C3F80819A3798B42B8D109EBC90304EB23
:105090008303D9691A6A0A441A62B9F1000FADD1C3
:1050A00009EBC90304EB83035B6A002BA6D104F26E
:1050B0009C420121206802F0DFF99FE7494628461B
:1050C00001F03AFD09EBC90304EB8303DB7D012BFF
:1050D00005D005EB49130222C3F80829ADE709EB17
:1050E000C90304EB83030022DA755946204605F014
:1050F000C9FCEEE749462046FFF71FFBA0E77B68A7
:1051000023F001037B6094F8CC34012B08D02046B7
:1051100005F0ACFC2268536903F0004353618DE64F
:10512000002184F8CC14204600F03FF9F2E7204635
:1051300005F084FC8DE67B6823F001037B60102181
:10514000206801F0F9FC1AE005EB46134FF67F31B9
:10515000C3F80819D3F8002922F40012C3F8002973
:10516000C3F8081BD3F8002B22F40012C3F8002B5D
:10517000D3F8002B42F00062C3F8002B01362379EC
:10518000B342E1D8FB6943F00113FB61E37BDBB180
:10519000D7F8843043F00B03C7F884307B6C43F0BE
:1051A0000B037B64D5F8003823F4FE63C5F80038A0
:1051B00004F29C42A179206802F05EF922685369EA
:1051C00003F48053536150E67B6943F4005343F08A
:1051D0002B037B613B6943F00B033B61E2E72068F3
:1051E00002F03AF9206801F0C1FDE071266800F094
:1051F000F7FB0146E279304601F020FC204605F03D
:1052000008FC2268536903F40053536134E62046D6
:1052100005F0F9FB2268536903F00803536132E695
:1052200001362379B3420CD906EBC60304EB8303A2
:1052300093F85732012BF3D1F1B22046FFF793FDDB
:10524000EEE7206802F0A4F810F4801F25D1206852
:1052500002F09EF810F4001F59D0012326E0013619
:105260002379B3421BD905EB4613D3F8002906EB8B
:10527000C60304EB83031B7E012BF0D1002AEEDA78
:1052800006EBC60304EB83030122DA7566F07F01A7
:10529000C9B22046FFF767FDE1E70126E0E7226893
:1052A000536903F480135361D1E7013322799A42A1
:1052B00028D905EB4312D2F8001B03EBC30204EB21
:1052C000820292F85822012AEFD10029EDDA01F486
:1052D0008031D4F8D42402F001029142E5D103EBED
:1052E000C30204EB8202012182F85712AA6942F03C
:1052F0008002AA616A6912F0800FD6D17B6843F4FC
:1053000000737B602268536903F4001353612068C3
:1053100002F03EF810F0804F10D1206802F038F80B
:1053200010F0040F3FF442AD23685D6815F0040FE0
:105330000DD1226853682B43536037E5204605F0B2
:10534000A7FB2268536903F080435361E5E72046D9
:1053500005F0A4FBEDE710B40468606A31B940EAD7
:105360000240A06200205DF8044B70478C46A36A9F
:1053700000EB1340002308E003F1400104EB81013E
:10538000496800EB11400133DBB20CF1FF318B4275
:10539000F2D340EA02400CF13F0104EB810460606B
:1053A000E0E703685962002070477047002800F06A
:1053B000E08170B582B00446036813F0010F3BD062
:1053C0009F4B9B6803F00C03042B2CD09C4B9B68D9
:1053D00003F00C03082B21D06368B3F5803F4FD056
:1053E000B3F5A02F52D0964B1A6822F480321A607F
:1053F0001A6822F480221A606368002B50D0FEF7EE
:1054000071FB05468E4B1B6813F4003F14D1FEF769
:1054100069FB401B6428F5D90320B1E1884B5B6828
:1054200013F4800FD8D0864B1B6813F4003F03D0D1
:105430006368002B00F09F81236813F0020F54D0A3
:105440007F4B9B6813F00C0F3ED07D4B9B6803F0A5
:105450000C03082B33D0E368002B68D0794B012272
:105460001A60FEF73FFB0546754B1B6813F0020FF1
:1054700054D1FEF737FB401B0228F5D903207FE10A
:105480006F4A136843F480331360B5E76C4B1A68B6
:1054900042F480221A601A6842F480321A60ABE744
:1054A000FEF720FB0546664B1B6813F4003FC3D094
:1054B000FEF718FB401B6428F5D9032060E1604B20
:1054C0005B6813F4800FC6D15D4B1B6813F0020FAD
:1054D00003D0E368012B40F05081594A136823F050
:1054E000F803216943EAC1031360236813F0080F2E
:1054F00042D063696BB3534B0122C3F8802EFEF791
:10550000F1FA05464E4B5B6F13F0020F34D1FEF7F4
:10551000E9FA401B0228F5D9032031E1484A136813
:1055200023F0F803216943EAC1031360DDE7454B2B
:1055300000221A60FEF7D6FA0546414B1B6813F0AD
:10554000020FD2D0FEF7CEFA401B0228F5D9032075
:1055500016E13C4B0022C3F8802EFEF7C3FA054645
:10556000374B5B6F13F0020F06D0FEF7BBFA401B00
:105570000228F5D9032003E1236813F0040F77D044
:105580002F4B1B6C13F0805F33D1002301932C4B06
:105590001A6C42F080521A641B6C03F08053019322
:1055A000019B0125284B1B6813F4807F23D0A3683F
:1055B000012B34D0052B38D0214B1A6F22F0010279
:1055C0001A671A6F22F004021A67A368002B3DD0F5
:1055D000FEF788FA06461A4B1B6F13F0020F46D1EE
:1055E000FEF780FA801B41F288339842F3D90320FA
:1055F000C6E00025D6E7144A136843F480731360AD
:10560000FEF770FA0646104B1B6813F4807FCED16C
:10561000FEF768FA801B0228F5D90320B0E0084A9B
:10562000136F43F001031367CFE7054B1A6F42F086
:1056300004021A671A6F42F001021A67C5E700BF39
:10564000003802400000474200700040FEF74AFA6E
:105650000646524B1B6F13F0020F08D0FEF742FABA
:10566000801B41F288339842F3D9032088E0EDB9DA
:10567000A369002B00F08380484A926802F00C0274
:10568000082A51D0022B17D0454B00221A66FEF78C
:1056900029FA0446414B1B6813F0007F42D0FEF705
:1056A00021FA001B0228F5D9032069E03B4A136C5C
:1056B00023F080531364DBE7394B00221A66FEF7B0
:1056C00011FA0546354B1B6813F0007F06D0FEF734
:1056D00009FA401B0228F5D9032051E0E369226A48
:1056E0001343626A43EA8213A26A5208013A43EA08
:1056F0000243E26A43EA0263284A5360284B0122CC
:105700001A66FEF7EFF90446244B1B6813F0007F7E
:1057100006D1FEF7E7F9001B0228F5D903202FE098
:1057200000202DE000202BE0012B2BD01B4B5B68D1
:1057300003F48001E269914226D103F03F02216A1D
:105740008A4223D1616A47F6C0721A40B2EB811FC8
:105750001ED103F44031A26A5208013AB1EB024F64
:1057600018D103F07063E26AB3EB026F14D100202A
:1057700006E001207047012002E0012000E0002047
:1057800002B070BD0120FBE70120F9E70120F7E737
:105790000120F5E70120F3E70120F1E7003802409E
:1057A0000000474208B5334B9B6803F00C03042B01
:1057B0005BD0082B5BD12F4B5A6802F03F025B682D
:1057C00013F4800F2CD02B4B5868C0F388104FEA8D
:1057D000401CBCEB000C6EEB0E0E4FEA8E1343EA3E
:1057E0009C634FEA8C11B1EB0C0163EB0E03DB0001
:1057F00043EA5173C90011EB000C43F10003590255
:1058000000234FEA4C2041EADC51FBF757F9194BD2
:105810005B68C3F3014301335B00B0FBF3F027E0A7
:10582000144B5868C0F388104FEA401CBCEB000CC6
:105830006EEB0E0E4FEA8E1343EA9C634FEA8C1117
:10584000B1EB0C0163EB0E03DB0043EA5173C900BB
:1058500011EB000C43F10003990200234FEA8C2066
:1058600041EA9C51FBF72AF9D1E7034800E00348DD
:1058700008BD00BF0038024000127A000024F40086
:10588000002800F09B8070B50D4604464F4B1B6806
:1058900003F007038B4208D2CBB24C4A1370136853
:1058A00003F007038B4240F08B80236813F0020F54
:1058B00017D013F0040F04D0454A936843F4E05323
:1058C0009360236813F0080F04D0414A936843F4AF
:1058D000604393603E4A936823F0F003A1680B4352
:1058E0009360236813F0010F32D06368012B21D03D
:1058F0009A1E012A25D9364A126812F0020F61D089
:1059000033498A6822F0030213438B60FEF7EAF8FA
:1059100006462F4B9B6803F00C036268B3EB820FC3
:1059200016D0FEF7DFF8801B41F288339842F0D999
:10593000032042E0264A126812F4003FE0D1012021
:105940003BE0234A126812F0007FD9D1012034E0F5
:105950001E4B1B6803F00703AB4207D9EAB21B4B8F
:105960001A701B6803F00703AB422DD1236813F0B4
:10597000040F06D0164A936823F4E053E1680B4302
:105980009360236813F0080F07D0114A936823F43B
:105990006043216943EAC1039360FFF703FF0C4BA7
:1059A0009B68C3F303130B4AD35CD8400A4B1860BF
:1059B0000A4B1868FCF7F8F8002070BD012070470A
:1059C0000120FAE70120F8E70120F6E7003C024059
:1059D000003802402C9D01080C0000201800002017
:1059E000014B1868704700BF0C00002008B5FFF796
:1059F000F7FF044B9B68C3F38223034AD35CD84070
:105A000008BD00BF003802403C9D01080F23036021
:105A10000B4B9A6802F0030242609A6802F0F002AF
:105A200082609A6802F4E052C2609B68DB0803F46B
:105A3000E0530361034B1B6803F007030B607047DF
:105A400000380240003C02402DE9F04782B0054694
:105A5000884617461E46FEF745F80A9B1B1A03EBBD
:105A60000609FEF73FF882462A4B1B68C3F3CB3387
:105A700009FB03F301932B689C6838EA04040CBF0C
:105A800001230023BB4240D0B6F1FF3FF3D0FEF725
:105A900029F8A0EB0A0048450AD2B9F1000F07D057
:105AA000019A02B14A46019B013B01939146E2E70C
:105AB0002A68536823F0E00353606B68B3F5827F74
:105AC0000BD0AB6AB3F5005F14D0012385F85130D9
:105AD000002385F85030032018E0AB68B3F5004F81
:105AE00002D0B3F5806FECD12A68136823F040032D
:105AF0001360E6E72A68136823F4005313602A68EA
:105B0000136843F400531360DFE7002002B0BDE8E0
