:020000040800F2
:1000000000000220C5220008AD1F0008AF1F000835
:10001000B11F0008B31F0008B51F00080000000052
:1000200000000000000000000000000061920008D5
:10003000B71F00080000000001930008718F00083E
:1000400015230008152300081523000815230008B0
:1000500015230008152300081523000815230008A0
:100060001523000815230008152300081523000890
:100070001523000815230008152300081523000880
:100080001523000815230008152300081523000870
:100090001523000815230008152300081523000860
:1000A00015230008B91F00081523000815230008B0
:1000B0001523000815230008152300081523000840
:1000C0001523000815230008152300081523000830
:1000D0001523000815230008152300081523000820
:1000E0001523000815230008152300081523000810
:1000F0001523000815230008152300081523000800
:1001000015230008152300081523000815230008EF
:100110001523000815230008C91F0008152300082F
:10012000D91F00081523000815230008152300080F
:10013000152300080000000000000000152300083F
:10014000152300081523000815230008E91F0008DF
:10015000152300081523000815230008152300089F
:10016000152300081523000815230008152300088F
:1001700015230008152300080000000000000000FF
:080180001523000815230008F7
:1001C00081F0004102E000BF83F0004330B54FEA08
:1001D00041044FEA430594EA050F08BF90EA020F75
:1001E0001FBF54EA000C55EA020C7FEA645C7FEA08
:1001F000655C00F0E2804FEA5454D4EB5555B8BF2B
:100200006D420CDD2C4480EA020281EA030382EA9B
:10021000000083EA010180EA020281EA0303362D2D
:1002200088BF30BD11F0004F4FEA01314FF4801C00
:100230004CEA113102D0404261EB410113F0004F12
:100240004FEA03334CEA133302D0524263EB4303C9
:1002500094EA050F00F0A780A4F10104D5F1200E67
:100260000DDB02FA0EFC22FA05F2801841F10001C2
:1002700003FA0EF2801843FA05F359410EE0A5F196
:1002800020050EF1200E012A03FA0EFC28BF4CF0C7
:10029000020C43FA05F3C01851EBE37101F000457D
:1002A00007D54FF0000EDCF1000C7EEB00006EEB8A
:1002B0000101B1F5801F1BD3B1F5001F0CD3490814
:1002C0005FEA30004FEA3C0C04F101044FEA44526B
:1002D00012F5800F80F09A80BCF1004F08BF5FEAF2
:1002E000500C50F1000041EB045141EA050130BDD2
:1002F0005FEA4C0C404141EB0101013C28BFB1F5E4
:10030000801FE9D291F0000F04BF01460020B1FA2E
:1003100081F308BF2033A3F10B03B3F120020CDA01
:100320000C3208DD02F1140CC2F10C0201FA0CF0DF
:1003300021FA02F10CE002F11402D8BFC2F1200C44
:1003400001FA02F120FA0CFCDCBF41EA0C019040FA
:10035000E41AA2BF01EB0451294330BD6FEA040443
:100360001F3C1CDA0C340EDC04F11404C4F120022E
:1003700020FA04F001FA02F340EA030021FA04F340
:1003800045EA030130BDC4F10C04C4F1200220FA97
:1003900002F001FA04F340EA0300294630BD21FAD5
:1003A00004F0294630BD94F0000F83F4801306BF9B
:1003B00081F480110134013D4EE77FEA645C18BF8F
:1003C0007FEA655C29D094EA050F08BF90EA020F26
:1003D00005D054EA000C04BF1946104630BD91EA1E
:1003E000030F1EBF0021002030BD5FEA545C05D121
:1003F0004000494128BF41F0004130BD14F5800460
:100400003CBF01F5801130BD01F0004545F0FE41D3
:1004100041F470014FF0000030BD7FEA645C1ABF08
:10042000194610467FEA655C1CBF0B46024650EA3F
:10043000013406BF52EA033591EA030F41F400216B
:1004400030BD00BF90F0000F04BF0021704730B5F1
:100450004FF4806404F132044FF000054FF00001C6
:1004600050E700BF90F0000F04BF0021704730B587
:100470004FF4806404F1320410F0004548BF40425C
:100480004FF000013EE700BF42004FEAE2014FEAB1
:1004900031014FEA02701FBF12F07F4393F07F4F8C
:1004A00081F06051704732F07F4208BF704793F08F
:1004B0007F4F04BF41F40021704730B54FF46074A2
:1004C00001F0004521F000411CE700BF50EA0102A5
:1004D00008BF704730B54FF000050AE050EA01024E
:1004E00008BF704730B511F0004502D5404261EBBE
:1004F00041014FF4806404F132045FEA915C3FF4FF
:10050000D8AE4FF003025FEADC0C18BF03325FEA9B
:10051000DC0C18BF033202EBDC02C2F1200300FA4C
:1005200003FC20FA02F001FA03FE40EA0E0021FA71
:1005300002F11444BDE600BF70B54FF0FF0C4CF45F
:10054000E06C1CEA11541DBF1CEA135594EA0C0F11
:1005500095EA0C0F00F0DEF82C4481EA030621EA4C
:100560004C5123EA4C5350EA013518BF52EA033587
:1005700041F4801143F4801338D0A0FB02CE4FF039
:100580000005E1FB02E506F00042E0FB03E54FF069
:100590000006E1FB03569CF0000F18BF4EF0010E61
:1005A000A4F1FF04B6F5007F64F5407404D25FEA5D
:1005B0004E0E6D4146EB060642EAC62141EA555110
:1005C0004FEAC52040EA5E504FEACE2EB4F1FD0C52
:1005D00088BFBCF5E06F1ED8BEF1004F08BF5FEAD0
:1005E000500E50F1000041EB045170BD06F0004682
:1005F00046EA010140EA020081EA0301B4EB5C042F
:10060000C2BFD4EB0C0541EA045170BD41F4801126
:100610004FF0000E013C00F3AB8014F1360FDEBF4B
:10062000002001F0004170BDC4F10004203C35DA27
:100630000C341BDC04F11404C4F1200500FA05F3AA
:1006400020FA04F001FA05F240EA020001F000424B
:1006500021F0004110EBD37021FA04F642EB0601C1
:100660005EEA430E08BF20EAD37070BDC4F10C04EB
:10067000C4F1200500FA04F320FA05F001FA04F2AF
:1006800040EA020001F0004110EBD37041F100019B
:100690005EEA430E08BF20EAD37070BDC4F12005A6
:1006A00000FA05F24EEA020E20FA04F301FA05F20E
:1006B00043EA020321FA04F001F0004121FA04F2B6
:1006C00020EA020000EBD3705EEA430E08BF20EA86
:1006D000D37070BD94F0000F0FD101F000464000C0
:1006E00041EB010111F4801F08BF013CF7D041EA42
:1006F000060195F0000F18BF704703F00046520046
:1007000043EB030313F4801F08BF013DF7D043EA16
:100710000603704794EA0C0F0CEA135518BF95EACC
:100720000C0F0CD050EA410618BF52EA4306D1D153
:1007300081EA030101F000414FF0000070BD50EA72
:10074000410606BF1046194652EA430619D094EAFC
:100750000C0F02D150EA013613D195EA0C0F05D1E6
:1007600052EA03361CBF104619460AD181EA03013A
:1007700001F0004141F0FE4141F470014FF00000F2
:1007800070BD41F0FE4141F4780170BD70B54FF08D
:10079000FF0C4CF4E06C1CEA11541DBF1CEA13550D
:1007A00094EA0C0F95EA0C0F00F0A7F8A4EB0504EF
:1007B00081EA030E52EA03354FEA013100F08880E6
:1007C0004FEA03334FF0805545EA131343EA1263AF
:1007D0004FEA022245EA111545EA10654FEA002664
:1007E0000EF000419D4208BF964244F1FD0404F51D
:1007F000407402D25B084FEA3202B61A65EB030579
:100800005B084FEA32024FF480104FF4002CB6EB35
:10081000020E75EB030E22BFB61A754640EA0C00B5
:100820005B084FEA3202B6EB020E75EB030E22BFF5
:10083000B61A754640EA5C005B084FEA3202B6EB36
:10084000020E75EB030E22BFB61A754640EA9C00F5
:100850005B084FEA3202B6EB020E75EB030E22BFC5
:10086000B61A754640EADC0055EA060E18D04FEA83
:10087000051545EA16754FEA06164FEAC30343EA23
:1008800052734FEAC2025FEA1C1CC0D111F4801FF0
:100890000BD141EA00014FF000004FF0004CB6E7E9
:1008A00011F4801F04BF01430020B4F1FD0C88BF88
:1008B000BCF5E06F3FF6AFAEB5EB030C04BFB6EB93
:1008C000020C5FEA500C50F1000041EB045170BD86
:1008D0000EF0004E4EEA113114EB5C04C2BFD4EBB3
:1008E0000C0541EA045170BD41F480114FF0000E37
:1008F000013C90E645EA060E8DE60CEA135594EAB3
:100900000C0F08BF95EA0C0F3FF43BAF94EA0C0FB5
:100910000AD150EA01347FF434AF95EA0C0F7FF42A
:1009200025AF104619462CE795EA0C0F06D152EA7E
:1009300003353FF4FDAE1046194622E750EA410662
:1009400018BF52EA43067FF4C5AE50EA41047FF473
:100950000DAF52EA43057FF4EBAE12E74FF0FF3CD8
:1009600006E000BF4FF0010C02E000BF4FF0010CA9
:100970004DF804CD4FEA410C7FEA6C5C4FEA430C22
:1009800018BF7FEA6C5C1BD001B050EA410C0CBF71
:1009900052EA430C91EA030F02BF90EA020F0020D3
:1009A000704710F1000F91EA030F58BF994208BF3A
:1009B00090422CBFD8176FEAE37040F001007047F7
:1009C0004FEA410C7FEA6C5C02D150EA013C07D14E
:1009D0004FEA430C7FEA6C5CD6D152EA033CD3D099
:1009E0005DF8040B704700BF8446104662468C4693
:1009F0001946634600E000BF01B5FFF7B7FF0028C6
:100A000048BF10F1000F01BD4DF808EDFFF7F4FFEE
:100A10000CBF012000205DF808FB00BF4DF808ED79
:100A2000FFF7EAFF34BF012000205DF808FB00BF9C
:100A30004DF808EDFFF7E0FF94BF012000205DF8BE
:100A400008FB00BF4DF808EDFFF7CEFF94BF012073
:100A500000205DF808FB00BF4DF808EDFFF7C4FF6C
:100A600034BF012000205DF808FB00BF4FEA4102BF
:100A700012F5001215D211D56FF47873B3EB6252F0
:100A800012D94FEAC12343F0004343EA505311F017
:100A9000004F23FA02F018BF404270474FF00000A9
:100AA000704750EA013005D111F0004008BF6FF0E7
:100AB000004070474FF00000704700BF53B94AB97B
:100AC000002908BF00281CBF4FF0FF314FF0FF3056
:100AD00000F0E2B8ADF1080C6DE904CE12F0E4FCD0
:100AE000DDF804E0DDE9022304B0704700F13401D1
:100AF00091E838009C46A6464CF8045D90E8FF0F4C
:100B0000E54600BD90EC210B704700BF80EC210B47
:100B1000704700BF90EC200B704700BF80EC200BAB
:100B2000704700BFD0EC200B704700BFC0EC200B1B
:100B3000704700BFF0EC0201F0EC0211F0EC022172
:100B4000F0EC0231F0EC0241F0EC0251F0EC026109
:100B5000F0EC0271F0EC0281F0EC0291F0EC02A1F9
:100B6000F0EC02B1F0EC02C1F0EC02D1F0EC02E1E9
:100B7000F0EC02F1704700BFE0EC0201E0EC021182
:100B8000E0EC0221E0EC0231E0EC0241E0EC025149
:100B9000E0EC0261E0EC0271E0EC0281E0EC029139
:100BA000E0EC02A1E0EC02B1E0EC02C1E0EC02D129
:100BB000E0EC02E1E0EC02F1704700BFB0FC018123
:100BC000B0FC0191B0FC01A1B0FC01B1704700BFC5
:100BD000A0FC0181A0FC0191A0FC01A1A0FC01B13D
:100BE000704700BFEC4600B52DE900502DE9FF1F0E
:100BF0004FF000032DE90C0001A912F00FFFDDF802
:100C000040E012B0704700BFEC4600B52DE900503F
:100C10002DE9FF1F4FF000032DE90C0001A912F090
:100C200039FFDDF840E012B0704700BFEC4600B578
:100C30002DE900502DE9FF1F4FF000032DE90C00B6
:100C400001A912F049FFDDF840E012B0704700BF83
:100C5000EC4600B52DE900502DE9FF1F4FF00003D1
:100C60002DE90C0001AB12F00DFFDDF840E012B0F1
:100C7000704700BFEC4600B52DE900502DE9FF1F7D
:100C80004FF000032DE90C0001AA12F085FFDDF8FA
:100C900040E012B0704700BF704700BF0000000086
:100CA00002780B78012A28BF9A4240F0D8806DE97B
:100CB000044540EA0104CDE902676FF0000C4FEAF9
:100CC00044721AB380EA010414F0070F6BD100F0EC
:100CD000070420F0070004F0030521F007014FEAA4
:100CE000C505F0E8042314F0040FF1E804670CFADA
:100CF00005F462EA040266EA04060BD063EA040320
:100D0000624667EA0407664604E000BFF0E8042391
:100D1000F1E8046782FA4CF582EA0604A4FA8CF43E
:100D20006CBB83FA4CF583EA0705A5FA8CF595B9F7
:100D300050E9022351E9026782FA4CF582EA06047F
:100D4000A4FA8CF483FA4CF583EA0705A5FA8CF52E
:100D50002543DBD09CB92DBAB5FA85F424F00704FD
:100D600027FA04F1DDE9026723FA04F303F0FF0038
:100D700001F0FF01FDE80445A0EB0100704724BA33
:100D8000B4FA84F424F0070426FA04F1DDE90267DA
:100D900022FA04F202F0FF0001F0FF01FDE8044531
:100DA000A0EB0100704714F0030F3CD110F00304D6
:100DB00028D150F8082B51F8083B82FA4CF582EA0A
:100DC0000305A5FA8CF55DB950F8042C51F8043CE4
:100DD00082FA4CF582EA0305A5FA8CF5002DE8D0DD
:100DE0002DBAB5FA85F424F0070423FA04F122FAA7
:100DF00004F202F0FF0001F0FF01FDE80445A0EB62
:100E0000010070474FEAC40420F0030050F8082B9B
:100E100021F0030151F8083B0CFA04F462EA0402E1
:100E200063EA0403C9E710F003041DD0A1EB040139
:100E300020F00300E40750F8042B06D012D28B7880
:100E40005FFAA2F4E41A06D12BB1CB785FFAB2F4C0
:100E5000E41A00D133B920465DF8104B7047A2EB7D
:100E60000300704701F1040150F8042BCC0721F076
:100E7000030151F8043B48D824D222F07F4482FA7F
:100E80004CF594EA1325A5FA8CF50AD165B951F809
:100E9000043B84EA0204B4EB036F0ED150F8042B38
:100EA000EBE74FEA132355E035F07F454DD1087845
:100EB000FDE80445C0F1000070474FEA126203F0FC
:100EC000FF0347E002EA1C4482FA4CF594EA13451A
:100ED000A5FA8CF50AD165B951F8043B84EA0204FD
:100EE000B4EB034F0CD150F8042BEBE74FEA13435C
:100EF00030E015EA1C4528D10B884FEA124229E060
:100F00004FEA124203EA1C4324E002F0FF0482FA93
:100F10004CF594EA1365A5FA8CF50AD165B951F838
:100F2000043B84EA0204B4EB032F09D150F8042BEC
:100F3000EBE74FEA13630DE015F0FF0F05D10B68E7
:100F40004FEA122223F07F4304E04FF00000FDE857
:100F50000445704712BA1BBA82FA4CF482EA0304C1
:100F6000A4FA8CF5B5FA85F402FA04F203FA04F354
:100F70004FEA1260FDE80445A0EB1360704700BF24
:100F800001F0FF01102A2BDB10F0070F08D010F83A
:100F9000013B013A8B422DD010F0070F42B3F6D13E
:100FA000F0B441EA012141EA014122F007047FF057
:100FB00000070023F0E80256083C85EA010586EAAE
:100FC000010685FA47F5A3FA87F586FA47F6A5FAEA
:100FD00087F68EB9EED1F0BC01F0FF0102F00702F6
:100FE00032B110F8013B013A83EA010313B1F8D1A1
:100FF0000020704701387047002D06BF3546033882
:10100000073815F0010F07D1013015F4807F02BFBA
:10101000013015F4C03F0130F0BC0138704700BF0B
:10102000844641EA000313F003036DD1403A41D3F3
:1010300051F8043B40F8043B51F8043B40F8043BB2
:1010400051F8043B40F8043B51F8043B40F8043BA2
:1010500051F8043B40F8043B51F8043B40F8043B92
:1010600051F8043B40F8043B51F8043B40F8043B82
:1010700051F8043B40F8043B51F8043B40F8043B72
:1010800051F8043B40F8043B51F8043B40F8043B62
:1010900051F8043B40F8043B51F8043B40F8043B52
:1010A00051F8043B40F8043B51F8043B40F8043B42
:1010B000403ABDD2303211D351F8043B40F8043BE2
:1010C00051F8043B40F8043B51F8043B40F8043B22
:1010D00051F8043B40F8043B103AEDD20C3205D3F2
:1010E00051F8043B40F8043B043AF9D2043208D0EA
:1010F000D2071CBF11F8013B00F8013B01D30B885C
:1011000003806046704700BF082A13D38B078DD039
:1011100010F003038AD0C3F10403D21ADB071CBF0B
:1011200011F8013B00F8013B80D331F8023B20F875
:10113000023B7BE7043AD9D3013A11F8013B00F8AE
:10114000013BF9D20B7803704B7843708B78837036
:101150006046704700000000000000000000000032
:10116000000000000000000000000000000000007F
:10117000000000000000000000000000000000006F
:1011800030B490F800F020F007016FF0000C10F080
:10119000070491F820F040F048804FF000046FF011
:1011A0000700D1E9002391F840F000F1080082FA2D
:1011B0004CF2A4FA8CF283FA4CF3A2FA8CF34BBBF8
:1011C000D1E9022382FA4CF200F10800A4FA8CF271
:1011D00083FA4CF3A2FA8CF3E3B9D1E9042382FA3F
:1011E0004CF200F10800A4FA8CF283FA4CF3A2FA54
:1011F0008CF37BB9D1E9062301F1200182FA4CF28C
:1012000000F10800A4FA8CF283FA4CF3A2FA8CF3F2
:10121000002BC6D0002A04BF04301A4612BAB2FA14
:1012200082F200EBD20030BC7047D1E9002304F019
:101230000305C4F100004FEAC50514F0040F91F84E
:1012400040F00CFA05F562EA05021CBF63EA0503EB
:1012500062464FF00004AAE74FEA410C7FEA6C5C5B
:1012600002D150EA013C0AD14FEA430C7FEA6C5CA0
:1012700002D152EA033C02D14FF0000070474FF018
:10128000010070470348044B834202D0034B03B173
:1012900018477047E8070020E8070020000000001A
:1012A0000548064B1B1AD90F01EBA301491002D0C8
:1012B000034B03B118477047E8070020E8070020F8
:1012C0000000000010B5064C237843B9FFF7DAFFA1
:1012D000044B13B10448AFF300800123237010BD09
:1012E000E807002000000000A4AC010808B5054B89
:1012F0001BB105490548AFF30080BDE80840FFF782
:10130000CFBF00BF00000000EC070020A4AC010824
:1013100010B509F05BFF144B9868038A13F4807FC3
:101320000ED1114CE06802F035F8A06801F006FC1F
:10133000012220210D4803F001FD01F0C7FE05E068
:1013400001F0EEFBEDE7012007F0C3FE064BDB6882
:1013500093F87030002BF6D0034801F03DF8044BB1
:10136000186807F09EFE10BD00090020000402402E
:101370000408002008B5024B986801F072FA08BD15
:101380000009002000B58BB000F01CFB00F020FB32
:10139000C82007F09EFE07F0F7FD2422002101A8D7
:1013A00014F0CCFB094B01934FF4805306931823A0
:1013B000079301AA0021064807F014FE054B1860A8
:1013C00007F0F4FD00200BB05DF804FBCCAC010885
:1013D000111300080408002010B51E4CA068036C0F
:1013E00001330364836C01338364836F0133836748
:1013F000D0F880300133C0F88030D0F88830013325
:10140000C0F88830E368D3F85C210132C3F85C216E
:10141000D3F868210132C3F86821636B0133636339
:10142000236C01332364E36C0133E364636D0133A4
:101430006365E36D0133E36501F026FA04F11400FE
:1014400002F02CFAE06802F04FF9E0688C3001F00D
:1014500007FE10BD0009002000B585B000230093F1
:101460000193029303931548154A02604FF48032AA
:101470004260836003610122027680F82030C362FB
:1014800010498162C360C26180F83020426102F07D
:101490005FFD68B90D23009301230193002302939C
:1014A0006946064802F09AFE28B905B05DF804FBCB
:1014B00000F004FCEEE700F001FCF6E7B0080020C5
:1014C000002001400100000F10B58CB000240894EA
:1014D00009940A940B9420222146684614F02EFBAE
:1014E0002D482E4B03604FF480334360846001230A
:1014F0000361037680F82040C462294A8262C46096
:10150000C36180F83040436102F022FD002834D1ED
:101510000A2308930123099300230A9308A91E486C
:1015200002F05CFE60BB0A230093012301930323B6
:101530000493002302934FF40012079206938DF850
:1015400015308DF8143003936946134802F092FF6A
:10155000C8B90B2300930223019369460E4802F099
:1015600089FF98B90C2300930323019369460A4825
:1015700002F080FF68B90CB010BD00F09FFBC7E718
:1015800000F09CFBCFE700F099FBE2E700F096FB50
:10159000E8E700F093FBEEE7680800200021014037
:1015A0000100000F30B58BB000230593069307931D
:1015B000089309930368324A934204D0314A934214
:1015C0003ED00BB030BD0446002501952E4B5A6C21
:1015D00042F480725A645A6C02F480720192019A49
:1015E00002951A6B42F004021A631B6B03F00403AA
:1015F0000293029B082305930323069305A923481E
:1016000003F0A6FA2248234B036045608560C5605D
:101610004FF4806303614FF4006343614FF4005360
:1016200083614FF48073C3610562456203F006F97C
:1016300018B9174BA3639C63C3E700F03FFBF8E7BF
:1016400000210391104B5A6C42F400725A645A6C98
:1016500002F400720392039A04911A6B42F004029E
:101660001A631B6B03F004030493049B0723059385
:101670000323069305A9054803F06AFAA1E700BF12
:1016800000200140002101400038024000080240D3
:10169000080800201064024003460A46154901600C
:1016A00015494160154901601831416091688160B8
:1016B00000F10C0C02F10C0103C98CE8030003F1EA
:1016C000140C02F1140103C98CE8030003F11C0C93
:1016D00002F11C0103C98CE80300516A5962118DA3
:1016E0001985518D598592F82C2083F82C201846A5
:1016F000704700BF54B9010864B9010818BA01085D
:1017000030B50322027001214170DFF8DCC0C0F85F
:1017100004C02F4A82602F4AC2604FF0804EC0F84A
:1017200010E02D4A42614FF0FF4282614FF07E523D
:10173000C2612A4C0462002480F8244082624FF483
:101740008065C562DFED267AC0ED0C7AC0F834E022
:101750004FF07A558563C46300F5405383F88048A1
:1017600083F8814803F684052A6003F688052A6019
:1017700003F68C052A6083F8901803F69405DFF8C9
:101780006CE0C5F800E083F8984883F8991883F86E
:101790009A1883F89B18FF2183F89C1803F50A64B4
:1017A000226003F6A402C2ED007A83F8A81803F6BB
:1017B000AC02C2F800C003F50B62C2F800C003F629
:1017C000B402C2F800E003F6B803064A1A6030BD5E
:1017D000ABAA2A3EABAAAA3E9A99993F0AD7233CC4
:1017E00000000000000020C10000A04100002041D6
:1017F00010B50446FFF784FF04F540530021C3F8F9
:10180000C01883F8C41803F6C8000022026003F66B
:10181000CC00026083F8D01803F6D400026083F88D
:10182000D81803F6DC00026083F8E01803F6E40041
:10183000026083F8E81803F6EC00026003F50F601D
:10184000026003F6F400026003F6F800026003F69B
:10185000FC00026004F56450026003F604100260AC
:1018600003F60810026003F60C10026003F5116025
:10187000026042608260C26003F51260026083F819
:101880002419012083F8250983F8261903F6281165
:101890000A6003F62C110A600221C3F8301903F51F
:1018A00013635A60204610BDF0B597B0344B354CE9
:1018B0001C6001229A803449344B0B6000254D6036
:1018C000334E344B33607560334F384600F02AFF97
:1018D000324B10934FF40073ADF844301294202330
:1018E000ADF84C3014948023ADF85430EC4610AB76
:1018F00093E803008CE8030002AA12AB93E803000C
:1019000082E8030004AC16AB13E9030084E803008B
:10191000234B24491960244959602449196018311E
:1019200059609E6003F10C069CE8030086E8030002
:1019300003F1140692E8030086E8030003F11C0299
:1019400094E8030082E8030083F82C5019462046EF
:10195000FFF7A2FE164D23469FED160A06221649F2
:10196000284601F0B5FC154C2046FFF741FF2B46F9
:1019700022463946124800F007FD17B0F0BD00BFFF
:1019800054450020000402404C450020B44500208E
:10199000444500205C4500206044002000080240CF
:1019A0003044002054B9010864B9010818BA01088C
:1019B000B84200200000FA445C4600207C09002068
:1019C0000009002008B502F0E9F900F079F908BD36
:1019D00008B500F0E7F800F0CBF800F0EBF900F004
:1019E000C3F900F0D3FBFFF76FFDFFF735FD0120D2
:1019F00008BD000010B5124C0021204605F016FB72
:101A00000021204605F0A4FB0421204605F00EFB32
:101A10000421204605F09CFB0821204605F006FB2A
:101A20000821204605F094FB0C21204605F0FEFA23
:101A3000236841F236021A64204604F0F9FF10BD13
:101A40005C46002010B503220649074802F0ACFAB4
:101A5000064C204602F08CFC2268536843F0800359
:101A6000536010BDF8080020B0080020680800206E
:101A70000346027B22B107C983E807001846704776
:101A800007C983E8070001221A73F7E770B58AB027
:101A90000646164B188801F055FB154DEA6B154CA0
:101AA000214605A801F096FC2A6C214603A801F006
:101AB00091FC6A6C214601A801F08CFC9DF818305D
:101AC0002BB19DF8103013B19DF8083013B90120E7
:101AD0000AB070BD059B0793039B0893019B099374
:101AE00007A93046FFF7C4FFF1E700BFF808002060
:101AF00000210140B842002070B586B0164B1B682B
:101B00006FF001021A618021144803F01DF9144E90
:101B10003046FFF72FFC02AC00230293039304939B
:101B200005932046FFF7B2FF0E4D059B009394E806
:101B30000E00284601F02CFD3046FFF74DFC059BBA
:101B4000009394E80E00284601F066FC284601F058
:101B5000BBFC06B070BD00BF5C4600200008024020
:101B600000000020B842002008B5FFF79DFE08BD28
:101B700000B583B000220192094B196B41F480013A
:101B800019631B6B03F480030193019B052138202B
:101B900002F0C4FD382002F0D1FD03B05DF804FB73
:101BA000003802402DE9F0418AB0002405940694E3
:101BB0000794089409940194314B1A6B42F0800207
:101BC0001A631A6B02F080020192019A02941A6B56
:101BD00042F004021A631A6B02F004020292029AA3
:101BE00003941A6B42F001021A631A6B02F00102AD
:101BF0000392039A04941A6B42F002021A631B6B5D
:101C000003F002030493049BDFF880802246102136
:101C1000404603F093F81B4D22466321284603F00B
:101C20008DF8194F22464FF42071384603F086F89C
:101C300010230593012606960794089405A94046AB
:101C400002F086FF6323059306960794089405A97E
:101C5000284602F07DFF4FF4207305930696079403
:101C6000089405A9384602F073FF80230593069473
:101C7000079405A9284602F06BFF0AB0BDE8F08181
:101C80000038024000040240000802400000024008
:101C900010B504460268074B9A4204D02268064BEE
:101CA0009A4203D010BD02F093F8F7E7FFF724FF44
:101CB000F8E700BF001000400000014072B6FEE7E8
:101CC00000B595B03022002108A813F037FF00239B
:101CD000039304930593069307930193204A116C91
:101CE00041F080511164126C02F080520192019A0D
:101CF00002931C4B1A6842F480421A601B6803F47A
:101D000080430293029B012308934FF4803309938D
:101D100002230E934FF480020F9204221092A82205
:101D2000119212930723139308A803F051FE98B958
:101D30000F23039302230493002305934FF4A0532E
:101D400006934FF480530793052103A804F0AAF8E3
:101D500020B915B05DF804FBFFF7B0FFFFF7AEFF49
:101D6000003802400070004008B51048104B036076
:101D70004FF482734360002383604FF40062C260BB
:101D800002220261012242614FF400728261182234
:101D9000C2610362436283620A23C36204F050FAA1
:101DA00000B908BDFFF78AFFFBE700BFB44500207C
:101DB0000030014008B50F480F4B03604FF48273A9
:101DC0004360002383604FF40062C260036101221C
:101DD00042614FF4007282611822C2610362436261
:101DE00083620A23C36204F02BFA00B908BDFFF72F
:101DF00065FFFBE75C450020003C004000B58BB070
:101E00000023059306930793089309930368284AD0
:101E1000934205D0274A934225D00BB05DF804FBCE
:101E200000210191244B5A6C42F480525A645A6C3E
:101E300002F480520192019A02911A6B42F001025F
:101E40001A631B6B03F001030293029BE0230593CB
:101E500002230693032308930523099305A9174832
:101E600002F076FED9E700210391134B1A6C42F47D
:101E700000421A641A6C02F400420392039A04911D
:101E80001A6B42F004021A631B6B03F00403049301
:101E9000049B4FF4E0530593022306930323089316
:101EA0000623099305A9064802F052FEB5E700BFD4
:101EB00000300140003C0040003802400000024079
:101EC0000008024000B583B0002200920D4B596C0F
:101ED00041F480415964596C01F4804100910099AA
:101EE0000192196C41F0805119641B6C03F080530E
:101EF0000193019B0F216FF0010002F00FFC03B072
:101F00005DF804FB0038024030B589B00446002378
:101F10000193214B1A6C42F010021A641B6C03F0FF
:101F200010030193019B02A903A804F081F8069B0A
:101F3000CBB904F06DF80346184AA2FB03239B0CAF
:101F4000013B1748174A026040F2E732C260436023
:101F5000002303618360836104F0CEFE054630B147
:101F6000284609B030BD04F053F84300E4E70C48BC
:101F700004F05EFD05460028F2D1362002F0DEFBBB
:101F80000F2C01D90125EBE700222146362002F073
:101F9000C5FB054B1C60E3E70038024083DE1B43B2
:101FA0000C460020001000401C000020FEE7FEE769
:101FB000FEE7FEE7FEE7704708B5024804F081FD42
:101FC00008BD00BF5C46002008B5024804F079FD5A
:101FD00008BD00BF0C46002008B5024802F0CAFC4C
:101FE00008BD00BF0808002008B5024803F0E5F965
:101FF00008BD00BF90AD00200120704708B513F068
:102000007DFF162303604FF0FF3008BD08B54FF089
:10201000FF31FFF7F3FFFEE770B50C4616460025CB
:1020200006E0AFF30080214601F8010B01350C46B4
:10203000B542F6DB304670BD70B50C46164600253D
:1020400004E014F8010BAFF300800135B542F8DB72
:10205000304670BD4FF0FF3070474FF400534B6077
:1020600000207047012070470020704710B50346DC
:102070000C4A0D490D48006840B10C480068034403
:10208000521A934206D8094A136010BD0748084CFB
:102090000460F2E713F032FF0C2303604FF0FF30CF
:1020A000F3E700BF000002200004000058460020B3
:1020B000B0B50020034AD2F8883043F47003C2F868
:1020C0008830704700ED00E002680E4B9A4200D065
:1020D000704700B583B00022019203F59C33596C20
:1020E00041F0010159645B6C03F001030193019B12
:1020F0000521192002F012FB192002F01FFB03B08A
:102100005DF804FB0000014070B588B00023039324
:1021100004930593069307930268194B9A4201D0E2
:1021200008B070BD0024019403F59C331A6B42F093
:1021300002021A631A6B02F002020192019A0294DF
:102140001A6B42F001021A631B6B03F00103029346
:10215000029B4FF4604303930226049601250795E2
:1021600003A9084802F0F4FC4FF4E06303930496DB
:1021700005940694079503A9034802F0E9FCCFE70C
:1021800000000140000402400000024030B597B05A
:102190000024129413941494159410941194099497
:1021A0000A940B940C940D940E940F9420252A46B7
:1021B000214601A813F0C2FC4048414B0360446033
:1021C000856041F29A03C360046102234361846124
:1021D00004F092FD002855D14FF48053129312A9B8
:1021E000364804F094FE00284FD1344804F0B0FD86
:1021F00000284DD100231093119310A92F4805F00A
:1022000023F8002847D16023099300220A920B92F9
:102210000C920D920E920F9209A9284804F0FCFD31
:1022200000283BD1042209A9244804F0F5FD002828
:1022300037D1082209A9214804F0EEFD002833D146
:1022400040F6AB530A930C2209A91C4804F0E4FDA4
:1022500068BB4FF4006301934FF480630293002343
:1022600003931422049205934FF4005206920893AC
:1022700001A9124805F02EF8E0B91048FFF744FF15
:1022800017B030BDFFF71AFDA6E7FFF717FDACE763
:10229000FFF714FDAEE7FFF711FDB4E7FFF70EFD02
:1022A000C0E7FFF70BFDC4E7FFF708FDC8E7FFF73E
:1022B00005FDCEE7FFF702FDDFE700BF5C4600202B
:1022C00000000140DFF834D0FFF7F4FE0C480D4960
:1022D0000D4A002302E0D458C4500433C4188C4281
:1022E000F9D30A4A0A4C002301E013600432A242E7
:1022F000FBD313F009FEFFF745F8704700000220FA
:1023000000000020E80700200CD50108E8070020A5
:10231000B0B50020FEE7000010B586B00346184AAD
:102320000260184A02604FF0FF4242608260C26061
:102330000022026142618261C26102920392EC4614
:1023400002A903C98CE8030002241C6203F1240ED5
:102350008EE803000492059206A911E903008CE8B7
:102360000300DC6203F1300E8EE803009C63DA6345
:102370001C645A649C64DA64184606B010BD00BF41
:10238000A8B9010834BB010838B50446002505701A
:102390004570857045608160C36002611430FFF74D
:1023A000BBFF84F86450A566022384F86C3004F106
:1023B0006D03C4F86D50C4F87150A4F87550A3674C
:1023C000A368DC60236903F54053C3F8C048E368A1
:1023D0005C65204638BD000010B58AB00446242252
:1023E000002101A813F0AAFB084B01934FF40053FE
:1023F00006931823079301AA0021054806F0F2FD71
:10240000012384F864300AB010BD00BFCCAC0108D1
:102410001D24000808B508F0ABFEFCE708B5FFF77F
:10242000F9FF40687047000010B50446024B036096
:1024300009F046FB204610BDD8B9010810B5044686
:10244000044B036009F03CFB0821204609F022FA06
:10245000204610BDD8B9010810B50446082009F07F
:1024600087FA044A0260044A02604460034A04494D
:1024700009F0B6FB6CC40108D8B90108292400088A
:10248000C4B9010808B510B10248FFF7E5FF0248DA
:10249000FFF7E2FFDCAC0108FCAC010808B50B79E2
:1024A000022B07D0012B14D0EBB90B68036001237A
:1024B000037108BD0B684BB11A6822B95B680360F1
:1024C00001230371F5E700230371F2E70023037191
:1024D000EFE70B6823B11B68036001230371E8E792
:1024E00000230371E5E70020FFF7CCFF01207047D0
:1024F000B6EE000A7047A0F10400F9E79FED010A6B
:10250000704700BF5E74513FA0F10400F6E700BFC2
:1025100090F82C00022814BF002001207047A0F181
:102520000400FFF7F5BF00002DE9F04782B0044634
:10253000174641F40046054625F8286F00F12A09A0
:10254000DFF85C804FF47A7ACDF800A001234A4688
:102550002946404603F0B5FF012001F013FB268514
:102560004FF6FF736385CDF800A001234A46294644
:10257000404603F0A6FF012001F004FB638D4BF6FB
:10258000EF62934207D047B1C3F30A033B800120B7
:1025900002B0BDE8F0870020FAE70120F8E700BFAD
:1025A0005C45002010B582B004460DF10602002102
:1025B000FFF7BAFF80B101AA4FF400612046FFF790
:1025C000B3FF48B1BDF80600BDF804301B0403F4A6
:1025D0000003184302B010BD4FF0FF30FAE70000CF
:1025E00000B583B0C2F30A0241EA0203014621F8B2
:1025F000283F4FF47A730093012300F12A02054823
:1026000003F05FFF012001F0BDFA012003B05DF887
:1026100004FB00BF5C45002090F82C30022B7DD0DD
:1026200030B583B0044600F114050121284608F0B6
:10263000DBFC282001F0A6FA002384F82C300121CD
:10264000284608F0D1FC142006F043FDA28C4FF47C
:1026500080512046FFF7C4FF10B9002003B030BD01
:10266000A28C4FF480512046FFF7BAFF0028F4D027
:10267000A28C4FF480512046FFF7B2FF0028ECD027
:10268000A28C4FF480512046FFF7AAFF0028E4D027
:10269000A28C4FF480512046FFF7A2FF0028DCD027
:1026A000E28C4FF4C0512046FFF79AFF0028D4D0A7
:1026B000642001F067FA012384F82C300DF1060242
:1026C0004FF480512046FFF72FFF20B1A28CBDF8B8
:1026D00006309A4201D00020C0E70DF106024FF407
:1026E000C0512046FFF720FF0028F4D0E28CBDF84F
:1026F00006309A42EFD12046FFF754FF80B994F894
:102700002C30012B06D094F82C00022814BF002096
:102710000120A3E7022384F82C30F4E7012070475E
:1027200000209BE710B40024046004718160C46041
:1027300040F2011202821F4A42611F4A82611F4A0F
:10274000C2611F4A02624462002282624FF4802109
:10275000C1620121016380F83410846380F83C4039
:102760000221016442648164C2640265426582653B
:10277000C265026644668466C26602674267816714
:10278000C267C0F88010C0F88420C0F88810C0F874
:102790008C20C0F89240C0F896400A4AC0F89C20AD
:1027A0001022A0F8A020C0F8D040A0F8D4405DF8D6
:1027B000044B70470AD7A33CDB0F4942DB0F49416A
:1027C00000007A4400000240D0ED087A77EEA77A44
:1027D000C0ED1B7A67EEA77AB5EE007A67EE877ACE
:1027E000C0ED1C7A7047B0F8901040F2011291428F
:1027F00003D00360012303717047B0F896309B0249
:1028000003F47F33B0F89820910901F47C710B43F5
:10281000C2F303121343ECE7B0F8903013F4807F57
:1028200001D10120704710B50446D0F89C30C0F8A3
:10283000D030B0F8A030A0F8D43000F19203C0F846
:10284000D83000F19603C0F8DC30FFF7CCFF02234C
:10285000C4F8E03004F1A401A06808F003FC0120F2
:1028600010BD08B5B0F8902040F201139A4200D094
:1028700008BD48F2FF33A0F892304FF6FF73A0F87E
:102880009430FFF7C9FFF3E730B52DED068B85B027
:102890000568B0F89030A3F58073012B04D90020AF
:1028A00005B0BDEC068B30BD0446FFF7B5FFE16A0D
:1028B000A06E01F04BF9A066B4F8903013F4807F5D
:1028C00000D0A566D4ED169A94ED159A94ED18AA49
:1028D000DFED8EAA6AEE2A7A39EE279A84ED159AF0
:1028E00077EEA98AC4ED168AA56E07EE905AB8EE67
:1028F000E78AB0EE680A10F08DFD38EE400AD4ED9C
:102900000B7AF8EEE76AC0EE267AFDEE677AF8EE0B
:10291000E77A66EEA77A30EE670AD4ED177A30EEE2
:10292000677A9FED7B6A27EE067A77EE877AC4EDA9
:10293000177AD4ED1B7A67EEAA7A67EE807A39EEC1
:10294000279A84ED159A78EEA77AC4ED167A87EE69
:10295000A67ABDEE477AB8EEC77A26EE877A77EE8A
:10296000C77AF5EEC07AF1EE10FA00F1A680C4ED58
:10297000167A94ED1C6A9FED657A26EE077A27EEAB
:10298000007A3AEE077A84ED187AB0EEC77ADFED76
:10299000615A26EE256AB4EEC76AF1EE10FA40F3EA
:1029A0008F8000232366012289EE267A84ED1F7A28
:1029B0000023A36794ED185A85EE266A84ED216AF8
:1029C000C4F88030D4ED235ACDED005A01238DF8A0
:1029D000043077EEE97A87EEA67AFDEE477AF8EED4
:1029E000E77A77EE677A77EEA57ABDEE677AB8EE8A
:1029F000C77A77EEC77AF5EEC07AF1EE10FA61D4B5
:102A0000C4ED237A0023C4F88830636AEB1A07EE1A
:102A1000903A1AB994F83430002B58D14FF07C53C7
:102A20002365F8EEE77A94ED147A77EE877AE26818
:102A3000D3685B695B0007EE103AB8EEC77ADFED4A
:102A4000365A27EE257AB7EE005AC5EE265A27EEFB
:102A5000257AD4ED0A6A77EEE67A67EE877A94F8FB
:102A60003C00002850D0DFED2D6A87EEA67ABDEE3F
:102A7000477AB8EEC77A27EE267A77EEC77A94EDD2
:102A80000C7AB8EEC77A67EE277AC4ED117A002384
:102A900023648DED026A01218DF80C1026EE266A62
:102AA000D268D2ED057AF8EEE77A67EE867A27EEFD
:102AB000277A84ED137AA364F2E677EEA67A56E7D6
:102AC000002271E7B7EE007A77EE877A98E794ED07
:102AD000147ADFED0E5A25EE255A37EE057A84ED8D
:102AE000147AF7EE005AB4EEE57AF1EE10FA01DD51
:102AF000C4ED145A94ED147AB5EEC07AF1EE10FAE2
:102B00008FD5002323658CE70120C9E63936543878
:102B1000CDCCCC3D3936D437DB0F4940DB0FC94033
:102B200010B500F19C04002301221146204608F054
:102B300083F90121204608F057FA10BD10B504466C
:102B4000028AA0F89020A2F580739BB2012B2AD9AB
:102B500000214FF48273C4F8A4300023C4F8A830D5
:102B60004FF40060C4F8AC00C4F8B0100121C4F800
:102B7000B4104FF40071C4F8B8101821C4F8BC1098
:102B8000C4F8C030C4F8C430C4F8C8300A23C4F84C
:102B9000CC3012F4807F08D12046FFF715FE0123C8
:102BA00084F83C3010BD0221D3E72046FFF7B8FF80
:102BB000F2E7000082B010B58AB0844602A880E82F
:102BC00006000D9300230593069307939DF840306C
:102BD000B3B1DDED0E7A9DED0F7A77EEC77A9FEDFA
:102BE000117A67EE877A0D9B0893CDED097A05ABD4
:102BF0000AAA12E9030083E8030001238DF81C30C0
:102C0000DCF8002006AB93E803008DE80300059B89
:102C1000D46802AA06CA6046A0470AB0BDE81040C0
:102C200002B070473ACD133F0023C0F89430C0F88B
:102C3000983090F87C3063B1002380F87C3090F8B5
:102C4000883053B1002380F888300023C0F8A430C6
:102C50007047002380F87C30F1E7002380F888304B
:102C6000F3E730B589B00C46002505950695079524
:102C700003681B6905A99847DDED060A9DED050A65
:102C800001A800F08DFF049B2360039B6360029BFF
:102C9000A360284609B030BDF0B52DED0A8B93B086
:102CA000044690F87C00002800F04B810D46164643
:102CB00094F88830002B00F045810AAB04F15802EB
:102CC00092E8030083E8030094ED19AAD4ED1BAA4F
:102CD000D4ED1E8A07AF002307930893099305AB31
:102CE00004F1800292E8030083E80300636F626CE2
:102CF0009B1A07EE903AF8EEE77A9FED947A87EE0A
:102D0000878A28EE2A8A38EE0A8AB0EE480A08F046
:102D1000F9FCB0EE409AB0EE480A08F0ADFCDDEDEB
:102D2000056A26EE897ADDED067A27EE806A37EEAF
:102D3000067A67EE897A66EE806A77EEE67A8DED3E
:102D40000C7ACDED0D7A0CAB93E8030087E8030015
:102D500001238DF82430D4ED056A94ED236A37EE13
:102D6000467A26EE877A36EE076A84ED236A94ED7A
:102D7000247A77EEC77A66EEA76A37EE267A84ED74
:102D8000247ADFED739A68EEA99AF7EE007A87EE5F
:102D9000A9BA94F84830002B5DD19DED0A9A29EE2E
:102DA0000B9ADDED0B7A27EE8BBAD4ED117AF8EEA3
:102DB000E77A67EEAA7ADFED656A87EEA67A37EEE4
:102DC0000AAAB0EE4A0A08F09DFCB0EE408AB0EEC6
:102DD0004A0A08F051FC69EE087A2BEE007A77EE89
:102DE000C77A2BEE088A29EE000A38EE000A27EE91
:102DF000A97A84ED277A60EE299AC4ED289ACDED60
:102E00000E7A8DED0F0A2B7A002B00F09280C5ED23
:102E1000007A85ED010A05AB07AA92E8030083E872
:102E20000300DDED057A67EE897A9DED067A27EEDF
:102E30000B7A77EE877ACDED107A01238DF8443046
:102E400012AB13E9030086E8030067EEA87AC4ED2D
:102E5000297A002076E001AB04F1080292E8030031
:102E600083E8030003ABD7E9000183E8030005AB67
:102E700004F14C0292E8030083E803009DED058A0B
:102E8000DDED037A38EE678A9DED06CADDED047A42
:102E90003CEE67CAD4ED25BA9DED0A9A39EE2B9A1D
:102EA0009DED017A67EE087A39EE279A29EE0B9AA2
:102EB000D4ED26CADDED0B7A77EEAC7A27EE0C7AEC
:102EC00077EE877A27EE8BBA29EE090A6BEE0B7A3A
:102ED00030EE270A10F078FA9FED1E7AC7EE007ADE
:102EE000B7EE007AF4EEC77AF1EE10FA12D4DDED07
:102EF000027A9FED197A67EE877A27EE888A7BEE51
:102F000088BAC4ED25BA67EE8C7A7CEEA7CAC4ED08
:102F100026CA4AE729EE279A2BEE27BADFED0F7A69
:102F20006BEEA7BAC4ED25BA6CEEA77AC4ED267A8B
:102F30003BE70EAB93E8030085E8030001232B7207
:102F400069E7012013B0BDEC0A8BF0BDA037204D1E
:102F5000ABAA2A3FAC5C313F39365438A4707D3F70
:102F600008B50346087A022809D0012819D020BBE9
:102F700003C983E8030001221A72184608BD0A68D3
:102F800062B1116839B9043292E8030083E80300A2
:102F900001221A72F1E700221A72EEE700221A7279
:102FA000EBE70A6832B192E8030083E803000122EC
:102FB0001A72E2E700221A72DFE7FF2814BF00202E
:102FC0000120FFF75FFA0346027A32B1087A20B196
:102FD0000A681A604A685A607047087A28B103C9BB
:102FE00083E8030001221A72704712B100221A729C
:102FF000704700221A72704782B000B583B08446D1
:10300000684680E806000DF1100E4EF8043F0CF102
:10301000780303C883E8050071460CF18000FFF7D0
:10302000D2FF002003B05DF804EB02B07047034606
:10303000027A32B1087A20B10A681A604A685A6086
:103040007047087A28B103C983E8030001221A7285
:10305000704712B100221A72704700221A7270472C
:1030600030B589B00446037E80F8483000F11C0179
:1030700002A8FFF775FF02A904F14C00FFF7D7FF84
:1030800004F1280105A8FFF76BFF05A904F158001A
:10309000FFF7CDFF6D4604F134012846FFF7FEF936
:1030A00004F1640395E8030083E8030004F13C01A4
:1030B0002846FFF7F3F96C3495E8030084E8030031
:1030C00009B030BDA0F10400FFF7CABF08B51C4B22
:1030D0001B68196840F64D024A6319688A631968CB
:1030E000CA631A6841F23601116419680A6A42F02B
:1030F00001020A6219680A6A42F004020A62196847
:103100000A6A42F010020A6219680A6A42F0400232
:103110000A6219680A6A42F480720A6219680A6AC5
:1031200042F480620A621A68136A43F4805313629D
:10313000022005F0CEFFFEF785FCFEF75BFC08BD24
:10314000B842002007EE900AF8EE677A9FED037A06
:1031500067EE877A024BC3ED007A7047A742773C4F
:103160001400002000220270072141601349816091
:103170004FF0804CC0F80CC04FF0000CC0F810C0ED
:10318000C0F814C0DFF844C0C0F818C0C1614FF0E7
:10319000824101620A494162DFF834C0C0F828C0A8
:1031A000DFF830C0C0F82CC00163064941634FF01E
:1031B000FF4181630449C1630264704700002041FC
:1031C0000000F042000080FFCDCC4C3E0AD7233DEA
:1031D00000007A440000C8421D4A02601D4A026095
:1031E0001D4A42601D4A0260203242600021017483
:1031F0004FF07E52426101760022C261026280F885
:1032000024108262C26280F83010426380F8381065
:10321000C26380F8401080F8481080F8541080F89D
:10322000601080F8681080F8701080F87C1080F8CA
:103230008810C0F89420C0F89820C0F89C20C0F8EE
:10324000A020C0F8A420C0F8A820C0F8AC20704787
:10325000FCBA0108B4BA0108A8B90108D0BA01083B
:1032600003681B680A885A634A889A638A88DA6303
:10327000704782B00346D0ED0E7AD0ED086A67EE53
:10328000A67A90ED096A86EE267A27EE877ACDED4A
:10329000007A8DED017A90F89C202AB1C0ED257A54
:1032A00080ED267A02B0704700F1940202A911E97C
:1032B000030082E80300012283F89C20F2E708B5AE
:1032C0000065027C80F86220FFF7D3FF012008BD73
:1032D00070B586B004460160027180ED020AC360D9
:1032E0001030FFF73FFF0026666500220023C4E987
:1032F000162384F8606084F8616084F8626084F862
:10330000636084F8706000256567A567E567C4F8A9
:103310008050C4F88450C4F8885004F18C00FFF742
:103320005BFF1B4BC4F83C31C4F84051C4F8445116
:10333000C4F8485184F84C61C4F8505184F8546181
:10334000C4F85851029503956B4602AA92E803000F
:1033500083E803000222C4F85C2104F5B07693E808
:10336000030086E803000495059506A911E903000A
:1033700083E80300C4F8682104F5B67293E80300FB
:1033800082E803002046FFF79AFF204606B070BD92
:103390000000204108B5D0ED027A9FED0B7A67EE70
:1033A000877A9FED0A7A80ED227A67EE877AC0ED00
:1033B000507A9FED077A67EE877AC0ED517AC06840
:1033C000FFF72AF908BD00BF1F859B3FCDCC4C3DC0
:1033D000CDCCCC3DA2F5BA7C40F617539C4502D922
:1033E000002303717047A2F5006307EE903AF8EEF0
:1033F000E77A9FED087A67EE877A91ED227A27EED9
:10340000277AD1ED027A67EE877AC0ED007A012340
:10341000037170473333533A84B082B00DF10C0C12
:103420008CE80E009DF81830002B44D0D0ED137AB4
:10343000DFED246A86EEA77A8DED007AF7EE007A4A
:10344000CDED017AB4EEE77AF1EE10FA31DC6B469D
:10345000D3ED006A90ED1D7ADDED037A77EEC77A41
:1034600067EEA67A37EE277A80ED1D7A90ED1E7A08
:10347000DDED047A77EEC77A67EEA67A37EE277A23
:1034800080ED1E7A90ED1F7ADDED057A77EEC77A32
:1034900067EEA67A37EE277A80ED1F7AD0ED207A94
:1034A0009FED087A77EE877AC0ED207A02B004B0FB
:1034B000704701ABCCE7002343678367C367C0F85D
:1034C0008030F3E73936543810B58CB004462E4AB4
:1034D00005AB07CA83E80700002303930493D4F8DD
:1034E000740120B103689B6803AA05A9984794F862
:1034F000603093B994F86030ABBB0023089301238C
:103500008DF8243003AB08AA92E8030083E8030097
:10351000039BC4F884300CB010BD9FED1C7ADDED28
:10352000057A67EE877AFCEEE77A17EE903AADF807
:103530000430DDED067A67EE877AFCEEE77A17EE67
:10354000903AADF80630DDED077A67EE877AFCEE4B
:10355000E77A17EE903AADF80830002201A920462C
:10356000FFF77EFEC6E79DF81030002BD0D1002378
:103570000A9301238DF82C3003AB0CAA12E9030047
:1035800083E80300C4E700BFC0AC010800D0844555
:1035900084B030B595B0044619A880E80E0094EDCB
:1035A000207AD4ED137AF1EE0E6A67EEA67AB4EEC5
:1035B000E77AF1EE10FA1EDBD4ED1D7AF0EEE77A31
:1035C00094ED517AB4EEE77AF1EE10FA52DDD4EDD3
:1035D0001E7AF0EEE77AB4EEE77AF1EE10FA4BDD00
:1035E000D4ED1F7AF0EEE77AB4EEE77AF1EE10FA56
:1035F00044DD012200E0002294F86130013BDBB29F
:10360000012B3DD99DF870300BB1002A47D194F8B9
:103610007030002B61D0002384F8703094F8703043
:103620001BB3616EA26EE36ED4F87441ECB12068F6
:1036300045682C4800680B904FF0010C8DF830C0A5
:103640001191129213930DAB14AA12E9070083E8AB
:1036500007008DF840C00EAB93E807008DE8070027
:103660000D9B0BAA06CA2046A84715B0BDE83040FE
:1036700004B070470022BFE70022BDE70022BBE78D
:10368000002305930693079305A904F16400FEF750
:10369000EFF994F86130013384F86130BEE794EDBE
:1036A0001D7ADDED197A77EEC77ACDED087A94EDC3
:1036B0001E7ADDED1A7A77EEC77ACDED097A94EDB0
:1036C0001F7ADDED1B7A77EEC77ACDED0A7A08A96D
:1036D00004F16400FEF7CCF9A0E7002384F8703011
:1036E0009CE700BF1400002010B52DED028B98B0B0
:1036F000044600F5A47108A8FEF7D0FE9DF824301A
:10370000002B00F0A48094ED567ADDED087A27EEC8
:10371000277AD4F86831012B00F09D8000238DF8C2
:10372000303000230D930E939DF83030002B00F0C5
:103730009D800AAB93E8030018AB03E9030014ABC8
:1037400018AA12E9030083E8030006AA82E803002E
:103750004F4BDB6893ED4F0ADFED4E7A60EE677AF0
:10376000CDED0F7AF1EE676ACDED106A9DED066A38
:10377000F4EEC67AF1EE10FA7FDC1346D3ED007A50
:10378000F4EEE67AF1EE10FA79DCD3ED007ACDEDC5
:10379000067A636DDB68D3ED0A6A87EE268A8DEDC3
:1037A000078A20EE000A67EEA77A30EE670AB5EEC8
:1037B000C00AF1EE10FA64D89FED370A8DED050AC4
:1037C000F1EE407ACDED117AB4EEE78AF1EE10FA1F
:1037D0005AD407ABD3ED007AB4EEE70AF1EE10FA53
:1037E00054D41B68079304F5A87103A8FEF756FE8E
:1037F00094ED087ADDED037A67EE877ADDED076AEE
:1038000027EEA67ADFED245A35EEC77A9DED066ADB
:1038100067EE867A77EEA57AD4ED095A26EE256A08
:1038200037EE067A66EEA56A77EEA67A8DED127A05
:10383000CDED137A01AB12AA92E8030083E80300EE
:1038400084ED587AC4ED597A0023C4F85C3118B07D
:10385000BDEC028B10BD0AAB04F5B67292E8030012
:1038600083E8030001238DF830305AE70DAB93E86D
:10387000030018AB03E9030061E70FAB7EE710AB71
:1038800083E70FF0A1FD99E711ABA3E705ABA8E72C
:1038900000090020A4707D3F00000000A8B003468E
:1038A000026A012A00F0048100228DF82020002203
:1038B00009920A929DF82020002A00F0038106AAAE
:1038C00092E8030028AA02E9030024AA28A911E922
:1038D000030082E803000DF1100C8CE80300DA6AA3
:1038E000012A00F0F68000228DF8342000220E928A
:1038F0000F929DF83420002A00F0F58022AA0BA92F
:1039000003C982E8030020AA22A903C982E80300B0
:103910000DF1080C8CE803009A6B012A00F0E98095
:1039200000228DF844209DF84420002A00F0E78012
:103930009DED107A1A6C012A00F0E48000228DF8C7
:103940004C209DF84C20002A00F0E280DDED125A58
:103950007B4A0021116003F11402DDED047AD3EDFE
:10396000016A9FED786A66EE866A37EEE66A8DED4B
:10397000166A77EEA67ACDED177AD3ED056AB4EE26
:10398000E66AF1EE10FA00F3C680D2ED006AF4EEBA
:10399000E67AF1EE10FA00F1C080126814929FED01
:1039A000696A8DED156AEC4614A903C98CE8030019
:1039B0005A6283ED0A6A00221A6203F11802DDEDF1
:1039C000027AD3ED026A66EE866A37EEE66A8DED1C
:1039D0001A6A77EEA67ACDED1B7AD3ED066AB4EEBD
:1039E000E66AF1EE10FA00F39A80D2ED006AF4EE86
:1039F000E67AF1EE10FA00F1948012681892DFED89
:103A0000516ACDED196AEC4618A903C98CE8030088
:103A10001A63C3ED0D6A0022DA6203F11002D3EDDE
:103A2000037A67EEA67A75EEE76ACDED1C6A77EE4B
:103A3000A57ACDED1D7A93ED046AF4EEC66AF1EE37
:103A400010FA70DCD2ED006AF4EEE67AF1EE10FACC
:103A50006BD4D2ED007AC3ED117A00221A64DFED47
:103A6000396A67EEA67A37EE877A9FED376AC7EE36
:103A7000066AFDEE666AF8EEE66A66EE866A37EE7C
:103A8000667A83ED0F7A9A639A6C012A4FD00022EE
:103A90008DF87C209DF87C20002A4ED09DED1E7A6A
:103AA00077EE877AC3ED137A00229A6428B07047C4
:103AB00006AA00F1240103C982E8030001228DF85F
:103AC0002020F4E609AA92E8030028AA02E90300EC
:103AD000FBE60BAA03F1300103C982E803000122CF
:103AE0008DF8342002E722AA0EA903C982E8030058
:103AF00009E7DA6B109201228DF8442013E793ED69
:103B0000077A17E75A6C129201228DF84C2018E7B9
:103B1000DFED0C5A1CE716AA37E717AA3DE71AAAE9
:103B200063E71BAA69E71CAA8CE71DAA91E7DA6C78
:103B30001E9201228DF87C20ACE79FED027AAFE760
:103B4000A846002000000000DB0FC94090FBF1F305
:103B500001FB1300002800DB70470844FCE700006D
:103B600038B500F041F90446054B5D6A00F03CF9B8
:103B70008442F6D14FF47A7000FB045038BD00BF88
:103B80000020004038B50546FFF7EAFF044600E094
:103B900000BFFFF7E5FF001BA842F9D338BD0000C6
:103BA000F5EEC00AF1EE10FA46DBB5EEC00AF1EE12
:103BB00010FA1DDBDFED757A60EEA77AF4EEC07ABD
:103BC000F1EE10FA7DDC30EE670ADFED716A60EE2F
:103BD000A66AF7EE007A77EEC07A77EEE67AB6EE6E
:103BE000007A67EE877A37EE807A77EE266A7EE093
:103BF000DFED687A60EEA77AF4EEC07AF1EE10FAA3
:103C00005FDDDFED636A60EEA66AB1EE400ADFEDCC
:103C10005F7A60EEA77A70EE677AB7EE007A37EED9
:103C2000667A37EE677AB6EE006A27EE067A77EEA6
:103C3000266A76EEA77A5AE0B5EEC00AF1EE10FADF
:103C400021DBDFED547A60EEA77AF4EEC07AF1EE74
:103C500010FA5ADC9FED507A20EE877ADFED4B7A2E
:103C600060EEA70A30EE800AF7EE007A77EEC77AA8
:103C700077EEC07AF6EE006A67EEA67A77EE806A93
:103C800036EE877A33E0DFED417A60EEA77AF4EE24
:103C9000C07AF1EE10FA38DD77EEC07A9FED3E7A09
:103CA00060EE870AF7EE006A76EEE76A76EEE06A83
:103CB000B6EE007A66EE876A36EEA07A77EE277A5D
:103CC00015E0DFED327A60EEA70A70EE806A30EE22
:103CD000C00AB7EE007A37EE667A37EE407AF6EE33
:103CE000007A27EE277A77EE007A77EEA66AF5EE6D
:103CF000C07AF1EE10FA39DBB7EE006AF4EEC67A5C
:103D0000F1EE10FA1AD9002331E0F1EE407A9FED7E
:103D10001F7A60EE870A77EEE07A30EE600AF7EEFF
:103D2000006A76EEE76A76EEC06AB6EE007A66EE74
:103D3000876A76EEA77A37EE807AD8E7B5EEC07A52
:103D4000F1EE10FA1BDBB4EEC67AF1EE10FA01D9EF
:103D500000230CE0F5EEC06AF1EE10FA11DBF4EE90
:103D6000C66AF1EE10FA0ED9002300E000230370BA
:103D7000C0ED016A80ED027AC0ED037A704700233E
:103D8000F5E70023F3E70123F1E700BF3ACD133F46
:103D90003ACD933F3ACD13BF3ACD93BF08B50B4B05
:103DA0001A6842F400721A601A6842F480621A605B
:103DB0001A6842F480721A60032000F09DFC0F2004
:103DC000FEF7A2F8FEF77EF8002008BD003C024096
:103DD000034A1168034B1B780B441360704700BF04
:103DE000AC46002018000020014B1868704700BF47
:103DF000AC46002038B50446FFF7F6FF0546B4F19F
:103E0000FF3F02D0044B1B781C44FFF7EDFF401B23
:103E1000A042FAD338BD00BF180000204A4B5A68B0
:103E200022F440325A605A6841680A435A60026874
:103E3000536823F48073536002685368016943EA4E
:103E4000012353600268536823F040735360026893
:103E5000536881680B4353600268936823F40063DE
:103E6000936002689368C1680B439360826A374B22
:103E70009A4257D00268936823F070639360026897
:103E80009368816A0B4393600268936823F0405300
:103E9000936002689368C16A0B43936002689368F9
:103EA00023F00203936002689368017E43EA4103B2
:103EB000936090F82030002B3FD00268536843F4A1
:103EC000006353600268536823F4604353600168E1
:103ED0004B68426A013A43EA42334B600268D36A54
:103EE00023F47003D3620168CB6AC269013A43EAE2
:103EF0000253CB620268936823F4007393600268F4
:103F0000936890F8301043EA412393600268936805
:103F100023F48063936002689368416943EA8123D4
:103F2000936070470268936823F07063936002683F
:103F3000936823F040539360B0E70268536823F41A
:103F400000635360CAE700BF002301400100000F77
:103F500038B310B50446036C43B1236C13F0100F53
:103F60000BD00120002384F83C3010BDFDF71AFB74
:103F70000023636484F83C30EFE7236C23F4885318
:103F800023F0020343F0020323642046FFF746FFB9
:103F900000206064236C23F0030343F001032364D7
:103FA000E0E701207047000010B582B01346002200
:103FB000019290F83C20012A00F0AE8004460122D4
:103FC00080F83C200268906810F0010F13D19068CF
:103FD00040F001009060534A1068534AA2FB002051
:103FE000800C00EB4000019002E001980138019044
:103FF00001980028F9D12268906810F4807F03D0DE
:10400000906820F4807090602268906810F0010F32
:1040100077D0206C20F4E06020F0010040F4807044
:104020002064526812F4806F05D0226C22F4405252
:1040300042F480522264226C12F4805F36D0626CAB
:1040400022F006026264002284F83C20A26B37480A
:10405000D063A26B36481064A26B3648D0642268E5
:104060006FF0220010602068426842F08062426077
:104070002068826842F48072826020680A4600F1FB
:104080004C01A06B00F040FC2B4B5B6813F01F0F42
:1040900027D12368294A934211D002F580729342B6
:1040A00007D0274A934214D0002033E000226264F4
:1040B000C9E702F50072526812F01F0FF1D19A6839
:1040C00012F0405F2AD19A6842F080429A60002044
:1040D00020E002F58072526812F0100FEFD000203D
:1040E00018E02368154A934201D0002012E09A6834
:1040F00012F0405F14D19A6842F080429A6000202A
:1041000008E0236C43F010032364636C43F0010365
:104110006364002002B010BD0220FBE70020F9E735
:104120000020F7E71000002083DE1B436B410008EE
:10413000494100085541000800230140002001408A
:10414000002201407047704708B5806BFFF7FBFF06
:1041500008BD704708B5806B40230364436C43F08F
:1041600004034364FFF7F5FF08BD08B50346806B01
:10417000026C12F0500F25D1036C43F400730364FA
:1041800003689A6812F0405F19D1027EBAB9DA6A00
:1041900012F4700F03D09A6812F4806F0FD15A682E
:1041A00022F020025A60036C23F480730364036CD2
:1041B00013F4805F03D1036C43F001030364FFF742
:1041C000C1FF08BD026C12F0100F04D1826BD26CDB
:1041D00018469047F5E7FFF7BCFFF2E730B482B02E
:1041E0000022019290F83C20012A00F0B68003469C
:1041F000012280F83C200A68092A40D90468E06856
:1042000092B202EB42021E3A4FF0070C0CFA02F295
:1042100020EA0202E2601C68E0680A8802EB4202BF
:104220001E3A8D6805FA02F20243E2604A68062AE5
:104230003CD81C68606B02EB8202053A4FF01F0C01
:104240000CFA02F220EA020262631C68606B4A68A0
:1042500002EB8202053AB1F800C00CFA02F2024306
:10426000626318683E4A904250D018683C4A9042B7
:1042700055D0002083F83C0002B030BC7047046881
:10428000206992B202EB42024FF0070C0CFA02F2E4
:1042900020EA020222611C6820690A8802EB4202BD
:1042A0008D6805FA02F202432261BFE70C2A16D894
:1042B0001D68286B02EB8202233A1F2404FA02F2E3
:1042C00020EA02022A631D68286B4A6802EB820218
:1042D000233A0C8804FA02F202432A63C1E71D68FC
:1042E000E86A02EB8202413A1F2404FA02F220EA51
:1042F0000202EA621D68E86A4A6802EB8202413AF9
:104300000C8804FA02F20243EA62AAE70A68122A57
:10431000ABD11448426842F480024260A5E70A68C3
:10432000103A012AA5D80F48426842F400024260C0
:104330000A68102A9DD10C4A12680C49A1FB02128E
:10434000920C02EB82025200019202E0019A013AC1
:104350000192019A002AF9D18BE702208CE700BF75
:1043600000200140002301401000002083DE1B4399
:1043700082B00023019390F83C30012B67D00123D9
:1043800080F83C3003689A6812F0010F13D19A68E4
:1043900042F001029A60334B1B68334AA2FB0323AD
:1043A0009B0C03EB4303019302E0019B013B019350
:1043B000019B002BF9D10268936813F0010F3BD0E9
:1043C000036C23F4405323F0010343F4805303644C
:1043D000036C13F4807F01D100234364002380F831
:1043E0003C306FF004031360204B5B6813F01F0F29
:1043F0000ED102689168536803F4806311F4401F82
:1044000027D143BB936843F48003936000201CE0F2
:1044100003689A6802F44012596801F480611448F4
:10442000834201D0002010E0BAB9C1B99A6842F4C1
:1044300080029A60002008E0036C43F010030364DC
:10444000436C43F001034364002002B07047022034
:10445000FBE70020F9E70020F7E70020F5E7002060
:10446000F3E700BF1000002083DE1B430023014060
:104470000020014090F83C20012A00F0F28030B486
:104480000346012280F83C200A68092A40F289800C
:104490000568E86892B202EB42021E3A072404FA69
:1044A00002F220EA0202EA601D68E8688C680A8865
:1044B00002EB42021E3A94402043E8601868826B87
:1044C00022F4401282631C68A26B0869013842EA38
:1044D0000052A2631C68A06B4A680D69521BD2B2DD
:1044E0000332D2B202EB82024FF01F0C0CFA02F23E
:1044F00020EA0202A2631C68A06B4A680D69521B85
:10450000D2B20332D2B202EB8202B1F800C00CFA8E
:1045100002F20243A2638869534A904256D0186857
:10452000826822F470228260186882688C69224353
:1045300082601868826822F440128260186882687B
:10454000CC69224382604A7D002A4AD018684268BA
:1045500042F4806242600A7D002A48D018684268AE
:1045600042F4805242604A68022A46D0032A4FD061
:10457000012A58D1186842696FF30B02426118682A
:104580004269CC68224342611868384A904255D04B
:104590001868364A90425AD0002083F83C0030BC5C
:1045A00070470568286992B202EB4202072404FAB8
:1045B00002F220EA02022A611D6828698C680A88D2
:1045C00002EB420294402043286177E71868826832
:1045D00022F4702282601868826822F4401282609D
:1045E000B1E71868426822F480624260B3E7186855
:1045F000426822F480524260B5E7186882696FF31E
:104600000B02826118688269CC6822438261BBE731
:104610001868C2696FF30B02C2611868C269CC687E
:104620002243C261B0E71868026A6FF30B020262AC
:104630001868026ACC6822430262A5E70A68122A57
:10464000A6D10B48426842F480024260A0E70A68A3
:10465000103A012AA0D806494A6842F400024A608A
:104660009AE70220704700BF01000F0000200140C0
:1046700000230140002807DB00F01F02400901234E
:104680009340024A42F82030704700BF00E100E04A
:10469000002808DB0901C9B200F1604000F5614063
:1046A00080F80013704700F00F000901C9B2014BF8
:1046B0001954704714ED00E000B500F00700C0F198
:1046C000070CBCF1040F28BF4FF0040C031D062B90
:1046D0000FD9C31E4FF0FF3E0EFA0CF021EA000185
:1046E00099400EFA03FE22EA0E0241EA02005DF84A
:1046F00004FB0023EEE70000074AD36823F4E063DD
:104700001B041B0C000200F4E060034343F0BF6392
:1047100043F40033D360704700ED00E010B5044669
:10472000054BD868C0F30220FFF7C6FF01462046BC
:10473000FFF7AEFF10BD00BF00ED00E008B5FFF7CA
:1047400099FF08BD30B405682C6824F480242C60DF
:10475000046863608368402B05D003689960036830
:10476000DA6030BC704703689A600368D960F8E784
:1047700010B40368D9B210390A4AA2FB01421209E7
:10478000094CA25CC2655F2907D96FF309030433A2
:104790008365806D5DF8044B70476FF30903836593
:1047A000F7E700BFABAAAAAA38BB0108836A8269EF
:1047B00092B9012B0AD0022B02D00BB10020704716
:1047C000C36A13F0807F28D100207047C36AB3F119
:1047D000C07F24D000207047B2F5005F09D0022BC3
:1047E00025D9032B25D1C36A13F0807F23D1002064
:1047F0007047032B03D8DFE803F01404140A0020E9
:104800007047C36A13F0807F0DD100207047C36AE0
:10481000B3F1C07F09D0002070470120704701200C
:104820007047012070470120704701207047012028
:1048300070470020704701207047000070B50446A3
:10484000FFF7D2FA002C5BD00546022384F83530FE
:10485000002384F834302268136823F001031360C6
:1048600023681A6812F0010F0AD0FFF7BDFA431B44
:10487000052BF5D920236365032084F8350070BD2E
:104880001A68204911406268A0680243E068024348
:104890002069024360690243A0690243E069024360
:1048A000206A02430A43616A04291ED01A602668FE
:1048B000756925F00705636A1D43042B07D1A36AB8
:1048C0001D43E36A1BB12046FFF770FF90B9756185
:1048D0002046FFF74DFFE26D3F23934083600020A9
:1048E0006065012384F83530C9E7E16A206B014334
:1048F0000A43DBE740236365012084F83500BEE707
:104900000120BCE73F8010F038B50446856D90F873
:10491000340001282BD0012084F8340094F83500AD
:10492000C0B2012804D0002384F83430022038BDFE
:10493000022084F83500002060652046FFF702FF62
:10494000E26D3F239340AB602268136843F0160387
:104950001360236C23B12268136843F008031360CB
:104960002268136843F0010313600020DFE7022090
:10497000DDE70000F0B583B0044600230193724BDD
:104980001D68724BA3FB0535AD0A876D3E68C26D8D
:1049900008239340334210D003681A6812F0040FC2
:1049A0000BD01A6822F004021A60C26D08239340EB
:1049B000BB60436D43F001034365E26D0123934007
:1049C000334209D02268526912F0800F04D0BB60D4
:1049D000636D43F002036365E26D04239340334249
:1049E00009D02268126812F0020F04D0BB60636D18
:1049F00043F004036365E26D10239340334224D0F7
:104A00002268126812F0080F1FD0BB6023681A6872
:104A100012F4802F0DD01B6813F4002F04D1236CE7
:104A20009BB12046984710E0A36C73B1204698478D
:104A30000BE01A6812F4807F03D11A6822F0080292
:104A40001A60236C0BB120469847E26D20239340F7
:104A5000334255D02268126812F0100F50D0BB605C
:104A600094F83530DBB2052B0ED023681A6812F4A7
:104A7000802F33D01B6813F4002F2AD1636C002BD6
:104A80003ED0204698473BE02268136823F0160387
:104A900013602268536923F080035361236CA3B130
:104AA0002268136823F008031360E26D3F239340EC
:104AB000BB60012384F83530002384F83430236D43
:104AC000002B3FD0204698473CE0A36C002BE7D159
:104AD000EBE7E36BA3B12046984711E01A6812F4A4
:104AE000807F09D11A6822F010021A60012384F82D
:104AF0003530002384F83430E36B0BB120469847FF
:104B0000636DFBB1636D13F0010F17D0052384F8BB
:104B100035302268136823F001031360019B0133D1
:104B20000193AB4204D823681B6813F0010FF5D141
:104B3000012384F83530002384F83430E36C0BB162
:104B40002046984703B0F0BD10000020B5814E1BF1
:104B500000230F2B00F2E98070B582B065E0856814
:104B60004FEA430E032404FA0EF425EA0405CC6848
:104B700004FA0EF42C438460446824EA02044A6870
:104B8000C2F300129A40224342605CE0DC08083421
:104B900050F8242003F00705AD004FF00F0E0EFA79
:104BA00005FE22EA0E0E0A69AA4042EA0E0240F809
:104BB00024205CE0072200E0002202FA0EF22A43E1
:104BC00002345A4D45F82420594A94686FEA0C0281
:104BD00024EA0C054E6816F4801F01D04CEA040547
:104BE000534CA560E46802EA04054E6816F4001F01
:104BF00001D04CEA04054E4CE560646802EA040505
:104C00004E6816F4003F01D04CEA0405484C65603C
:104C1000246822404D6815F4803F01D04CEA04021C
:104C2000434C226001330F2B7DD801229A400C683F
:104C300004EA020C32EA0404F4D14C6804F00304E0
:104C4000013C012C8BD94A6802F00302032A09D0E7
:104C5000C4685D000322AA4024EA02048A68AA40CC
:104C60002243C2604A6802F00302022A8ED004681E
:104C70004FEA430E032202FA0EF224EA02044A68C3
:104C800002F0030202FA0EF2224302604A6812F4B2
:104C9000403FC7D000220192264A546C44F480441D
:104CA0005464526C02F480420192019A9C08A51C43
:104CB0001E4A52F8255003F0030E4FEA8E0E0F22C3
:104CC00002FA0EF225EA02051B4A90423FF474AF45
:104CD00002F5806290421AD002F58062904218D0AC
:104CE00002F58062904216D002F58062904214D0A4
:104CF00002F58062904212D002F58062904210D09C
:104D000002F5806290423FF455AF082255E7012238
:104D100053E7022251E703224FE704224DE7052221
:104D20004BE7062249E702B070BD704700380140EA
:104D3000003C014000380240000002400AB181619D
:104D40007047090481617047436901EA030221EA5F
:104D5000030141EA0241816170472DE9F04383B0CC
:104D6000D0F8008001EBC10300EB83039A6A5B6A11
:104D70009A4254D807460C469B1A01EBC10200EB3D
:104D80008202D2699A4200D31A4602F103094FEA1D
:104D9000990915E006F103094FEA9909BB7904EB7B
:104DA000C40507EB8505296A0093B3B2E2B2404619
:104DB00002F0EFFD2B6A33442B62AB6A3344AB62E3
:104DC00008EB441303F510639B699BB24B4512D368
:104DD00004EBC40307EB83039A6A5B6A9A420AD224
:104DE0004BB19B1A04EBC40207EB8202D6699E42C8
:104DF000D0D31E46CEE704EBC40307EB83077A6AE1
:104E0000BB6A9A420FD804F00F040122A240D8F8DE
:104E1000343823EA0203C8F83438002000E00120C7
:104E200003B0BDE8F0830020FAE730B583B0002876
:104E30007AD00446056890F89534C3B1032384F80A
:104E40009534B5F1A04F17D0206802F055FB237CB4
:104E50008DF80030231D0ECB206802F08BFA70B164
:104E6000022384F895340125284603B030BD80F82C
:104E7000943406F0ADFAE1E70023A371E4E70021E2
:104E8000206802F09CFF024608B9034617E002239F
:104E900084F895340125E7E703EBC30104EB8101B6
:104EA000012048750B75CB8500200876C861086223
:104EB00003EBC30104EB810148620133DBB22079CB
:104EC0009842E9D816E002EBC20304EB8303002109
:104ED00083F8551283F8542283F85812C3F85C12F1
:104EE000C3F8601202EBC20304EB8303C3F864123D
:104EF0000132D2B29042E6D8237C8DF80030231DD7
:104F00000ECB206802F04EFB054620B1022384F848
:104F100095340125A8E700236374012384F89534B0
:104F2000206802F00BFF9FE701259DE7036890F8DA
:104F30009424012A1AD010B50446012280F8942442
:104F4000DA6812F0400F02D0427B012A09D02068B3
:104F500002F0CCFA206802F0E3FE002084F894040A
:104F600010BD9A6B42F480329A63F0E702207047DA
:104F700070B504460D460068066C00EB411303F55E
:104F800030639A68A179012911D038498E4256D0F0
:104F90003DB905EBC50304EB8303D3F86432002B62
:104FA0005ED0E9B2204606F05DFA002070BD12F036
:104FB000080F09D02E498E42F7D912F4004FF4D0D1
:104FC0004FF400429A60F0E712F0200F02D0202246
:104FD0009A60EAE712F0280FE7D125498E4206D9F8
:104FE00012F4004F03D04FF400429A60DDE705EB66
:104FF000C50204EB8202D2F874121B69C3F31203D8
:10500000CB1AC2F868327DB905EBC50204EB820207
:10501000D2F864226AB105EBC50204EB8202D2F831
:1050200060121944C2F86012E9B2204606F01AFA7A
:10503000BBE704F29C42012102F000FFF4E712F406
:10504000004F03D04FF400429A60AEE712F0200FF9
:1050500001D020229A60E9B2204606F003FAA4E7C4
:1050600004F29C42002102F0E9FE9AE70A31544F13
:105070000A30544F38B5044603681D6C03EB4113E6
:10508000D3F8081B0E4A954207D903F5306311F493
:10509000004F02D04FF400429A60204606F0DAF941
:1050A000074B9D4202D9A379012B01D0002038BDC6
:1050B00004F29C420121206802F0C0FEF6E700BF26
:1050C0000A30544F90F89434012B0CD010B504469C
:1050D000012380F894344174006802F011FE00202E
:1050E00084F8940410BD0220704738B505468C46FC
:1050F00011F0800F2BD101F00F0E0EEBCE04A400A7
:1051000004F514740444211D0EEBCE0E00EB8E0E3C
:1051100000208EF855020CF00F0C81F800C0C2F38D
:105120000A028A600B714A780AB1A1F81AC0022BF0
:105130001CD095F89434012B1BD0012385F89434AE
:10514000286802F00AFB002085F8940438BD01F0BD
:105150000F0000EBC001890010312944043100EB3D
:10516000C00005EB800001244475D4E700234B7197
:10517000DFE70220EAE710B504460A4611F0800F87
:1051800020D101F00F0000EBC0039B0003F5147366
:105190002344191D00EBC00004EB8000002380F8BD
:1051A000553202F00F020A7094F89434012B18D093
:1051B000012384F89434206802F01CFB002084F85A
:1051C000940410BD01F00F0000EBC0039B001033EE
:1051D0002344191D00EBC00004EB8000012343753C
:1051E000DFE70220EDE710B5144601F00F0C0CEBE1
:1051F000CC01890001F51471014404310CEBCC0E93
:1052000000EB8E0ECEF86022CEF864320023CEF88A
:1052100068328EF855328EF854C28279012A04D051
:10522000006802F0CDFB002010BDCEF87042F7E719
:1052300001F00F0101EBC10100EB8100D0F8680221
:10524000704710B5144601F00F0C0CEBCC0189002F
:105250001031014404310CEBCC0E00EB8E0ECEF875
:105260002020CEF824300023CEF8283001238EF8F9
:1052700015308EF814C082799A4204D0006802F08A
:105280009FFB002010BDCEF83040F7E738B501F0A5
:105290000F050279AA4238D304460B4611F0800F5D
:1052A0001FD101EBC101890001F5147101440431E2
:1052B00003EBC30300EB8303002283F85522012391
:1052C0008B700D7094F89434012B20D0012384F856
:1052D0009434206802F0B9FC85B1002084F894046D
:1052E00038BD05EBC501890010310144043105EBDF
:1052F000C50300EB830301225A75E0E704F29C42E8
:10530000A179206802F09AFDE7E70120E8E7022092
:10531000E6E701F00F0302799A4230D310B5044654
:1053200011F0800F1ED103EBC301890001F5147148
:105330000144043103EBC30200EB8202002082F837
:10534000550200228A700B7094F89434012B18D007
:10535000012384F89434206802F0A4FC002084F82F
:10536000940410BD03EBC3018900103101440431E2
:1053700003EBC30200EB820201205075E1E701203C
:1053800070470220EDE708B511F0800F0CD101F055
:105390000F0101EBC101890001F5147101440431D1
:1053A000006802F097FA08BD01F00F0101EBC1019E
:1053B0008900103101440431F2E72DE9F04F83B048
:1053C00004460568284602F0F6FC10B103B0BDE8BB
:1053D000F08F0646206802F0BFFC0028F6D005F5E5
:1053E0000067BB68C3F30D23C4F8D434206802F00F
:1053F000B3FC10F0020F04D02268536903F00203DB
:105400005361206802F0A8FC10F0100F15D022683C
:10541000936923F010039361D5F8208008F00F09F9
:1054200008F4F013B3F5802F4CD0B3F5402F6FD0B4
:105430002268936943F010039361206802F08CFCAA
:1054400010F4002F76D1206802F086FC10F4802F33
:1054500040F0E080206802F07FFC0028C0F261810B
:10546000206802F079FC10F4006F09D0BB6813F0DB
:10547000010F40F06E812268536903F400635361A9
:10548000206802F069FC10F4805F40F066812068BB
:1054900002F062FC10F4005F40F0B381206802F07B
:1054A0005BFC10F0080F40F0C481206802F054FC4F
:1054B00010F0800F00F0D781AB6923F08003AB615F
:1054C0000126C0E147F6F07318EA030FB0D04FEAA7
:1054D000181A4FEAC903019309EBC90B04EB8B0BB4
:1054E000C8F30A12DBF86012284602F08BFBDBF8E7
:1054F0006032CAF30A0A5344CBF86032DBF86832F0
:10550000019A4A4404EB82025344C2F868328FE79E
:10551000082204F29C41284602F074FB09EBC903FF
:1055200004EB8303D3F86822C8F30A184244C3F893
:1055300068227DE7206802F013FC8046B14635E022
:1055400005EB49130122C3F8082B49462046FFF713
:105550000FFD3CE005EB49130822C3F8082B494630
:105560002046FFF787FD35E009EBC90304EB830311
:1055700093F85732012B41D005EB49130222C3F8AF
:10558000082B1AF0200F04D005EB49132022C3F892
:10559000082B1AF4005F05D005EB49134FF40052B5
:1055A000C3F8082B09F101094FEA5808B8F1000FB8
:1055B0003FF449AF18F0010FF4D05FFA89FB594668
:1055C000206802F0DDFB824610F0010FB8D11AF01E
:1055D000080FBFD11AF0100F04D005EB49131022A9
:1055E000C3F8082B1AF0020FCBD06B6913F0800FB1
:1055F000BAD07B6843F480637B60B5E709EBC903ED
:1056000004EB8303002283F857225946204605F015
:1056100079FFB1E7206802F0ABFB8046B14625E098
:105620005946204605F02AFF1AF0080F04D005EB72
:1056300049130822C3F808291AF0100F04D005EB0B
:1056400049131022C3F808291AF0400F04D005EBC3
:1056500049134022C3F808291AF0020F40D11AF06A
:10566000800F59D109F101094FEA5808B8F1000F2C
:105670003FF4F0AE18F0010FF4D05FFA89FB594601
:10568000206802F086FB824610F0010FCCD009F0B2
:105690000F02012101FA02F27B6B23EA02037B6312
:1056A00005EB4913C3F80819A3798B42B8D109EB6C
:1056B000C90304EB83031A6AD9690A441A62B9F16F
:1056C000000FADD109EBC90304EB83035B6A002B28
:1056D000A6D104F29C420121206802F0AFFB9FE7B3
:1056E0004946284601F00EFF09EBC90304EB83038A
:1056F000DB7D012B05D005EB49130222C3F80829F5
:10570000ADE709EBC90304EB83030022DA755946C0
:10571000204605F0FDFEEEE749462046FFF71DFB5B
:10572000A0E77B6823F001037B6094F8CC34012B65
:1057300008D0204605F0E0FE2268536903F00043DC
:1057400053618DE6002184F8CC14204600F03FF927
:10575000F2E7204605F0B8FE8DE67B6823F00103F2
:105760007B601021206801F0CDFE1AE005EB4613A6
:105770004FF67F31C3F80819D3F8002922F400123C
:10578000C3F80029C3F8081BD3F8002B22F4001239
:10579000C3F8002BD3F8002B42F00062C3F8002BB3
:1057A00001362379B342E1D8FB6943F00113FB6171
:1057B000E37BDBB1D7F8843043F00B03C7F88430C8
:1057C0007B6C43F00B037B64D5F8003823F4FE6355
:1057D000C5F8003804F29C42A179206802F02EFB43
:1057E0002268536903F48053536150E67B6943F4A4
:1057F000005343F02B037B613B6943F00B033B6198
:10580000E2E7206802F00CFB206801F095FFE071F0
:10581000266800F0F7FB0146E279304601F0F4FD1E
:10582000204605F03CFE2268536903F4005353619F
:1058300034E6204605F02DFE2268536903F0080384
:10584000536132E601362379B3420CD906EBC60325
:1058500004EB830393F85732012BF3D1F1B22046C6
:10586000FFF791FDEEE7206802F076FA10F4801F52
:1058700025D1206802F070FA10F4001F59D00123DE
:1058800026E001362379B3421BD905EB4613D3F842
:10589000002906EBC60304EB83031B7E012BF0D12A
:1058A000002AEEDA06EBC60304EB83030122DA7565
:1058B00066F07F01C9B22046FFF765FDE1E70126EA
:1058C000E0E72268536903F480135361D1E70133A1
:1058D00022799A4228D905EB4312D2F8001B03EB38
:1058E000C30204EB820292F85822012AEFD1002968
:1058F000EDDA01F48031D4F8D42402F001029142AF
:10590000E5D103EBC30204EB8202012182F85712B6
:10591000AA6942F08002AA616A6912F0800FD6D1AA
:105920007B6843F400737B602268536903F40013BF
:105930005361206802F010FA10F0804F10D12068F7
:1059400002F00AFA10F0040F3FF440AD23685D68DE
:1059500015F0040F0DD1226853682B43536035E5D1
:10596000204605F0DBFD2268536903F08043536154
:10597000E5E7204605F0D8FDEDE710B40468606A5D
:1059800031B940EA0240A06200205DF8044B704744
:105990008C46A36A00EB1340002308E003F14001AA
:1059A00004EB8101496800EB11400133DBB20CF1DB
:1059B000FF318B42F2D340EA02400CF13F0104EB8D
:1059C00081046060E0E70368596200207047704717
:1059D000002800F0E08170B582B00446036813F03F
:1059E000010F3BD09F4B9B6803F00C03042B2CD082
:1059F0009C4B9B6803F00C03082B21D06368B3F524
:105A0000803F4FD0B3F5A02F52D0964B1A6822F4A6
:105A100080321A601A6822F480221A606368002BB0
:105A200050D0FEF7E1F905468E4B1B6813F4003F9A
:105A300014D1FEF7D9F9401B6428F5D90320B1E150
:105A4000884B5B6813F4800FD8D0864B1B6813F427
:105A5000003F03D06368002B00F09F81236813F0A0
:105A6000020F54D07F4B9B6813F00C0F3ED07D4B40
:105A70009B6803F00C03082B33D0E368002B68D03D
:105A8000794B01221A60FEF7AFF90546754B1B688A
:105A900013F0020F54D1FEF7A7F9401B0228F5D9E5
:105AA00003207FE16F4A136843F480331360B5E746
:105AB0006C4B1A6842F480221A601A6842F48032F1
:105AC0001A60ABE7FEF790F90546664B1B6813F4C6
:105AD000003FC3D0FEF788F9401B6428F5D90320A6
:105AE00060E1604B5B6813F4800FC6D15D4B1B68AF
:105AF00013F0020F03D0E368012B40F05081594AA4
:105B0000136823F0F803216943EAC1031360236893
