:020000040800F2
:1000000000000220051D0008391A00083B1A0008EC
:100010003D1A00083F1A0008411A000800000000BD
:10002000000000000000000000000000415B00082C
:10003000431A000800000000E15B0008895800082E
:10004000551D0008551D0008551D0008551D0008C8
:10005000551D0008551D0008551D0008551D0008B8
:10006000551D0008551D0008551D0008551D0008A8
:10007000551D0008551D0008551D0008551D000898
:10008000551D0008551D0008551D0008551D000888
:10009000551D0008551D0008551D0008551D000878
:1000A000551D0008451A0008551D0008551D00087B
:1000B000551D0008551D0008551D0008551D000858
:1000C000551D0008551D0008551D0008551D000848
:1000D000551D0008551D0008551D0008551D000838
:1000E000551D0008551D0008551D0008551D000828
:1000F000551D0008551D0008551D0008551D000818
:10010000551D0008551D0008551D0008551D000807
:10011000551D0008551D0008551A0008551D0008FA
:10012000651A0008551D0008551D0008551D0008DA
:10013000551D00080000000000000000551D0008CB
:10014000551D0008551D0008551D0008751A0008AA
:10015000551D0008551D0008551D0008551D0008B7
:10016000551D0008551D0008551D0008551D0008A7
:10017000551D0008551D000800000000000000008B
:08018000551D0008551D000883
:1001C00053B94AB9002908BF00281CBF4FF0FF31BE
:1001D0004FF0FF3000F0E2B8ADF1080C6DE904CE4D
:1001E0000EF0D6FBDDF804E0DDE9022304B0704731
:1001F00000F1340191E838009C46A6464CF8045DB5
:1002000090E8FF0FE54600BD90EC210B704700BF62
:1002100080EC210B704700BF90EC200B704700BFB3
:1002200080EC200B704700BFD0EC200B704700BF64
:10023000C0EC200B704700BFF0EC0201F0EC0211A3
:10024000F0EC0221F0EC0231F0EC0241F0EC025152
:10025000F0EC0261F0EC0271F0EC0281F0EC029142
:10026000F0EC02A1F0EC02B1F0EC02C1F0EC02D132
:10027000F0EC02E1F0EC02F1704700BFE0EC0201AB
:10028000E0EC0211E0EC0221E0EC0231E0EC024192
:10029000E0EC0251E0EC0261E0EC0271E0EC028182
:1002A000E0EC0291E0EC02A1E0EC02B1E0EC02C172
:1002B000E0EC02D1E0EC02E1E0EC02F1704700BFBB
:1002C000B0FC0181B0FC0191B0FC01A1B0FC01B116
:1002D000704700BFA0FC0181A0FC0191A0FC01A11E
:1002E000A0FC01B1704700BFEC4600B52DE90050FD
:1002F0002DE9FF1F4FF000032DE90C0001A90EF0BE
:10030000FBFDDDF840E012B0704700BFEC4600B5E1
:100310002DE900502DE9FF1F4FF000032DE90C00DF
:1003200001A90EF025FEDDF840E012B0704700BFD5
:10033000EC4600B52DE900502DE9FF1F4FF00003FA
:100340002DE90C0001A90EF035FEDDF840E012B0F9
:10035000704700BFEC4600B52DE900502DE9FF1FA6
:100360004FF000032DE90C0001AB0EF0F9FDDDF8B4
:1003700040E012B0704700BFEC4600B52DE90050D8
:100380002DE9FF1F4FF000032DE90C0001AA0EF02C
:100390006DFEDDF840E012B0704700BF704700BF4F
:1003A000A2EB0300704700BF02780B78012A28BF38
:1003B0009A42F5D16DE9044540EA0104CDE90267AE
:1003C0006FF0000C4FEA447212B380EA010414F09B
:1003D000070F6AD100F0070420F0070004F00305BE
:1003E00021F007014FEAC505F0E8042314F0040FDB
:1003F000F1E804670CFA05F462EA040266EA04060E
:100400000AD063EA0403624667EA0407664603E02B
:10041000F0E80423F1E8046782FA4CF582EA060466
:10042000A4FA8CF46CBB83FA4CF583EA0705A5FAB1
:100430008CF595B950E9022351E9026782FA4CF52F
:1004400082EA0604A4FA8CF483FA4CF583EA0705E1
:10045000A5FA8CF52543DBD09CB92DBAB5FA85F405
:1004600024F0070427FA04F1DDE9026723FA04F314
:1004700003F0FF0001F0FF01FDE80445A0EB0100DF
:10048000704724BAB4FA84F424F0070426FA04F17D
:10049000DDE9026722FA04F202F0FF0001F0FF0139
:1004A000FDE80445A0EB0100704714F0030F3CD1B8
:1004B00010F0030428D150F8082B51F8083B82FAB9
:1004C0004CF582EA0305A5FA8CF55DB950F8042CC9
:1004D00051F8043C82FA4CF582EA0305A5FA8CF542
:1004E000002DE8D02DBAB5FA85F424F0070423FADC
:1004F00004F122FA04F202F0FF0001F0FF01FDE82E
:100500000445A0EB010070474FEAC40420F003004B
:1005100050F8082B21F0030151F8083B0CFA04F4C1
:1005200062EA040263EA0403C9E710F003041AD084
:10053000A1EB040120F00300E40750F8042B06D0DF
:100540000FD28B785FFAA2F4E41A06D12BB1CB78E4
:100550005FFAB2F4E41A00D11BB920465DF8104BE3
:10056000704701F1040150F8042BCC0721F003017E
:1005700051F8043B48D824D222F07F4482FA4CF54B
:1005800094EA1325A5FA8CF50AD165B951F8043B14
:1005900084EA0204B4EB036F0ED150F8042BEBE7AE
:1005A0004FEA132355E035F07F454DD10878FDE83B
:1005B0000445C0F1000070474FEA126203F0FF03E8
:1005C00047E002EA1C4482FA4CF594EA1345A5FA86
:1005D0008CF50AD165B951F8043B84EA0204B4EB06
:1005E000034F0CD150F8042BEBE74FEA134330E0F4
:1005F00015EA1C4528D10B884FEA124229E04FEA40
:10060000124203EA1C4324E002F0FF0482FA4CF594
:1006100094EA1365A5FA8CF50AD165B951F8043B43
:1006200084EA0204B4EB032F09D150F8042BEBE762
:100630004FEA13630DE015F0FF0F05D10B684FEA89
:10064000122223F07F4304E04FF00000FDE8044550
:10065000704712BA1BBA82FA4CF482EA0304A4FA75
:100660008CF5B5FA85F402FA04F203FA04F34FEAC2
:100670001260FDE80445A0EB136070470000000025
:1006800001F0FF01102A2BDB10F0070F08D010F843
:10069000013B013A8B422DD010F0070F42B3F6D147
:1006A000F0B441EA012141EA014122F007047FF060
:1006B00000070023F0E80256083C85EA010586EAB7
:1006C000010685FA47F5A3FA87F586FA47F6A5FAF3
:1006D00087F68EB9EED1F0BC01F0FF0102F00702FF
:1006E00032B110F8013B013A83EA010313B1F8D1AA
:1006F0000020704701387047002D06BF354603388B
:10070000073815F0010F07D1013015F4807F02BFC3
:10071000013015F4C03F0130F0BC0138704700BF14
:10072000844641EA000313F003036DD1403A41D3FC
:1007300051F8043B40F8043B51F8043B40F8043BBB
:1007400051F8043B40F8043B51F8043B40F8043BAB
:1007500051F8043B40F8043B51F8043B40F8043B9B
:1007600051F8043B40F8043B51F8043B40F8043B8B
:1007700051F8043B40F8043B51F8043B40F8043B7B
:1007800051F8043B40F8043B51F8043B40F8043B6B
:1007900051F8043B40F8043B51F8043B40F8043B5B
:1007A00051F8043B40F8043B51F8043B40F8043B4B
:1007B000403ABDD2303211D351F8043B40F8043BEB
:1007C00051F8043B40F8043B51F8043B40F8043B2B
:1007D00051F8043B40F8043B103AEDD20C3205D3FB
:1007E00051F8043B40F8043B043AF9D2043208D0F3
:1007F000D2071CBF11F8013B00F8013B01D30B8865
:1008000003806046704700BF082A13D38B078DD042
:1008100010F003038AD0C3F10403D21ADB071CBF14
:1008200011F8013B00F8013B80D331F8023B20F87E
:10083000023B7BE7043AD9D3013A11F8013B00F8B7
:10084000013BF9D20B7803704B7843708B7883703F
:10085000604670470000000000000000000000003B
:100860000000000000000000000000000000000088
:100870000000000000000000000000000000000078
:1008800090F800F06DE9024520F007016FF0000CD0
:1008900010F0070491F820F040F049804FF0000478
:1008A0006FF00700D1E9002391F840F000F1080053
:1008B00082FA4CF2A4FA8CF283FA4CF3A2FA8CF38B
:1008C0004BBBD1E9022382FA4CF200F10800A4FAF2
:1008D0008CF283FA4CF3A2FA8CF3E3B9D1E9042346
:1008E00082FA4CF200F10800A4FA8CF283FA4CF37D
:1008F000A2FA8CF37BB9D1E9062301F1200182FA37
:100900004CF200F10800A4FA8CF283FA4CF3A2FA3C
:100910008CF3002BC6D0002A04BF04301A4612BA4A
:10092000B2FA82F2FDE8024500EBD2007047D1E94D
:10093000002304F00305C4F100004FEAC50514F0DC
:10094000040F91F840F00CFA05F562EA05021CBFAD
:1009500063EA050362464FF00004A9E781F0004115
:1009600002E000BF83F0004330B54FEA41044FEA94
:10097000430594EA050F08BF90EA020F1FBF54EA2F
:10098000000C55EA020C7FEA645C7FEA655C00F0CB
:10099000E2804FEA5454D4EB5555B8BF6D420CDD9C
:1009A0002C4480EA020281EA030382EA000083EA1F
:1009B000010180EA020281EA0303362D88BF30BDBF
:1009C00011F0004F4FEA01314FF4801C4CEA113115
:1009D00002D0404261EB410113F0004F4FEA033374
:1009E0004CEA133302D0524263EB430394EA050FFF
:1009F00000F0A780A4F10104D5F1200E0DDB02FA6E
:100A00000EFC22FA05F2801841F1000103FA0EF201
:100A1000801843FA05F359410EE0A5F120050EF1C7
:100A2000200E012A03FA0EFC28BF4CF0020C43FAF8
:100A300005F3C01851EBE37101F0004507D54FF005
:100A4000000EDCF1000C7EEB00006EEB0101B1F555
:100A5000801F1BD3B1F5001F0CD349085FEA30009B
:100A60004FEA3C0C04F101044FEA445212F5800FA6
:100A700080F09A80BCF1004F08BF5FEA500C50F143
:100A8000000041EB045141EA050130BD5FEA4C0C26
:100A9000404141EB0101013C28BFB1F5801FE9D283
:100AA00091F0000F04BF01460020B1FA81F308BFA6
:100AB0002033A3F10B03B3F120020CDA0C3208DD72
:100AC00002F1140CC2F10C0201FA0CF021FA02F14D
:100AD0000CE002F11402D8BFC2F1200C01FA02F1BD
:100AE00020FA0CFCDCBF41EA0C019040E41AA2BFE2
:100AF00001EB0451294330BD6FEA04041F3C1CDAAA
:100B00000C340EDC04F11404C4F1200220FA04F0C9
:100B100001FA02F340EA030021FA04F345EA030173
:100B200030BDC4F10C04C4F1200220FA02F001FA35
:100B300004F340EA0300294630BD21FA04F02946B7
:100B400030BD94F0000F83F4801306BF81F4801150
:100B50000134013D4EE77FEA645C18BF7FEA655CC3
:100B600029D094EA050F08BF90EA020F05D054EA95
:100B7000000C04BF1946104630BD91EA030F1EBF9A
:100B80000021002030BD5FEA545C05D1400049419E
:100B900028BF41F0004130BD14F580043CBF01F591
:100BA000801130BD01F0004545F0FE4141F4700177
:100BB0004FF0000030BD7FEA645C1ABF1946104652
:100BC0007FEA655C1CBF0B46024650EA013406BF53
:100BD00052EA033591EA030F41F4002130BD00BF12
:100BE00090F0000F04BF0021704730B54FF48064CF
:100BF00004F132044FF000054FF0000150E700BF50
:100C000090F0000F04BF0021704730B54FF48064AE
:100C100004F1320410F0004548BF40424FF000019B
:100C20003EE700BF42004FEAE2014FEA31014FEADE
:100C300002701FBF12F07F4393F07F4F81F060512D
:100C4000704732F07F4208BF704793F07F4F04BF78
:100C500041F40021704730B54FF4607401F0004555
:100C600021F000411CE700BF50EA010208BF7047B5
:100C700030B54FF000050AE050EA010208BF7047A6
:100C800030B511F0004502D5404261EB41014FF40F
:100C9000806404F132045FEA915C3FF4D8AE4FF017
:100CA00003025FEADC0C18BF03325FEADC0C18BFFA
:100CB000033202EBDC02C2F1200300FA03FC20FA4B
:100CC00002F001FA03FE40EA0E0021FA02F1144498
:100CD000BDE600BF70B54FF0FF0C4CF4E06C1CEAB1
:100CE00011541DBF1CEA135594EA0C0F95EA0C0F22
:100CF00000F0DEF82C4481EA030621EA4C5123EA95
:100D00004C5350EA013518BF52EA033541F48011C3
:100D100043F4801338D0A0FB02CE4FF00005E1FB76
:100D200002E506F00042E0FB03E54FF00006E1FBC0
:100D300003569CF0000F18BF4EF0010EA4F1FF0403
:100D4000B6F5007F64F5407404D25FEA4E0E6D4143
:100D500046EB060642EAC62141EA55514FEAC52054
:100D600040EA5E504FEACE2EB4F1FD0C88BFBCF5D0
:100D7000E06F1ED8BEF1004F08BF5FEA500E50F181
:100D8000000041EB045170BD06F0004646EA010147
:100D900040EA020081EA0301B4EB5C04C2BFD4EB79
:100DA0000C0541EA045170BD41F480114FF0000E72
:100DB000013C00F3AB8014F1360FDEBF002001F0E0
:100DC000004170BDC4F10004203C35DA0C341BDC5A
:100DD00004F11404C4F1200500FA05F320FA04F02C
:100DE00001FA05F240EA020001F0004221F0004160
:100DF00010EBD37021FA04F642EB06015EEA430ED3
:100E000008BF20EAD37070BDC4F10C04C4F1200502
:100E100000FA04F320FA05F001FA04F240EA0200B5
:100E200001F0004110EBD37041F100015EEA430E86
:100E300008BF20EAD37070BDC4F1200500FA05F2A6
:100E40004EEA020E20FA04F301FA05F243EA020325
:100E500021FA04F001F0004121FA04F220EA020034
:100E600000EBD3705EEA430E08BF20EAD37070BD7A
:100E700094F0000F0FD101F00046400041EB01015A
:100E800011F4801F08BF013CF7D041EA060195F03C
:100E9000000F18BF704703F00046520043EB0303F6
:100EA00013F4801F08BF013DF7D043EA06037047E3
:100EB00094EA0C0F0CEA135518BF95EA0C0F0CD0EE
:100EC00050EA410618BF52EA4306D1D181EA030134
:100ED00001F000414FF0000070BD50EA410606BF2E
:100EE0001046194652EA430619D094EA0C0F02D173
:100EF00050EA013613D195EA0C0F05D152EA0336B8
:100F00001CBF104619460AD181EA030101F00041D5
:100F100041F0FE4141F470014FF0000070BD41F01E
:100F2000FE4141F4780170BD70B54FF0FF0C4CF4F8
:100F3000E06C1CEA11541DBF1CEA135594EA0C0F17
:100F400095EA0C0F00F0A7F8A4EB050481EA030E64
:100F500052EA03354FEA013100F088804FEA03334B
:100F60004FF0805545EA131343EA12634FEA022219
:100F700045EA111545EA10654FEA00260EF00041DA
:100F80009D4208BF964244F1FD0404F5407402D22C
:100F90005B084FEA3202B61A65EB03055B084FEABD
:100FA00032024FF480104FF4002CB6EB020E75EBBA
:100FB000030E22BFB61A754640EA0C005B084FEAE2
:100FC0003202B6EB020E75EB030E22BFB61A75465F
:100FD00040EA5C005B084FEA3202B6EB020E75EBAA
:100FE000030E22BFB61A754640EA9C005B084FEA22
:100FF0003202B6EB020E75EB030E22BFB61A75462F
:1010000040EADC0055EA060E18D04FEA051545EA1D
:1010100016754FEA06164FEAC30343EA52734FEAC6
:10102000C2025FEA1C1CC0D111F4801F0BD141EA3F
:1010300000014FF000004FF0004CB6E711F4801FA4
:1010400004BF01430020B4F1FD0C88BFBCF5E06F84
:101050003FF6AFAEB5EB030C04BFB6EB020C5FEA94
:10106000500C50F1000041EB045170BD0EF0004EE9
:101070004EEA113114EB5C04C2BFD4EB0C0541EA1B
:10108000045170BD41F480114FF0000E013C90E618
:1010900045EA060E8DE60CEA135594EA0C0F08BFDC
:1010A00095EA0C0F3FF43BAF94EA0C0F0AD150EADB
:1010B00001347FF434AF95EA0C0F7FF425AF10466E
:1010C00019462CE795EA0C0F06D152EA03353FF496
:1010D000FDAE1046194622E750EA410618BF52EA13
:1010E00043067FF4C5AE50EA41047FF40DAF52EAE7
:1010F00043057FF4EBAE12E74FF0FF3C06E000BF84
:101100004FF0010C02E000BF4FF0010C4DF804CD90
:101110004FEA410C7FEA6C5C4FEA430C18BF7FEA50
:101120006C5C1BD001B050EA410C0CBF52EA430C7E
:1011300091EA030F02BF90EA020F0020704710F1FE
:10114000000F91EA030F58BF994208BF90422CBF8D
:10115000D8176FEAE37040F0010070474FEA410C86
:101160007FEA6C5C02D150EA013C07D14FEA430CA4
:101170007FEA6C5CD6D152EA033CD3D05DF8040B15
:10118000704700BF8446104662468C461946634647
:1011900000E000BF01B5FFF7B7FF002848BF10F11E
:1011A000000F01BD4DF808EDFFF7F4FF0CBF012063
:1011B00000205DF808FB00BF4DF808EDFFF7EAFFDF
:1011C00034BF012000205DF808FB00BF4DF808ED9A
:1011D000FFF7E0FF94BF012000205DF808FB00BF8F
:1011E0004DF808EDFFF7CEFF94BF012000205DF819
:1011F00008FB00BF4DF808EDFFF7C4FF34BF012026
:1012000000205DF808FB00BF4FEA410C7FEA6C5CF0
:1012100002D150EA013C0AD14FEA430C7FEA6C5CF0
:1012200002D152EA033C02D14FF0000070474FF068
:10123000010070474FEA410212F5001215D211D594
:101240006FF47873B3EB625212D94FEAC12343F0C3
:10125000004343EA505311F0004F23FA02F018BF45
:10126000404270474FF00000704750EA013005D10E
:1012700011F0004008BF6FF0004070474FF00000D1
:10128000704700BF0348044B834202D0034B03B1B5
:1012900018477047CC060020CC0600200000000054
:1012A0000548064B1B1AD90F01EBA301491002D0C8
:1012B000034B03B118477047CC060020CC06002032
:1012C0000000000010B5064C237843B9FFF7DAFFA1
:1012D000044B13B10448AFF300800123237010BD09
:1012E000D0060020000000000462010808B5054B8C
:1012F0001BB105490548AFF30080BDE80840FFF782
:10130000CFBF00BF00000000D40600200462010827
:1013100008B500231A460121064806F055F906488B
:1013200000F0AFFD044800F08BFD0A2004F045FBFF
:10133000F8E700BF140700201C070020012800D098
:1013400070474FF6FF739942FAD170B58CB0244BB9
:10135000244C1C6001229A802349244B0B600025F9
:101360004D60234E234B33607560234800F0F4FC3E
:10137000224B06934FF40073ADF81C3008942023E1
:10138000ADF824300A948023ADF82C306C460799D0
:10139000069884E803000DF1080C099908988CE878
:1013A000030004AA0CAB13E9030082E80300144B0A
:1013B0009E464EF8046B94E803008EE8030003F1A8
:1013C0000C049CE8030084E8030003F1140492E891
:1013D000030084E8030083F824500CB070BD00BF04
:1013E0001407002000040240F0070020A808002095
:1013F000F8070020000900201C0700200008024018
:10140000EC06002000B58BB000F0EEF800F0F2F82A
:1014100004F046FA2422002101A80FF0DDFC094B5C
:1014200001934FF4007306931823079301AA002138
:10143000054804F063FA04F045FA00200BB05DF8AB
:1014400004FB00BF206201081113000808B54FF625
:10145000FF710120FFF772FF08BD000010B58CB0CE
:101460000024089409940A940B942022214668468B
:101470000FF0B2FC2D482E4B03604FF480334360D5
:10148000846001230361037680F82040C462294A06
:101490008262C460C36180F83030436100F0EAFDCD
:1014A000002833D10A2308930123099300230A93C8
:1014B00008A91E4800F00AFE58BB0A230093012326
:1014C0000193032304930023029307931A4A06927D
:1014D0008DF815308DF8143003936946134800F0E9
:1014E000BFFEC8B90B2300930223019369460F483E
:1014F00000F0B6FE98B90C230093032301936946CC
:101500000A4800F0ADFE68B90CB010BD00F01EF93D
:10151000C8E700F01BF9D0E700F018F9E2E700F0A7
:1015200015F9E8E700F012F9EEE700BF0008002027
:10153000002001400100000F01000F0030B589B00C
:10154000002303930493059306930793026803F122
:10155000804303F590339A4201D009B030BD044670
:101560000025019503F58C335A6C42F480725A645D
:101570005A6C02F480720192019A02951A6B42F041
:1015800004021A631B6B03F004030293029B0723FC
:1015900003930323049303A9104801F07DF9104835
:1015A000104B036045608560C5604FF48063036144
:1015B0004FF4006343614FF4005383614FF4807331
:1015C000C3610562456201F013F818B9044BA363C7
:1015D0009C63C2E700F0BAF8F8E700BF00080240D9
:1015E000480800201064024008B500F07DFC00F0BF
:1015F000AFF808BD08B500F027F800F00BF8FFF7CA
:101600002DFF00F01DF900F0F7F800F005FB0120B8
:1016100008BD000000B583B000220192094B196B90
:1016200041F4800119631B6B03F480030193019B58
:101630000521382000F02CFF382000F061FF03B0B6
:101640005DF804FB003802402DE9F0418AB0002427
:10165000059406940794089409940194314B1A6BED
:1016600042F080021A631A6B02F080020192019A22
:1016700002941A6B42F004021A631A6B02F004021D
:101680000292029A03941A6B42F001021A631A6BD7
:1016900002F001020392039A04941A6B42F00202D0
:1016A0001A631B6B03F002030493049BDFF8808032
:1016B00022461021404601F0E5F91B4D2246232128
:1016C000284601F0DFF9194F22464FF400713846E1
:1016D00001F0D8F910230593012606960794089483
:1016E00005A9404601F0D8F82323059306960794F0
:1016F000089405A9284601F0CFF84FF4007305932C
:1017000006960794089405A9384601F0C5F8802389
:1017100005930694079405A9284601F0BDF80AB080
:10172000BDE8F08100380240000402400008024099
:101730000000024008B50268034B9A4200D008BD81
:1017400000F0ECFBFBE700BF0010004072B6FEE7C4
:1017500000B595B03022002108A80FF03DFB002312
:10176000039304930593069307930193204A116C06
:1017700041F080511164126C02F080520192019A82
:1017800002931C4B1A6842F480421A601B6803F4EF
:1017900080430293029B012308934FF48033099303
:1017A00002230E934FF480020F9204221092A8227B
:1017B000119212930723139308A801F095FE98B98C
:1017C0000F23039302230493002305934FF4A053A4
:1017D00006934FF480530793052103A802F0EEF817
:1017E00020B915B05DF804FBFFF7B0FFFFF7AEFFBF
:1017F000003802400070004008B50F480F4B0360EE
:101800004FF482734360002383604FF40062C26030
:101810000361012242614FF4007282611822C261A9
:101820000362436283620A23C36202F053FA00B97F
:1018300008BDFFF78BFFFBE7A80800200030014040
:1018400008B50F480F4B03604FF4827343600023C9
:1018500083604FF40062C2600361012242614FF471
:10186000007282611822C2610362436283620A23AA
:10187000C36202F02FFA00B908BDFFF767FFFBE76C
:1018800000090020003C004000B58BB00023059308
:1018900006930793089309930368284A934205D057
:1018A000274A934225D00BB05DF804FB002101913B
:1018B000244B5A6C42F480525A645A6C02F480529F
:1018C0000192019A02911A6B42F001021A631B6B9A
:1018D00003F001030293029BE02305930223069386
:1018E000032308930523099305A9174800F0D4FFA3
:1018F000D9E700210391134B1A6C42F400421A6499
:101900001A6C02F400420392039A04911A6B42F09B
:1019100004021A631B6B03F004030493049B4FF44B
:10192000E0530593022306930323089306230993A8
:1019300005A9064800F0B0FFB5E700BF0030014040
:10194000003C004000380240000002400008024015
:1019500000B583B0002200920D4B596C41F48041D8
:101960005964596C01F48041009100990192196CFD
:1019700041F0805119641B6C03F080530193019B6B
:101980000F216FF0010000F083FD03B05DF804FB50
:101990000038024030B589B0044600230193214B42
:1019A0001A6C42F010021A641B6C03F010030193CE
:1019B000019B02A903A802F0C7F8069BCBB902F06D
:1019C000B3F80346184AA2FB03239B0C013B1748BC
:1019D000174A026040F2E732C260436000230361AD
:1019E0008360836102F0FEFC054630B1284609B0F1
:1019F00030BD02F099F84300E4E70C4802F08EFB9A
:101A000005460028F2D1362000F07AFD0F2C01D9CE
:101A10000125EBE700222146362000F039FD054B79
:101A20001C60E3E70038024083DE1B4358090020B6
:101A30000010004008000020FEE7FEE7FEE7FEE79A
:101A4000FEE7704708B5024802F0B0FB08BD00BFD2
:101A5000A409002008B5024802F0A8FB08BD00BF99
:101A60005809002008B5024800F028FE08BD00BF54
:101A70004808002008B5024801F056FA08BD00BF2A
:101A8000945500200120704708B50FF017FB16236E
:101A900003604FF0FF3008BD08B54FF0FF31FFF78E
:101AA000F3FFFEE770B50C461646002506E0AFF3DF
:101AB0000080214601F8010B01350C46B542F6DBEA
:101AC000304670BD70B50C461646002504E014F88B
:101AD000010BAFF300800135B542F8DB304670BD35
:101AE0004FF0FF3070474FF400534B6000207047B9
:101AF000012070470020704710B503460C4A0D497D
:101B00000D48006840B10C4800680344521A9342E3
:101B100006D8094A136010BD0748084C0460F2E774
:101B20000FF0CCFA0C2303604FF0FF30F3E700BF57
:101B30000000022000040000A0090020B05D002089
:101B4000034AD2F8883043F47003C2F888307047F3
:101B500000ED00E002680E4B9A4200D0704700B5DD
:101B600083B00022019203F59C33596C41F00101CE
:101B700059645B6C03F001030193019B052119205B
:101B800000F086FC192000F0BBFC03B05DF804FBFC
:101B90000000014070B588B00023039304930593BF
:101BA000069307930268194B9A4201D008B070BDA2
:101BB0000024019403F59C331A6B42F002021A636D
:101BC0001A6B02F002020192019A02941A6B42F01F
:101BD00001021A631B6B03F001030293029B4FF493
:101BE00060430393022604960125079503A908483C
:101BF00000F052FE4FF4E0630393049605940694BC
:101C0000079503A9034800F047FECFE70000014015
:101C1000000402400000024010B592B0002410946D
:101C2000119409940A940B940C940D940E940F94AF
:101C30002022214601A80FF0CFF83048304B036036
:101C400044606023836040F6AC53C36004610223A8
:101C50004361846102F0F2FB00283CD12023109301
:101C60000023119310A9254802F0BAFC002835D1B1
:101C70007023099300220A920B920C920D920E92FD
:101C80000F9209A91D4802F03DFC50BB042209A98E
:101C90001A4802F037FC38BB082209A9174802F09D
:101CA00031FC20BB4FF4006301934FF48063029337
:101CB000002303931422049205934FF400520692DA
:101CC000089301A90D4802F0D1FC98B90B48FFF721
:101CD00061FF12B010BDFFF739FDBFE7FFF736FD1A
:101CE000C6E7FFF733FDD1E7FFF730FDD4E7FFF795
:101CF0002DFDD7E7FFF72AFDE8E700BFA409002084
:101D000000000140DFF834D0FFF71AFF0C480D49FE
:101D10000D4A002302E0D458C4500433C4188C4246
:101D2000F9D30A4A0A4C002301E013600432A242AC
:101D3000FBD30FF0C9F9FFF765FB704700000220E5
:101D400000000020CC060020947C0108D006002072
:101D5000AC5D0020FEE7000010B4002202600271BA
:101D60008160C26040F2011101821A4941618261C1
:101D70000021C1614FF4005404624262012480F8E2
:101D80002840C26280F83020022444638163C46327
:101D9000016441648164C164016541658265C26515
:101DA000016641668466C166046741678467C167EE
:101DB000C0F88220C0F886200749C0F88C10102196
:101DC000A0F89010C0F8C020A0F8C4205DF8044B23
:101DD000704700BF00007A4400000240B0F8803035
:101DE00013F4807F01D10120704770B50446D0F80C
:101DF0008C30C0F8C030B0F89030A0F8C43000F19A
:101E00008203C0F8C83000F18603C0F8CC30012648
:101E1000C0F8D06000F194052946806805F0D1FC37
:101E200004F18403C4F8C83004F18803C4F8CC304A
:101E3000C4F8D0602946A06805F0C3FC012070BD3D
:101E400008B5B0F8802040F201139A4200D008BDD6
:101E500048F2FF33A0F882304FF6FF73A0F88430C9
:101E6000FFF7BCFFF3E710B500F18C04002301225B
:101E70001146204605F0A8FB0121204605F07CFC18
:101E800010BD10B5028AA0F88020A2F580739BB225
:101E9000012B24D900214FF48273C0F89430002321
:101EA000C0F898304FF40064C0F89C40C0F8A0100F
:101EB0000121C0F8A4104FF40071C0F8A810182137
:101EC000C0F8AC10C0F8B030C0F8B430C0F8B830CA
:101ED0000A23C0F8BC3012F4807F02D110BD022169
:101EE000D9E7FFF7C0FFF9E708B50B4B1A6842F4D2
:101EF00000721A601A6842F480621A601A6842F42A
:101F000080721A60032000F0B1FA0F20FFF742FD43
:101F1000FFF71EFD002008BD003C0240034A116887
:101F2000034B1B780B441360704700BFEC09002083
:101F300004000020014B1868704700BFEC09002026
:101F40004A4B5A6822F440325A605A6841680A4340
:101F50005A600268536823F48073536002685368C0
:101F6000016943EA012353600268536823F0407318
:101F700053600268536881680B435360026893683A
:101F800023F40063936002689368C1680B43936015
:101F9000826A374B9A4257D00268936823F0706385
:101FA000936002689368816A0B4393600268936848
:101FB00023F04053936002689368C16A0B439360B7
:101FC0000268936823F00203936002689368017EBD
:101FD00043EA4103936090F82030002B3FD0026821
:101FE000536843F4006353600268536823F460430A
:101FF000536001684B68426A013A43EA42334B60DE
:102000000268D36A23F47003D3620168CB6AC269A1
:10201000013A43EA0253CB620268936823F40073E7
:1020200093600268936890F8301043EA412393600C
:102030000268936823F4806393600268936841693F
:1020400043EA8123936070470268936823F07063CA
:1020500093600268936823F040539360B0E702688E
:10206000536823F400635360CAE700BF00230140B4
:102070000100000F38B310B50446036C43B1236C64
:1020800013F0100F0BD00120002384F83C3010BD5A
:10209000FFF754FA0023636484F83C30EFE7236CC5
:1020A00023F4885323F0020343F002032364204601
:1020B000FFF746FF00206064236C23F0030343F026
:1020C00001032364E0E701207047000030B482B0D0
:1020D0000022019290F83C20012A00F0B6800346CD
:1020E000012280F83C200A68092A40D90468E06887
:1020F00092B202EB42021E3A4FF0070C0CFA02F2C7
:1021000020EA0202E2601C68E0680A8802EB4202F0
:102110001E3A8D6805FA02F20243E2604A68062A16
:102120003CD81C68606B02EB8202053A4FF01F0C32
:102130000CFA02F220EA020262631C68606B4A68D1
:1021400002EB8202053AB1F800C00CFA02F2024337
:10215000626318683E4A904250D018683C4A9042E8
:1021600055D0002083F83C0002B030BC70470468B2
:10217000206992B202EB42024FF0070C0CFA02F215
:1021800020EA020222611C6820690A8802EB4202EE
:102190008D6805FA02F202432261BFE70C2A16D8C5
:1021A0001D68286B02EB8202233A1F2404FA02F214
:1021B00020EA02022A631D68286B4A6802EB820249
:1021C000233A0C8804FA02F202432A63C1E71D682D
:1021D000E86A02EB8202413A1F2404FA02F220EA82
:1021E0000202EA621D68E86A4A6802EB8202413A2A
:1021F0000C8804FA02F20243EA62AAE70A68122A89
:10220000ABD11448426842F480024260A5E70A68F4
:10221000103A012AA5D80F48426842F400024260F1
:102220000A68102A9DD10C4A12680C49A1FB0212BF
:10223000920C02EB82025200019202E0019A013AF2
:102240000192019A002AF9D18BE702208CE700BFA6
:1022500000200140002301400000002083DE1B43DA
:1022600090F83C20012A00F0F98030B403460122A6
:1022700080F83C200A68092A7ED90568E86892B28D
:1022800002EB42021E3A072404FA02F220EA02029A
:10229000EA601D68E8688C680A8802EB42021E3A10
:1022A00094402043E8601868826B22F440128263F5
:1022B0001C68A26B0869013842EA0052A2631C68DC
:1022C000A06B4A680D69521BD2B20332D2B202EB44
:1022D00082024FF01F0C0CFA02F220EA0202A26303
:1022E0001C68A06B4A680D69521BD2B20332D2B28D
:1022F00002EB8202B1F800C00CFA02F20243A263C0
:102300008869574A90424CD01868826822F470223B
:102310008260186882688C692243826018688268CB
:1023200022F44012826018688268CC69224382607D
:102330004A7D002A40D01868426842F480624260B8
:102340000A7D002A3ED01868426842F480524260FA
:102350004A68022A55D0032A60D0012A38D018686A
:10236000026A22F47F6222F00F0202621868026A97
:10237000CC682243026237E00568286992B202EB1A
:102380004202072404FA02F220EA02022A611D68CE
:1023900028698C680A8802EB420294402043286135
:1023A00081E71868826822F4702282601868826867
:1023B00022F440128260BBE71868426822F480620F
:1023C0004260BDE71868426822F480524260BFE76D
:1023D0001868426922F47F6222F00F024261186895
:1023E0004269CC682243426118681E4A904222D05A
:1023F00018681C4A904227D0002083F83C0030BC6B
:1024000070471868826922F47F6222F00F028261AD
:1024100018688269CC6822438261E5E71868C2695E
:1024200022F47F6222F00F02C2611868C269CC6890
:102430002243C261D8E70A68122AD9D10A48426801
:1024400042F480024260D3E70A68103A012AD3D8E6
:1024500005494A6842F400024A60CDE7022070470D
:1024600001000F000020014000230140074AD3680B
:1024700023F4E0631B041B0C000200F4E060034340
:1024800043F0BF6343F40033D360704700ED00E0D6
:1024900000B5194BDB68C3F30223C3F1070CBCF191
:1024A000040F28BF4FF0040C03F1040EBEF1060F19
:1024B00018D9033B4FF0FF3E0EFA0CFC21EA0C0149
:1024C00099400EFA03FE22EA0E020A4300280BDBB3
:1024D0001201D2B200F1604000F5614080F80023A3
:1024E0005DF804FB0023E5E700F00F001201D2B213
:1024F000024B1A54F4E700BF00ED00E014ED00E0D9
:10250000002807DB00F01F02400901239340024A24
:1025100042F82030704700BF00E100E010B40368CB
:10252000D9B210390C4AA2FB014212090B4CA25C31
:10253000C2655F2909D923F47F7323F003030433B1
:102540008365806D5DF8044B704723F47F7323F03F
:1025500003038365F5E700BFABAAAAAA4862010896
:10256000836A826992B9012B0AD0022B02D00BB187
:1025700000207047C36A13F0807F28D10020704785
:10258000C36AB3F1C07F24D000207047B2F5005F6A
:1025900009D0022B25D9032B25D1C36A13F0807FE4
:1025A00023D100207047032B03D8DFE803F0140485
:1025B000140A00207047C36A13F0807F0DD10020F9
:1025C0007047C36AB3F1C07F09D000207047012073
:1025D000704701207047012070470120704701209B
:1025E00070470120704700207047012070470000AD
:1025F00070B50446FFF79EFC002C5BD00546022315
:1026000084F83530002384F834302268136823F0CE
:102610000103136023681A6812F0010F0AD0FFF754
:1026200089FC431B052BF5D920236365032084F81F
:10263000350070BD1A68204911406268A0680243E5
:10264000E06802432069024360690243A0690243D3
:10265000E0690243206A02430A43616A04291ED0EA
:102660001A602668756925F00705636A1D43042B07
:1026700007D1A36A1D43E36A1BB12046FFF770FF31
:1026800090B975612046FFF749FFE26D3F23934003
:10269000836000206065012384F83530C9E7E16A72
:1026A000206B01430A43DBE740236365012084F884
:1026B0003500BEE70120BCE73F8010F0F0B583B0E5
:1026C000044600230193724B1D68724BA3FB053532
:1026D000AD0A876D3E68C26D08239340334210D027
:1026E00003681A6812F0040F0BD01A6822F0040273
:1026F0001A60C26D08239340BB60436D43F0010331
:102700004365E26D01239340334209D02268526948
:1027100012F0800F04D0BB60636D43F00203636569
:10272000E26D04239340334209D02268126812F00C
:10273000020F04D0BB60636D43F004036365E26D78
:1027400010239340334224D02268126812F0080FFD
:102750001FD0BB6023681A6812F4802F0DD01B684D
:1027600013F4002F04D1236C9BB12046984710E04E
:10277000A36C73B1204698470BE01A6812F4807F6F
:1027800003D11A6822F008021A60236C0BB12046AC
:102790009847E26D20239340334255D02268126857
:1027A00012F0100F50D0BB6094F83530DBB2052B1F
:1027B0000ED023681A6812F4802F33D01B6813F4EC
:1027C000002F2AD1636C002B3ED0204698473BE077
:1027D0002268136823F0160313602268536923F0FC
:1027E00080035361236CA3B12268136823F00803AC
:1027F0001360E26D3F239340BB60012384F83530C2
:10280000002384F83430236D002B3FD020469847B6
:102810003CE0A36C002BE7D1EBE7E36BA3B12046D0
:10282000984711E01A6812F4807F09D11A6822F0E3
:1028300010021A60012384F83530002384F8343004
:10284000E36B0BB120469847636DFBB1636D13F0EA
:10285000010F17D0052384F835302268136823F060
:1028600001031360019B01330193AB4204D8236839
:102870001B6813F0010FF5D1012384F835300023D4
:1028800084F83430E36C0BB12046984703B0F0BDB8
:1028900000000020B5814E1B00230F2B00F2E980C1
:1028A00070B582B065E085684FEA430E032404FAF0
:1028B0000EF425EA0405CC6804FA0EF42C43846077
:1028C000446824EA02044A68C2F300129A40224390
:1028D00042605CE0DC08083450F8242003F007056F
:1028E000AD004FF00F0E0EFA05FE22EA0E0E0A6939
:1028F000AA4042EA0E0240F824205CE0072200E0F1
:10290000002202FA0EF22A4302345A4D45F82420DE
:10291000594A94686FEA0C0224EA0C054E6816F4D2
:10292000801F01D04CEA0405534CA560E46802EA1C
:1029300004054E6816F4001F01D04CEA04054E4C05
:10294000E560646802EA04054E6816F4003F01D0B1
:102950004CEA0405484C6560246822404D6815F433
:10296000803F01D04CEA0402434C226001330F2B1C
:102970007DD801229A400C6804EA020C32EA040471
:10298000F4D14C6804F00304013C012C8BD94A6853
:1029900002F00302032A09D0C4685D000322AA40A2
:1029A00024EA02048A68AA402243C2604A6802F00C
:1029B0000302022A8ED004684FEA430E032202FA71
:1029C0000EF224EA02044A6802F0030202FA0EF24E
:1029D000224302604A6812F4403FC7D000220192AD
:1029E000264A546C44F480445464526C02F480428D
:1029F0000192019A9C08A51C1E4A52F8255003F02A
:102A0000030E4FEA8E0E0F2202FA0EF225EA02059D
:102A10001B4A90423FF474AF02F5806290421AD094
:102A200002F58062904218D002F58062904216D082
:102A300002F58062904214D002F58062904212D07A
:102A400002F58062904210D002F5806290423FF41D
:102A500055AF082255E7012253E7022251E703222E
:102A60004FE704224DE705224BE7062249E702B073
:102A700070BD704700380140003C01400038024002
:102A8000000002400AB1816170470904816170470A
:102A90002DE9F04383B0D0F8008001EBC10300EBD7
:102AA00083039A6A5B6A9A4254D807460C469B1A7B
:102AB00001EBC10200EB8202D2699A4200D31A46AE
:102AC00002F103094FEA990915E006F103094FEAFB
:102AD0009909BB7904EBC40507EB8505296A0093C6
:102AE000B3B2E2B2404601F041FF2B6A33442B629D
:102AF000AB6A3344AB6208EB441303F510639B6984
:102B00009BB24B4512D304EBC40307EB83039A6AD1
:102B10005B6A9A420AD24BB19B1A04EBC40207EBE0
:102B20008202D6699E42D0D31E46CEE704EBC40390
:102B300007EB83077A6ABB6A9A420FD804F00F0446
:102B40000122A240D8F8343823EA0203C8F8343806
:102B5000002000E0012003B0BDE8F0830020FAE788
:102B600070B504460D460068066C00EB411303F592
:102B700030639A68A179012911D038498E4256D024
:102B80003DB905EBC50304EB8303D3F86432002B96
:102B90005ED0E9B2204604F021FE002070BD12F0A4
:102BA000080F09D02E498E42F7D912F4004FF4D005
:102BB0004FF400429A60F0E712F0200F02D020227A
:102BC0009A60EAE712F0280FE7D125498E4206D92C
:102BD00012F4004F03D04FF400429A60DDE705EB9A
:102BE000C50204EB8202D2F874121B69C3F312030C
:102BF000CB1AC2F868327DB905EBC50204EB82023C
:102C0000D2F864226AB105EBC50204EB8202D2F865
:102C100060121944C2F86012E9B2204604F0DEFDE9
:102C2000BBE704F29C42012102F0AEF8F4E712F493
:102C3000004F03D04FF400429A60AEE712F0200F2D
:102C400001D020229A60E9B2204604F0C7FDA4E733
:102C500004F29C42002102F097F89AE70A31544F9F
:102C60000A30544F38B5044603681D6C03EB41131A
:102C7000D3F8081B0E4A954207D903F5306311F4C7
:102C8000004F02D04FF400429A60204604F09EFDAF
:102C9000074B9D4202D9A379012B01D0002038BDFA
:102CA00004F29C420121206802F06EF8F6E700BFB2
:102CB0000A30544F90F89434012B0CD010B50446D0
:102CC000012380F894344174006802F009F8002070
:102CD00084F8940410BD0220704738B505468C4630
:102CE00011F0800F2BD101F00F0E0EEBCE04A400DB
:102CF00004F514740444211D0EEBCE0E00EB8E0E71
:102D000000208EF855020CF00F0C81F800C0C2F3C1
:102D10000A028A600B714A780AB1A1F81AC0022B24
:102D20001CD095F89434012B1BD0012385F89434E2
:102D3000286801F06FFD002085F8940438BD01F08B
:102D40000F0000EBC001890010312944043100EB71
:102D5000C00005EB800001244475D4E700234B71CB
:102D6000DFE70220EAE710B5144601F00F0C0CEB88
:102D7000CC01890001F51471014404310CEBCC0E37
:102D800000EB8E0ECEF86022CEF864320023CEF82F
:102D900068328EF855328EF854C28279012A04D0F6
:102DA000006801F0FBFD002010BDCEF87042F7E78F
:102DB00010B5144601F00F0C0CEBCC01890010315A
:102DC000014404310CEBCC0E00EB8E0ECEF820202B
:102DD000CEF824300023CEF8283001238EF81530A9
:102DE0008EF814C082799A4204D0006801F0D6FDB2
:102DF000002010BDCEF83040F7E738B501F00F05E0
:102E00000279AA4238D304460B4611F0800F1FD135
:102E100001EBC101890001F514710144043103EB98
:102E2000C30300EB8303002283F8552201238B7038
:102E30000D7094F89434012B20D0012384F894343D
:102E4000206801F0F2FE85B1002084F8940438BDBA
:102E500005EBC501890010310144043105EBC503C0
:102E600000EB830301225A75E0E704F29C42A1794A
:102E7000206801F089FFE7E70120E8E70220E6E7A4
:102E800001F00F0302799A4230D310B5044611F0D5
:102E9000800F1ED103EBC301890001F514710144B9
:102EA000043103EBC30200EB8202002082F85502DA
:102EB00000228A700B7094F89434012B18D00123EF
:102EC00084F89434206801F0DDFE002084F8940436
:102ED00010BD03EBC301890010310144043103EB41
:102EE000C30200EB820201205075E1E70120704728
:102EF0000220EDE708B511F0800F0CD101F00F01B1
:102F000001EBC101890001F514710144043100682D
:102F100001F0CDFC08BD01F00F0101EBC1018900FA
:102F2000103101440431F2E72DE9F04F83B004463B
:102F30000568284601F013FF10B103B0BDE8F08F1B
:102F40000646206801F0DCFE0028F6D005F5006793
:102F5000BB68C3F30D23C4F8D434206801F0D0FE5D
:102F600010F0020F04D02268536903F0020353618A
:102F7000206801F0C5FE10F0100F13D0226893698D
:102F800023F010039361D5F8208008F00F09C8F3EF
:102F90004343022B4BD0062B6FD02268936943F03A
:102FA00010039361206801F0ABFE10F4002F76D17E
:102FB000206801F0A5FE10F4802F40F0E08020682A
:102FC00001F09EFE0028C0F26181206801F098FEA9
:102FD00010F4006F09D0BB6813F0010F40F06E8150
:102FE0002268536903F400635361206801F088FE8E
:102FF00010F4805F40F06681206801F081FE10F4DB
:10300000005F40F0B381206801F07AFE10F0080FF5
:1030100040F0C481206801F073FE10F0800F00F0D2
:10302000D781AB6923F08003AB610126C0E147F68D
:10303000F07318EA030FB0D04FEA181B4FEAC90328
:10304000019309EBC90A04EB8A0AC8F30A12DAF8F9
:103050006012284601F0C6FDCBF30A0BDAF86032A5
:103060005B44CAF86032019B4B4404EB8303D3F802
:1030700068325B44CAF868328FE7082204F29C4148
:10308000284601F0AFFDC8F30A1809EBC90204EBAA
:103090008202D2F868324344C2F868327DE7206881
:1030A00001F032FE8046B14635E005EB49130122BE
:1030B000C3F8082B49462046FFF752FD3CE005EBDC
:1030C00049130822C3F8082B49462046FFF7CAFDDA
:1030D00035E009EBC90304EB830393F85732012B66
:1030E00041D005EB49130222C3F8082B1AF0200F38
:1030F00004D005EB49132022C3F8082B1AF4005F13
:1031000005D005EB49134FF40052C3F8082B09F121
:1031100001094FEA5808B8F1000F3FF449AF18F021
:10312000010FF4D05FFA89FB5946206801F0FCFDDD
:10313000824610F0010FB8D11AF0080FBFD11AF073
:10314000100F04D005EB49131022C3F8082B1AF016
:10315000020FCBD06B6913F0800FBAD07B6843F4B9
:1031600080637B60B5E709EBC90304EB83030022AE
:1031700083F857225946204604F080FBB1E72068C7
:1031800001F0CAFD8046B14625E05946204604F0CC
:1031900031FB1AF0080F04D005EB49130822C3F8DD
:1031A00008291AF0100F04D005EB49131022C3F8B8
:1031B00008291AF0400F04D005EB49134022C3F848
:1031C00008291AF0020F40D11AF0800F59D109F1E5
:1031D00001094FEA5808B8F1000F3FF4F0AE18F0BB
:1031E000010FF4D05FFA89FB5946206801F0A5FD74
:1031F000824610F0010FCCD009F00F02012101FA34
:1032000002F27B6B23EA02037B6305EB4913C3F8ED
:103210000819A3798B42B8D109EBC90304EB8303E6
:10322000D9691A6A0A441A62B9F1000FADD109EBE3
:10323000C90304EB83035B6A002BA6D104F29C4212
:103240000121206801F0A0FD9FE74946284601F0D2
:10325000ABFA09EBC90304EB8303DB7D012B05D03B
:1032600005EB49130222C3F80829ADE709EBC903AE
:1032700004EB83030022DA755946204604F004FB70
:10328000EEE749462046FFF703FCA0E77B6823F002
:1032900001037B6094F8CC34012B08D0204604F065
:1032A000E7FA2268536903F0004353618DE6002179
:1032B00084F8CC14204600F015F9F2E7204604F01B
:1032C000BFFA8DE67B6823F001037B601021206844
:1032D00001F06AFA1AE005EB46134FF67F31C3F8A6
:1032E0000819D3F8002922F40012C3F80029C3F802
:1032F000081BD3F8002B22F40012C3F8002BD3F8DC
:10330000002B42F00062C3F8002B01362379B34250
:10331000E1D8FB6943F00113FB61E37BDBB1D7F834
:10332000843043F00B03C7F884307B6C43F00B030D
:103330007B64D5F8003823F4FE63C5F8003804F246
:103340009C42A179206801F01FFD2268536903F4B3
:103350008053536150E67B6943F4005343F02B03E1
:103360007B613B6943F00B033B61E2E7206801F0BE
:10337000FAFC206801F03DFAE071266800F0CEFB0F
:103380000146E279304601F09DF9204604F043FA07
:103390002268536903F40053536134E6204604F075
:1033A00034FA2268536903F00803536132E60136A8
:1033B0002379B3420CD906EBC60304EB830393F8DD
:1033C0005732012BF3D1F1B22046FFF793FDEEE720
:1033D000206801F095FC10F4801F25D1206801F0D1
:1033E0008FFC10F4001F59D0012326E00136237909
:1033F000B3421BD905EB4613D3F8002906EBC603ED
:1034000004EB83031B7E012BF0D1002AEEDA06EBDE
:10341000C60304EB83030122DA7566F07F01C9B2AB
:103420002046FFF767FDE1E70126E0E722685369E0
:1034300003F480135361D1E7013322799A4228D9EA
:1034400005EB4312D2F8001B03EBC30204EB82022C
:1034500092F85822012AEFD10029EDDA01F48031E7
:10346000D4F8D42402F001029142E5D103EBC30267
:1034700004EB8202012182F85712AA6942F080020D
:10348000AA616A6912F0800FD6D17B6843F4007399
:103490007B602268536903F400135361206801F0D4
:1034A0002FFC10F0804F10D1206801F029FC10F0A3
:1034B000040F3FF442AD23685D6815F0040F0DD191
:1034C000226853682B43536037E5204604F0E2F945
:1034D0002268536903F080435361E5E7204604F016
:1034E000DFF9EDE770470000002800F0E08170B5DB
:1034F00082B00446036813F0010F3BD09F4B9B68DA
:1035000003F00C03042B2CD09C4B9B6803F00C03A2
:10351000082B21D06368B3F5803F4FD0B3F5A02FBF
:1035200052D0964B1A6822F480321A601A6822F43C
:1035300080221A606368002B50D0FEF7FBFC054622
:103540008E4B1B6813F4003F14D1FEF7F3FC401BB5
:103550006428F5D90320B1E1884B5B6813F4800F30
:10356000D8D0864B1B6813F4003F03D06368002B50
:1035700000F09F81236813F0020F54D07F4B9B68AB
:1035800013F00C0F3ED07D4B9B6803F00C03082B0F
:1035900033D0E368002B68D0794B01221A60FEF724
:1035A000C9FC0546754B1B6813F0020F54D1FEF79A
:1035B000C1FC401B0228F5D903207FE16F4A136844
:1035C00043F480331360B5E76C4B1A6842F48022F1
:1035D0001A601A6842F480321A60ABE7FEF7AAFC60
:1035E0000546664B1B6813F4003FC3D0FEF7A2FCF0
:1035F000401B6428F5D9032060E1604B5B6813F43D
:10360000800FC6D15D4B1B6813F0020F03D0E36837
:10361000012B40F05081594A136823F0F8032169C7
:1036200043EAC1031360236813F0080F42D06369B3
:103630006BB3534B0122C3F8802EFEF77BFC05468B
:103640004E4B5B6F13F0020F34D1FEF773FC401B3F
:103650000228F5D9032031E1484A136823F0F80322
:10366000216943EAC1031360DDE7454B00221A607C
:10367000FEF760FC0546414B1B6813F0020FD2D0E9
:10368000FEF758FC401B0228F5D9032016E13C4BFD
:103690000022C3F8802EFEF74DFC0546374B5B6FCA
:1036A00013F0020F06D0FEF745FC401B0228F5D9A7
:1036B000032003E1236813F0040F77D02F4B1B6C1A
:1036C00013F0805F33D1002301932C4B1A6C42F02E
:1036D00080521A641B6C03F080530193019B0125F7
:1036E000284B1B6813F4807F23D0A368012B34D0B0
:1036F000052B38D0214B1A6F22F001021A671A6F7E
:1037000022F004021A67A368002B3DD0FEF712FCDA
:1037100006461A4B1B6F13F0020F46D1FEF70AFC48
:10372000801B41F288339842F3D90320C6E000257C
:10373000D6E7144A136843F480731360FEF7FAFB6C
:103740000646104B1B6813F4807FCED1FEF7F2FBC8
:10375000801B0228F5D90320B0E0084A136F43F01C
:1037600001031367CFE7054B1A6F42F004021A6793
:103770001A6F42F001021A67C5E700BF0038024025
:103780000000474200700040FEF7D4FB0646524B53
:103790001B6F13F0020F08D0FEF7CCFB801B41F229
:1037A00088339842F3D9032088E0EDB9A369002B50
:1037B00000F08380484A926802F00C02082A51D037
:1037C000022B17D0454B00221A66FEF7B3FB0446C6
:1037D000414B1B6813F0007F42D0FEF7ABFB001B90
:1037E0000228F5D9032069E03B4A136C23F080538B
:1037F0001364DBE7394B00221A66FEF79BFB054694
:10380000354B1B6813F0007F06D0FEF793FB401B7F
:103810000228F5D9032051E0E369226A1343626A62
:1038200043EA8213A26A5208013A43EA0243E26A77
:1038300043EA0263284A5360284B01221A66FEF7C6
:1038400079FB0446244B1B6813F0007F06D1FEF77A
:1038500071FB001B0228F5D903202FE000202DE08A
:1038600000202BE0012B2BD01B4B5B6803F4800165
:10387000E269914226D103F03F02216A8A4223D1B4
:10388000616A47F6C0721A40B2EB811F1ED103F481
:103890004031A26A5208013AB1EB024F18D103F04D
:1038A0007063E26AB3EB026F14D1002006E00120DE
:1038B0007047012002E0012000E0002002B070BD4E
:1038C0000120FBE70120F9E70120F7E70120F5E7F8
:1038D0000120F3E70120F1E70038024000004742F1
:1038E00008B5334B9B6803F00C03042B5BD0082B0B
:1038F0005BD12F4B5A6802F03F025B6813F4800FD4
:103900002CD02B4B5868C0F388104FEA401CBCEBFE
:10391000000C6EEB0E0E4FEA8E1343EA9C634FEAE7
:103920008C11B1EB0C0163EB0E03DB0043EA517326
:10393000C90011EB000C43F10003590200234FEAC8
:103940004C2041EADC51FCF73BFC194B5B68C3F3AC
:10395000014301335B00B0FBF3F027E0144B5868E0
:10396000C0F388104FEA401CBCEB000C6EEB0E0E4F
:103970004FEA8E1343EA9C634FEA8C11B1EB0C01C2
:1039800063EB0E03DB0043EA5173C90011EB000C3B
:1039900043F10003990200234FEA8C2041EA9C5135
:1039A000FCF70EFCD1E7034800E0034808BD00BF68
:1039B0000038024000127A000024F400002800F0D1
:1039C0009B8070B50D4604464F4B1B6803F0070300
:1039D0008B4208D2CBB24C4A1370136803F0070332
:1039E0008B4240F08B80236813F0020F17D013F046
:1039F000040F04D0454A936843F4E053936023686E
:103A000013F0080F04D0414A936843F46043936075
:103A10003E4A936823F0F003A1680B439360236848
:103A200013F0010F32D06368012B21D09A1E012AB6
:103A300025D9364A126812F0020F61D033498A68DC
:103A400022F0030213438B60FEF774FA06462F4BF5
:103A50009B6803F00C036268B3EB820F16D0FEF78D
:103A600069FA801B41F288339842F0D9032042E082
:103A7000264A126812F4003FE0D101203BE0234ABD
:103A8000126812F0007FD9D1012034E01E4B1B6870
:103A900003F00703AB4207D9EAB21B4B1A701B684D
:103AA00003F00703AB422DD1236813F0040F06D0B7
:103AB000164A936823F4E053E1680B43936023684C
:103AC00013F0080F07D0114A936823F4604321696B
:103AD00043EAC1039360FFF703FF0C4B9B68C3F3FA
:103AE00003130B4AD35CD8400A4B18600A4B186882
:103AF000FDF750FF002070BD012070470120FAE75C
:103B00000120F8E70120F6E7003C024000380240BF
:103B1000306201080000002008000020014B1868F6
:103B2000704700BF0000002008B5FFF7F7FF044B07
:103B30009B68C3F38223034AD35CD84008BD00BF0F
:103B400000380240406201080F2303600B4B9A6863
:103B500002F0030242609A6802F0F00282609A6802
:103B600002F4E052C2609B68DB0803F4E053036197
:103B7000034B1B6803F007030B60704700380240DB
:103B8000003C02402DE9F04782B0054688461746C2
:103B90001E46FEF7CFF90A9B1B1A03EB0609FEF738
:103BA000C9F982462A4B1B68C3F3CB3309FB03F3E5
:103BB00001932B689C6838EA04040CBF012300239E
:103BC000BB4240D0B6F1FF3FF3D0FEF7B3F9A0EB14
:103BD0000A0048450AD2B9F1000F07D0019A02B194
:103BE0004A46019B013B01939146E2E72A685368EC
:103BF00023F0E00353606B68B3F5827F0BD0AB6AB0
:103C0000B3F5005F14D0012385F85130002385F807
:103C10005030032018E0AB68B3F5004F02D0B3F585
:103C2000806FECD12A68136823F040031360E6E745
:103C30002A68136823F4005313602A68136843F456
:103C400000531360DFE7002002B0BDE8F08700BF3B
:103C50000000002070B584B004460D461646009260
:103C60000B4601220221FFF78DFFD0B9174B1B68CD
:103C7000174AA2FB03235B0D4FF47A7202FB03F396
:103C800003936368B3F5827F11D0039B3BB1039B21
:103C9000013B039323689B6813F0800FF5D104B0B8
:103CA00070BD636D43F0200363650320F7E7009662
:103CB0002B46002280212046FFF764FF0028EED02B
:103CC000636D43F0200363650320E8E700000020F4
:103CD000819F5E1600285AD010B50446436A33B956
:103CE0004368B3F5827F05D00023C36102E000235F
:103CF000036143610023A36294F85130002B40D04C
:103D0000022384F851302268136823F040031360C3
:103D1000636803F48273A26802F404421343E26806
:103D200002F400621343226902F002021343626943
:103D300002F001021343A26902F400721343E26924
:103D400002F038021343226A02F080021343A26A8F
:103D500002F40052216813430B60638B03F00403E9
:103D6000626A02F01002216813434B602268D36933
:103D700023F40063D36100206065012384F851308F
:103D800010BD84F850302046FDF77EFDB8E70120D5
:103D900070472DE9F04383B00446884691461F469C
:103DA0000A9DFEF7C7F8064694F85130DBB2626808
:103DB000012B0AD0B2F5827F40F00581A268002A6B
:103DC00040F00581042B40F00481B8F1000F00F0B1
:103DD0000281B9F1000F00F00081002F00F0FF8098
:103DE00094F85030012B00F0FC80012384F850300F
:103DF00094F85130DBB2042B02D0052384F8513003
:103E000000236365C4F83890E787A787C4F830803B
:103E1000E786A7862364636423681A6812F0400F5C
:103E200003D11A6842F040021A60E368B3F5006FEC
:103E300011D063680BB1012F0BD1226B236812786C
:103E40001A73236B01332363E38E9BB2013B9BB256
:103E5000E386012771E063680BB1012F0BD1226B60
:103E600023681288DA60236B02332363E38E9BB2EC
:103E7000013B9BB2E38601271BE023689A6812F09E
:103E8000010F0ED0E28F92B25AB1DA68A36B1A809A
:103E9000A36B0233A363E38F9BB2013B9BB2E38727
:103EA0000127FEF747F8801BA84202D3B5F1FF3F78
:103EB0001ED1E38E9BB21BB9E38F9BB2002B62D065
:103EC00023689A6812F0020FD7D0E28E92B2002ACD
:103ED000D3D0002FD1D0226B1288DA60236B02334B
:103EE0002363E38E9BB2013B9BB2E3860027C4E7CA
:103EF000012384F85130002384F85030032063E01C
:103F000023689A6812F0010F0ED0E28F92B25AB174
:103F1000DA68A36B1A70A36B0133A363E38F9BB2C0
:103F2000013B9BB2E3870127FEF704F8831BAB42FA
:103F300002D3B5F1FF3F1ED1EDB1E38E9BB213B9B1
:103F4000E38F9BB2FBB123689A6812F0020FD7D0BF
:103F5000E28E92B2002AD3D0002FD1D0226B1278F9
:103F60001A73236B01332363E38E9BB2013B9BB235
:103F7000E3860027C4E7012384F85130002384F846
:103F80005030032020E0324629462046FFF762FEEB
:103F900090B9A36833B901932368DA6801929B68EA
:103FA0000193019B012384F85130002384F85030A1
:103FB000636D4BB1012007E020236365002384F883
:103FC0005030012000E0022003B0BDE8F083022061
:103FD000FAE70220F8E70120F6E70120F4E70120E4
:103FE000F2E70220F0E7000030B4036A026A22F030
:103FF000010202624268846924F0730C0C6844EA8E
:104000000C0423F0020C8B6843EA0C03114DA84208
:1040100003D005F58065A84205D123F00803CD68DB
:104020002B4323F004030B4DA84203D005F5806514
:10403000A84207D122F440724D6945EA020C8A6910
:1040400042EA0C02426084614A684263036230BC07
:10405000704700BF0000014030B4036A026A22F4D6
:10406000807202624268C46924F0730C0C6844EAEE
:104070000C0523F400738C6843EA0423114CA0421E
:1040800003D004F58064A04206D123F40063CC6819
:1040900043EA042323F480630A4CA04203D004F5CE
:1040A0008064A04207D122F440524C6942EA0412D3
:1040B0008C6942EA04124260C5614A68C2630362C5
:1040C00030BC70470000014030B4036A026A22F439
:1040D000805202624468C26922F4E6420D6842EAF4
:1040E000052223F400538D6843EA0533094DA842A5
:1040F00003D005F58065A84204D124F480444D69BD
:1041000044EA85144460C2614A680264036230BCB8
:10411000704700BF000001407047000090F83D303C
:10412000DBB2012B37D1022380F83D300268D3681F
:1041300043F00103D3600368194A934220D0B3F1DE
:10414000804F1DD0A2F57C42934219D002F58062C7
:10415000934215D002F58062934211D002F5784265
:1041600093420DD002F57052934209D0A2F59432D9
:10417000934205D01A6842F001021A60002070478D
:104180009A6802F00702062A07D01A6842F0010274
:104190001A6000207047012070470020704700BF60
:1041A00000000140704770477047704770B5044683
:1041B0000368DE681D6915F0020F10D016F0020FBB
:1041C0000DD06FF002021A610123037703689B6927
:1041D00013F0030F5ED0FFF7E6FF0023237715F0FF
:1041E000040F12D016F0040F0FD023686FF00402F2
:1041F0001A610223237723689B6913F4407F4FD011
:104200002046FFF7D0FF0023237715F0080F12D0C8
:1042100016F0080F0FD023686FF008021A6104230C
:1042200023772368DB6913F0030F40D02046FFF7A4
:10423000BAFF0023237715F0100F12D016F0100FDD
:104240000FD023686FF010021A61082323772368C8
:10425000DB6913F4407F31D02046FFF7A4FF002331
:10426000237715F0010F02D016F0010F2DD115F0B4
:10427000800F02D016F0800F2FD115F0400F02D022
:1042800016F0400F31D115F0200F02D016F0200F9C
:1042900033D170BDFFF786FF2046FFF785FF9CE70F
:1042A0002046FFF77FFF2046FFF77EFFABE7204663
:1042B000FFF778FF2046FFF777FFBAE72046FFF7C2
:1042C00071FF2046FFF770FFC9E723686FF0010216
:1042D0001A612046FDF72EFAC9E723686FF08002C5
:1042E0001A61204600F0ECF9C7E723686FF040023E
:1042F0001A612046FFF759FFC5E723686FF02002D7
:104300001A61204600F0DBF9C3E700000368344A75
:10431000904212D0B0F1804F0FD0A2F57C42904273
:104320000BD002F58062904207D002F58062904285
:1043300003D002F57842904203D123F070034A681B
:104340001343274A90422AD0B0F1804F27D0A2F5DC
:104350007C42904223D002F5806290421FD002F549
:10436000806290421BD002F57842904217D002F54D
:104370007052904213D002F5806290420FD002F545
:10438000806290420BD0A2F59832904207D002F59D
:104390008062904203D002F58062904203D123F400
:1043A0004073CA68134323F080034A6913430360D0
:1043B0008B68C3620B688362094B984203D003F594
:1043C0008063984201D10B69036301234361036950
:1043D00013F0010F03D0036923F001030361704759
:1043E0000000014040B310B5044690F83D30F3B1F1
:1043F000022384F83D30214651F8040BFFF786FF75
:10440000012384F8463084F83E3084F83F3084F845
:10441000403084F8413084F8423084F8433084F8E6
:10442000443084F8453084F83D30002010BD80F8D9
:104430003C30FFF771FEDBE70120704740B310B559
:10444000044690F83D30F3B1022384F83D30214614
:1044500051F8040BFFF75AFF012384F8463084F823
:104460003E3084F83F3084F8403084F8413084F89E
:10447000423084F8433084F8443084F8453084F87E
:104480003D30002010BD80F83C30FDF763FBDBE7DA
:104490000120704730B4036A026A22F010020262FF
:1044A0004468826922F4E6420D6842EA052223F05C
:1044B00020038D6843EA0513114DA84203D005F58A
:1044C0008065A84206D123F08003CD6843EA051336
:1044D00023F040030A4DA84203D005F58065A842A9
:1044E00007D124F440644D6944EA85048D6944EAA7
:1044F0008504446082614A688263036230BC70470D
:104500000000014038B590F83C30012B66D00446DD
:104510000D46012380F83C300C2A5AD8DFE802F01F
:10452000075959591B59595930595959440000686C
:10453000FFF75AFD2268936943F0080393612268EC
:10454000936923F0040393612268936929690B43FB
:10455000936100203EE00068FFF79CFF22689369AA
:1045600043F4006393612268936923F48063936149
:1045700022689369296943EA01239361002029E0B5
:104580000068FFF769FD2268D36943F00803D3612F
:104590002268D36923F00403D3612268D3692969AF
:1045A0000B43D361002015E00068FFF78DFD226802
:1045B000D36943F40063D3612268D36923F4806331
:1045C000D3612268D369296943EA0123D3610020BA
:1045D00000E00120002384F83C3038BD0220FCE7D5
:1045E00090F83C20012A3DD010B40346012280F807
:1045F0003C20022280F83D2002685068946820F038
:10460000700C086840EA0C0050601A681648824234
:104610001AD0B2F1804F17D0A0F57C40824213D05F
:1046200000F5806082420FD000F5806082420BD09E
:1046300000F57840824207D000F57050824203D0E6
:10464000A0F59430824204D124F0800449682143CB
:104650009160012283F83D20002083F83C005DF842
:10466000044B70470220704700000140024690F85A
:104670003C30012B21D0012380F83C30CB6823F45F
:1046800040738868034323F480634868034323F43A
:1046900000630868034323F480530869034323F449
:1046A00000534869034323F48043C9690B431168ED
:1046B0004B64002082F83C0070470220704770472E
:1046C00070470000022A0AD00922C36823F47053FD
:1046D000C360C36843EA8223C36000207047234B52
:1046E0000B44234A93422FD9224B0B44224A934234
:1046F0002CD9A1F57403A3F51053204A934227D96E
:10470000A1F18373A3F5E7431D4A934222D31D4BC6
:104710000B441D4A93421FD91C4B0B441C4A934225
:104720001CD31C4B0B441C4A934219D3A1F1B77301
:10473000A3F55853194A934214D3194B0B44194A01
:10474000934211D20722C0E70F22BEE70E22BCE738
:104750000D22BAE70C22B8E70B22B6E70A22B4E72B
:104760000922B2E70822B0E70622AEE7405327FF4E
:10477000FF340C00401E1BFF3F420F007F4F120012
:1047800020D6130060B6E5FE5FE3160000D3CEFE30
:1047900040771B00C05BB3FEC0912100207538003C
:1047A000E05459FEE09C410082B000230193019B3C
:1047B00001330193019BB3F1706F15D80369002B8E
:1047C000F5DA00230193890141F020010161019B89
:1047D00001330193019BB3F1706F08D8036913F0A3
:1047E000200FF4D1002000E0032002B07047032026
:1047F000FBE7D0F8083813F0060307D0022B07D0E8
:10480000062B01D00F207047022070470020704710
:104810000220704710B591F800C04B78012B23D0CF
:1048200000F5006ED0F81C380CF00F040122A240F5
:1048300043EA0243C0F81C3800EB4C10D0F8003BB0
:1048400013F4004F0ED1D0F8003B8A68C2F30A027D
:10485000097942EA8142134343F0805343F4004311
:10486000C0F8003B002010BDD0F81C280CF00F0E43
:1048700003FA0EF39BB21343C0F81C3800EB4C1044
:10488000D0F8003913F4004FECD1D0F800398A6821
:10489000C2F30A02097942EA814242EA8C52134386
:1048A00043F0805343F40043C0F80039DAE710B412
:1048B00083B0024600230193487801280BD00B787F
:1048C00002EB4313D3F8000B00282DDB002003B0CC
:1048D0005DF8044B70470B7802EB4313D3F80049A3
:1048E000002C01DB0020F2E7D3F8004944F000641B
:1048F000C3F800490B7802EB4313D3F8004944F0A6
:104900008044C3F80049019B01330193019C42F2AA
:1049100010739C42DBD80B7802EB4313D3F80039B9
:10492000002BF0DB0020D2E7D3F8000B40F0006052
:10493000C3F8000B0B7802EB4313D3F8000B40F0E5
:104940008040C3F8000B019B01330193019842F2B0
:104950001073984208D80B7802EB4313D3F8003B4E
:10496000002BF0DB0020B2E70120B0E710B59DF886
:10497000084084B903334FEA930E4FF0000C08E06F
:1049800000EB023303F5805351F8044B1C600CF12B
:10499000010CF445F4D3002010BD0000F0B583B045
:1049A0000C784B78012B2FD000EB441C0CF53063B6
:1049B0001D69ED0CED041D611D6925F0FF5525F401
:1049C000C0151D61002C40F0CF800C690CB18C68C3
:1049D0000C618C680C621D69C4F312042C431C61C9
:1049E0001C6944F400241C61012A00F0E0800B796A
:1049F000012B00F0E280DCF8003B43F00443CCF8EC
:104A0000003B002003B0F0BD0B6983BB00EB4413F7
:104A1000D3F8105925F0FF5525F4C015C3F81059E7
:104A2000D3F8105945F40025C3F81059D3F810599C
:104A3000ED0CED04C3F81059012A53D000EB4414D7
:104A4000D4F8003943F00443C4F800390B79012B42
:104A500071D00B69002BD4D0D0F83438097801F02C
:104A60000F0101228A401343C0F83438C9E700EB34
:104A7000441303F510631D69ED0CED041D611D6900
:104A800025F0FF5525F4C0151D6184B90E698D68A8
:104A9000AE4200D90D611D6945F400251D611D69F7
:104AA0000E69C6F3120C45EA0C051D61C4E70D69D9
:104AB0008E683544013DB5FBF6F51E69484F07EA9F
:104AC000C54C46EA0C061E610E79012EE7D11E691F
:104AD00026F0C0461E611E696D0705F0C0453543CE
:104AE0001D61DCE7CB691BB100EB4412C2F814393D
:104AF0000B79012B08D000EB4414D4F8003943F0B3
:104B00000443C4F800397CE7D0F8083813F4807FF8
:104B100008D100EB4412D2F8003943F00053C2F838
:104B20000039E8E700EB4412D2F8003943F0805333
:104B3000C2F80039DFE7D0F8083813F4807F0CD1D1
:104B4000D4F8003943F00053C4F8003900920B8ABE
:104B50000A78C968FFF70AFF53E7D4F8003943F031
:104B60008053C4F80039F1E70C6954B91C698D68A9
:104B7000C5F312052C431C611C6944F400241C611C
:104B800032E78D682C44013CB4FBF5F4A4B204FB7D
:104B900005F50D621D69124E06EAC4442C431C61E2
:104BA0001C690D6AC5F312052C431C611CE7CA6819
:104BB000002A3FF41CAF5A6119E7D0F8083813F403
:104BC000807F06D1DCF8003B43F00053CCF8003B7B
:104BD00011E7DCF8003B43F08053CCF8003B0AE7D8
:104BE0000000F81F10B5844608464FEA920E02F006
:104BF0000302002305E00CF58051096840F8041B0E
:104C000001337345F7D37AB10CF5805CDCF80040D2
:104C10000021CBB2DB0024FA03F300F8013B0131A1
:104C2000013A92B2002AF4D110BD0B784A78012AD9
:104C300014D000EB4310D0F8002B002A06DB2BB178
:104C4000D0F8003B23F08043C0F8003BD0F8003B95
:104C500043F40013C0F8003B0020704700EB431002
:104C6000D0F80029002A06DB2BB1D0F8003923F058
:104C70008043C0F80039D0F8003943F40013C0F87D
:104C80000039E9E70B784A78012A0ED000EB43108F
:104C9000D0F8003B23F40013C0F8003B0B79023B33
:104CA000DBB2012B15D90020704700EB4310D0F880
:104CB000003923F40013C0F800390B79023BDBB252
:104CC000012BF0D8D0F8003943F08053C0F80039F8
:104CD000E9E7D0F8003B43F08053C0F8003BE2E73F
:104CE000D0F8003823F4FE63C0F80038D0F800385C
:104CF000090101F4FE610B43C0F800380020704741
:104D00004269806910407047D0F8183800F500609B
:104D1000C0691840000C7047D0F8183800F50060E2
:104D2000C069184080B2704700EB4111D1F8082BE0
:104D300000F50060406910407047D0F81028D0F8A6
:104D4000343801F00F0C23FA0CF3DB01DBB2134310
:104D500000EB411000F51060806818407047406912
:104D600000F001007047D0F8003923F4FF6323F00E
:104D70000703C0F80039D0F8043843F48073C0F852
:104D8000043800207047000010B4046C154B9C429E
:104D900003D9D0F8003B002B16DB0024C0F8104BE1
:104DA000D0F8104B44F40024C0F8104BD0F8104B4E
:104DB00044F01804C0F8104BD0F8104B44F0C04435
:104DC000C0F8104B012903D000205DF8044B704758
:104DD000C0F8142BD0F8003B43F08023C0F8003B10
:104DE000F2E700BF0A30544F08B5D0F8B83213B11B
:104DF0001B68984708BD0020FCE708B5D0F8B8321A
:104E00005B68984700B908BD0320FCE738B5044645
:104E100000F2AA25284600F099F90123C4F894323B
:104E2000B4F8B032C4F8983294F8AA1201F01F0313
:104E3000012B0DD0022B10D02BB101F080012046A8
:104E400002F05FFD03E02946204600F055FB38BD27
:104E50002946204600F08BFBF9E72946204600F062
:104E6000C8FBF4E7F8B50446012380F89C32002320
:104E7000C0F894324360C0F8A43280F8A032D0F871
:104E8000B832DBB15B68DBB1002198470746C8B98F
:104E9000402300221146204602F028FD0126A4F8F6
:104EA00064614025C4F860512B46002280212046D1
:104EB00002F01CFDA68425623846F8BD0027E7E70E
:104EC0000027E5E70327E3E701740020704790F827
:104ED0009C32DBB2042B04D090F89C32DBB280F819
:104EE0009D32042380F89C320020704790F89C3259
:104EF000DBB2042B01D00020704790F89D32DBB26A
:104F000080F89C32F7E708B590F89C32DBB2032BAF
:104F100001D0002008BDD0F8B832002BF9D0DB69F1
:104F2000002BF6D09847F4E708B5D0F8D432AE336A
:104F300050F823205AB190F89C32DBB2032B01D0F9
:104F4000002008BD136A23B198470020F9E7032029
:104F5000F7E70020F5E708B5D0F8D432AE3350F8C3
:104F600023205AB190F89C32DBB2032B01D00020F1
:104F700008BD536A23B198470020F9E70320F7E7FB
:104F80000020F5E70020704708B5012380F89C3227
:104F9000D0F8B83223B15B680179984710B908BDE1
:104FA0000020FCE70320FAE700207047002070474C
:104FB00038B504460D46002943D11346D0F8942253
:104FC000032A01D0084638BDD0F85C11D0F8602122
:104FD000914212D890F8AA3203F01F03012B17D088
:104FE000022B1CD0284694F89C32DBB2032B1BD03A
:104FF000204600F033FC2846E5E7891AC0F85C112A
:105000008A4228BF0A46194600F020FC2846DAE703
:1050100090F8AE12FFF7C8FF0028E9D1E3E790F857
:10502000AE12FFF7C3FFF7E700F1AE0354F82330E9
:105030001A69002ADCD0C4F8D4021B6920469847BC
:10504000D6E701F07F01FFF7B1FF90B994F89C32E9
:10505000DBB2032BB7D100F1AE0354F823309A69C9
:10506000002AB0D0C4F8D4029B692946204698474C
:10507000A9E70020A7E738B504460D4600294BD123
:105080001346D0F89422022A07D094F8A00218B14F
:10509000002384F8A032284638BDC269016A8A42DA
:1050A0000ED88A4218D094F89C32DBB2032B27D05A
:1050B0008021204602F025FC204600F0DAFBE4E7E0
:1050C000521AC261194600F0B9FB00231A4619466C
:1050D000204602F036FCD8E783699942E3D8D0F83D
:1050E00098229342DFD20022114600F0A7FB002154
:1050F000C4F898120B460A46204602F022FCC4E788
:10510000D4F8B832DA68002AD2D00022C4F8D42207
:10511000DB6820469847CBE741F08001FFF746FF68
:1051200090B994F89C32DBB2032BB5D100F1AE03F9
:1051300054F823305A69002AAED0C4F8D4025B690F
:10514000294620469847A7E70020A5E70B7803707B
:105150004B7843708B78CA7843EA022343800B79FB
:105160004A7943EA022383808B79CA7943EA02238E
:10517000C380704710B50446802102F0C2FB0021B5
:10518000204602F0BEFB10BD30B583B004460D468C
:105190000023ADF806304A88130A013B062B00F2C3
:1051A000AB80DFE803F0041F33A9A98D9A00D0F883
:1051B000B4321B680DF10601007C9847EA88002A8A
:1051C00000F0A380BDF80630002B00F099809A42D1
:1051D00028BF1A46ADF806200146204600F021FB04
:1051E00003B030BD037C43B9D0F8B8329B6A0DF1EF
:1051F0000600984702234370E0E7D0F8B832DB6A34
:105200000DF10600984702234370D7E7D2B2052A72
:1052100052D8DFE802F003101D2A3744D0F8B43228
:105220005B6823B10DF10601007C9847C6E729466B
:10523000FFF7A0FFD4E7D0F8B4329B6823B10DF19B
:105240000601007C9847B9E72946FFF793FFC7E7B7
:10525000D0F8B432DB6823B10DF10601007C984729
:10526000ACE72946FFF786FFBAE7D0F8B4321B69EE
:1052700023B10DF10601007C98479FE72946FFF70F
:1052800079FFADE7D0F8B4325B6923B10DF10601C7
:10529000007C984792E72946FFF76CFFA0E7D0F81B
:1052A000B4329B6923B10DF10601007C984785E774
:1052B0002946FFF75FFF93E72946FFF75BFF8FE77C
:1052C000037C33B9D0F8B8325B6B0DF10600984718
:1052D00074E72946FFF74EFF82E7037C43B9D0F815
:1052E000B8321B6B0DF1060098470723437065E742
:1052F0002946FFF73FFF73E72946FFF73BFF6FE7BC
:1053000029462046FFF736FF6AE7204600F0A6FA56
:1053100066E738B504468B88FBB9CB88EBB94B8878
:105320007F2B1AD803F07F0590F89C32DBB2032B59
:105330000CD080F89E52294602F0F3FA204600F085
:105340008DFA35B1022384F89C3209E0FFF712FF91
:1053500006E0012384F89C3202E02046FFF70AFFB2
:1053600038BD000070B504460E468D782F4B1D7079
:10537000012D10D890F89C32DBB2022B0FD0032BFA
:1053800026D0FFF7F7FE294B19782046FFF735FDA9
:105390000325284670BDFFF7EDFE0325F9E7A5B10B
:1053A00045602946FFF720FD054638B131462046C5
:1053B000FFF7E0FE022384F89C32EAE7204600F083
:1053C0004DFA032384F89C32E3E700F047FAE0E764
:1053D000CDB141688D4225D0C9B2FFF70EFD134B08
:1053E000197861602046FFF7FFFC0546B0B13146F1
:1053F0002046FFF7BFFE21792046FFF7FEFC02237F
:1054000084F89C32C5E7022380F89C324560294627
:10541000FFF7F3FC204600F021FABAE7204600F03F
:105420001DFAB6E700F01AFA0025B2E7F0090020ED
:1054300008B5CB88012B0BD190F89C32DBB2022B44
:1054400009D9032B09D10122011D00F0EAF901E07D
:10545000FFF790FE08BD5BB213B9FFF78BFEF9E7CB
:105460000146002341F8083F012200F0DAF9F1E794
:1054700008B590F89C32013B022B12D8CB88022B46
:105480000CD10123C360D0F8A4320BB10323C36055
:10549000022200F10C0100F0C4F908BDFFF76AFE1A
:1054A000FBE7FFF767FEF8E708B54B88012B04D050
:1054B000022B07D0FFF75EFE08BDC0F8A43200F053
:1054C000CDF9F9E78B881B0A80F8A03200F0C6F905
:1054D000F2E708B590F89C32013B022B09D84B88C3
:1054E000012B00D008BD0023C0F8A43200F0B6F9AB
:1054F000F8E7FFF73FFEF5E738B50C7804F06004F5
:10550000202C06D0402C04D06CB1FFF733FE0024D1
:1055100007E0D0F8D432AE3350F823309B68984778
:105520000446204638BD4D78092D1DD8DFE805F02A
:1055300012191C161C08051C0F0BFFF725FEF0E7BF
:10554000FFF7E7FEEDE7FFF70DFF0446E9E7FFF79A
:105550006FFFE6E7FFF78CFF2C46E2E7FFF7A4FFBB
:10556000DFE7FFF7B6FFDCE7FFF704FED9E770B52A
:1055700005460C460B7803F06003202B07D0402B28
:1055800005D023B1FFF7F6FD0026304670BD95F833
:105590009C32013B022B26D82179012905D92146CD
:1055A0002846FFF7E7FD0026EFE72846FFF7FCFC5B
:1055B00068B900F1AE0255F82220916889B1C5F8AA
:1055C000D4029368214628469847064600E0032601
:1055D000E388002BD9D1002ED7D1284600F03EF920
:1055E000D3E70326F4E721462846FFF7C3FD00264C
:1055F000CBE72DE9F04106460D468B88DFB20C78EB
:1056000004F06004202C08D0402C06D0DCB1FFF759
:10561000B1FD00242046BDE8F08139463046FFF751
:10562000C5FC0446002840F0F880C6F8D40200F11A
:10563000AE0356F823309B68002BEBD0294630464A
:1056400098470446E6E791F80180B8F1010F31D0A0
:10565000B8F1030F05D0B8F1000F67D0FFF78AFD4E
:10566000D8E790F89C32DBB2022B04D0032B12D087
:10567000FFF780FDCEE70FB1802F04D129463046D9
:10568000FFF778FDC6E7394602F03BF98021304646
:1056900002F037F9BEE74B8823B91FB1802F01D044
:1056A000CB881BB1304600F0D9F8B3E7394602F099
:1056B00028F9F7E790F89C32DBB2022B04D0032BD9
:1056C00012D0FFF757FDA5E70FB1802F04D129466F
:1056D0003046FFF74FFD9DE7394602F012F9802171
:1056E000304602F00EF995E74B88002B92D117F067
:1056F0007F0F17D1304600F0B1F839463046FFF73A
:1057000055FC002886D1C6F8D40200F1AE0256F846
:1057100022209268002A00F0828029463046904775
:10572000044677E7394602F0F4F8E3E790F89C2264
:10573000D2B2022A05D0032A27D0FFF71BFD444628
:1057400068E70FB1802F13D113F0800F14D107F049
:105750007F0707EB8707B90001F5A87131440431D1
:1057600000230B600222304600F05BF8444651E70C
:10577000FFF700FD44464DE707F07F0707EB87077B
:10578000B900103131440431EAE75BB2002B1FDB72
:1057900007F00F0202EB820200EB8202B2F86421F2
:1057A0001AB3002B25DB07F07F0303EB83039C0078
:1057B00004F5A874344404340FB1802F22D100239F
:1057C000236002222146304600F02BF8444621E7B0
:1057D00007F00F0202EB820200EB8202928C002A99
:1057E000DFD1FFF7C7FC444614E7FFF7C3FC44468C
:1057F00010E707F07F0303EB83039C00103434446D
:105800000434D9E73946304602F050F810B101238C
:105810002360D6E700232360D3E70024FAE604469A
:10582000F8E608B513460222C0F894228361C361EA
:105830000A46002102F07DF8002008BD08B5134695
:105840000A46002102F075F8002008BD08B513468D
:105850000A46002102F075F8002008BD08B50422B0
:10586000C0F8942200231A46194602F062F800207C
:1058700008BD08B50522C0F8942200231A4619462F
:1058800002F05FF8002008BD08B54FF0E0231B6967
:1058900001F00EFC012800D108BD00F0D3F9FBE7B0
:1058A000EFF305832BB9064B186828B901221A605B
:1058B00070476FF0050070474FF0FF30704700BF32
:1058C000780D0020EFF3058373B90A4B1B68012B99
:1058D0000DD110B50024084BDC77064B02221A606C
:1058E00001F036F9204610BD6FF0050070474FF00B
:1058F000FF307047780D002000ED00E0F0B587B074
:1059000000240594EFF305847CBB70B32AB31568BB
:10591000936903B918235C1E372C4AD8546814F0D5
:10592000010F48D1566976B14FEA960C946834B1AC
:10593000D768B7F5C07F02D3176907B1C6B92CB1D4
:105940004FF0FF340EE04FF0800CEFE7D4688CB9D5
:10595000146994B14FF0FF3404E015460024182375
:105960004FF0800C012C0AD0ACB1059807B0F0BD07
:105970000124F7E74FF0FF34F4E70024F2E714695D
:1059800092680292019400930B466246294601F008
:105990006DF80590E9E705AA019200930B461FFAFE
:1059A0008CF2294601F09FF80128DED000230593F0
:1059B000DBE70020DAE70020D8E708B5EFF305833E
:1059C00033B908B9002008BD01F02EFA0020FAE72B
:1059D0006FF00500F7E70000034B0360034B0B601B
:1059E00080231360704700BFF80B0020F4090020EB
:1059F000034B0360034B0B604FF4807313607047DD
:105A0000801100207C0D002000F1080343604FF05E
:105A1000FF328260C360036100230360704700238C
:105A20000361704743684B609A688A60516099606F
:105A30000861036801330360704730B40D68B5F145
:105A4000FF3F11D000F108031C465B681A68AA42A8
:105A5000FAD963684B6099608C6061600861036883
:105A60000133036030BC70470469F2E703694168A1
:105A700082688A60416851605A68824206D000227A
:105A800002611A68013A1A601868704782685A60A1
:105A9000F5E7000082B0002301930D4B1B68B3F1C2
:105AA000FF3F08D04FF0500383F31188BFF36F8F8F
:105AB000BFF34F8FFEE74FF0500383F31188BFF31E
:105AC0006F8FBFF34F8F019B002BFCD002B070474C
:105AD0000C00002008480068006880F308884FF038
:105AE000000080F3148862B661B6BFF34F8FBFF336
:105AF0006F8F00DF00BF000008ED00E0DFF80C0052
:105B0000016841F4700101607047000088ED00E019
