:020000040800F2
:100000000000022011060008F5050008F7050008A9
:10001000F9050008FB050008FD05000800000000C8
:10002000000000000000000000000000FF050008C4
:10003000010600080000000003060008050600088D
:1000400061060008610600086106000861060008F4
:1000500061060008610600086106000861060008E4
:1000600061060008610600086106000861060008D4
:1000700061060008610600086106000861060008C4
:1000800061060008610600086106000861060008B4
:1000900061060008610600086106000861060008A4
:1000A0006106000861060008610600086106000894
:1000B0006106000861060008610600086106000884
:1000C0006106000861060008610600086106000874
:1000D0006106000861060008610600086106000864
:1000E0006106000861060008610600086106000854
:1000F0006106000861060008610600086106000844
:100100006106000861060008610600086106000833
:100110006106000861060008610600086106000823
:100120006106000861060008610600086106000813
:1001300061060008000000000000000061060008E1
:1001400061060008610600086106000861060008F3
:1001500061060008610600086106000861060008E3
:1001600061060008610600086106000861060008D3
:1001700061060008610600080000000000000000A1
:08018000610600086106000899
:1001880010B5054C237833B9044B13B10448AFF3C9
:1001980000800123237010BD3C04002000000000F3
:1001A800E80F000808B5034B1BB103490348AFF338
:1001B800008008BD0000000040040020E80F00088F
:1001C80053B94AB9002908BF00281CBF4FF0FF31B6
:1001D8004FF0FF3000F072B9ADF1080C6DE904CEB4
:1001E80000F006F8DDF804E0DDE9022304B070470A
:1001F8002DE9F047089E04468846002B4BD18A42D9
:10020800154667D9B2FA82F24AB1C2F1200701FA5B
:1002180002F320FA07F7954047EA030894404FEAAB
:10022800154E230CB8FBFEF71FFA85FC0EFB17884A
:1002380043EA084307FB0CF1994209D9EB1807F187
:10024800FF3080F01B81994240F21881023F2B4415
:100258005B1AA4B2B3FBFEF00EFB103344EA03446E
:1002680000FB0CFCA44509D92C1900F1FF3380F0E0
:100278000781A44540F2048102382C4440EA074033
:10028800A4EB0C0400271EB1D4400023C6E90043A8
:100298003946BDE8F0878B4209D9002E00F0EB8083
:1002A8000027C6E9000138463946BDE8F087B3FAA9
:1002B80083F7002F47D18B4202D3824200F2FA80A3
:1002C800841A61EB030301209846002EE0D0C6E9AA
:1002D8000048DDE702B9FFDEB2FA82F2002A40F0F8
:1002E8008F80491B4FEA154E1FFA85F80127B1FB8D
:1002F800FEFC230C0EFB1C1143EA014308FB0CF126
:10030800994207D9EB180CF1FF3002D2994200F25A
:10031800CD808446591AA3B2B1FBFEF00EFB10142F
:1003280043EA044408FB00F8A04507D92C1900F15A
:10033800FF3302D2A04500F2B6801846A4EB0804A9
:1003480040EA0C409FE7C7F1200CBB4022FA0CFEA4
:100358004EEA030E01FA07F420FA0CF521FA0CF321
:100368004FEA1E482543B3FBF8F92C0C08FB193358
:100378001FFA8EFA44EA034309FB0AF49C4202FA84
:1003880007F200FA07F10BD91EEB030309F1FF305E
:1003980080F087809C4240F28480A9F1020973446E
:1003A8001B1BADB2B3FBF8F008FB103345EA03445E
:1003B80000FB0AFAA24508D91EEB040400F1FF333A
:1003C8006BD2A24569D90238744440EA0940A0FBBF
:1003D8000289A4EB0A044C45C2464B4654D351D07B
:1003E800002E69D0B1EB0A0564EB030404FA0CFC97
:1003F800FD40FC404CEA0505C6E90054002747E7E4
:10040800C2F1200320FA03F7954001FA02F021FA1D
:1004180003F34FEA154E3843010CB3FBFEF71FFAFE
:1004280085F80EFB173341EA034107FB08F38B42BB
:1004380004FA02F407D9691807F1FF3C2FD28B425E
:100448002DD9023F2944CB1A81B2B3FBFEF00EFB33
:10045800103341EA034100FB08F38B4207D96918BE
:1004680000F1FF3C17D28B4215D902382944C91A2A
:1004780040EA07473BE73746304609E70746E7E6DD
:100488001846FBE64145ABD2B8EB020A69EB0E020F
:1004980001381346A4E76046E9E7184695E767463A
:1004A800D1E781467CE702382C4447E7ACF1020CDF
:1004B8002B442FE7384608E73746E9E6704700BF80
:1004C80082B0002100910B4B1A6B42F080021A6334
:1004D8001A6B02F080020092009A01911A6B42F0A6
:1004E80001021A631B6B03F001030193019B02B025
:1004F800704700BF0038024072B6FEE700B595B0FD
:100508003022002108A800F093FC002303930493F1
:100518000593069307930193204A116C41F080518B
:100528001164126C02F080520192019A02931C4BE2
:100538001A6842F480421A601B6803F480430293ED
:10054800029B012308934FF48033099302220E92F1
:100558004FF480030F9304231093A8211191129252
:10056800139308A800F028F998B90F2303930223DE
:100578000493002305934FF4A05306934FF480533C
:100588000793052103A800F07FFB20B915B05DF89B
:1005980004FBFFF7B1FFFFF7AFFF00BF00380240D1
:1005A8000070004008B500F07FF8FFF7A7FFFFF7DD
:1005B80087FFFEE782B0002100910B4B5A6C42F492
:1005C80080425A645A6C02F480420092009A019167
:1005D8001A6C42F080521A641B6C03F0805301932A
:1005E800019B02B0704700BF00380240FEE7FEE7FB
:1005F800FEE7FEE7FEE770477047704708B500F072
:100608006DF808BD70470000DFF834D0FFF7FAFF37
:100618000C480D490D4A002302E0D458C450043355
:10062800C4188C42F9D30A4A0A4C002301E013602B
:100638000432A242FBD300F0D7FBFFF7B3FF7047A9
:1006480000000220000000203C04002028100008C0
:100658003C04002080040020FEE7000010B504469A
:100668000E4B18784FF47A73B3FBF0F30C4A10680A
:10067800B0FBF3F000F08AF868B90F2C01D901201B
:100688000AE0002221464FF0FF3000F04BF8054BFE
:100698001C60002000E0012010BD00BF0400002005
:1006A800000000200800002008B50B4B1A6842F42F
:1006B80000721A601A6842F480621A601A6842F47A
:1006C80080721A60032000F01BF80F20FFF7C6FFA6
:1006D800FFF770FF002008BD003C0240034A116884
:1006E800034B1B780B441360704700BF580400206D
:1006F80004000020014B1868704700BF5804002010
:10070800074AD36823F4E0631B041B0C000200F4BF
:10071800E060184340F0BF6040F40030D06070479C
:1007280000ED00E030B4174BDB68C3F30223C3F1DC
:100738000704042C28BF04241D1D062D18D9033BCB
:100748004FF0FF3505FA04F421EA0401994005FA4F
:1007580003F322EA0303194300280BDB0901C9B29A
:1007680000F1604000F5614080F8001330BC70472C
:100778000023E5E700F00F000901C9B2024B195444
:10078800F4E700BF00ED00E014ED00E00138B0F13F
:10079800807F0AD2064B5860064AF02182F823105F
:1007A8000020986007221A6070470120704700BF38
:1007B80010E000E000ED00E0002800F0E98170B5ED
:1007C80082B00446036813F0010F3BD0A74B9B6827
:1007D80003F00C03042B2CD0A44B9B6803F00C03F0
:1007E800082B21D06368B3F5803F4FD0B3F5A02F15
:1007F80052D09E4B1A6822F480321A601A6822F48A
:1008080080221A606368002B50D0FFF773FF0546FB
:10081800964B1B6813F4003F14D1FFF76BFF401B86
:100828006428F5D90320B8E1904B5B6813F4800F76
:10083800D8D08E4B1B6813F4003F03D06368002B9D
:1008480000F0A881236813F0020F55D0874B9B68EE
:1008580013F00C0F3ED0854B9B6803F00C03082B5C
:1008680033D0E368002B68D0814B01221A60FFF770
:1008780041FF05467D4B1B6813F0020F54D1FFF76B
:1008880039FF401B0228F5D9032086E1774A13680F
:1008980043F480331360B5E7744B1A6842F480223E
:1008A8001A601A6842F480321A60ABE7FFF722FF39
:1008B80005466E4B1B6813F4003FC3D0FFF71AFFC1
:1008C800401B6428F5D9032067E1684B5B6813F483
:1008D800800FC6D1654B1B6813F0020F04D0E36884
:1008E800012B01D0012058E1604A136823F0F80376
:1008F800216943EAC1031360236813F0080F40D04D
:10090800636963B35B4B01221A60FFF7F3FE054688
:10091800564B5B6F13F0020F33D1FFF7EBFE401B12
:100928000228F5D9032038E1504A136823F0F80368
:10093800216943EAC1031360DEE74D4B00221A60C8
:10094800FFF7D8FE0546494B1B6813F0020FD3D0BA
:10095800FFF7D0FE401B0228F5D903201DE1454BC7
:1009680000221A60FFF7C6FE0546404B5B6F13F086
:10097800020F06D0FFF7BEFE401B0228F5D9032060
:100988000BE1236813F0040F79D0384B1B6C13F07C
:10099800805F33D100230193344B1A6C42F08052AC
:1009A8001A641B6C03F080530193019B0125324BA1
:1009B8001B6813F4807F23D0A368012B34D0052B48
:1009C80038D02A4B1A6F22F001021A671A6F22F0E8
:1009D80004021A67A368002B36D0FFF78BFE064681
:1009E800224B1B6F13F0020F48D1FFF783FE801BC9
:1009F80041F288339842F3D90320CEE00025D6E7A8
:100A08001D4A136843F480731360FFF773FE0646AC
:100A1800194B1B6813F4807FCED1FFF76BFE801B48
:100A28000228F5D90320B8E0104A136F43F00103F8
:100A38001367CFE70D4B1A6F42F004021A671A6F5B
:100A480042F001021A67C5E7FFF754FE0646074B56
:100A58001B6F13F0020F11D0FFF74CFE801B41F201
:100A680088339842F3D9032097E000BF003802404A
:100A780000004742800E474200700040EDB9A3696C
:100A8800002B00F08980484A926802F00C02082A7C
:100A980051D0022B17D0454B00221A60FFF72AFECF
:100AA8000446414B1B6813F0007F42D0FFF722FE3B
:100AB800001B0228F5D903206FE03B4A136C23F092
:100AC80080531364DBE7394B00221A60FFF712FEEC
:100AD8000546354B1B6813F0007F06D0FFF70AFE6A
:100AE800401B0228F5D9032057E0E369226A134323
:100AF800626A43EA8213A26A5208013A43EA02434D
:100B0800E26A43EA0263284A5360284B01221A60CA
:100B1800FFF7F0FD0446244B1B6813F0007F06D155
:100B2800FFF7E8FD001B0228F5D9032035E0002077
:100B380033E0002031E0012B31D01B4B5B6803F41C
:100B48008001E269914201D0012026E003F03F02D2
:100B5800216A8A4201D001201FE0616A47F6C0720B
:100B68001A40B2EB811F01D0012016E003F4403196
:100B7800A26A5208013AB1EB024F01D001200CE001
:100B880003F07063E26AB3EB026F0AD0012004E05D
:100B980001207047012000E0002002B070BD012054
:100BA800FBE70020F9E700BF003802406000474239
:100BB800324B9B6803F00C03042B5CD0082B01D04C
:100BC8002F4870472DE9F04B2C4B5A6802F03F0232
:100BD8005B6813F4800F2BD0284B5B68C3F3881332
:100BE8001E4600275C010025E41A65EB0705A901EC
:100BF80041EA9461A001001B61EB0501CB0043EAC7
:100C08005073C400A01943EB07014B0243EAD053C9
:100C18004402204619460023FFF7D2FA174B5B68B7
:100C2800C3F3014301335B00B0FBF3F0BDE8F08B85
:100C3800124B5B68C3F388131E4600275C0100252E
:100C4800E41A65EB0705A90141EA9461A001001BBC
:100C580061EB0501CB0043EA5073C400A01943EBD4
:100C680007018B0243EA9053840220461946002369
:100C7800FFF7A6FAD2E70348704700BF00380240E2
:100C88000024F40000127A00002800F09E8070B55D
:100C98000446504B1B6803F007038B4209D2CBB2C2
:100CA8004C4A1370136803F007038B4201D00120EC
:100CB80070BD236813F0020F17D013F0040F04D08F
:100CC800454A936843F4E0539360236813F0080F90
:100CD80004D0414A936843F4604393603E4A936862
:100CE80023F0F003A068034393600D46236813F0D4
:100CF800010F32D06368012B21D09A1E012A25D911
:100D0800354A126812F0020F61D033498A6822F01E
:100D1800030213438B60FFF7EDFC06462E4B9B68DE
:100D280003F00C036268B3EB820F16D0FFF7E2FC06
:100D3800801B41F288339842F0D90320B8E7264A4D
:100D4800126812F4003FE0D10120B1E7224A12688C
:100D580012F0007FD9D10120AAE71E4B1B6803F0CF
:100D68000703AB4209D9EAB21A4B1A701B6803F0A1
:100D78000703AB4201D001209AE7236813F0040F60
:100D880006D0154A936823F4E053E1680B43936057
:100D9800236813F0080F07D00F4A936823F46043C1
:100DA800216943EAC1039360FFF702FF0A4B9B687E
:100DB800C3F30313094AD35CD840094B1860094BA5
:100DC8001868FFF74BFC002072E7012070470120EC
:100DD8006EE700BF003C02400038024000100008E7
:100DE800000000200800002070B50D4E0D4D761B48
:100DF800B61006D00024013455F8043B9847A642A3
:100E0800F9D1094E094D761B00F0EAF8B61006D064
:100E18000024013455F8043B9847A642F9D170BD27
:100E28001C1000081C100008241000081C100008E2
:100E3800F0B4860743D0541E002A3ED0CAB20346F7
:100E480002E014F1FF3438D303F8012B9D07F8D1E1
:100E5800032C2BD9CDB245EA05250F2C45EA0545CB
:100E680016D9A4F110073F0903F1200606EB07166F
:100E780003F1100242E9045542E902551032B24228
:100E8800F8D104F00F040137032C03EB07130DD935
:100E98001E462246043A032A46F8045BFAD8221F63
:100EA80022F003020432134404F003042CB1C9B243
:100EB8001C4403F8011B9C42FBD1F0BC704714464C
:100EC8000346C5E7024B13B1024800F005B8704766
:100ED80000000000ED0E0008002301461A461846DF
:100EE80000F01EB838B50A4C0A4D641BA4100AD08D
:100EF80004F18043013B05EB8305013C55F80439B7
:100F08009847002CF9D1BDE8384000F06FB800BF11
:100F18002810000824100008704700BF704700BF61
:100F28002DE9F8432B4D0646286898460F4691460A
:100F3800FFF7F2FF284B1C68D4F84831002B3DD04E
:100F48005A681F2A0DDC02F1010C16BB0232C3F8E5
:100F580004C0286843F82270FFF7E0FF0020BDE8CE
:100F6800F8831E4B7BB34FF4C870AFF30080034681
:100F780048B3D4F848210021C0E900214FF0010C02
:100F8800C4F848010A46C0F88811C0F88C11002E30
:100F9800DCD003EB82010124C1F88890D3F88801E2
:100FA80094402043022EC3F88801C1F80881CDD1AE
:100FB800D3F88C110C43C3F88C41C7E704F5A6732A
:100FC800C4F84831BCE72868FFF7A8FF4FF0FF30A6
:100FD800C5E700BF3804002010100008000000001A
:100FE800F8B500BFF8BC08BC9E467047F8B500BF0E
:080FF800F8BC08BC9E467047DE
:1010000000000000000000000102030406070809B8
:0410100010000020AC
:08101400E4F1FF7F0100000080
:08101C00CD0E0008AD01000833
:041024008901000836
:101028000024F4000100000010000000000000008F
:1010380000000000FC02002064030020CC03002014
:101048000000000000000000000000000000000098
:101058000000000000000000000000000000000088
:101068000000000000000000000000000000000078
:101078000000000000000000000000000000000068
:101088000000000000000000000000000000000058
:101098000000000000000000000000000000000048
:1010A8000000000000000000000000000000000038
:1010B8000000000000000000000000000000000028
:1010C8000000000000000000000000000000000018
:1010D8000000000000000000010000000000000007
:1010E8000E33CDAB34126DE6ECDE05000B000000CC
:1010F80000000000000000000000000000000000E8
:1011080000000000000000000000000000000000D7
:1011180000000000000000000000000000000000C7
:1011280000000000000000000000000000000000B7
:0C14580000000000000000005C04002008
:0400000508000611D8
:00000001FF
