:020000040800F2
:100000000000022011200008251D0008271D0008FF
:10001000291D00082B1D00082D1D000800000000F0
:10002000000000000000000000000000819A0008AD
:100030002F1D000800000000219B00089197000878
:10004000612000086120000861200008612000088C
:10005000612000086120000861200008612000087C
:10006000612000086120000861200008612000086C
:10007000612000086120000861200008612000085C
:10008000612000086120000861200008612000084C
:10009000311D00086120000861200008612000086F
:1000A00061200008411D000861200008612000084F
:1000B000612000086120000861200008612000081C
:1000C000612000086120000861200008612000080C
:1000D00061200008612000086120000861200008FC
:1000E00061200008612000086120000861200008EC
:1000F00061200008612000086120000861200008DC
:1001000061200008612000086120000861200008CB
:100110006120000861200008511D000861200008CE
:1001200061200008612000086120000861200008AB
:10013000612000086120000861200008612000089B
:10014000612000086120000861200008612000088B
:10015000612000086120000861200008612000087B
:10016000612000086120000861200008612000086B
:10017000612000086120000861200008612000085B
:10018000612000086120000861200008612000084B
:1001900061200008000000006120000861200008C4
:1001A000612000086120000861200008612000082B
:1001B000612000086120000861200008612000081B
:1001C000612000086120000861200008612000080B
:0801D000612000086120000815
:1002000081F0004102E000BF83F0004330B54FEAC7
:1002100041044FEA430594EA050F08BF90EA020F34
:100220001FBF54EA000C55EA020C7FEA645C7FEAC7
:10023000655C00F0E2804FEA5454D4EB5555B8BFEA
:100240006D420CDD2C4480EA020281EA030382EA5B
:10025000000083EA010180EA020281EA0303362DED
:1002600088BF30BD11F0004F4FEA01314FF4801CC0
:100270004CEA113102D0404261EB410113F0004FD2
:100280004FEA03334CEA133302D0524263EB430389
:1002900094EA050F00F0A780A4F10104D5F1200E27
:1002A0000DDB02FA0EFC22FA05F2801841F1000182
:1002B00003FA0EF2801843FA05F359410EE0A5F156
:1002C00020050EF1200E012A03FA0EFC28BF4CF087
:1002D000020C43FA05F3C01851EBE37101F000453D
:1002E00007D54FF0000EDCF1000C7EEB00006EEB4A
:1002F0000101B1F5801F1BD3B1F5001F0CD34908D4
:100300005FEA30004FEA3C0C04F101044FEA44522A
:1003100012F5800F80F09A80BCF1004F08BF5FEAB1
:10032000500C50F1000041EB045141EA050130BD91
:100330005FEA4C0C404141EB0101013C28BFB1F5A3
:10034000801FE9D291F0000F04BF01460020B1FAEE
:1003500081F308BF2033A3F10B03B3F120020CDAC1
:100360000C3208DD02F1140CC2F10C0201FA0CF09F
:1003700021FA02F10CE002F11402D8BFC2F1200C04
:1003800001FA02F120FA0CFCDCBF41EA0C019040BA
:10039000E41AA2BF01EB0451294330BD6FEA040403
:1003A0001F3C1CDA0C340EDC04F11404C4F12002EE
:1003B00020FA04F001FA02F340EA030021FA04F300
:1003C00045EA030130BDC4F10C04C4F1200220FA57
:1003D00002F001FA04F340EA0300294630BD21FA95
:1003E00004F0294630BD94F0000F83F4801306BF5B
:1003F00081F480110134013D4EE77FEA645C18BF4F
:100400007FEA655C29D094EA050F08BF90EA020FE5
:1004100005D054EA000C04BF1946104630BD91EADD
:10042000030F1EBF0021002030BD5FEA545C05D1E0
:100430004000494128BF41F0004130BD14F580041F
:100440003CBF01F5801130BD01F0004545F0FE4193
:1004500041F470014FF0000030BD7FEA645C1ABFC8
:10046000194610467FEA655C1CBF0B46024650EAFF
:10047000013406BF52EA033591EA030F41F400212B
:1004800030BD00BF90F0000F04BF0021704730B5B1
:100490004FF4806404F132044FF000054FF0000186
:1004A00050E700BF90F0000F04BF0021704730B547
:1004B0004FF4806404F1320410F0004548BF40421C
:1004C0004FF000013EE700BF42004FEAE2014FEA71
:1004D00031014FEA02701FBF12F07F4393F07F4F4C
:1004E00081F06051704732F07F4208BF704793F04F
:1004F0007F4F04BF41F40021704730B54FF4607462
:1005000001F0004521F000411CE700BF50EA010264
:1005100008BF704730B54FF000050AE050EA01020D
:1005200008BF704730B511F0004502D5404261EB7D
:1005300041014FF4806404F132045FEA915C3FF4BE
:10054000D8AE4FF003025FEADC0C18BF03325FEA5B
:10055000DC0C18BF033202EBDC02C2F1200300FA0C
:1005600003FC20FA02F001FA03FE40EA0E0021FA31
:1005700002F11444BDE600BF70B54FF0FF0C4CF41F
:10058000E06C1CEA11541DBF1CEA135594EA0C0FD1
:1005900095EA0C0F00F0DEF82C4481EA030621EA0C
:1005A0004C5123EA4C5350EA013518BF52EA033547
:1005B00041F4801143F4801338D0A0FB02CE4FF0F9
:1005C0000005E1FB02E506F00042E0FB03E54FF029
:1005D0000006E1FB03569CF0000F18BF4EF0010E21
:1005E000A4F1FF04B6F5007F64F5407404D25FEA1D
:1005F0004E0E6D4146EB060642EAC62141EA5551D0
:100600004FEAC52040EA5E504FEACE2EB4F1FD0C11
:1006100088BFBCF5E06F1ED8BEF1004F08BF5FEA8F
:10062000500E50F1000041EB045170BD06F0004641
:1006300046EA010140EA020081EA0301B4EB5C04EE
:10064000C2BFD4EB0C0541EA045170BD41F48011E6
:100650004FF0000E013C00F3AB8014F1360FDEBF0B
:10066000002001F0004170BDC4F10004203C35DAE7
:100670000C341BDC04F11404C4F1200500FA05F36A
:1006800020FA04F001FA05F240EA020001F000420B
:1006900021F0004110EBD37021FA04F642EB060181
:1006A0005EEA430E08BF20EAD37070BDC4F10C04AB
:1006B000C4F1200500FA04F320FA05F001FA04F26F
:1006C00040EA020001F0004110EBD37041F100015B
:1006D0005EEA430E08BF20EAD37070BDC4F1200566
:1006E00000FA05F24EEA020E20FA04F301FA05F2CE
:1006F00043EA020321FA04F001F0004121FA04F276
:1007000020EA020000EBD3705EEA430E08BF20EA45
:10071000D37070BD94F0000F0FD101F0004640007F
:1007200041EB010111F4801F08BF013CF7D041EA01
:10073000060195F0000F18BF704703F00046520005
:1007400043EB030313F4801F08BF013DF7D043EAD6
:100750000603704794EA0C0F0CEA135518BF95EA8C
:100760000C0F0CD050EA410618BF52EA4306D1D113
:1007700081EA030101F000414FF0000070BD50EA32
:10078000410606BF1046194652EA430619D094EABC
:100790000C0F02D150EA013613D195EA0C0F05D1A6
:1007A00052EA03361CBF104619460AD181EA0301FA
:1007B00001F0004141F0FE4141F470014FF00000B2
:1007C00070BD41F0FE4141F4780170BD70B54FF04D
:1007D000FF0C4CF4E06C1CEA11541DBF1CEA1355CD
:1007E00094EA0C0F95EA0C0F00F0A7F8A4EB0504AF
:1007F00081EA030E52EA03354FEA013100F08880A6
:100800004FEA03334FF0805545EA131343EA12636E
:100810004FEA022245EA111545EA10654FEA002623
:100820000EF000419D4208BF964244F1FD0404F5DC
:10083000407402D25B084FEA3202B61A65EB030538
:100840005B084FEA32024FF480104FF4002CB6EBF5
:10085000020E75EB030E22BFB61A754640EA0C0075
:100860005B084FEA3202B6EB020E75EB030E22BFB5
:10087000B61A754640EA5C005B084FEA3202B6EBF6
:10088000020E75EB030E22BFB61A754640EA9C00B5
:100890005B084FEA3202B6EB020E75EB030E22BF85
:1008A000B61A754640EADC0055EA060E18D04FEA43
:1008B000051545EA16754FEA06164FEAC30343EAE3
:1008C00052734FEAC2025FEA1C1CC0D111F4801FB0
:1008D0000BD141EA00014FF000004FF0004CB6E7A9
:1008E00011F4801F04BF01430020B4F1FD0C88BF48
:1008F000BCF5E06F3FF6AFAEB5EB030C04BFB6EB53
:10090000020C5FEA500C50F1000041EB045170BD45
:100910000EF0004E4EEA113114EB5C04C2BFD4EB72
:100920000C0541EA045170BD41F480114FF0000EF6
:10093000013C90E645EA060E8DE60CEA135594EA72
:100940000C0F08BF95EA0C0F3FF43BAF94EA0C0F75
:100950000AD150EA01347FF434AF95EA0C0F7FF4EA
:1009600025AF104619462CE795EA0C0F06D152EA3E
:1009700003353FF4FDAE1046194622E750EA410622
:1009800018BF52EA43067FF4C5AE50EA41047FF433
:100990000DAF52EA43057FF4EBAE12E74FF0FF3C98
:1009A00006E000BF4FF0010C02E000BF4FF0010C69
:1009B0004DF804CD4FEA410C7FEA6C5C4FEA430CE2
:1009C00018BF7FEA6C5C1BD001B050EA410C0CBF31
:1009D00052EA430C91EA030F02BF90EA020F002093
:1009E000704710F1000F91EA030F58BF994208BFFA
:1009F00090422CBFD8176FEAE37040F001007047B7
:100A00004FEA410C7FEA6C5C02D150EA013C07D10D
:100A10004FEA430C7FEA6C5CD6D152EA033CD3D058
:100A20005DF8040B704700BF8446104662468C4652
:100A30001946634600E000BF01B5FFF7B7FF002885
:100A400048BF10F1000F01BD4DF808EDFFF7F4FFAE
:100A50000CBF012000205DF808FB00BF4DF808ED39
:100A6000FFF7EAFF34BF012000205DF808FB00BF5C
:100A70004DF808EDFFF7E0FF94BF012000205DF87E
:100A800008FB00BF4DF808EDFFF7CEFF94BF012033
:100A900000205DF808FB00BF4DF808EDFFF7C4FF2C
:100AA00034BF012000205DF808FB00BF4FEA41027F
:100AB00012F5001215D211D56FF47873B3EB6252B0
:100AC00012D94FEAC12343F0004343EA505311F0D7
:100AD000004F23FA02F018BF404270474FF0000069
:100AE000704750EA013005D111F0004008BF6FF0A7
:100AF000004070474FF00000704700BF00F1340124
:100B000091E838009C46A6464CF8045D90E8FF0F3B
:100B1000E54600BD90EC210B704700BF80EC210B37
:100B2000704700BF90EC200B704700BF80EC200B9B
:100B3000704700BFD0EC200B704700BFC0EC200B0B
:100B4000704700BFF0EC0201F0EC0211F0EC022162
:100B5000F0EC0231F0EC0241F0EC0251F0EC0261F9
:100B6000F0EC0271F0EC0281F0EC0291F0EC02A1E9
:100B7000F0EC02B1F0EC02C1F0EC02D1F0EC02E1D9
:100B8000F0EC02F1704700BFE0EC0201E0EC021172
:100B9000E0EC0221E0EC0231E0EC0241E0EC025139
:100BA000E0EC0261E0EC0271E0EC0281E0EC029129
:100BB000E0EC02A1E0EC02B1E0EC02C1E0EC02D119
:100BC000E0EC02E1E0EC02F1704700BFB0FC018113
:100BD000B0FC0191B0FC01A1B0FC01B1704700BFB5
:100BE000A0FC0181A0FC0191A0FC01A1A0FC01B12D
:100BF000704700BFEC4600B52DE900502DE9FF1FFE
:100C00004FF000032DE90C0001A913F0E9F8DDF81D
:100C100040E012B0704700BFEC4600B52DE900502F
:100C20002DE9FF1F4FF000032DE90C0001A913F07F
:100C300013F9DDF840E012B0704700BFEC4600B594
:100C40002DE900502DE9FF1F4FF000032DE90C00A6
:100C500001A913F023F9DDF840E012B0704700BF9E
:100C6000EC4600B52DE900502DE9FF1F4FF00003C1
:100C70002DE90C0001AB13F0E7F8DDF840E012B00D
:100C8000704700BFEC4600B52DE900502DE9FF1F6D
:100C90004FF000032DE90C0001AA13F05FF9DDF815
:100CA00040E012B0704700BF0000000000000000EC
:100CB0000000000000000000000000000000000034
:100CC00002780B78012A28BF9A4240F0D8806DE95B
:100CD000044540EA0104CDE902676FF0000C4FEAD9
:100CE00044721AB380EA010414F0070F6BD100F0CC
:100CF000070420F0070004F0030521F007014FEA84
:100D0000C505F0E8042314F0040FF1E804670CFAB9
:100D100005F462EA040266EA04060BD063EA0403FF
:100D2000624667EA0407664604E000BFF0E8042371
:100D3000F1E8046782FA4CF582EA0604A4FA8CF41E
:100D40006CBB83FA4CF583EA0705A5FA8CF595B9D7
:100D500050E9022351E9026782FA4CF582EA06045F
:100D6000A4FA8CF483FA4CF583EA0705A5FA8CF50E
:100D70002543DBD09CB92DBAB5FA85F424F00704DD
:100D800027FA04F1DDE9026723FA04F303F0FF0018
:100D900001F0FF01FDE80445A0EB0100704724BA13
:100DA000B4FA84F424F0070426FA04F1DDE90267BA
:100DB00022FA04F202F0FF0001F0FF01FDE8044511
:100DC000A0EB0100704714F0030F3CD110F00304B6
:100DD00028D150F8082B51F8083B82FA4CF582EAEA
:100DE0000305A5FA8CF55DB950F8042C51F8043CC4
:100DF00082FA4CF582EA0305A5FA8CF5002DE8D0BD
:100E00002DBAB5FA85F424F0070423FA04F122FA86
:100E100004F202F0FF0001F0FF01FDE80445A0EB41
:100E2000010070474FEAC40420F0030050F8082B7B
:100E300021F0030151F8083B0CFA04F462EA0402C1
:100E400063EA0403C9E710F003041DD0A1EB040119
:100E500020F00300E40750F8042B06D012D28B7860
:100E60005FFAA2F4E41A06D12BB1CB785FFAB2F4A0
:100E7000E41A00D133B920465DF8104B7047A2EB5D
:100E80000300704701F1040150F8042BCC0721F056
:100E9000030151F8043B48D824D222F07F4482FA5F
:100EA0004CF594EA1325A5FA8CF50AD165B951F8E9
:100EB000043B84EA0204B4EB036F0ED150F8042B18
:100EC000EBE74FEA132355E035F07F454DD1087825
:100ED000FDE80445C0F1000070474FEA126203F0DC
:100EE000FF0347E002EA1C4482FA4CF594EA1345FA
:100EF000A5FA8CF50AD165B951F8043B84EA0204DD
:100F0000B4EB034F0CD150F8042BEBE74FEA13433B
:100F100030E015EA1C4528D10B884FEA124229E03F
:100F20004FEA124203EA1C4324E002F0FF0482FA73
:100F30004CF594EA1365A5FA8CF50AD165B951F818
:100F4000043B84EA0204B4EB032F09D150F8042BCC
:100F5000EBE74FEA13630DE015F0FF0F05D10B68C7
:100F60004FEA122223F07F4304E04FF00000FDE837
:100F70000445704712BA1BBA82FA4CF482EA0304A1
:100F8000A4FA8CF5B5FA85F402FA04F203FA04F334
:100F90004FEA1260FDE80445A0EB1360704700BF04
:100FA00001F0FF01102A2BDB10F0070F08D010F81A
:100FB000013B013A8B422DD010F0070F42B3F6D11E
:100FC000F0B441EA012141EA014122F007047FF037
:100FD00000070023F0E80256083C85EA010586EA8E
:100FE000010685FA47F5A3FA87F586FA47F6A5FACA
:100FF00087F68EB9EED1F0BC01F0FF0102F00702D6
:1010000032B110F8013B013A83EA010313B1F8D180
:101010000020704701387047002D06BF3546033861
:10102000073815F0010F07D1013015F4807F02BF9A
:10103000013015F4C03F0130F0BC0138704700BFEB
:10104000844641EA000313F003036DD1403A41D3D3
:1010500051F8043B40F8043B51F8043B40F8043B92
:1010600051F8043B40F8043B51F8043B40F8043B82
:1010700051F8043B40F8043B51F8043B40F8043B72
:1010800051F8043B40F8043B51F8043B40F8043B62
:1010900051F8043B40F8043B51F8043B40F8043B52
:1010A00051F8043B40F8043B51F8043B40F8043B42
:1010B00051F8043B40F8043B51F8043B40F8043B32
:1010C00051F8043B40F8043B51F8043B40F8043B22
:1010D000403ABDD2303211D351F8043B40F8043BC2
:1010E00051F8043B40F8043B51F8043B40F8043B02
:1010F00051F8043B40F8043B103AEDD20C3205D3D2
:1011000051F8043B40F8043B043AF9D2043208D0C9
:10111000D2071CBF11F8013B00F8013B01D30B883B
:1011200003806046704700BF082A13D38B078DD019
:1011300010F003038AD0C3F10403D21ADB071CBFEB
:1011400011F8013B00F8013B80D331F8023B20F855
:10115000023B7BE7043AD9D3013A11F8013B00F88E
:10116000013BF9D20B7803704B7843708B78837016
:101170006046704700000000000000000000000012
:1011800030B490F800F020F007016FF0000C10F080
:10119000070491F820F040F048804FF000046FF011
:1011A0000700D1E9002391F840F000F1080082FA2D
:1011B0004CF2A4FA8CF283FA4CF3A2FA8CF34BBBF8
:1011C000D1E9022382FA4CF200F10800A4FA8CF271
:1011D00083FA4CF3A2FA8CF3E3B9D1E9042382FA3F
:1011E0004CF200F10800A4FA8CF283FA4CF3A2FA54
:1011F0008CF37BB9D1E9062301F1200182FA4CF28C
:1012000000F10800A4FA8CF283FA4CF3A2FA8CF3F2
:10121000002BC6D0002A04BF04301A4612BAB2FA14
:1012200082F200EBD20030BC7047D1E9002304F019
:101230000305C4F100004FEAC50514F0040F91F84E
:1012400040F00CFA05F562EA05021CBF63EA0503EB
:1012500062464FF00004AAE74FEA410C7FEA6C5C5B
:1012600002D150EA013C0AD14FEA430C7FEA6C5CA0
:1012700002D152EA033C02D14FF0000070474FF018
:10128000010070470348044B834202D0034B03B173
:1012900018477047780800207808002000000000F8
:1012A0000548064B1B1AD90F01EBA301491002D0C8
:1012B000034B03B1184770477808002078080020D6
:1012C0000000000010B5064C237843B9FFF7DAFFA1
:1012D000044B13B10448AFF300800123237010BD09
:1012E000780800200000000064B0010808B5054B34
:1012F0001BB105490548AFF30080BDE80840FFF782
:10130000CFBF00BF000000007C08002064B00108CF
:1013100010B50D4B9868038A13F4807F10D10A4CE6
:10132000E06801F08BFDA06801F08EF901F050FC3F
:10133000204600F0F7FE054B186808F0C2FA10BD11
:1013400001F074F9EBE700BF740900209408002055
:1013500008B5024B986801F00AF808BD740900202E
:1013600000B58BB000F0A6FA00F0AAFA08F01CFA5B
:101370002422002101A814F0C3FD0A4B01934FF46D
:10138000007306931823079301AA0021064808F06A
:1013900039FA064B186008F019FA00200BB05DF816
:1013A00004FB00BF80B0010811130008940800205E
:1013B00010B5154CA068036C01330364836C0133D2
:1013C0008364836F01338367D0F880300133C0F8C2
:1013D0008030D0F888300133C0F88830E368D3F823
:1013E00054210132C3F85421D3F860210132C3F8EB
:1013F000602100F0CFFFE06801F062FEE0688C3011
:1014000001F0B0FB10BD00BF7409002010B592B010
:1014100000240F94109411943C222146684614F045
:101420006FFD34484FF0A04303604FF440334360F6
:101430008460C460046101234361042282610477F3
:101440004477036280F8244080F83840C46380F811
:10145000404002F0B1F900283CD100230F930FA9BE
:10146000244802F01FFF002837D1234B00930923A3
:101470000193002302937F22039204220492059396
:10148000032208928DF824308DF825308DF826300F
:1014900084220A924FF480720B928DF830306946A4
:1014A000144802F0F5FBD8B9144B009340F20F1327
:1014B000019369460F4802F0EBFBA0B9104B009373
:1014C00040F21523019369460A4802F0E1FB68B92E
:1014D00012B010BD00F024FBBFE700F021FBC4E711
:1014E00000F01EFBE0E700F01BFBE7E700F018FB55
:1014F000EEE700BF08090020020030040400600885
:101500000800900C00B591B03C22002101A814F015
:10151000F7FC2148214B03604FF440334360002324
:101520008360C36003614361042282610377437770
:101530000122026280F8243080F83830C36380F8DA
:10154000403002F039F908BB154B0193092302938F
:10155000002303937F220492042205920693012222
:1015600009928DF828308DF829308DF82A308422A0
:101570000B924FF480720C928DF8343001A906481A
:1015800002F086FB28B911B05DF804FB00F0C8FA40
:10159000DAE700F0C5FAF6E79C08002000010050E9
:1015A0000008302E10B59EB00446002119911A9102
:1015B0001B911C911D91542204A814F0A1FC2368D6
:1015C000B3F1A04F04D0364A934235D01EB010BDBF
:1015D0004FF4004304934FF00053159304A804F014
:1015E00049FDD8B92F4A136801331360012B18D075
:1015F0002D4BDA6C42F00102DA64DB6C03F001037C
:101600000193019B0723199303231A9300231B9330
:1016100019A94FF0904002F097FFD7E700F080FA49
:10162000E0E7214BDA6C42F40052DA64DB6C03F43D
:1016300000530093009BDBE74FF4004304934FF00B
:101640000053159304A804F015FDD0B9154A13688A
:1016500001331360012B17D0134BDA6C42F00402F4
:10166000DA64DB6C03F004030393039B20231993D8
:1016700003231A9300231B9319A90C4802F064FF5B
:10168000A4E700F04DFAE1E7074BDA6C42F40052B0
:10169000DA64DB6C03F400530293029BDCE700BFC7
:1016A0000001005098080020001002400008004887
:1016B00030B50322027001214170DFF8DCC0C0F8B0
:1016C00004C02F4A82602F4AC2604FF0804EC0F89B
:1016D00010E02D4A42614FF0FF4282614FF07E528E
:1016E000C2612A4C0462002480F8244082624FF4D4
:1016F0008065C562DFED267AC0ED0C7AC0F834E073
:101700004FF07A558563C46300F5405383F88048F1
:1017100083F8814803F684052A6003F688052A6069
:1017200003F68C052A6083F8901803F69405DFF819
:101730006CE0C5F800E083F8984883F8991883F8BE
:101740009A1883F89B18FF2183F89C1803F50A6404
:10175000226003F6A402C2ED007A83F8A81803F60B
:10176000AC02C2F800C003F50B62C2F800C003F679
:10177000B402C2F800E003F6B803064A1A6030BDAE
:10178000ABAA2A3EABAAAA3E9A99993F0AD7233C14
:1017900000000000000020C10000A0410000204126
:1017A00010B50446FFF784FF04F540530021C3F849
:1017B000C01883F8C41803F6C8000022026003F6BC
:1017C000CC00026083F8D01803F6D400026083F8DE
:1017D000D81803F6DC00026083F8E01803F6E40092
:1017E000026083F8E81803F6EC00026003F50F606E
:1017F000026003F6F400026003F6F800026003F6EC
:10180000FC00026004F56450026003F604100260FC
:1018100003F60810026003F60C10026003F5116075
:10182000026042608260C26003F51260026083F869
:101830002419012083F8250983F8261903F62811B5
:101840000A6003F62C110A600221C3F8301903F56F
:1018500013635A60204610BD70B50E490E4B0B60E5
:1018600000234B600D4C204600F0E2FC0C4E9FED37
:101870000D0A06220C49304601F07EFA0B4D28462F
:10188000FFF78EFF33462A462146094800F022FC26
:1018900070BD00BF844500208C4500209844002086
:1018A000284300200000FA4444460020F0090020AC
:1018B0007409002008B501F05DFF00F033F908BDA0
:1018C00008B500F0CBF800F069F900F01DFBFFF758
:1018D0009DFDFFF717FE09F0BDFF012008BD0000C8
:1018E00010B5124C0021204605F008FF00212046CB
:1018F00005F0D2FF0421204605F000FF0421204618
:1019000005F0CAFF0821204605F0F8FE0821204610
:1019100005F0C2FF0C21204605F0F0FE236841F2DD
:1019200036021A64204605F0D3FB10BD4446002061
:1019300038B5094D284602F017F9084C204602F048
:1019400013F92A68536843F02003536022685368F0
:1019500043F02003536038BD080900209C08002094
:101960000346027B22B107C983E807001846704787
:1019700007C983E8070001221A73F7E770B58AB038
:101980000646184BD3F8800001F03CF94FF0A04513
:10199000D5F88020144C214605A801F06BFAD5F843
:1019A0008420214603A801F065FAD5F88820214655
:1019B00001A801F05FFA9DF818302BB19DF81030A6
:1019C00013B19DF8083013B901200AB070BD059B12
:1019D0000793039B0893019B099307A93046FFF7E0
:1019E000BFFFF1E7000100502843002070B586B02A
:1019F000144B1B686FF001021A618021124802F03B
:101A000092FE124E3046FFF7A3FC02AC0023029375
:101A10000393049305932046FFF7B0FF0C4D059BFD
:101A2000009394E80E00284601F09EFA3046FFF736
:101A3000BFFC059B009394E80E00284601F03CFA99
:101A400006B070BD44460020000800480000002099
:101A50002843002008B5FFF7FFFE08BD30B58BB066
:101A60000024059406940794089409941F4BDA6C9B
:101A700042F02002DA64DA6C02F020020092009A4E
:101A8000DA6C42F00102DA64DA6C02F001020192CF
:101A9000019ADA6C42F00402DA64DA6C02F00402B1
:101AA0000292029ADA6C42F00202DA64DA6C02F014
:101AB00002020392039ADA6C42F00802DA64DB6CE9
:101AC00003F008030493049B094D22460421284691
:101AD00002F024FE0423059301230693079408943F
:101AE00005A9284602F030FD0BB030BD00100240C1
:101AF000000C004810B504460268074B9A4204D017
:101B00002268064B9A4203D010BD01F043FEF7E76E
:101B1000FFF76CFFF8E700BF00100040002C014009
:101B200072B6FEE700B595B03822002106A814F081
:101B3000E7F900200190029003900490059003F0D3
:101B4000F7FD222306934FF48073099340230A93F1
:101B500001230C9302230D930E9304220F92542120
:101B6000109111931292139306A803F09BFE80B973
:101B70000F230193032302930023039304930593FC
:101B800004210DEB010004F043F920B915B05DF814
:101B900004FBFFF7C5FFFFF7C3FF000008B51148BE
:101BA000114B03604FF482734360002383604FF452
:101BB0007062C26002220261012242614FF400722F
:101BC00082611822C2610362436283620722C26299
:101BD0000363436304F058FD00B908BDFFF7A0FF9D
:101BE000FBE700BF8C4500200030014000B589B004
:101BF0000023039304930593069307930268124B03
:101C00009A4202D009B05DF804FB03F560431A6EF6
:101C100042F480521A661A6E02F480520192019ABE
:101C2000DA6C42F00202DA64DB6C03F00203029326
:101C3000029B38230393022304930523079303A9EC
:101C4000024802F081FCDDE700300140000400485A
:101C500000B583B00E4B1A6E42F001021A661A6E7E
:101C600002F001020092009A9A6D42F080529A6549
:101C70009B6D03F080530193019B00220F216FF0B5
:101C8000010002F04DFC03F0D9FD03B05DF804FB48
:101C90000010024030B589B004461D4B9A6D42F0E9
:101CA00010029A659B6D03F010030193019B02A93A
:101CB00003A804F0C1F904F0ADF9164AA2FB002311
:101CC0009B0C013B1448154A026040F2E732C260A7
:101CD000436000230361836005F0B6FB054610B145
:101CE000284609B030BD0C4805F0F2F90546002839
:101CF000F6D1362002F024FC0F2C01D90125EFE7A4
:101D000000222146362002F00BFC054B1C60E7E761
:101D10000010024083DE1B43F0450020001000400D
:101D20001C000020FEE7FEE7FEE7FEE7FEE7704747
:101D300008B5024803F0B4FA08BD00BF707900206E
:101D400008B5024805F012FA08BD00BF444600205D
:101D500008B5024805F00AFA08BD00BFF0450020AA
:101D60000120704708B514F0ABFA162303604FF05A
:101D7000FF3008BD08B54FF0FF31FFF7F3FFFEE776
:101D800070B50C461646002506E0AFF300802146EC
:101D900001F8010B01350C46B542F6DB304670BD4B
:101DA00070B50C461646002504E014F8010BAFF39D
:101DB00000800135B542F8DB304670BD4FF0FF3092
:101DC00070474FF400534B6000207047012070476C
:101DD0000020704710B503460C4A0D490D480068B5
:101DE00040B10C4800680344521A934206D8094A8D
:101DF000136010BD0748084C0460F2E714F060FA65
:101E00000C2303604FF0FF30F3E700BF0000022017
:101E10000004000040460020887F0020034AD2F8DA
:101E2000883043F47003C2F88830704700ED00E05A
:101E300002680E4B9A4200D0704700B583B003F59C
:101E400064431A6E42F400621A661B6E03F4006368
:101E50000193019B00220521192002F061FB19204A
:101E600002F06EFB03B05DF804FB00BF002C0140E4
:101E7000F0B589B000230393049305930693079369
:101E800002681F4B9A4201D009B0F0BD03F56443CC
:101E9000DA6C42F00202DA64DA6C02F002020192B9
:101EA000019ADA6C42F00102DA64DB6C03F00103A0
:101EB0000293029B4FF4C043039302250495062628
:101EC0000796104F03A9384602F03EFB4FF400433B
:101ED000039304950024059406940423079303A90F
:101EE000384602F031FB4FF4E06303930495059408
:101EF0000694079603A94FF0904002F025FBC3E734
:101F0000002C01400004004810B598B0002415943E
:101F1000169417940E940F94109411941294139491
:101F200014943422214601A813F0EAFF3648374BB7
:101F3000036044604023836041F29A03C3600461FC
:101F40004461846105F0B0FA002848D1002315935C
:101F50001693179315A92C4805F020FD002841D1B0
:101F600060230E9300220F921092119212921392FC
:101F700014920EA9244805F015FB002835D104223F
:101F80000EA9214805F00EFB002831D108220EA928
:101F90001D4805F007FB00282DD10C220EA91A4878
:101FA00005F000FB50BB00230193029303930493BD
:101FB00005934FF4005206920793089309934FF04C
:101FC00000720A920B930C930D9301A90E4805F031
:101FD0003BFDB0B90C48FFF74BFF18B010BDFFF741
:101FE0009FFDB3E7FFF79CFDBAE7FFF799FDC6E752
:101FF000FFF796FDCAE7FFF793FDCEE7FFF790FDE9
:10200000D1E7FFF78DFDE5E744460020002C0140B5
:102010000D488546FFF702FF0C480D490D4A002385
:1020200002E0D458C4500433C4188C42F9D30A4A8D
:102030000A4C002301E013600432A242FBD314F0E7
:1020400045F9FFF78DF9FEE70000022000000020AF
:102050007808002014D7010878080020887F002025
:10206000FEE7000010B586B00346184A0260184A21
:1020700002604FF0FF4242608260C2600022026153
:1020800042618261C26102920392EC4602A903C9D5
:102090008CE8030002241C6203F1240E8EE8030086
:1020A0000492059206A911E903008CE80300DC62A2
:1020B00003F1300E8EE803009C63DA631C645A64FB
:1020C0009C64DA64184606B010BD00BFF4BC010879
:1020D00028BE010838B50446002505704570857096
:1020E00045608160C36002611430FFF7BBFF84F874
:1020F0006450A566022384F86C3004F16D03C4F8C3
:102100006D50C4F87150A4F87550A367A368DC60E3
:10211000236903F54053C3F8C048E3681C652046B3
:1021200038BD000010B58AB004462422002101A861
:1021300013F0E6FE084B01934FF4805306931823E7
:10214000079301AA0021054807F05CFB012384F8EE
:1021500064300AB010BD00BF80B0010863210008E0
:10216000FEE708B5FFF7FCFF4068704710B504466E
:10217000024B036009F0E4FF204610BD24BD0108B6
:1021800010B50446044B036009F0DAFF082120462D
:1021900009F0C0FE204610BD24BD010810B504465C
:1021A000082009F025FF044A0260044A02604460E6
:1021B000034A04490AF054F820C7010824BD010865
:1021C0006D21000810BD010808B510B10248FFF7E5
:1021D000E5FF0248FFF7E2FF90B00108B0B0010848
:1021E00008B50B79022B07D0012B14D0EBB90B6883
:1021F00003600123037108BD0B684BB11A6822B953
:102200005B68036001230371F5E700230371F2E7C4
:1022100000230371EFE70B6823B11B680360012300
:102220000371E8E700230371E5E70020FFF7CCFF27
:1022300010B40024046004718160C46040F2011293
:1022400002821F4A42611F4A82611F4AC2611F4ABD
:1022500002624462002282624FF48021C162012145
:10226000016380F83410846380F83C4002210164EB
:1022700042648164C264026542658265C265026629
:1022800044668466C266026742678167C267C0F8B7
:102290008010C0F88420C0F88810C0F88C20C0F8E6
:1022A0009240C0F896400A4AC0F89C200422A0F848
:1022B000A020C0F8D840A0F8DC405DF8044B70477F
:1022C0000AD7A33CDB0F4942DB0F494100007A44A7
:1022D000000C0048D0ED087A77EEA77AC0ED1B7AA3
:1022E00067EEA77AB5EE007A67EE877AC0ED1C7AC2
:1022F0007047B0F8901040F20112914203D0036091
:10230000012303717047B0F896309B0203F47F33CA
:10231000B0F89820910901F47C710B43C2F30312C9
:102320001343ECE7B0F8903013F4807F01D1012023
:10233000704710B50446D0F89C30C0F8D830B0F8DB
:10234000A030A0F8DC3000F19203C0F8E03000F1DA
:102350009603C0F8E430FFF7CCFF0223C4F8E8305E
:1023600004F1A401A06809F070FA012010BD08B5BD
:10237000B0F8902040F201139A4200D008BD48F214
:10238000FF33A0F892304FF6FF73A0F89430FFF7B8
:10239000C9FFF3E730B52DED068B85B00568B0F8C1
:1023A0009030A3F58073012B04D9002005B0BDEC5B
:1023B000068B30BD0446FFF7B5FFE16AA06E01F061
:1023C000D1F8A066B4F8903013F4807F00D0A566F1
:1023D000D4ED169A94ED159A94ED18AADFED8EAA15
:1023E0006AEE2A7A39EE279A84ED159A77EEA98A51
:1023F000C4ED168AA56E07EE905AB8EEE78AB0EEE5
:10240000680A11F047FB38EE400AD4ED0B7AF8EE7B
:10241000E76AC0EE267AFDEE677AF8EEE77A66EEB6
:10242000A77A30EE670AD4ED177A30EE677A9FED1F
:102430007B6A27EE067A77EE877AC4ED177AD4EDB9
:102440001B7A67EEAA7A67EE807A39EE279A84EDD6
:10245000159A78EEA77AC4ED167A87EEA67ABDEEC5
:10246000477AB8EEC77A26EE877A77EEC77AF5EE26
:10247000C07AF1EE10FA00F1A680C4ED167A94ED60
:102480001C6A9FED657A26EE077A27EE007A3AEE0F
:10249000077A84ED187AB0EEC77ADFED615A26EE3E
:1024A000256AB4EEC76AF1EE10FA40F38F8000237C
:1024B0002366012289EE267A84ED1F7A0023A36722
:1024C00094ED185A85EE266A84ED216AC4F88030AE
:1024D000D4ED235ACDED005A01238DF8043077EE68
:1024E000E97A87EEA67AFDEE477AF8EEE77A77EE9C
:1024F000677A77EEA57ABDEE677AB8EEC77A77EE9F
:10250000C77AF5EEC07AF1EE10FA61D4C4ED237A01
:102510000023C4F88830636AEB1A07EE903A1AB9C0
:1025200094F83430002B58D14FF07C532365F8EEEB
:10253000E77A94ED147A77EE877AE268D3681B69BC
:102540005B0007EE103AB8EEC77ADFED365A27EE99
:10255000257AB7EE005AC5EE265A27EE257AD4ED35
:102560000A6A77EEE67A67EE877A94F83C000028EC
:1025700050D0DFED2D6A87EEA67ABDEE477AB8EE31
:10258000C77A27EE267A77EEC77A94ED0C7AB8EE02
:10259000C77A67EE277AC4ED117A002323648DEDA4
:1025A000026A01218DF80C1026EE266AD268D2ED5F
:1025B000047AF8EEE77A67EE867A27EE277A84EDDA
:1025C000137AA364F2E677EEA67A56E7002271E763
:1025D000B7EE007A77EE877A98E794ED147ADFED1C
:1025E0000E5A25EE255A37EE057A84ED147AF7EE69
:1025F000005AB4EEE57AF1EE10FA01DDC4ED145A9A
:1026000094ED147AB5EEC07AF1EE10FA8FD500236E
:1026100023658CE70120C9E639365438CDCCCC3D52
:102620003936D437DB0F4940DB0FC94010B500F114
:102630009C04002301221146204609F00DF80121D7
:10264000204609F0C1F810BD70B50446058AA0F80F
:102650009050A5F580739BB2012B27D90026342218
:10266000002104F1A40013F04BFC4FF48273C4F872
:10267000A4304FF47063C4F8AC30C4F8B0600123E8
:10268000C4F8B4304FF40073C4F8B8301823C4F859
:10269000BC300A23C4F8CC3015F4807F08D1204622
:1026A000FFF718FE012384F83C3070BD0226D6E700
:1026B0002046FFF7BBFFF2E782B010B58AB0844630
:1026C00002A880E806000D93002305930693079364
:1026D0009DF84030B3B1DDED0E7A9DED0F7A77EEC7
:1026E000C77A9FED117A67EE877A0D9B0893CDED3F
:1026F000097A05AB0AAA12E9030083E80300012363
:102700008DF81C30DCF8002006AB93E803008DE860
:102710000300059BD46802AA06CA6046A0470AB017
:10272000BDE8104002B070473ACD133F0023C0F817
:102730009430C0F8983090F87C3063B1002380F872
:102740007C3090F8883053B1002380F88830002323
:10275000C0F8A4307047002380F87C30F1E70023F4
:1027600080F88830F3E730B589B00C460025059530
:102770000695079503681B6905A99847DDED060ACC
:102780009DED050A01A800F0F7FE049B2360039B62
:102790006360029BA360284609B030BDF0B52DED03
:1027A0000A8B93B0044690F87C00002800F04B811F
:1027B0000D46164694F88830002B00F045810AAB90
:1027C00004F1580292E8030083E8030094ED19AA8B
:1027D000D4ED1BAAD4ED1E8A07AF002307930893FC
:1027E000099305AB04F1800292E8030083E803003B
:1027F000636F626C9B1A07EE903AF8EEE77A9FEDF2
:10280000947A87EE878A28EE2A8A38EE0A8AB0EE12
:10281000480A09F0B7FAB0EE409AB0EE480A09F05B
:102820006BFADDED056A26EE897ADDED067A27EE94
:10283000806A37EE067A67EE897A66EE806A77EE0E
:10284000E67A8DED0C7ACDED0D7A0CAB93E80300B2
:1028500087E8030001238DF82430D4ED056A94ED58
:10286000236A37EE467A26EE877A36EE076A84EDDB
:10287000236A94ED247A77EEC77A66EEA76A37EE7C
:10288000267A84ED247ADFED739A68EEA99AF7EE42
:10289000007A87EEA9BA94F84830002B5DD19DEDFF
:1028A0000A9A29EE0B9ADDED0B7A27EE8BBAD4ED5E
:1028B000117AF8EEE77A67EEAA7ADFED656A87EEBD
:1028C000A67A37EE0AAAB0EE4A0A09F05BFAB0EE31
:1028D000408AB0EE4A0A09F00FFA69EE087A2BEE48
:1028E000007A77EEC77A2BEE088A29EE000A38EED6
:1028F000000A27EEA97A84ED277A60EE299AC4EDC2
:10290000289ACDED0E7A8DED0F0A2B7A002B00F070
:102910009280C5ED007A85ED010A05AB07AA92E821
:10292000030083E80300DDED057A67EE897A9DED0B
:10293000067A27EE0B7A77EE877ACDED107A0123AF
:102940008DF8443012AB13E9030086E8030067EE0C
:10295000A87AC4ED297A002076E001AB04F10802E0
:1029600092E8030083E8030003ABD7E9000183E8A2
:10297000030005AB04F14C0292E8030083E8030076
:102980009DED058ADDED037A38EE678A9DED06CA76
:10299000DDED047A3CEE67CAD4ED25BA9DED0A9AC6
:1029A00039EE2B9A9DED017A67EE087A39EE279A77
:1029B00029EE0B9AD4ED26CADDED0B7A77EEAC7AD0
:1029C00027EE0C7A77EE877A27EE8BBA29EE090A82
:1029D0006BEE0B7A30EE270A11F036F89FED1E7A77
:1029E000C7EE007AB7EE007AF4EEC77AF1EE10FA8D
:1029F00012D4DDED027A9FED197A67EE877A27EE21
:102A0000888A7BEE88BAC4ED25BA67EE8C7A7CEEB4
:102A1000A7CAC4ED26CA4AE729EE279A2BEE27BAA1
:102A2000DFED0F7A6BEEA7BAC4ED25BA6CEEA77A8C
:102A3000C4ED267A3BE70EAB93E8030085E803007C
:102A400001232B7269E7012013B0BDEC0A8BF0BDA6
:102A5000A037204DABAA2A3FAC5C313F3936543801
:102A6000A4707D3F08B50346087A022809D00128E2
:102A700019D020BB03C983E8030001221A7218464B
:102A800008BD0A6862B1116839B9043292E80300DE
:102A900083E8030001221A72F1E700221A72EEE7BE
:102AA00000221A72EBE70A6832B192E8030083E869
:102AB000030001221A72E2E700221A72DFE7FF2800
:102AC00014BF00200120FFF77FFB0346027A32B1DA
:102AD000087A20B10A681A604A685A607047087A12
:102AE00028B103C983E8030001221A72704712B1AA
:102AF00000221A72704700221A72704782B000B525
:102B000083B08446684680E806000DF1100E4EF84A
:102B1000043F0CF1780303C883E8050071460CF10B
:102B20008000FFF7D2FF002003B05DF804EB02B095
:102B300070470346027A32B1087A20B10A681A60F7
:102B40004A685A607047087A28B103C983E80300CD
:102B500001221A72704712B100221A7270470022C5
:102B60001A72704730B589B00446037E80F8483049
:102B700000F11C0102A8FFF775FF02A904F14C0047
:102B8000FFF7D7FF04F1280105A8FFF76BFF05A9A0
:102B900004F15800FFF7CDFF6D4604F134012846DB
:102BA000FFF71EFB04F1640395E8030083E80300CC
:102BB00004F13C012846FFF713FB6C3495E8030051
:102BC00084E8030009B030BDA0F10400FFF7CABFDC
:102BD00008B50B4B1B68196840F64D024A6319682B
:102BE0008A631968CA631B6841F299021A64022059
:102BF00006F07FFEFEF774FEFEF79AFE08BD00BFEA
:102C00002843002007EE900AF8EE677A9FED037ADA
:102C100067EE877A024BC3ED007A70476740533CFA
:102C200014000020002202700721416013498160D6
:102C30004FF0804CC0F80CC04FF0000CC0F810C032
:102C4000C0F814C0DFF844C0C0F818C0C1614FF02C
:102C5000824101620A494162DFF834C0C0F828C0ED
:102C6000DFF830C0C0F82CC00163064941634FF063
:102C7000FF4181630449C163026470470000204141
:102C80000000F042000080FFCDCC4C3E0AD7233D2F
:102C900000007A440000C8421B4A02601B4A0260DE
:102CA0001B4A42601B4A02602032426000220274CA
:102CB0004FF07E51416102760021C161016280F8CE
:102CC00024208162C16280F83020416380F838207E
:102CD000C16380F8402080F8482080F8542080F8B4
:102CE000602080F8682080F8702080F87C2080F8D0
:102CF0008820C0F89410C0F89810C0F89C10C0F854
:102D0000A010C0F8A4107047F0BD0108A8BD0108CC
:102D1000F4BC0108C4BD010882B00346D0ED0D7AB1
:102D2000D0ED076A67EEA67A90ED086A86EE267AFD
:102D300027EE877ACDED007A8DED017A90F89C2010
:102D40002AB1C0ED257A80ED267A02B0704700F1F5
:102D5000940202A911E9030082E80300012283F82A
:102D60009C20F2E708B5C064027B80F86220FFF780
:102D7000D3FF012008BD000070B586B00446016095
:102D8000027180ED020A0C30FFF74CFF0026266529
:102D900000220023C4E9162384F8606084F861608F
:102DA00084F8626084F8636084F870600025656769
:102DB000A567E567C4F88050C4F88450C4F888500B
:102DC00004F18C00FFF768FF1B4BC4F83431C4F8E2
:102DD0003851C4F83C51C4F8405184F84461C4F8F7
:102DE000485184F84C61C4F85051029503956B46E4
:102DF00002AA92E8030083E803000222C4F85421E7
:102E000004F5AC7693E8030086E803000495059585
:102E100006A911E9030083E80300C4F8602104F562
:102E2000B27293E8030082E803002046FFF79AFF9E
:102E3000204606B070BD00BF00002041D0ED027AF0
:102E40009FED097A67EE877A9FED087A80ED227A06
:102E500067EE877AC0ED4E7A9FED057A67EE877A46
:102E6000C0ED4F7A012070471F859B3FCDCC4C3D74
:102E7000CDCCCC3DA2F5BA7C40F617539C4502D987
:102E8000002303717047A2F5006307EE903AF8EE55
:102E9000E77A9FED087A67EE877A91ED227A27EE3E
:102EA000277AD1ED027A67EE877AC0ED007A0123A6
:102EB000037170473333533A84B082B00DF10C0C78
:102EC0008CE80E009DF81830002B44D0D0ED127A1B
:102ED000DFED246A86EEA77A8DED007AF7EE007AB0
:102EE000CDED017AB4EEE77AF1EE10FA31DC6B4603
:102EF000D3ED006A90ED1D7ADDED037A77EEC77AA7
:102F000067EEA67A37EE277A80ED1D7A90ED1E7A6D
:102F1000DDED047A77EEC77A67EEA67A37EE277A88
:102F200080ED1E7A90ED1F7ADDED057A77EEC77A97
:102F300067EEA67A37EE277A80ED1F7AD0ED207AF9
:102F40009FED087A77EE877AC0ED207A02B004B060
:102F5000704701ABCCE7002343678367C367C0F8C2
:102F60008030F3E73936543884B030B595B0044634
:102F700019A880E80E0094ED207AD4ED127AF1EED3
:102F80000E6A67EEA67AB4EEE77AF1EE10FA1EDB6F
:102F9000D4ED1D7AF0EEE77A94ED4F7AB4EEE77A4D
:102FA000F1EE10FA52DDD4ED1E7AF0EEE77AB4EECF
:102FB000E77AF1EE10FA4BDDD4ED1F7AF0EEE77A06
:102FC000B4EEE77AF1EE10FA44DD012200E00022CF
:102FD00094F86130013BDBB2012B3DD99DF8703094
:102FE0000BB1002A47D194F87030002B61D0002338
:102FF00084F8703094F870301BB3616EA26EE36E8B
:10300000D4F86C41ECB1206845682C4800680B90FE
:103010004FF0010C8DF830C01191129213930DAB4B
:1030200014AA12E9070083E807008DF840C00EAB30
:1030300093E807008DE807000D9B0BAA06CA2046FF
:10304000A84715B0BDE8304004B070470022BFE784
:103050000022BDE70022BBE70023059306930793F8
:1030600005A904F16400FEF77BFC94F8613001339C
:1030700084F86130BEE794ED1D7ADDED197A77EEC4
:10308000C77ACDED087A94ED1E7ADDED1A7A77EEE7
:10309000C77ACDED097A94ED1F7ADDED1B7A77EED4
:1030A000C77ACDED0A7A08A904F16400FEF758FC4E
:1030B000A0E7002384F870309CE700BF14000020D4
:1030C00010B52DED028B98B0044600F5A07108A84C
:1030D000FFF786F89DF82430002B00F0A48094EDD3
:1030E000547ADDED087A27EE277AD4F86031012B87
:1030F00000F09D8000238DF8303000230D930E9357
:103100009DF83030002B00F09D800AAB93E803005F
:1031100018AB03E9030014AB18AA12E9030083E813
:10312000030006AA82E803004F4BDB6893ED4D0ACB
:10313000DFED4E7A60EE677ACDED0F7AF1EE676AD9
:10314000CDED106A9DED066AF4EEC67AF1EE10FA46
:103150007FDC1346D3ED007AF4EEE67AF1EE10FA56
:1031600079DCD3ED007ACDED067A236DDB68D3ED03
:10317000096A87EE268A8DED078A20EE000A67EE3F
:10318000A77A30EE670AB5EEC00AF1EE10FA64D8FD
:103190009FED370A8DED050AF1EE407ACDED117AFB
:1031A000B4EEE78AF1EE10FA5AD407ABD3ED007A09
:1031B000B4EEE70AF1EE10FA54D41B68079304F555
:1031C000A47103A8FFF70CF894ED077ADDED037AFC
:1031D00067EE877ADDED076A27EEA67ADFED245ADF
:1031E00035EEC77A9DED066A67EE867A77EEA57AA8
:1031F000D4ED085A26EE256A37EE067A66EEA56A01
:1032000077EEA67A8DED127ACDED137A01AB12AA84
:1032100092E8030083E8030084ED567AC4ED577A00
:103220000023C4F8543118B0BDEC028B10BD0AABBA
:1032300004F5B27292E8030083E8030001238DF8DD
:1032400030305AE70DAB93E8030018AB03E90300F5
:1032500061E70FAB7EE710AB83E710F0F5FB99E772
:1032600011ABA3E705ABA8E774090020A4707D3F6C
:103270000000000010B52DED028BA8B00446036AD3
:10328000012B00F0188100238DF8203000230993D2
:103290000A939DF82030002B00F0188106AB93E8CC
:1032A000030028AB03E9030024AB28AA12E90300BA
:1032B00083E8030004AA82E80300E36A012B00F01C
:1032C0000C8100238DF8343000230E930F939DF86A
:1032D0003430002B00F00C8122AB0BAA92E80300E3
:1032E00083E8030020AB22AA92E8030083E80300EE
:1032F00002AA82E80300A36B012B00F000810023E7
:103300008DF844309DF84430002B00F0FE809DED98
:10331000108A236C012B00F0FB8000238DF84C30C9
:103320009DF84C30002B00F0F980DDED128A00F0A2
:103330003DFA0346854A1060854A1268821A07EEF4
:10334000902AB8EE677ADFED836AC7EE267AFCEE44
:10335000E77A814AC2ED007A04F114029DED047A05
:10336000D4ED016AF8EE677A66EEA76A37EE666A10
:103370008DED166A37EE267A8DED177AD4ED056A53
:10338000B4EEE66AF1EE10FA00F3CB80D2ED006AFB
:10339000B4EEE67AF1EE10FA00F1C580D2F800C082
:1033A000CDF850C000221592EE4614A903C98EE84C
:1033B0000300C4F824C0A2620022226204F11802B1
:1033C0009DED027AD4ED026A67EEA66A37EE666A70
:1033D0008DED1A6A37EE267A8DED1B7AD4ED066AEA
:1033E000B4EEE66AF1EE10FA00F39F80D2ED006AC7
:1033F000B4EEE67AF1EE10FA00F19980D2F800C04E
:10340000CDF860C000221992EE4618A903C98EE8D3
:103410000300C4F830C062630022E26204F11002CB
:1034200094ED037A27EE877A78EEC76ACDED1C6AB1
:1034300037EE287A8DED1D7A94ED046AF4EEC66AB3
:10344000F1EE10FA75DCD2ED006AB4EEE67AF1EE38
:1034500010FA70D492ED007A84ED117A0022226481
:1034600067EE877A37EE887A9FED3C6AC7EE066A88
:10347000FDEE666AF8EEE66A66EE866A37EE667A12
:1034800084ED0F7AA263A26C012A56D000228DF837
:103490007C209DF87C20002A55D09DED1E7A77EE89
:1034A000877AC4ED137A0022A264294A136028B0F7
:1034B000BDEC028B10BD06AB00F1240292E80300C4
:1034C00083E8030001238DF82030DFE609AB93E8A1
:1034D000030028AB03E90300E6E60BAB04F130027E
:1034E00092E8030083E8030001238DF83430EBE613
:1034F00022AB0EAA92E8030083E80300F2E6E36B36
:10350000109301238DF84430FCE694ED078A00E720
:10351000636C129301238DF84C3001E7DFED108AC4
:1035200005E716AA32E717AA38E71AAA5EE71BAA28
:1035300064E71CAA87E71DAA8CE7E26C1E920122B1
:103540008DF87C20A5E79FED067AA8E79C46002031
:1035500098460020A037204D94460020DB0FC9403C
:103560000000000090FBF1F301FB1300002800DBDA
:1035700070470844FCE70000F5EEC00AF1EE10FACF
:1035800046DBB5EEC00AF1EE10FA1DDBDFED757A11
:1035900060EEA77AF4EEC07AF1EE10FA7DDC30EE40
:1035A000670ADFED716A60EEA66AF7EE007A77EEE1
:1035B000C07A77EEE67AB6EE007A67EE877A37EE73
:1035C000807A77EE266A7EE0DFED687A60EEA77A91
:1035D000F4EEC07AF1EE10FA5FDDDFED636A60EEC3
:1035E000A66AB1EE400ADFED5F7A60EEA77A70EE70
:1035F000677AB7EE007A37EE667A37EE677AB6EE1C
:10360000006A27EE067A77EE266A76EEA77A5AE007
:10361000B5EEC00AF1EE10FA21DBDFED547A60EE70
:10362000A77AF4EEC07AF1EE10FA5ADC9FED507AE8
:1036300020EE877ADFED4B7A60EEA70A30EE800A43
:10364000F7EE007A77EEC77A77EEC07AF6EE006A88
:1036500067EEA67A77EE806A36EE877A33E0DFEDA2
:10366000417A60EEA77AF4EEC07AF1EE10FA38DD16
:1036700077EEC07A9FED3E7A60EE870AF7EE006A39
:1036800076EEE76A76EEE06AB6EE007A66EE876A74
:1036900036EEA07A77EE277A15E0DFED327A60EE2B
:1036A000A70A70EE806A30EEC00AB7EE007A37EEF5
:1036B000667A37EE407AF6EE007A27EE277A77EED2
:1036C000007A77EEA66AF5EEC07AF1EE10FA39DBF1
:1036D000B7EE006AF4EEC67AF1EE10FA1AD90023BA
:1036E00031E0F1EE407A9FED1F7A60EE870A77EEC7
:1036F000E07A30EE600AF7EE006A76EEE76A76EE80
:10370000C06AB6EE007A66EE876A76EEA77A37EE82
:10371000807AD8E7B5EEC07AF1EE10FA1BDBB4EE92
:10372000C67AF1EE10FA01D900230CE0F5EEC06A7A
:10373000F1EE10FA11DBF4EEC66AF1EE10FA0ED9D2
:10374000002300E000230370C0ED016A80ED027ADF
:10375000C0ED037A70470023F5E70023F3E7012368
:10376000F1E700BF3ACD133F3ACD933F3ACD13BFB7
:103770003ACD93BF10B5032000F0C0FE0F20FEF736
:1037800089FA10B10124204610BD0446FEF760FA04
:10379000F9E70000034A1368034909680B44136002
:1037A000704700BFA046002018000020014B186899
:1037B000704700BFA046002030B583B000230193BE
:1037C000002800F02B810446C36D13B323689A6868
:1037D00012F0005F05D09A6822F0204222F03F02EA
:1037E0009A602268936813F0805F1FD1936823F07A
:1037F000104323F03F0343F080539360884B1B68D2
:103800009B09884AA2FB03239B0901335B000193B8
:1038100009E0FDF7C7FE0023236684F85830D5E79A
:10382000019B013B0193019B002BF9D12268936816
:1038300013F0805F3DD1E36D43F01003E365236E29
:1038400043F0010323660120936813F0040300D0C2
:103850000123E16D11F0100F40F0D980002B40F0F2
:10386000D680E36D23F4817343F00203E36593682C
:1038700013F0010F3ED1B2F1A04F1CD06A4B9A4217
:1038800019D06A4B996811F0010100D00121684BF1
:103890009B6813F0010300D001230B43654989683D
:1038A00011F0010100D001210B430CBF01230023C3
:1038B00012E00020C8E74FF0A043996811F0010121
:1038C00000D00121584B9B6813F0010300D0012365
:1038D0000B430CBF0123002363B1B2F1A04F69D0A9
:1038E000514B9A4264D0544963688A6822F47C122E
:1038F00013438B60627FE36B43EA4233E268134316
:10390000A268134394F8242043EA0243012A53D0C7
:10391000E26A22B102F47872216B0A4313432168F0
:10392000CD68464A2A401A43CA602268136923F0C8
:103930004063616B0B4313612268936813F00803C3
:1039400000D001232BBB237F94F83810490041EAB3
:103950008331D36823F4804323F002030B43D36005
:10396000236973B32268136943F4803313612268B7
:10397000D2F8C0306FF30D0321690B43C2F8C03099
:1039800094F84030012B29D02268136923F00103F9
:1039900013616369012B31D02268136B23F00F038D
:1039A0001363E36D23F0030343F00103E36533E0A6
:1039B000234999E7224997E7A26A013A43EA424339
:1039C000A6E72268136923F4803313612268D2F8D2
:1039D000C0306FF30D03C2F8C030D1E721680B6926
:1039E0006FF38A03626CA56C2A43E56C2A43256D4C
:1039F0002A43134343F001030B61CAE721680B6BB1
:103A000023F00F03226A013A13430B63C9E7E36D06
:103A100043F01003E365012003B030BD0120FBE754
:103A200010000020632D3E050001005000040050EE
:103A30000005005000060050000700500740F0FF4E
:103A40000003005030B583B00023019303689A68E7
:103A500012F0010F63D104469968324A114220D115
:103A60009A6822F0004222F03F0242F001029A607E
:103A70000368B3F1A04F20D02B4A93421BD02B4BAD
:103A80009B6813F4000F20D0294B1B689B09294A1F
:103A9000A2FB03239B09013303EB43039B00019328
:103AA00010E0C36D43F01003C365036E43F00103E0
:103AB0000366012034E0204BE2E71F4BE0E7019B67
:103AC000013B0193019B002BF9D1FFF76FFE0546E7
:103AD00023681A6812F0010F1FD19A6812F0010FC3
:103AE00007D19A6822F0004222F03F0242F0010220
:103AF0009A60FFF75BFE431B022BE9D923681B6822
:103B000013F0010FE4D1E36D43F01003E365236E7E
:103B100043F001032366012002E0002000E00020C2
:103B200003B030BD3F00008000010050000700508E
:103B300010000020632D3E050003005010B4143027
:103B40004B0E9B0003F00403C458C1F304514FF023
:103B5000070C0CFA01FC24EA0C0C8A404CEA020225
:103B6000C2505DF8044B704738B504460368B3F1A2
:103B7000A04F5AD0434A934254D0434A956805F027
:103B80001F059A6812F0080F77D1DA68DB6C13F41E
:103B9000C07F01D1002A4ADA94F85830012B6ED048
:103BA000012384F858302046FFF74CFF002860D1ED
:103BB000E36D13F4807F40D0236E23F00803236667
:103BC000E36D23F4405323F0010343F48053E36592
:103BD00023682C4A934236D002F5806293422FD05C
:103BE0001A46934200D01DB9E26D22F48012E265BC
:103BF00060221A60002384F858302368214A9342D7
:103C000027D002F58062934220D01A46934223D0F7
:103C100015B3062D20D0072D1ED0E36D43F480137D
:103C2000E3652BE002F50072A8E7184AA6E7E36D0A
:103C300043F02003E365012020E000232366BFE773
:103C4000A2F58072CDE74FF0A042CAE7A2F58072DC
:103C5000DCE74FF0A042D9E7DA6812F0007F0DD11F
:103C60009A6822F0004222F03F0242F008029A6075
:103C700004E0002384F8583000E0022038BD022020
:103C8000FCE700BF00010050000700500003005097
:103C9000F0B583B00023019390F85830012B00F069
:103CA000F28204460D46012380F858304369ABB1D7
:103CB0000B6A012B12D0826E002A40F0B980836615
:103CC000002343668B6A002B00F0AF800A6A013A3A
:103CD00003F07C031A43CB6A1A43AAE06B68092BF2
:103CE00000F0838023689A6812F0080F10D195F8CD
:103CF0002520002A40F0BB80DA6822F4401295F8B3
:103D0000260095F82410090541EA40510A43DA607B
:103D10002268936813F0040300D00123976817F01A
:103D2000080700D00127002B40F04081002F40F011
:103D30008081AB6A1BB1EB6A002B40F0A78095F83D
:103D40002530012B00F09C80D36823F00073D360F2
:103D5000002695F83030012B00F0A7802268136907
:103D600023F002031361AA68B2F1004F00F0A980AA
:103D700029682068FFF7E2FE2268536923F00043B8
:103D800053616A692168CB68C3F3C1035B009A4041
:103D9000D5F810C0BCF1040F00F0A180603151F8DB
:103DA0002C00A54B0340286800F0F8400243134361
:103DB00043F0004341F82C3023682869AA69603336
:103DC00053F8201021F080710A4343F82020236823
:103DD00028692A7F012A7FD0603353F8202022F0FF
:103DE00000723A4343F82020E1E0AA6ABAB12B6896
:103DF0009B0E5B0203F4785302F07C021343EA6AE1
:103E000013432168CA6C22F07B4222F46F0222F431
:103E10003F4222F0FF021A43CA64636662E72B68DE
:103E20009B0E5B0203F47853EBE70A6A013A00E069
:103E300000222B68C3F38463696801F01F018B4083
:103E40001343A16E0139A166626E134363660029B4
:103E50007FF448AF2168CA6C22F07B4222F46F02E3
:103E600022F43F4222F0FF021343CB643AE7DA68C0
:103E700022F4401295F8261042EA4152DA6047E7F0
:103E8000D36843F00073D360002662E795F825609D
:103E9000012E05D0D36823F00073D360002658E7C5
:103EA000E36D43F02003E36553E721680B6923F4D6
:103EB000FF736A6BA86B0243134343F002030B6169
:103EC00051E7002229682068FFF738FE226853690D
:103ED00043F00043536154E74FF000777CE70B6EEB
:103EE0000A6EC2F384622B68C3F3120078BBC3F37B
:103EF00084639A4233D021684B6E4A6EC2F3846267
:103F00002B68C3F3120078BBC3F384639A4233D0A7
:103F100021688B6E8A6EC2F384622B68C3F3120031
:103F200078BBC3F384639A4233D02168CB6ECA6EE8
:103F3000C2F384622B68C3F3120078BBC3F38463BB
:103F40009A4234D1CB6E23F00043CB662FE093FA34
:103F5000A3F313B1B3FA83F3CBE72023C9E70B6EC6
:103F600023F000430B66C6E793FAA3F313B1B3FA49
:103F700083F3CBE72023C9E74B6E23F000434B6666
:103F8000C6E793FAA3F313B1B3FA83F3CBE7202385
:103F9000C9E78B6E23F000438B66C6E793FAA3F361
:103FA00013B1B3FA83F3CBE72023C9E700262168D6
:103FB0008B6813F0010F15D12B68E868D1F8B02099
:103FC000C3F3120722EA070200F018071B48F84063
:103FD0000340C3F312031343C1F8B030EA68184B2F
:103FE0009A423DD02B68174A13421CD02268B2F186
:103FF000A04F00F0E78014498A4200F0E0801349A6
:10400000896801F0E070124DAB4200F0DD80114D87
:10401000AB4200F0D980104DAB4200F006810F4D4D
:10402000AB4200F01981002384F85830304603B0C9
:10403000F0BD0026BBE700BF00F0FF03FFFF070055
:1040400000007F4000000880000100500007005081
:10405000000021C31000C090000052C7000084CBB4
:1040600020682B68C3F312073FBB9A0E013202F09F
:104070001F02092A8CBF00220122002A55D05FBBF3
:10408000990E0131890601F0F8418FBB4FEA936C1C
:104090000CF1010C0CF01F0C012202FA0CF211437E
:1040A000AFBB9B0E013303F01F0303EB43031B0560
:1040B0001943AA68FFF742FD94E793FAA3F24AB1C5
:1040C000B2FA82F2013202F01F02092A8CBF0022EA
:1040D0000122D2E72022F5E793FAA3F131B1B1FA38
:1040E00081F10131890601F0F841CEE72021F8E79E
:1040F00093FAA3F24AB1B2FA82F2013202F01F023D
:104100004FF0010C0CFA02F2C9E72022F5E793FA0E
:10411000A3F343B1B3FA83F3013303F01F0303EBBB
:1041200043031B05C4E72023F6E7E7B9990E0131E5
:10413000890601F0F84117BB4FEA936C0CF1010CB2
:104140000CF01F0C012202FA0CF2114337BB9B0E3C
:10415000013303F01F0303EB43031E3B1B0543F036
:1041600000731943A5E793FAA3F131B1B1FA81F1D4
:104170000131890601F0F841DDE72021F8E793FAE3
:10418000A3F24AB1B2FA82F2013202F01F024FF0FA
:10419000010C0CFA02F2D8E72022F5E793FAA3F318
:1041A0005BB1B3FA83F3013303F01F0303EB430363
:1041B0001E3B1B0543F00073D3E72023F3E701F513
:1041C00000711DE731491BE711F4000F7FF423AFA5
:1041D000B2F1A04F03D02E4B9A427FF424AFB2F13C
:1041E000A04F19D02B4B9A4214D02B4A40F4000018
:1041F000936823F0E07318439060284B1B689B0979
:10420000274AA2FB03239B0903EB43039B001833BC
:10421000019306E01D4AE9E71C4AE7E7019B013BE1
:104220000193019B002BF9D1FDE611F0807F7FF413
:10423000F6AEB2F1A04F0DD0164B9A4208D0164AF6
:1042400040F08070936823F0E07318439060EAE6D2
:104250000E4AF5E70D4AF3E711F4800F7FF4E3AE61
:104260000C4B9A423FF4DFAEB2F1A04F08D00A4A9D
:1042700040F48000936823F0E07318439060D2E626
:1042800002F54072F4E70226D0E600BF00030050BA
:1042900000060050000100500007005010000020F0
:1042A000632D3E0590F85820012A00F0D68010B406
:1042B0009DB00346012280F85820002218921992DE
:1042C0000068B0F1A04F47D0654A904247D0002225
:1042D0000192019A002A46D0926812F0040200D09E
:1042E0000122846814F0040F40F0A780002A40F0F7
:1042F000A480B0F1A04F42D05A4A90423CD05A4AD2
:10430000086800285CD0906820F460404C6893F8FE
:1043100038C044EA4C34204390601868B0F1A04F94
:104320002FD0504CA0422CD04D48846814F001048A
:1043300000D001244D48806810F0010000D0012019
:1043400020434B4CA46814F0010400D00124204306
:104350000CBF0120002025E0424A0192B9E702F596
:1043600080720192B5E7DA6D42F02002DA65002230
:1043700083F85820012068E002F50072C0E73D4A4A
:10438000BEE74FF0A040846814F0010400D001247F
:104390003448806810F0010000D0012020430CBF99
:1043A00001200020002854D0906820F4716020F093
:1043B0000F000C688968214308439060002041E0A9
:1043C000916821F4604191601968B1F1A04F1AD051
:1043D0002448814217D02249886810F0010000D09B
:1043E00001202249896811F0010100D00121014317
:1043F0001F48806810F0010000D0012001430CBF6D
:104400000121002110E04FF0A041886810F0010068
:1044100000D001201349896811F0010100D0012169
:1044200001430CBF01210021A9B1916821F4716100
:1044300021F00F019160002004E0DA6D42F02002CB
:10444000DA650120002283F858201DB05DF8044B86
:1044500070470020F6E70020F4E70220704700BF15
:1044600000040050000100500007005000050050FB
:104470000006005000030050002807DB00F01F0278
:10448000400901239340024A42F82030704700BFA0
:1044900000E100E0002808DB0901C9B200F160403A
:1044A00000F5614080F80013704700F00F0009012B
:1044B000C9B2014B1954704714ED00E000B500F08B
:1044C0000700C0F1070CBCF1040F28BF4FF0040C2B
:1044D000031D062B0FD9C31E4FF0FF3E0EFA0CF042
:1044E00021EA000199400EFA03FE22EA0E0241EA97
:1044F00002005DF804FB0023EEE70000074AD368E2
:1045000023F4E0631B041B0C000200F4E06003438F
:1045100043F0BF6343F40033D360704700ED00E025
:1045200010B50446054BD868C0F30220FFF7C6FF5C
:1045300001462046FFF7AEFF10BD00BF00ED00E0D2
:1045400008B5FFF799FF08BDF0B583B0002362E01E
:1045500085685E000324B44025EA0405CC68B440B5
:104560002C438460456825EA0C054C68C4F30014AC
:104570009C402C4344605FE0DD08083550F825403E
:1045800003F0070C4FEA8C0C4FF00F0E0EFA0CFEE6
:1045900024EA0E0E0C6904FA0CF444EA0E0440F806
:1045A000254060E0052400E0002404FA0EF42C43CA
:1045B0000CF1020C554D45F82C40554CA568D443E0
:1045C00025EA02064F6817F4801F01D042EA05066B
:1045D0004F4DAE60ED6804EA05064F6817F4001F02
:1045E00001D042EA05064A4DEE606D6804EA050610
:1045F0004F6817F4003F01D042EA0506444D6E6053
:104600002D682C404E6816F4803F01D042EA050424
:104610003F4A146001330A6832FA03F474D04FF051
:10462000010C0CFA03FC1CEA0202F3D04C6804F003
:104630000304013C012C8BD94C6804F00304032CC7
:104640000CD0C4685D004FF0030C0CFA05FC24EAA2
:104650000C0C8C68AC4044EA0C04C4604C6804F058
:104660000304022C88D004684FEA430E4FF0030C79
:104670000CFA0EFC24EA0C0C4C6804F0030404FA57
:104680000EF444EA0C0404604C6814F4403FC1D0BA
:10469000204C256E45F001052566246E04F00104CA
:1046A0000194019C4FEA930C0CF10205174C54F84D
:1046B000255003F0030E4FEA8E0E0F2404FA0EF479
:1046C00025EA0405B0F1904F3FF46EAF124CA042C2
:1046D00012D004F58064A04210D004F58064A0429A
:1046E0000ED004F58064A0420CD004F58064A04292
:1046F0003FF458AF062458E7012456E7022454E754
:10470000032452E7042450E703B0F0BD0000014049
:104710000004014000100240000400480AB1816119
:10472000704781627047436901EA030221EA03018D
:1047300041EA02418161704738B512F4804F43D09D
:104740000468B4F8503091F800C04FEACC0E1EFA5D
:1047500083F32344B3F80244C4F309048B69A342EE
:1047600028D31B1B8B618B697BB9056835F82C300E
:104770009BB223F4804323F0700383F4005343F48B
:10478000004343F0800325F82C3012F0400F0ED088
:1047900002680D7832F825309BB223F4E04323F011
:1047A000700343F4004343F0C00322F8253024B9DA
:1047B000204638BD00238B61D5E723460A89496925
:1047C000006804F014F9F3E70468B4F8503091F885
:1047D00000C04FEACC0E1EFA83F32344B3F806441C
:1047E000C4F309048B69A3422FD31B1B8B618B6914
:1047F0007BB9056835F82C309BB223F4804323F055
:10480000700383F4005343F4004343F0800325F81E
:104810002C3012F0400F0FD1026891F800C032F82E
:104820002C309BB223F4E04323F0700343F40043A5
:1048300043F0C00322F82C30002CB9D023464A891B
:104840004969006804F0D3F8B2E700238B61CEE732
:10485000002856D010B5044690F891323BB103239E
:1048600084F89132206803F053F9002315E080F8B2
:10487000903207F0E9F8F2E703EB830204EBC2029F
:104880000121517413740021D174116251620133FA
:1048900003EB8302D200A150DBB220799842EBD81F
:1048A000002316E003EB830204EBC202002182F82E
:1048B000511182F8503182F85311C2F86011C2F8D8
:1048C000641103EB830204EBC202C2F868110133E6
:1048D000DBB29842E6D8234653F8040B93E806006F
:1048E00003F020F900232373012384F89132A37A83
:1048F000012B01D0002010BD204600F002FF002057
:10490000F9E70120704790F89032012B0ED010B5D6
:104910000446012380F89032006803F0F0F8206824
:1049200003F05DFC002084F8900210BD0220704767
:1049300070B505460C46164612F0400F00F00A818D
:104940000268B2F850300978C80010FA83F31344B3
:10495000B3F80224C2F30902A36993424DD99B1A0A
:10496000A361A369002B64D16378002B48D12A6826
:10497000B2F8503012FA83F30344B3F80224C2F3BE
:104980000902A3F80224B3F802246FEA42426FEA54
:10499000524292B2A3F802242A686378002B3BD1DA
:1049A000B2F8503012FA83F3227803EBC203B3F863
:1049B0000624C2F30902A3F80624B3F806246FEA1A
:1049C00042426FEA524292B2A3F806242178284666
:1049D00007F07EF816F4804F40D02A68217832F82C
:1049E00021309BB223F4E04323F0700343F44043AF
:1049F00043F0800322F8213030E00023A361B0E7C8
:104A0000012BC9D12A68B2F8503012FA83F303445B
:104A10000022A3F80224BFE7012BD7D1B2F850300F
:104A200012FA83F3227803EBC2030022A3F80624D0
:104A3000CCE716F4804F0DD0286830F821309BB2B7
:104A400023F4E04323F0700343F4404343F0800336
:104A500020F8213094F82430012B12D02A682178D4
:104A600032F821309BB223F4E04323F0400383F07B
:104A7000300343F4004343F0800322F82130002048
:104A800070BD636913446361E3691344E361216AA0
:104A90002369994224D3C91A21626278002A44D139
:104AA0002968B1F8502011FA82F2217802EBC10294
:104AB000B2F80214C1F30901A2F802143E2B1BD96B
:104AC000580913F01F0F00D10138B2F8021489B24F
:104AD000800280B2014341F40041A2F8021426E0B2
:104AE00021B9002384F824301346D6E7002384F844
:104AF000243023620B46D0E74BB9B2F802146FEAB8
:104B000041416FEA514189B2A2F802140FE05908FD
:104B100013F0010F00D00131B2F8020480B2890213
:104B200089B20143A2F8021401E0012A06D09BB227
:104B300022896169286803F061FB8FE72968B1F871
:104B4000502011FA82F2217802EBC10299B2A2F848
:104B50000214ECE70268B2F850300978C80010FA85
:104B600083F31344B3F80624C2F30902A369934202
:104B70004ED39B1AA361A369002B65D16378002BE8
:104B800049D12A68B2F8503012FA83F30344B3F8DB
:104B90000224C2F30902A3F80224B3F802246FEA44
:104BA00042426FEA524292B2A3F802242A68637822
:104BB000002B3CD1B2F8503012FA83F3227803EB89
:104BC000C203B3F80624C2F30902A3F80624B3F81B
:104BD00006246FEA42426FEA524292B2A3F80624D8
:104BE0002178284606F074FF16F4804F7FF436AF24
:104BF0002A68217832F821309BB223F4E04323F075
:104C0000700343F4404343F0800322F8213025E74A
:104C10000023A361AFE7012BC8D12A68B2F8503056
:104C200012FA83F303440022A3F80224BEE7012B07
:104C3000D6D1B2F8503012FA83F3227803EBC203D4
:104C40000022A3F80624CBE716F4804F0DD1286884
:104C500030F821309BB223F4E04323F0700343F497
:104C6000404343F0800320F8213094F82430012B96
:104C70007FF4F4AE636913446361E3691344E36151
:104C8000216A2369994224D3C91A2162296862786A
:104C9000002A43D1B1F8502011FA82F2217802EBB8
:104CA000C102B2F80614C1F30901A2F806143E2BA2
:104CB0001BD9580913F01F0F00D10138B2F80614A0
:104CC00089B2800280B2014341F40041A2F8061487
:104CD00026E021B9002384F824301346D6E70023C8
:104CE000236284F824300B46D0E74BB9B2F806149F
:104CF0006FEA41416FEA514189B2A2F806140FE010
:104D0000590813F0010F00D00131B2F8060480B247
:104D1000890289B20143A2F8061401E0012A06D0F3
:104D20009BB262896169286803F068FA96E6B1F877
:104D3000502011FA82F2217802EBC10299B2A2F856
:104D40000614EDE72DE9F04105462868B0F8443037
:104D500013F4004F00F08E82B0F84440A3B214F078
:104D60000F0440F0D88013F0100F69D003889AB276
:104D700013F4006F40F0958012F4004FE5D00388E3
:104D800023F070031B051B0D43F08003038028688C
:104D9000B0F8503095F85021D20012FA83F3034452
:104DA000B3F80634C3F30903C5F86C318BB1D5F8F9
:104DB000641171B1B5F8562103F019FED5F86431CC
:104DC000D5F86C211344C5F864310021284606F05B
:104DD00073FE2A68138899B213F4006FB5D101F4F9
:104DE0004051B1F5405FB0D0B2F8503012FA83F3C1
:104DF000B3F80624C2F30902A3F80624D5F860210B
:104E00003E2A6FD9510912F01F0F00D10139B3F8B2
:104E1000062492B2890289B20A4342F40042A3F8FE
:104E200006242A6813889BB223F4804323F070037E
:104E300083F4405343F4004343F08003138084E73A
:104E400003889BB223F4E14323F070036FEA4343EA
:104E50006FEA53439BB203802968B1F850302A7C33
:104E6000D20012FA83F30B44B3F80234C3F30903FC
:104E7000EB626A6A1A446A620021284606F028FE3C
:104E80002B7B002B3FF461AFAB6A002B7FF45DAF4F
:104E90002B7B2A6843F08003A2F84C3000232B734D
:104EA00053E7B0F8503095F85021D20012FA83F34E
:104EB0000344B3F80634C3F30903C5F86C31B5F8FD
:104EC000562105F5267103F092FD2A68138823F018
:104ED00070031B051B0D43F080031380284606F06A
:104EE000E3FD32E74AB9B3F806246FEA42426FEABB
:104EF000524292B2A3F8062493E7510812F0010F30
:104F000000D00131B3F8062490B28A0292B2024373
:104F1000A3F8062485E730F824309EB213F4004F3E
:104F20004ED116F0800F3FF410AF04EB8401C9009E
:104F3000103129442A6832F824309BB223F4E1432B
:104F400023F070036FEA43436FEA53439BB222F8A6
:104F5000243004EB840305EBC303DB7C012B00F05E
:104F6000E98016F4807F40F080812868B0F85030E6
:104F700004EB840205EBC202167CF20012FA83F302
:104F80000344B3F80234C3F30903621C02EB820248
:104F900055F832209A4240F24B81671C07EB870795
:104FA000D21A45F83720621C02EB820255F83220F3
:104FB000002A40F044813146284606F089FDC4E6C7
:104FC00030F8243023F070031B051B0D43F08003E1
:104FD00020F8243004EB8401C90001F5A87105EB29
:104FE000010804EB840305EBC30393F85C31002B49
:104FF00040D12868B0F8503004EB840205EBC202BF
:1050000092F85021D20012FA83F30344B3F80674E5
:10501000C7F3090717BB04EB840305EBC303D3F8FD
:105020006C213A44C3F86C21D3F864213A44C3F8A4
:105030006421D3F868313BB104EB840305EBC3036F
:10504000D3F860319F4270D204EB840305EBC303B5
:1050500093F85011284606F02FFD62E704EB840117
:1050600005EBC1013B46B1F85621D1F8641103F0BC
:10507000BEFCD0E704EB840305EBC30393F8533184
:10508000022B33D0296804EB840205EBC20292F8AC
:10509000500131F820309BB223F4E04323F0700339
:1050A00043F4004343F0C00321F82030286892F80D
:1050B000503130F8232012F4804F1ED0B0F8502029
:1050C000DB0013FA82F30344B3F80274C7F3090751
:1050D000002FA0D004EB840105EBC1013B46B1F8E1
:1050E0005821D1F8641103F082FC94E7324641461E
:1050F0002846FFF721FB07468DE7B0F85020DB007C
:1051000013FA82F30344B3F80674C7F30907002FB8
:1051100081D004EB840105EBC1013B46B1F85A2173
:10512000D1F8641103F063FC75E74146286803F089
:1051300077F8F6E6631C03EB8303DB000022EA50FA
:1051400004EB840305EBC3031B7F1BB316F0400F76
:105150003BD004EB840305EBC3035B7C1BBB2A68D9
:10516000B2F8503012FA83F304EB840205EBC2026A
:10517000127C03EBC203B3F80224C2F30902A3F8C2
:105180000224B3F802246FEA42426FEA524292B21A
:10519000A3F8022404EB840405EBC404217C284614
:1051A00006F096FCD1E5012BF4D12A68B2F8503014
:1051B00012FA83F304EB840205EBC202127C03EBC8
:1051C000C2030022A3F80224E4E72A6804EB840364
:1051D00005EBC3035B7CD3B9B2F8503012FA83F30A
:1051E00004EB840205EBC202127C03EBC203B3F8AA
:1051F0000624C2F30902A3F80624B3F806246FEAD2
:1052000042426FEA524292B2A3F80624C2E7012B4F
:10521000C0D1B2F8503012FA83F304EB840205EBEC
:10522000C202127C03EBC2030022A3F80624B1E7FA
:10523000621C02EB8202D2000027AF50B3E604EBFF
:10524000840205EBC202566A1E445662013404EB26
:10525000840205EBC202526804EB840405EBC4042B
:105260001344636002F0DCFF6FE532462846FFF727
:105270005FFB6AE50020BDE8F08190F89032012BD9
:105280000CD010B50446012380F8903201730068F9
:1052900002F09FFF002084F8900210BD02207047AA
:1052A00010B50446006802F0A5FF10F4004F23D1AA
:1052B00010F4806F24D110F4804F32D110F4005FCD
:1052C00039D110F4805F40D110F4006F67D110F035
:1052D000800F40F0818010F4007F40F0AD8010F42A
:1052E000807F27D02268B2F844309BB223F48073C9
:1052F0009BB2A2F844301DE02046FFF723FD19E0E1
:105300002268B2F844309BB223F480639BB2A2F8C7
:105310004430204606F0EDFB00212046FFF7ADFFAC
:1053200008E02268B2F844309BB223F480439BB279
:10533000A2F8443010BD2268B2F844309BB223F486
:1053400000539BB2A2F84430F4E72268B2F8403030
:105350009BB223F004039BB2A2F840302268B2F85B
:1053600040309BB223F008039BB2A2F8403094F87F
:10537000C832012B0CD0204606F0DEFB2268B2F8C2
:1053800044309BB223F480539BB2A2F84430D1E75F
:10539000002184F8C812204606F086FCEBE722685C
:1053A000B2F840309BB243F00803A2F840302268C4
:1053B000B2F844309BB223F400639BB2A2F84430AD
:1053C0002268B2F840309BB243F00403A2F84030A8
:1053D000204606F0A1FBADE72268B2F844309BB24C
:1053E00023F080039BB2A2F8443094F8C832FBB992
:1053F0002268B2F840309BB243F00403A2F8403078
:105400002268B2F840309BB243F00803A2F8403063
:10541000012184F8C8122368B3F85430C3F38D0314
:1054200003F03C03C4F8CC32204606F03DFC81E793
:10543000204606F071FB7DE72268B2F844309BB24B
:1054400023F400739BB2A2F84430204606F04BFBD5
:1054500070E710B50446084611F0800F26D101F020
:10546000070C0CEB8C0E4FEACE0E0EF5A87E04EB6B
:105470000E010CEB8C0C04EBCC0C4FF0000E8CF8F6
:1054800051E100F0070008700A61CB70022B1DD0BB
:1054900094F89032012B1CD0012384F890322068BC
:1054A00002F051FB002084F8900210BD01F0070CBF
:1054B0000CEB8C01C900103121440CEB8C0C04EB7B
:1054C000CC0C4FF0010E8CF811E0DAE700230B71E1
:1054D000DEE70220E9E710B504460A4611F0800F26
:1054E0001FD101F0070000EB8003DB0003F5A87378
:1054F000E11800EB800004EBC000002380F851317C
:1055000002F007020A7094F89032012B17D00123A1
:1055100084F89032206802F0FBFC002084F89002AE
:1055200010BD01F0070000EB8003DB001033E11831
:1055300000EB800004EBC00001234374E0E702208D
:10554000EEE710B501F0070C0CEB8C01C90001F57A
:10555000A8710CEB8C0E00EBCE0ECEF86421CEF8C9
:1055600068310024CEF86C418EF851418EF850C15C
:105570000144006802F054FE204610BD01F007010E
:1055800001EB810100EBC100D0F86C01704738B528
:1055900001F0070C0CEB8C01C90010310CEB8C0EE8
:1055A00000EBCE0ECEF824200CF1010202EB8204B7
:1055B00040F8343001258EF83450CEF8303000EB0E
:1055C000C402002454608EF811508EF810C00144BB
:1055D000006802F025FE204638BD0B4601F00702A8
:1055E000017991422ED310B5044613F0800F1DD1DE
:1055F00003EB8301C90001F5A871014403EB8303A8
:1056000000EBC303002083F8510101238B700A7063
:1056100094F89032012B17D0012384F8903220683F
:1056200002F061FD002084F8900210BD02EB8201BF
:10563000C9001031014402EB820300EBC3030120D7
:105640005874E2E7012070470220EEE70B4601792B
:1056500003F00F02914234D310B5044613F0800FCB
:1056600021D103F0070202EB8201C90001F5A87104
:10567000014402EB820200EBC202002082F85101D9
:1056800000228A7003F007030B7094F89032012B0C
:1056900019D0012384F89032206802F049FD0020DF
:1056A00084F8900210BD03F0070202EB8201C900EA
:1056B0001031014402EB820200EBC202012050745F
:1056C000DEE7012070470220ECE711F0800F0BD0DD
:1056D00001F0070101EB8101C9001031084452B902
:1056E0000273C3800020704701EB8101C90001F5FE
:1056F000A8710844F3E70122027303811B0C438164
:10570000F0E7034602680121C0F8D012002083F8B8
:10571000C802B2F854309BB20B43A2F85430B2F82E
:1057200054309BB243F00203A2F85430704700009B
:10573000002836D13E4B1B6803F4C063B3F5806F7D
:1057400008D03B4AD2F8803023F48073C2F880300E
:1057500000207047364AD2F8803023F48073C2F8B4
:105760008030136823F4C06343F400731360314B3B
:105770001B68322202FB03F32F4AA2FB03239B0C7C
:10578000013300E0013B2A4A526912F4806F01D0D4
:10579000002BF7D1264B5B6913F4806F44D10020B6
:1057A0007047B0F5007F08D0214A136823F4C06326
:1057B00043F480631360002070471D4B1B6803F4A3
:1057C000C063B3F5806F08D0194AD2F8803043F433
:1057D0008073C2F8803000207047154AD2F88030BC
:1057E00043F48073C2F88030136823F4C06343F439
:1057F000007313600F4B1B68322202FB03F30E4A47
:10580000A2FB03239B0C013300E0013B084A5269D1
:1058100012F4806F01D0002BF7D1054B5B6913F4B4
:10582000806F03D10020704703207047032070472A
:10583000007000401000002083DE1B43024A936882
:1058400043F480439360704700700040124BDA6865
:1058500002F00302DB68C3F303130133032A11D000
:105860000E48B0FBF3F00C4BDB68C3F3062303FBDD
:1058700000F0094BDB68C3F3416301335B00B0FB0D
:10588000F3F070470648B0FBF3F0034BDB68C3F35B
:10589000062303FB00F0ECE7001002400024F400B4
:1058A00000127A00002800F04F8270B582B00446E2
:1058B000036813F0010F37D0A44A936803F00C0378
:1058C000D26802F003020C2B23D0082B23D063688C
:1058D000B3F5803F4ED0B3F5A02F51D09B4B1A6843
:1058E00022F480321A601A6822F480221A606368F7
:1058F000002B52D0FDF75AFF0546944B1B6813F45A
:10590000003F11D1FDF752FF401B6428F5D9032059
:1059100023E2032AD9D18D4B1B6813F4003F03D037
:105920006368002B00F01282236813F0020F5DD031
:10593000864A936803F00C03D26802F003020C2B32
:105940003AD0042B3AD0E368002B75D07F4A136815
:1059500043F480731360FDF729FF05467B4B1B68FA
:1059600013F4806F5FD1FDF721FF401B0228F5D9AA
:105970000320F2E1754A136843F480331360B6E7FD
:1059800003F18043A3F53C331A6842F480221A6085
:105990001A6842F480321A60A9E7FDF707FF05464E
:1059A0006A4B1B6813F4003FBED0FDF7FFFE401B9F
:1059B0006428F5D90320D0E1022AC2D1634B1B68C9
:1059C00013F4806F03D0E368002B00F0C1815F4ABD
:1059D000536823F0FE43216943EA016353605C4B43
:1059E0001868FCF757F9002840F0B481236813F0D9
:1059F000080F4CD063699BB3544AD2F8943043F0FB
:105A00000103C2F89430FDF7D1FE05464F4BD3F8A1
:105A1000943013F0020F3AD1FDF7C8FE401B022864
:105A2000F4D9032099E1494A536823F0FE432169E0
:105A300043EA01635360D9E7444A136823F480734F
:105A40001360FDF7B3FE0546404B1B6813F4806FEF
:105A5000CCD0FDF7ABFE401B0228F5D903207CE13A
:105A60003A4AD2F8943023F00103C2F89430FDF79B
:105A70009DFE0546354BD3F8943013F0020F06D047
:105A8000FDF794FE401B0228F4D9032065E123684A
:105A900013F0040F00F081802C4B9B6D13F0805F9E
:105AA00036D12A4B9A6D42F080529A659B6D03F075
:105AB00080530193019B0125264B1B6813F4807FC3
:105AC00028D0A368012B39D0052B45D01F4BD3F824
:105AD000902022F00102C3F89020D3F8902022F009
:105AE0000402C3F89020A368002B43D0FDF75EFEAC
:105AF0000646164BD3F8903013F0020F4CD1FDF749
