:020000040800F2
:100000000000022011090008990600089B0600085C
:100010009D0600089F060008A106000800000000D9
:100020000000000000000000000000007153000804
:10003000A30600080000000011540008BD5000088D
:1000400061090008610900086109000861090008E8
:1000500061090008610900086109000861090008D8
:1000600061090008610900086109000861090008C8
:1000700061090008610900086109000861090008B8
:1000800061090008610900086109000861090008A8
:10009000A506000861090008610900086109000857
:1000A00061090008B5060008610900086109000837
:1000B0006109000861090008610900086109000878
:1000C0006109000861090008610900086109000868
:1000D0006109000861090008610900086109000858
:1000E0006109000861090008610900086109000848
:1000F0006109000861090008610900086109000838
:100100006109000861090008610900086109000827
:100110006109000861090008C506000861090008B6
:100120006109000861090008610900086109000807
:1001300061090008610900086109000861090008F7
:1001400061090008610900086109000861090008E7
:1001500061090008610900086109000861090008D7
:1001600061090008610900086109000861090008C7
:1001700061090008610900086109000861090008B7
:1001800061090008610900086109000861090008A7
:100190006109000800000000610900086109000809
:1001A0006109000861090008610900086109000887
:1001B0006109000861090008610900086109000877
:1001C0006109000861090008610900086109000867
:0801D000610900086109000843
:1001E000844641EA000313F003036DD1403A41D342
:1001F00051F8043B40F8043B51F8043B40F8043B01
:1002000051F8043B40F8043B51F8043B40F8043BF0
:1002100051F8043B40F8043B51F8043B40F8043BE0
:1002200051F8043B40F8043B51F8043B40F8043BD0
:1002300051F8043B40F8043B51F8043B40F8043BC0
:1002400051F8043B40F8043B51F8043B40F8043BB0
:1002500051F8043B40F8043B51F8043B40F8043BA0
:1002600051F8043B40F8043B51F8043B40F8043B90
:10027000403ABDD2303211D351F8043B40F8043B30
:1002800051F8043B40F8043B51F8043B40F8043B70
:1002900051F8043B40F8043B103AEDD20C3205D340
:1002A00051F8043B40F8043B043AF9D2043208D038
:1002B000D2071CBF11F8013B00F8013B01D30B88AA
:1002C00003806046704700BF082A13D38B078DD088
:1002D00010F003038AD0C3F10403D21ADB071CBF5A
:1002E00011F8013B00F8013B80D331F8023B20F8C4
:1002F000023B7BE7043AD9D3013A11F8013B00F8FD
:10030000013BF9D20B7803704B7843708B78837084
:10031000604670470348044B834202D0034B03B14D
:1003200018477047E8060020E8060020000000009B
:100330000548064B1B1AD90F01EBA301491002D047
:10034000034B03B118477047E8060020E806002079
:100350000000000010B5064C237843B9FFF7DAFF20
:10036000044B13B10448AFF300800123237010BD88
:10037000E806002000000000D477000808B5054B0F
:100380001BB105490548AFF30080BDE80840FFF701
:10039000CFBF00BF00000000EC060020D4770008AB
:1003A00008B506F023FD012004F021FFFBE7000063
:1003B00008B5044A0021044804F0BAFE034B186053
:1003C00008BD00BF58780008A103000804070020FA
:1003D00030B58BB0002405940694079408940994D2
:1003E0001B4BDA6C42F02002DA64DA6C02F0200275
:1003F0000192019ADA6C42F00202DA64DA6C02F0DD
:1004000002020292029ADA6C42F00102DA64DA6CB9
:1004100002F001020392039ADA6C42F00802DA64F5
:10042000DB6C03F008030493049B0A4D224604216D
:10043000284600F009FC0423059301230693079442
:10044000089405A9284600F015FB0BB030BD00BF8D
:1004500000100240000C004808B50268034B9A42A5
:1004600000D008BD00F08CFAFBE700BF0010004090
:1004700072B6FEE700B595B03822002106A806F056
:1004800007FF00200190029003900490059001F076
:10049000DBFB222306934FF48073099340230A93D6
:1004A00001230C9302230D930E9304220F925421E7
:1004B000109111931292139306A801F07FFC80B95A
:1004C0000F230193032302930023039304930593C3
:1004D00004210DEB010001F027FF20B915B05DF8F4
:1004E00004FBFFF7C5FFFFF7C3FF08B500F039FABB
:1004F000FFF7C0FFFFF76CFF00F00AF800F084F987
:1005000004F0E8FDFFF754FF04F0F6FDFEE70000FD
:1005100008B51148114B03604FF482734360002308
:1005200083604FF47062C260022202610122426164
:100530004FF4007282611822C261036243628362D7
:100540000722C2620363436302F0DCF900B908BD0D
:10055000FFF78EFFFBE700BF0807002000300140D7
:1005600000B589B000230393049305930693079382
:100570000268124B9A4202D009B05DF804FB03F501
:1005800060431A6E42F480521A661A6E02F4805268
:100590000192019ADA6C42F00202DA64DB6C03F039
:1005A00002030293029B382303930223049305233F
:1005B000079303A9024800F05DFADDE7003001402F
:1005C0000004004800B583B00E4B1A6E42F00102E1
:1005D0001A661A6E02F001020092009A9A6D42F0B9
:1005E00080529A659B6D03F080530193019B00221A
:1005F0000F216FF0010000F029FA01F0ABFB03B00E
:100600005DF804FB0010024030B589B004461D4B74
:100610009A6D42F010029A659B6D03F010030193EE
:10062000019B02A903A801F093FF01F07FFF164A86
:10063000A2FB00239B0C013B1448154A026040F2C8
:10064000E732C260436000230361836002F0F0FC84
:10065000054610B1284609B030BD0C4802F02CFB0D
:1006600005460028F6D1362000F000FA0F2C01D9FB
:100670000125EFE700222146362000F0E7F9054B7F
:100680001C60E7E70010024083DE1B436C0700207C
:100690000010004008000020FEE7FEE7FEE7FEE74E
:1006A000FEE7704708B5024801F087F808BD00BFB3
:1006B000D83A002008B5024802F04CFB08BD00BF44
:1006C000BC07002008B5024802F044FB08BD00BF8B
:1006D0006C07002010B503460C4A0D490D48006810
:1006E00040B10C4800680344521A934206D8094AA4
:1006F000136010BD0748084C0460F2E706F050FE96
:100700000C2303604FF0FF30F3E700BF000002202E
:1007100000040000B8070020B8400020034AD2F8C7
:10072000883043F47003C2F88830704700ED00E071
:1007300002680E4B9A4200D0704700B583B003F5B3
:1007400064431A6E42F400621A661B6E03F400637F
:100750000193019B00220521192000F077F919204F
:1007600000F084F903B05DF804FB00BF002C0140E9
:10077000F0B589B000230393049305930693079380
:1007800002681F4B9A4201D009B0F0BD03F56443E3
:10079000DA6C42F00202DA64DA6C02F002020192D0
:1007A000019ADA6C42F00102DA64DB6C03F00103B7
:1007B0000293029B4FF4C04303930225049506263F
:1007C0000796104F03A9384600F054F94FF4004340
:1007D000039304950024059406940423079303A926
:1007E000384600F047F94FF4E0630393049505940D
:1007F0000694079603A94FF0904000F03BF9C3E739
:10080000002C01400004004810B598B00024159455
:10081000169417940E940F941094119412941394A8
:1008200014943422214601A806F032FD3648374B95
:10083000036044604023836041F26803C360046145
:100840004461846102F024FC002848D10023159300
:100850001693179315A92C4802F036FD002841D1B4
:1008600060230E9300220F92109211921292139213
:1008700014920EA9244802F089FC002835D10422E4
:100880000EA9214802F082FC002831D108220EA9CD
:100890001D4802F07BFC00282DD10C220EA91A481D
:1008A00002F074FC50BB0023019302930393049362
:1008B00005934FF4005206920793089309934FF063
:1008C00000720A920B930C930D9301A90E4802F04B
:1008D00051FDB0B90C48FFF74BFF18B010BDFFF742
:1008E000C7FDB3E7FFF7C4FDBAE7FFF7C1FDC6E7F1
:1008F000FFF7BEFDCAE7FFF7BBFDCEE7FFF7B8FD88
:10090000D1E7FFF7B5FDE5E7BC070020002C01406B
:100910000D488546FFF702FF0C480D490D4A00239C
:1009200002E0D458C4500433C4188C42F9D30A4AA4
:100930000A4C002301E013600432A242FBD306F00C
:1009400035FDFFF7D2FDFEE7000002200000002089
:10095000E8060020A8780008E8060020B84000203B
:10096000FEE710B5032000F05FF80F20FFF74CFE04
:1009700010B10124204610BD0446FFF723FEF9E71D
:10098000034A1368034909680B441360704700BFAA
:100990000808002004000020014B1868704700BFC1
:1009A00008080020002807DB00F01F02400901238F
:1009B0009340024A42F82030704700BF00E100E057
:1009C000002808DB0901C9B200F1604000F5614070
:1009D00080F80013704700F00F000901C9B2014B05
:1009E0001954704714ED00E000B500F00700C0F1A5
:1009F000070CBCF1040F28BF4FF0040C031D062B9D
:100A00000FD9C31E4FF0FF3E0EFA0CF021EA000191
:100A100099400EFA03FE22EA0E0241EA02005DF856
:100A200004FB0023EEE70000074AD36823F4E063E9
:100A30001B041B0C000200F4E060034343F0BF639F
:100A400043F40033D360704700ED00E010B5044676
:100A5000054BD868C0F30220FFF7C6FF01462046C9
:100A6000FFF7AEFF10BD00BF00ED00E008B5FFF7D7
:100A700099FF08BDF0B583B0002362E085685E0091
:100A80000324B44025EA0405CC68B4402C438460B8
:100A9000456825EA0C054C68C4F300149C402C43BF
:100AA00044605FE0DD08083550F8254003F0070C8E
:100AB0004FEA8C0C4FF00F0E0EFA0CFE24EA0E0ECD
:100AC0000C6904FA0CF444EA0E0440F8254060E096
:100AD000052400E0002404FA0EF42C430CF1020C6F
:100AE000554D45F82C40554CA568D44325EA0206DF
:100AF0004F6817F4801F01D042EA05064F4DAE60E3
:100B0000ED6804EA05064F6817F4001F01D042EAB9
:100B100005064A4DEE606D6804EA05064F6817F455
:100B2000003F01D042EA0506444D6E602D682C401E
:100B30004E6816F4803F01D042EA05043F4A146033
:100B400001330A6832FA03F474D04FF0010C0CFA46
:100B500003FC1CEA0202F3D04C6804F00304013CDD
:100B6000012C8BD94C6804F00304032C0CD0C4680E
:100B70005D004FF0030C0CFA05FC24EA0C0C8C68A9
:100B8000AC4044EA0C04C4604C6804F00304022C3A
:100B900088D004684FEA430E4FF0030C0CFA0EFCA9
:100BA00024EA0C0C4C6804F0030404FA0EF444EA42
:100BB0000C0404604C6814F4403FC1D0204C256EF6
:100BC00045F001052566246E04F001040194019CA2
:100BD0004FEA930C0CF10205174C54F8255003F022
:100BE000030E4FEA8E0E0F2404FA0EF425EA0405D4
:100BF000B0F1904F3FF46EAF124CA04212D004F50A
:100C00008064A04210D004F58064A0420ED004F5A8
:100C10008064A0420CD004F58064A0423FF458AF39
:100C2000062458E7012456E7022454E7032452E738
:100C3000042450E703B0F0BD00000140000401406F
:100C400000100240000400480AB1816170478162CF
:100C5000704738B512F4804F43D00468B4F8503070
:100C600091F800C04FEACC0E1EFA83F32344B3F888
:100C70000244C4F309048B69A34228D31B1B8B6174
:100C80008B697BB9056835F82C309BB223F480431F
:100C900023F0700383F4005343F4004343F08003D4
:100CA00025F82C3012F0400F0ED002680D7832F883
:100CB00025309BB223F4E04323F0700343F4004358
:100CC00043F0C00322F8253024B9204638BD002364
:100CD0008B61D5E723460A894969006803F01DFB4B
:100CE000F3E70468B4F8503091F800C04FEACC0E36
:100CF0001EFA83F32344B3F80644C4F309048B6952
:100D0000A3422FD31B1B8B618B697BB9056835F818
:100D10002C309BB223F4804323F0700383F4005300
:100D200043F4004343F0800325F82C3012F0400FC9
:100D30000FD1026891F800C032F82C309BB223F436
:100D4000E04323F0700343F4004343F0C00322F870
:100D50002C30002CB9D023464A894969006803F039
:100D6000DCFAB2E700238B61CEE7002856D010B53D
:100D7000044690F891323BB1032384F89132206805
:100D800002F05CFB002315E080F8903206F028F9B1
:100D9000F2E703EB830204EBC202012151741374E6
:100DA0000021D17411625162013303EB8302D2003E
:100DB000A150DBB220799842EBD8002316E003EB78
:100DC000830204EBC202002182F8511182F85031F3
:100DD00082F85311C2F86011C2F8641103EB830268
:100DE00004EBC202C2F868110133DBB29842E6D8C4
:100DF000234653F8040B93E8060002F029FB002376
:100E00002373012384F89132A37A012B01D00020AF
:100E100010BD204600F002FF0020F9E701207047D6
:100E200090F89032012B0ED010B50446012380F8C3
:100E30009032006802F0F9FA206802F066FE0020A5
:100E400084F8900210BD0220704770B505460C462C
:100E5000164612F0400F00F00A810268B2F85030D6
:100E60000978C80010FA83F31344B3F80224C2F3DC
:100E70000902A36993424DD99B1AA361A369002B70
:100E800064D16378002B48D12A68B2F8503012FA46
:100E900083F30344B3F80224C2F30902A3F8022443
:100EA000B3F802246FEA42426FEA524292B2A3F8C8
:100EB00002242A686378002B3BD1B2F8503012FA32
:100EC00083F3227803EBC203B3F80624C2F30902CA
:100ED000A3F80624B3F806246FEA42426FEA5242AE
:100EE00092B2A3F806242178284606F0BDF816F43D
:100EF000804F40D02A68217832F821309BB223F409
:100F0000E04323F0700343F4404343F0800322F8AE
:100F1000213030E00023A361B0E7012BC9D12A685A
:100F2000B2F8503012FA83F303440022A3F80224EB
:100F3000BFE7012BD7D1B2F8503012FA83F32278F1
:100F400003EBC2030022A3F80624CCE716F4804F7B
:100F50000DD0286830F821309BB223F4E04323F011
:100F6000700343F4404343F0800320F8213094F8A9
:100F70002430012B12D02A68217832F821309BB21C
:100F800023F4E04323F0400383F0300343F40043B1
:100F900043F0800322F82130002070BD63691344C0
:100FA0006361E3691344E361216A2369994224D3AD
:100FB000C91A21626278002A44D12968B1F8502008
:100FC00011FA82F2217802EBC102B2F80214C1F3E5
:100FD0000901A2F802143E2B1BD9580913F01F0F68
:100FE00000D10138B2F8021489B2800280B2014304
:100FF00041F40041A2F8021426E021B9002384F84C
:1010000024301346D6E7002384F8243023620B46AD
:10101000D0E74BB9B2F802146FEA41416FEA51418F
:1010200089B2A2F802140FE0590813F0010F00D0A2
:101030000131B2F8020480B2890289B20143A2F8F8
:10104000021401E0012A06D09BB222896169286856
:1010500002F06AFD8FE72968B1F8502011FA82F298
:10106000217802EBC10299B2A2F80214ECE70268FF
:10107000B2F850300978C80010FA83F31344B3F87B
:101080000624C2F30902A36993424ED39B1AA361BB
:10109000A369002B65D16378002B49D12A68B2F887
:1010A000503012FA83F30344B3F80224C2F3090266
:1010B000A3F80224B3F802246FEA42426FEA5242D4
:1010C00092B2A3F802242A686378002B3CD1B2F8CC
:1010D000503012FA83F3227803EBC203B3F80624EC
:1010E000C2F30902A3F80624B3F806246FEA4242C9
:1010F0006FEA524292B2A3F806242178284605F0FE
:10110000B3FF16F4804F7FF436AF2A68217832F8A7
:1011100021309BB223F4E04323F0700343F44043B7
:1011200043F0800322F8213025E70023A361AFE7D5
:10113000012BC8D12A68B2F8503012FA83F3034465
:101140000022A3F80224BEE7012BD6D1B2F850301A
:1011500012FA83F3227803EBC2030022A3F80624D9
:10116000CBE716F4804F0DD1286830F821309BB2C0
:1011700023F4E04323F0700343F4404343F080033F
:1011800020F8213094F82430012B7FF4F4AE636909
:1011900013446361E3691344E361216A236999425B
:1011A00024D3C91A216229686278002A43D1B1F890
:1011B000502011FA82F2217802EBC102B2F8061433
:1011C000C1F30901A2F806143E2B1BD9580913F0EC
:1011D0001F0F00D10138B2F8061489B2800280B224
:1011E000014341F40041A2F8061426E021B900238E
:1011F00084F824301346D6E70023236284F8243091
:101200000B46D0E74BB9B2F806146FEA41416FEADA
:10121000514189B2A2F806140FE0590813F0010FEA
:1012200000D00131B2F8060480B2890289B20143CC
:10123000A2F8061401E0012A06D09BB26289616916
:10124000286802F071FC96E6B1F8502011FA82F29B
:10125000217802EBC10299B2A2F80614EDE72DE95C
:10126000F04105462868B0F8443013F4004F00F010
:101270008E82B0F84440A3B214F00F0440F0D8803E
:1012800013F0100F69D003889AB213F4006F40F086
:10129000958012F4004FE5D0038823F070031B05FE
:1012A0001B0D43F0800303802868B0F8503095F898
:1012B0005021D20012FA83F30344B3F80634C3F387
:1012C0000903C5F86C318BB1D5F8641171B1B5F86B
:1012D000562103F022F8D5F86431D5F86C21134477
:1012E000C5F864310021284605F0B2FE2A6813884B
:1012F00099B213F4006FB5D101F44051B1F5405FDC
:10130000B0D0B2F8503012FA83F3B3F80624C2F327
:101310000902A3F80624D5F860213E2A6FD95109A5
:1013200012F01F0F00D10139B3F8062492B28902DE
:1013300089B20A4342F40042A3F806242A681388BB
:101340009BB223F4804323F0700383F4405343F4AF
:10135000004343F08003138084E703889BB223F4A7
:10136000E14323F070036FEA43436FEA53439BB2B8
:1013700003802968B1F850302A7CD20012FA83F336
:101380000B44B3F80234C3F30903EB626A6A1A44EC
:101390006A620021284605F067FE2B7B002B3FF494
:1013A00061AFAB6A002B7FF45DAF2B7B2A6843F003
:1013B0008003A2F84C3000232B7353E7B0F8503071
:1013C00095F85021D20012FA83F30344B3F806349F
:1013D000C3F30903C5F86C31B5F8562105F526713C
:1013E00002F09BFF2A68138823F070031B051B0D76
:1013F00043F080031380284605F022FE32E74AB905
:10140000B3F806246FEA42426FEA524292B2A3F85E
:10141000062493E7510812F0010F00D00131B3F810
:10142000062490B28A0292B20243A3F8062485E70A
:1014300030F824309EB213F4004F4ED116F0800FD6
:101440003FF410AF04EB8401C900103129442A682D
:1014500032F824309BB223F4E14323F070036FEAA7
:1014600043436FEA53439BB222F8243004EB8403D6
:1014700005EBC303DB7C012B00F0E98016F4807FD1
:1014800040F080812868B0F8503004EB840205EB0E
:10149000C202167CF20012FA83F30344B3F802345A
:1014A000C3F30903621C02EB820255F832209A4210
:1014B00040F24B81671C07EB8707D21A45F83720AB
:1014C000621C02EB820255F83220002A40F044816F
:1014D0003146284605F0C8FDC4E630F8243023F034
:1014E00070031B051B0D43F0800320F8243004EB30
:1014F0008401C90001F5A87105EB010804EB840320
:1015000005EBC30393F85C31002B40D12868B0F899
:10151000503004EB840205EBC20292F85021D20055
:1015200012FA83F30344B3F80674C7F3090717BB31
:1015300004EB840305EBC303D3F86C213A44C3F8EE
:101540006C21D3F864213A44C3F86421D3F868319C
:101550003BB104EB840305EBC303D3F860319F4236
:1015600070D204EB840305EBC30393F850112846B3
:1015700005F06EFD62E704EB840105EBC1013B461B
:10158000B1F85621D1F8641102F0C7FED0E704EBA0
:10159000840305EBC30393F85331022B33D029683E
:1015A00004EB840205EBC20292F8500131F82030BE
:1015B0009BB223F4E04323F0700343F4004343F071
:1015C000C00321F82030286892F8503130F82320E9
:1015D00012F4804F1ED0B0F85020DB0013FA82F3D3
:1015E0000344B3F80274C7F30907002FA0D004EB3B
:1015F000840105EBC1013B46B1F85821D1F86411D3
:1016000002F08BFE94E7324641462846FFF721FB65
:1016100007468DE7B0F85020DB0013FA82F303444D
:10162000B3F80674C7F30907002F81D004EB8401D7
:1016300005EBC1013B46B1F85A21D1F8641102F023
:101640006CFE75E74146286802F080FAF6E6631CF6
:1016500003EB8303DB000022EA5004EB840305EB79
:10166000C3031B7F1BB316F0400F3BD004EB840376
:1016700005EBC3035B7C1BBB2A68B2F8503012FA3F
:1016800083F304EB840205EBC202127C03EBC2037A
:10169000B3F80224C2F30902A3F80224B3F8022427
:1016A0006FEA42426FEA524292B2A3F8022404EB7C
:1016B000840405EBC404217C284605F0D5FCD1E563
:1016C000012BF4D12A68B2F8503012FA83F304EBFC
:1016D000840205EBC202127C03EBC2030022A3F8D2
:1016E0000224E4E72A6804EB840305EBC3035B7C74
:1016F000D3B9B2F8503012FA83F304EB840205EB4D
:10170000C202127C03EBC203B3F80624C2F309023F
:10171000A3F80624B3F806246FEA42426FEA524265
:1017200092B2A3F80624C2E7012BC0D1B2F8503020
:1017300012FA83F304EB840205EBC202127C03EB82
:10174000C2030022A3F80624B1E7621C02EB820266
:10175000D2000027AF50B3E604EB840205EBC202CF
:10176000566A1E445662013404EB840205EBC20241
:10177000526804EB840405EBC4041344636002F074
:10178000E5F96FE532462846FFF75FFB6AE5002082
:10179000BDE8F08190F89032012B0CD010B50446D2
:1017A000012380F890320173006802F0A8F900204C
:1017B00084F8900210BD0220704710B504460068FE
:1017C00002F0AEF910F4004F23D110F4806F24D151
:1017D00010F4804F32D110F4005F39D110F4805FE3
:1017E00040D110F4006F67D110F0800F40F081807D
:1017F00010F4007F40F0AD8010F4807F27D0226885
:10180000B2F844309BB223F480739BB2A2F8443008
:101810001DE02046FFF723FD19E02268B2F84430AE
:101820009BB223F480639BB2A2F84430204605F0BB
:101830002CFC00212046FFF7ADFF08E02268B2F83B
:1018400044309BB223F480439BB2A2F8443010BDD5
:101850002268B2F844309BB223F400539BB2A2F842
:101860004430F4E72268B2F840309BB223F004031E
:101870009BB2A2F840302268B2F840309BB223F00D
:1018800008039BB2A2F8403094F8C832012B0CD068
:10189000204605F01DFC2268B2F844309BB223F4C8
:1018A00080539BB2A2F84430D1E7002184F8C812DB
:1018B000204605F0C5FCEBE72268B2F840309BB249
:1018C00043F00803A2F840302268B2F844309BB2DB
:1018D00023F400639BB2A2F844302268B2F840308F
:1018E0009BB243F00403A2F84030204605F0E0FB31
:1018F000ADE72268B2F844309BB223F080039BB27C
:10190000A2F8443094F8C832FBB92268B2F84030EB
:101910009BB243F00403A2F840302268B2F8403092
:101920009BB243F00803A2F84030012184F8C812AA
:101930002368B3F85430C3F38D0303F03C03C4F8B9
:10194000CC32204605F07CFC81E7204605F0B0FB58
:101950007DE72268B2F844309BB223F400739BB257
:10196000A2F84430204605F08AFB70E710B5044623
:10197000084611F0800F26D101F0070C0CEB8C0EFD
:101980004FEACE0E0EF5A87E04EB0E010CEB8C0C8C
:1019900004EBCC0C4FF0000E8CF851E100F0070086
:1019A00008700A61CB70022B1DD094F89032012B85
:1019B0001CD0012384F89032206801F05AFD0020E9
:1019C00084F8900210BD01F0070C0CEB8C01C900EB
:1019D000103121440CEB8C0C04EBCC0C4FF0010EBD
:1019E0008CF811E0DAE700230B71DEE70220E9E76B
:1019F00010B504460A4611F0800F1FD101F0070010
:101A000000EB8003DB0003F5A873E11800EB800016
:101A100004EBC000002380F8513102F007020A7085
:101A200094F89032012B17D0012384F8903220686B
:101A300001F004FF002084F8900210BD01F00700BF
:101A400000EB8003DB001033E11800EB800004EBB7
:101A5000C00001234374E0E70220EEE710B501F077
:101A6000070C0CEB8C01C90001F5A8710CEB8C0E76
:101A700000EBCE0ECEF86421CEF868310024CEF80B
:101A80006C418EF851418EF850C10144006802F05B
:101A90005DF8204610BD01F0070101EB810100EB6C
:101AA000C100D0F86C01704738B501F0070C0CEBA1
:101AB0008C01C90010310CEB8C0E00EBCE0ECEF871
:101AC00024200CF1010202EB820440F8343001259D
:101AD0008EF83450CEF8303000EBC402002454604D
:101AE0008EF811508EF810C00144006802F02EF8F4
:101AF000204638BD0B4601F00702017991422ED3F2
:101B000010B5044613F0800F1DD103EB8301C9000B
:101B100001F5A871014403EB830300EBC30300202C
:101B200083F8510101238B700A7094F89032012BD5
:101B300017D0012384F89032206801F06AFF00205A
:101B400084F8900210BD02EB8201C90010310144FB
:101B500002EB820300EBC30301205874E2E701208B
:101B600070470220EEE70B46017903F00F02914225
:101B700034D310B5044613F0800F21D103F00702CF
:101B800002EB8201C90001F5A871014402EB820257
:101B900000EBC202002082F8510100228A7003F09B
:101BA00007030B7094F89032012B19D0012384F8AD
:101BB0009032206801F052FF002084F8900210BD9E
:101BC00003F0070202EB8201C9001031014402EB6D
:101BD000820200EBC20201205074DEE70120704750
:101BE0000220ECE711F0800F0BD001F0070101EBB0
:101BF0008101C9001031084452B90273C38000202A
:101C0000704701EB8101C90001F5A8710844F3E7B1
:101C10000122027303811B0C4381F0E70346026833
:101C20000121C0F8D012002083F8C802B2F8543065
:101C30009BB20B43A2F85430B2F854309BB243F03D
:101C40000203A2F854307047002836D13E4B1B687F
:101C500003F4C063B3F5806F08D03B4AD2F88030FC
:101C600023F48073C2F8803000207047364AD2F8DF
:101C7000803023F48073C2F88030136823F4C0638B
:101C800043F400731360314B1B68322202FB03F3F1
:101C90002F4AA2FB03239B0C013300E0013B2A4A9D
:101CA000526912F4806F01D0002BF7D1264B5B698B
:101CB00013F4806F44D100207047B0F5007F08D046
:101CC000214A136823F4C06343F480631360002047
:101CD00070471D4B1B6803F4C063B3F5806F08D0D9
:101CE000194AD2F8803043F48073C2F88030002063
:101CF0007047154AD2F8803043F48073C2F88030C0
:101D0000136823F4C06343F4007313600F4B1B6824
:101D1000322202FB03F30E4AA2FB03239B0C013386
:101D200000E0013B084A526912F4806F01D0002B99
:101D3000F7D1054B5B6913F4806F03D10020704726
:101D4000032070470320704700700040000000200F
:101D500083DE1B43024A936843F4804393607047D9
:101D600000700040124BDA6802F00302DB68C3F334
:101D700003130133032A11D00E48B0FBF3F00C4BD0
:101D8000DB68C3F3062303FB00F0094BDB68C3F3F6
:101D9000416301335B00B0FBF3F070470648B0FBD2
:101DA000F3F0034BDB68C3F3062303FB00F0ECE71F
:101DB000001002400024F40000127A00002800F015
:101DC0004F8270B582B00446036813F0010F37D01C
:101DD000A44A936803F00C03D26802F003020C2BB0
:101DE00023D0082B23D06368B3F5803F4ED0B3F5E2
:101DF000A02F51D09B4B1A6822F480321A601A68C7
:101E000022F480221A606368002B52D0FEF7C4FDD2
:101E10000546944B1B6813F4003F11D1FEF7BCFD3F
:101E2000401B6428F5D9032023E2032AD9D18D4B26
:101E30001B6813F4003F03D06368002B00F012828C
:101E4000236813F0020F5DD0864A936803F00C03F9
:101E5000D26802F003020C2B3AD0042B3AD0E3688C
:101E6000002B75D07F4A136843F480731360FEF72C
:101E700093FD05467B4B1B6813F4806F5FD1FEF723
:101E80008BFD401B0228F5D90320F2E1754A136847
:101E900043F480331360B6E703F18043A3F53C338A
:101EA0001A6842F480221A601A6842F480321A607A
:101EB000A9E7FEF771FD05466A4B1B6813F4003F66
:101EC000BED0FEF769FD401B6428F5D90320D0E1A0
:101ED000022AC2D1634B1B6813F4806F03D0E368FE
:101EE000002B00F0C1815F4A536823F0FE43216953
:101EF00043EA016353605C4B1868FEF785FB0028DA
:101F000040F0B481236813F0080F4CD063699BB391
:101F1000544AD2F8943043F00103C2F89430FEF7EB
:101F20003BFD05464F4BD3F8943013F0020F3AD1E6
:101F3000FEF732FD401B0228F4D9032099E1494AFB
:101F4000536823F0FE43216943EA01635360D9E7F4
:101F5000444A136823F480731360FEF71DFD0546A1
:101F6000404B1B6813F4806FCCD0FEF715FD401B6F
:101F70000228F5D903207CE13A4AD2F8943023F0C4
:101F80000103C2F89430FEF707FD0546354BD3F840
:101F9000943013F0020F06D0FEF7FEFC401B02281F
:101FA000F4D9032065E1236813F0040F00F0818069
:101FB0002C4B9B6D13F0805F36D12A4B9A6D42F00B
:101FC00080529A659B6D03F080530193019B01251C
:101FD000264B1B6813F4807F28D0A368012B39D0CF
:101FE000052B45D01F4BD3F8902022F00102C3F8F7
:101FF0009020D3F8902022F00402C3F89020A36828
:10200000002B43D0FEF7C8FC0646164BD3F89030A1
:1020100013F0020F4CD1FEF7BFFC801B41F2883356
:102020009842F2D9032024E10025D1E70F4A136832
:1020300043F480731360FEF7AFFC06460B4B1B683E
:1020400013F4807FC9D1FEF7A7FC801B0228F5D9C5
:1020500003200EE1034AD2F8903043F00103C2F8A6
:102060009030CCE7001002400800002000700040D3
:10207000884BD3F8902042F00402C3F89020D3F8A4
:10208000902042F00102C3F89020B8E7FEF784FCEC
:102090000646804BD3F8903013F0020F08D0FEF7BD
:1020A0007BFC801B41F288339842F2D90320E0E0A8
:1020B000E5B9236813F0200F35D0A369E3B1754A61
:1020C000D2F8983043F00103C2F89830FEF764FC70
:1020D0000546704BD3F8983013F0020F23D1FEF76A
:1020E0005BFC401B0228F4D90320C2E0694A936DCF
:1020F00023F080539365DCE7664AD2F8983023F0EA
:102100000103C2F89830FEF747FC0546614BD3F84F
:10211000983013F0020F06D0FEF73EFC401B022859
:10212000F4D90320A5E0E369002B00F0A180594A0F
:10213000926802F00C020C2A64D0022B13D0554A8C
:10214000136823F080731360FEF726FC0446514B9E
:102150001B6813F0007F4ED0FEF71EFC001B022808
:10216000F5D9032085E04B4A136823F08073136090
:10217000FEF712FC0546474B1B6813F0007F06D0A4
:10218000FEF70AFC401B0228F5D9032071E0414A02
:10219000D36841491940236A606A013843EA001351
:1021A000A06A43EA0023206B4008013843EA405309
:1021B000606B4008013843EA4063E06A43EAC06369
:1021C0001943D160136843F080731360D36843F000
:1021D0008073D360FEF7E0FB04462E4B1B6813F0C0
:1021E000007F06D1FEF7D8FB001B0228F5D903209B
:1021F0003FE000203DE0274AD168284B0B40D360E8
:10220000002036E0012B36D0224BDB6803F00301BF
:10221000226A914231D103F0F002616A0139B2EBD6
:10222000011F2CD103F4FE42A16AB2EB012F28D189
:1022300003F07842E16AB2EBC16F24D103F4C0012C
:10224000226B5208013AB1EB425F1ED103F0C0632A
:10225000626B5208013AB3EB426F18D1002008E0DC
:1022600001207047012004E0012002E0012000E08D
:10227000002002B070BD0120FBE70120F9E701203A
:10228000F7E70120F5E70120F3E70120F1E701205E
:10229000EFE700BF001002400C809F01FCFFEEFE44
:1022A0001E4B9B6803F00C03042B33D01B4B9B6825
:1022B00003F00C03082B2FD0184B9B6803F00C0382
:1022C0000C2B01D000207047144BDA6802F0030297
:1022D000DB68C3F303130133032A11D01048B0FBAA
:1022E000F3F00E4BDB68C3F3062303FB00F00B4B4C
:1022F000DB68C3F3416301335B00B0FBF3F070476D
:102300000848B0FBF3F0054BDB68C3F3062303FB7F
:1023100000F0ECE7024870470248704700100240A6
:102320000024F40000127A00002800F0E680F8B5DE
:102330000C460546744B1B6803F00F038B420BD20F
:10234000714A136823F00F030B431360136803F003
:102350000F038B4240F0D3802E6816F001065FD049
:102360006B68032B2FD0022B4DD0684B1B6813F4E6
:10237000806F00F0C680FFF793FF654B98424DD900
:10238000624A936823F0F00343F080039360802651
:102390005E4A936823F0030369680B439360FEF77A
:1023A000FBFA0746594B9B6803F00C036A68B3EBD2
:1023B000820F35D0FEF7F0FAC01B41F28833984205
:1023C000F0D9032078E0514B1B6813F0007F01D156
:1023D000012071E0FFF7C6FC4D4B98421AD94B4BD8
:1023E0009B6813F0F00F05D02E6816F00206CFD0D0
:1023F000AB688BB9454A936823F0F00343F0800340
:1024000093608026C4E7414B1B6813F4003FB2D1B0
:10241000012051E00026BBE70026B9E70026B7E718
:102420002B6813F0020F48D013F0040F04D0374A82
:10243000936843F4E06393602B6813F0080F06D0B1
:10244000324A936823F47C5343F4E06393602F4A49
:10245000936823F0F003A9680B4393602A4B1B6831
:1024600003F00F03A34230D82B6813F0040F06D0FB
:10247000264A936823F4E063E9680B4393602B6872
:1024800013F0080F07D0214A936823F46053296999
:1024900043EAC1039360FFF703FF1C4B9B68C3F340
:1024A00003131C4AD35C03F01F03D8401A4B186077
:1024B0001A4B1868FEF7A8F8F8BD802ECED1134A43
:1024C000936823F0F0039360C8E70F4A136823F082
:1024D0000F0323431360FEF75FFA06460A4B1B689F
:1024E00003F00F03A342BFD0FEF756FA801B41F260
:1024F00088339842F2D90320DEE70120704701209B
:10250000DAE70120D8E700BF0020024000100240B7
:1025100000B4C404847800080000002008000020F3
:10252000014B1868704700BF0000002008B5FFF796
:10253000F7FF054B9B68C3F30223044AD35C03F007
:102540001F03D84008BD00BF001002407C7800087F
:102550000F2303600B4B9A6802F0030242609A68F3
:1025600002F0F00282609A6802F4E062C2609B6846
:10257000DB0803F4E0630361034B1B6803F00F0304
:102580000B6070470010024000200240F0B583B09D
:102590000446036813F4002F6ED0354B9B6D13F087
:1025A000805F1ED1324B9A6D42F080529A659B6DCE
:1025B00003F080530193019B01262E4A136843F4D4
:1025C00080731360FEF7E8F905462A4B1B6813F485
:1025D000807F08D1FEF7E0F9401B0228F5D90325DA
:1025E00002E00026E9E7002545BB214BD3F89030F7
:1025F00013F4407315D0226D9A4212D01C4AD2F8BF
:10260000903023F44073D2F8901041F48031C2F836
:102610009010D2F8901021F48031C2F89010C2F8D6
:10262000903013F0010F10D145B9114AD2F8903013
:1026300023F44073216D0B43C2F89030EEB10C4A85
:10264000936D23F08053936517E0FEF7A5F90746D5
:10265000074BD3F8903013F0020FE5D1FEF79CF949
:10266000C01B41F288339842F2D90325DCE700BF52
:1026700000100240007000400025236813F0010F95
:1026800008D09F4AD2F8883023F0030361680B43D7
:10269000C2F88830236813F0020F08D0984AD2F8A5
:1026A000883023F00C03A1680B43C2F888302368FC
:1026B00013F0040F08D0924AD2F8883023F0300388
:1026C000E1680B43C2F88830236813F0080F08D084
:1026D0008B4AD2F8883023F0C00321690B43C2F83B
:1026E0008830236813F0100F08D0854AD2F888305C
:1026F00023F4407361690B43C2F88830236813F0F8
:10270000200F08D07E4AD2F8883023F44063A169B4
:102710000B43C2F88830236813F0400F08D0784A82
:10272000D2F8883023F44053E1690B43C2F8883073
:10273000236813F0800F08D0714AD2F8883023F450
:102740004043216A0B43C2F88830236813F4807F2A
:1027500008D06B4AD2F8883023F44033616A0B43C7
:10276000C2F88830236813F4003F08D0644AD2F8D6
:102770009C3023F00303A16A0B43C2F89C3023680A
:1027800013F4007F08D05E4AD2F8883023F4402347
:10279000E16A0B43C2F88830236813F4806F0CD0D1
:1027A000574AD2F8883023F44013216B0B43C2F808
:1027B0008830236BB3F5801F79D0236813F4006F42
:1027C0000CD04F4AD2F8883023F44003616B0B439E
:1027D000C2F88830636BB3F5800F6DD0236813F4B3
:1027E000805F0CD0464AD2F8883023F04073A16B4A
:1027F0000B43C2F88830A36BB3F1807F61D02368AC
:1028000013F4005F0CD03E4AD2F8883023F04063C6
:10281000E16B0B43C2F88830E36BB3F1006F55D026
:10282000236813F4804F0CD0354AD2F8883023F057
:102830004063216C0B43C2F88830236CB3F1006F06
:1028400049D0236813F4004F0CD02D4AD2F88830B9
:1028500023F04053616C0B43C2F88830636CB3F1D2
:10286000805F3DD0236813F4803F0CD0244AD2F817
:10287000883023F04043A16C0B43C2F88830A36C2E
:10288000B3F1804F31D0236813F4802F0CD01C4A51
:10289000D2F89C3023F44013E16C0B43C2F89C3017
:1028A000E36CB3F5001F25D0284603B0F0BDD36814
:1028B00043F48013D36080E7D36843F48013D3607C
:1028C0008CE7D36843F48013D36098E7D36843F46C
:1028D0008013D360A4E7D36843F48013D360B0E7D8
:1028E000D36843F48033D360BCE7D36843F48033C8
:1028F000D360C8E7D36843F48013D360D4E700BF44
:102900000010024000286FD010B50446436A33B966
:102910004368B3F5827F05D00023C36102E0002342
:10292000036143610023A36294F85D30002B52D011
:10293000022384F85D302268136823F0400313609B
:10294000E368B3F5E06F4CD90022B3F5706F04D0A3
:10295000B3F5E06F01D00023A362636803F48273D0
:10296000A16801F404410B43216901F002010B430A
:10297000616901F001010B43A16901F400710B438E
:10298000E16901F038010B43216A01F080010B433A
:10299000A16A01F4005120680B430360638B03F0CC
:1029A0000403616A01F010010B43616B01F008013F
:1029B0000B43E16801F470610B43216813434B60E2
:1029C0002268D36923F40063D361002020660123C9
:1029D00084F85D3010BD84F85C302046FDF7C0FD02
:1029E000A6E74FF48052B0E70120704730B4026A86
:1029F000036A23F0010303624468836923F480338C
:102A000023F073030D681D4322F002028B68134309
:102A1000204A904213D002F5006290420FD002F596
:102A2000406290420BD002F58062904207D002F5DE
:102A30008062904203D002F50062904205D123F0FB
:102A40000803CA681A4322F00403124A904213D0C2
:102A500002F5006290420FD002F5406290420BD026
:102A600002F58062904207D002F58062904203D066
:102A700002F50062904205D124F440744A69224371
:102A80008C691443446085614A684263036230BCC8
:102A9000704700BF002C014030B4036A026A22F480
:102AA000807202624468C26922F4803222F07302AA
:102AB0000D68154323F400738A6843EA02231C4A15
:102AC000904207D002F50062904203D002F5E05236
:102AD000904206D123F40063CA6843EA022323F438
:102AE0008063134A904213D002F5006290420FD0E7
:102AF00002F5406290420BD002F58062904207D00E
:102B000002F58062904203D002F50062904207D144
:102B100024F440524C6942EA04128C6942EA0414DB
:102B20004460C5614A68C263036230BC704700BF3D
:102B3000002C014030B4036A026A22F4805202621F
:102B40004468C26922F0807222F4E6420D6842EACB
:102B5000052223F400538D6843EA05331B4DA84238
:102B600007D005F50065A84203D005F5E055A84259
:102B700006D123F40043CD6843EA053323F48043B0
:102B8000124DA84213D005F50065A8420FD005F5F7
:102B90004065A8420BD005F58065A84207D005F531
:102BA0008065A84203D005F50065A84207D124F44A
:102BB000404C4C694CEA841C8C694CEA8414446097
:102BC000C2614A680264036230BC7047002C014055
:102BD00030B4036A026A22F4803202624468026DF1
:102BE00022F4803222F070020D68154323F4003382
:102BF0008A6843EA0243114A904213D002F5006208
:102C000090420FD002F5406290420BD002F58062F4
:102C1000904207D002F58062904203D002F5006234
:102C2000904204D124F480344A6944EA0224446086
:102C300005654A688264036230BC7047002C01401D
:102C400030B4036A026A22F4801202624468026DA0
:102C500022F0807222F4E0420D6842EA052223F459
:102C600000138D6843EA0553114DA84213D005F5B2
:102C70000065A8420FD005F54065A8420BD005F5C8
:102C80008065A84207D005F58065A84203D005F508
:102C90000065A84204D124F480244D6944EA8524C7
:102CA000446002654A68C264036230BC704700BF7A
:102CB000002C01407047000090F83D30DBB2012B42
:102CC0003AD1022380F83D300268D36843F0010313
:102CD000D36003681B4A934220D0B3F1804F1DD0CC
:102CE000A2F59432934219D002F58062934215D036
:102CF00002F58062934211D002F5943293420DD0D6
:102D000002F54062934209D002F58052934205D009
:102D10001A6842F001021A600020704799680A4A56
:102D20000A40062A0AD0B2F5803F09D01A6842F05C
:102D300001021A6000207047012070470020704790
:102D400000207047002C01400700010070477047C9
:102D50007047704770B505460368DE681C6914F05B
:102D6000020F10D016F0020F0DD06FF002021A61A0
:102D70000123037703689B6913F0030F7CD0FFF7EF
:102D8000E6FF00232B7714F0040F12D016F0040F87
:102D90000FD02B686FF004021A6102232B772B6887
:102DA0009B6913F4407F6DD02846FFF7D0FF0023C6
:102DB0002B7714F0080F12D016F0080F0FD02B68E5
:102DC0006FF008021A6104232B772B68DB6913F07C
:102DD000030F5ED02846FFF7BAFF00232B7714F0CD
:102DE000100F12D016F0100F0FD02B686FF01002DA
:102DF0001A6108232B772B68DB6913F4407F4FD0CF
:102E00002846FFF7A4FF00232B7714F0010F02D010
:102E100016F0010F4BD114F4025F02D016F0800FB0
:102E20004DD114F4807F02D016F0800F4FD114F0F2
:102E3000400F02D016F0400F51D114F0200F02D0F5
:102E400016F0200F53D114F4801F02D016F4801F07
:102E500055D114F4001F02D016F4001F57D114F4FA
:102E6000800F02D016F4800F59D114F4000F02D055
:102E700016F4000F5BD170BDFFF768FF2846FFF71F
:102E800067FF7EE72846FFF761FF2846FFF760FFF0
:102E90008DE72846FFF75AFF2846FFF759FF9CE7C2
:102EA0002846FFF753FF2846FFF752FFABE72B6892
:102EB0006FF001021A612846FDF7CEFAABE72B68E6
:102EC0006FF402521A61284600F0A9FAA9E72B68AC
:102ED0006FF480721A61284600F0A2FAA7E72B6807
:102EE0006FF040021A612846FFF733FFA5E72B6811
:102EF0006FF020021A61284600F090FAA3E72B68D1
:102F00006FF480121A61284600F08BFAA1E72B6853
:102F10006FF400121A61284600F084FA9FE72B68CC
:102F20006FF480021A61284600F07DFA9DE72B6855
:102F30006FF400021A61284600F076FA9BE7000061
:102F400003683A4A904216D0B0F1804F13D0A2F5F0
:102F5000943290420FD002F5806290420BD002F57D
:102F60008062904207D002F59432904203D002F57D
:102F7000E052904203D123F070034A6813432B4A76
:102F8000904222D0B0F1804F1FD0A2F594329042EF
:102F90001BD002F58062904217D002F58062904209
:102FA00013D002F5943290420FD002F54062904265
:102FB0000BD002F58062904207D002F58062904209
:102FC00003D002F50062904203D123F44073CA6833
:102FD000134323F080034A69134303608B68C36281
:102FE0000B688362114B984213D003F5006398423B
:102FF0000FD003F5406398420BD003F580639842ED
:1030000007D003F58063984203D003F5006398422C
:1030100001D10B69036301234361036913F0010FBD
:1030200003D0036923F0010303617047002C0140C2
:1030300060B310B5044690F83D3013B3022384F812
:103040003D30214651F8040BFFF77AFF012384F845
:10305000483084F83E3084F83F3084F8403084F8BB
:10306000413084F8423084F8433084F8443084F8A6
:10307000453084F8463084F8473084F83D300020ED
:1030800010BD80F83C30FFF715FED7E701207047F0
:1030900060B310B5044690F83D3013B3022384F8B2
:1030A0003D30214651F8040BFFF74AFF012384F815
:1030B000483084F83E3084F83F3084F8403084F85B
:1030C000413084F8423084F8433084F8443084F846
:1030D000453084F8463084F8473084F83D3000208D
:1030E00010BD80F83C30FDF723FBD7E70120704787
:1030F00030B4036A026A22F01002026244688269F4
:1031000022F0807222F4E6420D6842EA052223F0A2
:1031100020038D6843EA05131B4DA84207D005F52F
:103120000065A84203D005F5E055A84206D123F07A
:103130008003CD6843EA051323F04003124DA842F3
:1031400013D005F50065A8420FD005F54065A842EB
:103150000BD005F58065A84207D005F58065A8422B
:1031600003D005F50065A84207D124F4406C4C69F2
:103170004CEA840C8C694CEA8404446082614A689D
:103180008263036230BC7047002C014038B590F870
:103190003C30012B00F0958004460D46012380F859
:1031A0003C30142A00F28880DFE802F00B86868625
:1031B0001F86868634868686488686865D868686CF
:1031C00071000068FFF712FC2268936943F008035E
:1031D00093612268936923F00403936122689369E1
:1031E00029690B439361002067E00068FFF780FFC7
:1031F0002268936943F4006393612268936923F41E
:103200008063936122689369296943EA012393618A
:10321000002052E00068FFF73FFC2268D36943F0CA
:103220000803D3612268D36923F00403D3612268C1
:10323000D36929690B43D36100203EE00068FFF7A2
:1032400079FC2268D36943F40063D3612268D369AF
:1032500023F48063D3612268D369296943EA012397
:10326000D361002029E00068FFF7B2FC2268136DEB
:1032700043F0080313652268136D23F004031365FC
:103280002268136D29690B431365002015E000685F
:10329000FFF7D6FC2268136D43F4006313652268C0
:1032A000136D23F4806313652268136D296943EA63
:1032B00001231365002000E00120002384F83C3046
:1032C00038BD0220FCE7000090F83C20012A4CD0D9
:1032D00030B40346012280F83C20022280F83D20D1
:1032E000006842688468224DA84207D005F5006551
:1032F000A84203D005F5E055A84203D122F470029C
:103300004D682A4322F0007222F070020D682A43B1
:1033100042601A68164882421AD0B2F1804F17D024
:10332000A0F59430824213D000F5806082420FD025
:1033300000F5806082420BD000F59430824207D0C5
:1033400000F54060824203D000F58050824204D1F3
:1033500024F08004896821439160012283F83D2094
:10336000002083F83C0030BC70470220704700BF4B
:10337000002C014090F83C30012B4AD010B402469A
:10338000012380F83C30CB6823F440738868034302
:1033900023F480634868034323F40063086803430D
:1033A00023F480530869034323F40053486903431B
:1033B00023F48043086B034323F47023886943EAB2
:1033C000004323F08053C86903431068124CA042A5
:1033D00007D004F50064A04203D004F5E054A042F5
:1033E00010D123F470038C6A43EA045323F08073F2
:1033F0000C6A234323F000734C6A234323F00053E9
:10340000C96A0B434364002082F83C005DF8044B1A
:1034100070470220704700BF002C01407047704782
:103420007047704770477047704703460020A3F805
:1034300044004BF68072A3F840207047B0F840304B
:1034400023F47E535B045B0CA0F8403000207047EF
:1034500082B0034602A800E906000122A3F840203A
:103460000020A3F84000A3F84400A3F8500002B0E5
:10347000704710B5034691F800C030F82C2092B286
:1034800022F4EC4222F0700292B2C878032861D88C
:10349000DFE800F0555C0258002048F2800E42EA56
:1034A0000E0223F82C2091F800C033F82C2092B2A1
:1034B00022F4E04222F070024CEA020242EA0E02DA
:1034C00023F82C200A7B002A40F0DC804A78002A6E
:1034D00051D0B3F8502013FA82F20C7802EBC402F8
:1034E000B1F806C04FEA5C0C4FEA4C0CA2F800C4DD
:1034F0000C7833F8242012F0400F0CD033F824203D
:1035000092B222F4E04222F0700242F4004242F011
:10351000C00223F82420CA78012A1DD0097833F884
:10352000212092B222F4E04222F0400282F02002F6
:1035300042F4004242F0800223F8212017E142F4D5
:103540000072AAE742F4C0620020A6E742F480625B
:103550000020A2E70120A0E7097833F8212092B2E9
:1035600022F4E04222F0400242F4004242F08002A3
:1035700023F82120FBE0B3F8502013FA82F20C78F4
:1035800002EBC402B1F806C04FEA5C0C4FEA4C0CE7
:10359000A2F804C4B3F8502013FA82F20C7802EBBC
:1035A000C402B2F806C4CCF3090CA2F806C40C6934
:1035B0003E2C39D94FEA541E14F01F0F01D10EF1E1
:1035C000FF3EB2F806C41FFA8CFC4FEA8E2E1FFA9B
:1035D0008EFE4CEA0E0C4CF4004CA2F806C40C789B
:1035E00033F8242012F4804F0CD033F8242092B208
:1035F00022F4E04222F0700242F4404242F08002A3
:1036000023F82420097869BB33F8212092B222F4F0
:10361000804222F0700282F4405242F4004242F0B2
:10362000800223F82120A2E04CB9B2F806446FEAE8
:1036300044446FEA5444A4B2A2F80644CFE74FEAE8
:10364000540C14F0010F01D00CF1010CB2F8064437
:10365000A4B24FEA8C2C1FFA8CFC44EA0C04A2F8AA
:103660000644BCE733F8212092B222F4804222F0D3
:10367000700282F4005242F4004242F0800223F8C9
:10368000212074E0CA78022A72D00C7833F8242002
:1036900092B222F4E24222F0700242F4004242F07E
:1036A000800223F82420B3F8502013FA82F291F814
:1036B00000C002EBCC02B1F808C04FEA5C0C4FEA44
:1036C0004C0CA2F800C4B3F8502013FA82F291F81F
:1036D00000C002EBCC02B1F80AC04FEA5C0C4FEA22
:1036E0004C0CA2F804C44A78002A50D10C7833F864
:1036F000242012F4804F0CD033F8242092B222F40C
:10370000E04222F0700242F4404242F0800223F88C
:1037100024200C7833F8242012F0400F0CD033F81A
:10372000242092B222F4E04222F0700242F40042DD
:1037300042F0C00223F8242091F800C033F82C2076
:1037400092B222F4804222F0700282F4405248F297
:103750008004224323F82C20097833F8212092B2E8
:1037600022F4E04222F04002224323F8212010BD3F
:103770000C7833F8242092B222F4E04222F0700256
:1037800042F4014242F0800223F824208BE70C78B7
:1037900033F8242012F4804F0CD033F8242092B256
:1037A00022F4E04222F0700242F4404242F08002F1
:1037B00023F824200C7833F8242012F0400F0CD08A
:1037C00033F8242092B222F4E04222F0700242F454
:1037D000004242F0C00223F82420CA78012A1ED0F9
:1037E0000C7833F8242092B222F4E04222F0400216
:1037F00082F0200242F4004242F0800223F82420AA
:10380000097833F8212092B222F4804222F070022B
:1038100042F4004242F0800223F82120A7E70C780E
:1038200033F8242092B222F4E04222F0400242F423
:10383000004242F0800223F82420E1E70B7B002BBA
:1038400046D14B7813B30A7830F8223013F0400F8A
:103850000CD030F822309BB223F4E04323F0700305
:1038600043F4004343F0C00320F822300A7830F8D4
:1038700022309BB223F4E04323F0400343F400439F
:1038800043F0800320F82230002070470A7830F897
:10389000223013F4804F0CD030F822309BB223F446
:1038A000E04323F0700343F4404343F0800320F8E7
:1038B00022300A7830F822309BB223F4804323F080
:1038C000700343F4004343F0800320F82230DBE729
:1038D0004B78002B4ED10A7830F8223013F4804F09
:1038E0000CD030F822309BB223F4E04323F0700375
:1038F00043F4404343F0800320F822300A7830F844
:10390000223013F0400F0CD030F822309BB223F459
:10391000E04323F0700343F4004343F0C00320F876
:1039200022300A7830F822309BB223F4E04323F0AF
:10393000700343F4004343F0C00320F822300A78B8
:1039400030F822309BB223F4804323F0700348F216
:10395000800C43EA0C0320F822300A7830F8223039
:103960009BB223F4E04323F0400343EA0C0320F826
:10397000223089E70A7830F8223013F4804F0CD0D7
:1039800030F822309BB223F4E04323F0700343F479
:10399000404343F0800320F822300A7830F8223088
:1039A00013F0400F0CD030F822309BB223F4E043E8
:1039B00023F0700343F4004343F0C00320F82230A7
:1039C0000A7830F822309BB223F4E04323F07003EE
:1039D00043F4404343F0800320F822300A7830F863
:1039E00022309BB223F4E04323F0400348F2800CE2
:1039F00043EA0C0320F822300A7830F822309BB2D8
:103A000023F4804323F0700343EA0C0320F82230B0
:103A10003AE74B788BB10A7830F822309BB223F426
:103A2000E04323F0400383F0100343F4004343F0EA
:103A3000800320F82230002070470A7830F82230C6
:103A40009BB223F4804323F0700383F4805343F448
:103A5000004343F0800320F82230ECE70B7B002B7F
:103A60004BD14B7833B30A7830F8223013F0400F43
:103A70000CD030F822309BB223F4E04323F07003E3
:103A800043F4004343F0C00320F82230CB78012BED
:103A900033D00A7830F822309BB223F4E04323F08D
:103AA000400383F0200343F4004343F0800320F8F5
:103AB000223022E00A7830F8223013F4804F0CD004
:103AC00030F822309BB223F4E04323F0700343F438
:103AD000404343F0800320F822300A7830F8223047
:103AE0009BB223F4804323F0700383F4405343F4E8
:103AF000004343F0800320F822300020704711B9C2
:103B00008023A0F84C3000207047B0F858306FEA9E
:103B100043436FEA53439BB2A0F8583000207047EC
:103B2000B0F8440080B2704701335B08024402F5EC
:103B3000806208E0087891F801C040EA0C2022F881
:103B4000020B0231013B002BF4D1704770B50546E2
:103B50000C464A78012A3BD00B7B002B40F0A68212
:103B60008B690A69934240F284829B1A8B61B5F893
:103B7000503015FA83F3217803EBC103B3F8061430
:103B8000C1F30901A3F806143E2A40F276825109D6
:103B900012F01F0F00D10139B3F8062492B2890246
:103BA00089B20A4342F40042A3F80624227835F889
:103BB00022309BB223F4804323F0700383F44053FC
:103BC00043F4004343F0800325F82230002070BD09
:103BD0008E6909698E4200D90E46237B73B3E37860
:103BE000022B4DD0236A9B1B2362237835F82310C8
:103BF00011F0400F00F0F581002A40F0E281B5F8A5
:103C0000502015FA82F202EBC303B3F80624C2F384
:103C10000902A3F806243E2E40F2BA81710916F07B
:103C20001F0F00D10139B3F8062492B2890289B27C
:103C30000A4342F40042A3F80624CBE1B6B233466D
:103C4000E28861692846FFF76FFFB5F8503015FA32
:103C500083F3227803EBC203A3F80264227835F8D9
:103C600022309BB223F4E04323F0400383F030037F
:103C700043F4004343F0800325F822300020A6E7F8
:103C8000236A994280F06681227835F822309BB20F
:103C900023F4E04323F0700343F4014343F0800333
:103CA00025F82230236A9B1B2362237835F82320D2
:103CB00012F0400F00F0A7806278B2BBB5F8502038
:103CC00015FA82F202EBC303B3F80624C2F3090229
:103CD000A3F806243E2E0FD9710916F01F0F00D14C
:103CE0000139B3F8062492B2890289B20A4342F438
:103CF0000042A3F806241AE04EB9B3F806246FEA8E
:103D000042426FEA524292B2A3F806240FE07208D0
:103D100016F0010F00D00132B3F8061489B29202F6
:103D200092B20A43A3F8062401E0012A30D0B3B2CC
:103D3000628961692846FFF7F7FE6369334463616E
:103D4000236A226993422DD99B1B23626378002B3F
:103D500045D1B5F8503015FA83F3227803EBC2034E
:103D6000B3F80224C2F30902A3F802243E2E1DD99F
:103D7000710916F01F0F00D10139B3F8022492B275
:103D8000890289B20A4342F40042A3F8022428E0DF
:103D9000B5F8502015FA82F202EBC303B2B2A3F8D1
:103DA0000624C4E7002222621E46CFE74EB9B3F8CC
:103DB00002246FEA42426FEA524292B2A3F802240E
:103DC0000FE0720816F0010F00D00132B3F80214B0
:103DD00089B2920292B20A43A3F8022401E0012BB5
:103DE00006D0B3B2228961692846FFF79DFE35E708
:103DF000B5F8503015FA83F3227803EBC203B2B260
:103E0000A3F80224EDE76278B2BBB5F8502015FAAA
:103E100082F202EBC303B3F80224C2F30902A3F84F
:103E200002243E2E0FD9710916F01F0F00D101395F
:103E3000B3F8022492B2890289B20A4342F40042E2
:103E4000A3F802241AE04EB9B3F802246FEA424202
:103E50006FEA524292B2A3F802240FE0720816F001
:103E6000010F00D00132B3F8021489B2920292B26B
:103E70000A43A3F8022401E0012A30D0B3B2228918
:103E800061692846FFF750FE636933446361236A22
:103E9000226993422DD99B1B23626378002B45D165
:103EA000B5F8503015FA83F3227803EBC203B3F868
:103EB0000624C2F30902A3F806243E2E1DD9710977
:103EC00016F01F0F00D10139B3F8062492B289020F
:103ED00089B20A4342F40042A3F8062428E0B5F868
:103EE000502015FA82F202EBC303B2B2A3F8022407
:103EF000C4E7002222621E46CFE74EB9B3F806247B
:103F00006FEA42426FEA524292B2A3F806240FE0EF
:103F1000720816F0010F00D00132B3F8061489B20E
:103F2000920292B20A43A3F8062401E0012B06D0C4
:103F3000B3B2628961692846FFF7F6FD8EE6B5F8EF
:103F4000503015FA83F3227803EBC203B2B2A3F820
:103F50000624EDE7217835F8212092B222F4E242DE
:103F600022F0700242F4004242F0800225F8212043
:103F7000B5F8502015FA82F2217802EBC1029BB20B
:103F8000A2F80234228961692846FFF7CDFD65E673
:103F90004EB9B3F806246FEA42426FEA524292B237
:103FA000A3F8062416E0720816F0010F00D00132C3
:103FB000B3F8061489B2920292B20A43A3F8062417
:103FC00008E0B5F8502015FA82F202EBC303B2B252
:103FD000A3F80624B3B2628961692846FFF7A4FDFD
:103FE0003CE6B2BBB5F8502015FA82F202EBC303EF
:103FF000B3F80224C2F30902A3F802243E2E0FD91B
:10400000710916F01F0F00D10139B3F8022492B2E2
:10401000890289B20A4342F40042A3F8022421E053
:104020004EB9B3F802246FEA42426FEA524292B2AA
:10403000A3F8022416E0720816F0010F00D0013236
:10404000B3F8021489B2920292B20A43A3F802248E
:1040500008E0B5F8502015FA82F202EBC303B2B2C1
:10406000A3F80224B3B2228961692846FFF75CFDF8
:10407000F4E500228A611A4679E54AB9B3F80624C4
:104080006FEA42426FEA524292B2A3F806248DE5EB
:10409000510812F0010F00D00131B3F8062492B29A
:1040A000890289B20A43A3F806247FE5CB78022B64
:1040B0004DD0012B40F02F8189692369994240F24C
:1040C000E680C91AA161F2B9B5F8502015FA82F25A
:1040D000217802EBC102B2F80214C1F30901A2F87F
:1040E00002143E2B40F2D780580913F01F0F00D165
:1040F0000138B2F8021489B2800280B2014341F45F
:104100000041A2F802146278002A40F0F680B5F867
:10411000502015FA82F2217802EBC102B2F806149F
:10412000C1F30901A2F806143E2B40F2CD805909D3
:1041300013F01F0F00D10139B2F806349BB2890287
:1041400089B20B4343F40043A2F806342EE5F2B9DA
:10415000B0F8503010FA83F30A7803EBC203B3F8D7
:104160000224C2F30902A3F802240A693E2A31D9C3
:10417000510912F01F0F00D10139B3F8022492B295
:10418000890289B20A4342F40042A3F80224637808
:10419000002B51D1B5F8503015FA83F3227803EB98
:1041A000C203B3F80624C2F30902A3F80624226965
:1041B0003E2A28D9510912F01F0F00D10139B3F856
:1041C000062492B2890289B20A4342F40042A3F85B
:1041D000062433E04AB9B3F802246FEA42426FEA98
:1041E000524292B2A3F80224D1E7510812F0010F13
:1041F00000D00131B3F8022490B28A0292B2024395
:10420000A3F80224C3E74AB9B3F806246FEA42428E
:104210006FEA524292B2A3F806240FE0510812F05E
:10422000010F00D00131B3F8062490B28A0292B295
:104230000243A3F8062401E0012B1DD0E369002B03
:104240003FF4B4AC227835F8221044F2400303EA7C
:1042500001008B4302D000287FF4A8AC35F822304F
:104260009BB223F4E04323F0700343F4004343F094
:10427000C00325F8223099E4B5F8503015FA83F3DD
:10428000227803EBC203228AA3F80624D6E7002390
:10429000A3610B4617E74BB9B2F802146FEA41412C
:1042A0006FEA514189B2A2F802142CE7590813F0C1
:1042B000010F00D00131B2F8020480B2890289B244
:1042C0000143A2F802141EE74BB9B2F806346FEAB4
:1042D00043436FEA53439BB2A2F8063466E459089D
:1042E00013F0010F00D00131B2F8063498B28B02FE
:1042F0009BB20343A2F8063458E4012A7FF456AC7B
:10430000B5F8502015FA82F2217802EBC1029BB277
:10431000A2F806344AE4012059E410B45C080244CF
:1043200002F5806207E032F8020B0870C0F3072044
:1043300048700231013C002CF5D113F0010F01D07F
:1043400013880B705DF8044B704710B5D0F8BC4271
:1043500084B1D0F8C0327BB194F80002FF280DD0B0
:104360009B6894F8012221469847FF2384F8003285
:10437000002010BD0320FCE70020FAE70020F8E74A
:1043800043230380004870475000002043230380EC
:104390000048704794000020432303800048704782
:1043A0000C0000200A230380004870471001002001
:1043B00038B5D0F8BC5275B1044602F03AFFC5F8E2
:1043C0000C02D4F8C032DB6805F50371D5F804029D
:1043D0009847002038BD0320FCE710B5D0F8C44250
:1043E000D0F8BC3253B301EB810200EB8202926938
:1043F0004AB101EB810C04EBCC04246AB2FBF4FC5F
:1044000004FB1C2272B10022C3F81422D0F8C0228F
:104410001469ACB10A4603F50471D3F80802A04749
:10442000002010BD01EB810300EB830300249C619D
:104430002346224602F0EDFE2046F2E70320F0E795
:104440000020EEE7F0B583B0D0F8BC6200238DF811
:104450000730ADF80430002E6CD007460C460B78C0
:1044600013F060052AD0202D5ED1CA88F2B113F076
:10447000800F0FD0D0F8C0329B68314660789847E3
:10448000E288072A28BF07223146384600F0D4FDCB
:1044900000254CE04B7886F800328B7986F80132A3
:1044A000CA88314600F0DDFD002540E0D0F8C0327A
:1044B0009B68002248789847002538E04E780B2EFC
:1044C0002ED8DFE806F006342D2D2D2D2D2D2D2D87
:1044D000152490F89C32DBB2032B03D000F072FA63
:1044E000032524E0022201A900F0A6FD35461EE0C6
:1044F00090F89C32DBB2032B03D000F063FA032563
:1045000015E001220DF1070100F096FD0FE090F893
:104510009C32DBB2032B0AD000F054FA032506E0EC
:1045200000F050FA032502E000F04CFA032528467B
:1045300003B0F0BD0325FAE738B50446812102F047
:1045400032FE002525870121204602F02CFEA4F82A
:1045500078518221204602F026FEA4F84C50A4F89F
:104560004E50D4F8BC324BB1D4F8C0325B68984797
:10457000D4F8BC0202F08AFEC4F8BC52002038BD58
:1045800070B504464FF4077002F07CFEB8B30646DF
:10459000C4F8BC02237CBBBB4FF400730222812110
:1045A000204602F0F5FD012525874FF40073022215
:1045B0002946204602F0ECFDA4F878511023A4F817
:1045C0004E30082303228221204602F0E1FD012320
:1045D000A4F84C30D4F8C0321B6898470023C6F8C2
:1045E0001432C6F81832257C15BB4FF40073D6F888
:1045F00004220121204602F014FE284670BD00234B
:10460000C4F8BC320225F8E740230222812120466B
:1046100002F0BEFD012525874023022229462046BF
:1046200002F0B6FDA4F878511023A4F84E30C8E784
:104630004023D6F804220121204602F0F2FD002595
:10464000DBE719B1C0F8C0120020704703207047A3
:10465000D0F8BC322BB1C3F80812C3F810220020E6
:10466000704703207047D0F8BC321BB1C3F8041266
:10467000002070470320704710B5D0F8BC2292B1DB
:10468000047C44B94FF40073D2F80422012102F0F3
:10469000C8FD204610BD4023D2F80422012102F0BB
:1046A000C0FD0024F5E70324F3E798B108B50346FD
:1046B0000020C3F8B802C3F8C002C3F8CC0209B1A5
:1046C000C3F8B412012183F89C121A70184602F044
:1046D00013FD08BD0320704710B582B00023ADF86C
:1046E000063061B10446C0F8B812CB6A4BB10DF187
:1046F00006009847C4F8CC02002002B010BD032089
:10470000FBE70020F9E708B502F03AFD08BD08B55F
:10471000D0F8B83213B11B68984708BD0320FCE7F6
:1047200008B5D0F8B8320BB15B689847002008BDD7
:1047300038B5044600F2AA25284600F02FF90123D7
:10474000C4F89432B4F8B032C4F8983294F8AA128B
:1047500001F01F03012B07D0022B0AD073B92946A1
:10476000204600F0EAFA38BD2946204600F01DFB3D
:10477000F9E72946204600F04CFBF4E701F0800100
:10478000204602F018FDEEE738B504460D4641BB61
:104790001346D0F89422032A01D0084638BDD0F839
:1047A0005C11D0F86021914209D890F89C32DBB2BC
:1047B000032B0FD0204600F06BFC2846EEE7891A49
:1047C000C0F85C118A4228BF0A46194600F058FC1E
:1047D0002846E3E7D0F8B8321B69002BEAD09847A7
:1047E000E8E790F89C32DBB2032B01D00020D5E73C
:1047F000D0F8B8329B690BB19847CFE70020CDE7DE
:1048000038B504460D4600294AD11346D0F8942203
:10481000022A05D094F8A032012B3CD0284638BD9E
:10482000C269016A8A420ED88A4218D094F89C3232
:10483000DBB2032B27D08021204602F0BCFC2046AF
:1048400000F031FCE6E7521AC261194600F001FCA3
:1048500000231A461946204602F0E3FCDAE7836992
:104860009942E3D8D0F898229342DFD20022114631
:1048700000F0EFFB0021C4F898120B460A462046D0
:1048800002F0CFFCC6E7D4F8B832DB68002BD2D0F8
:1048900020469847CFE7002384F8A0322846BEE799
:1048A00090F89C32DBB2032B01D00020B7E7D0F8A0
:1048B000B8325B690BB19847B1E70020AFE701233D
:1048C00080F89C320023C0F894324360C0F8A432D0
:1048D000D0F8B832F3B170B50446D0F8BC221AB1A2
:1048E0005B680BB100219847402300221146204607
:1048F00002F04EFC0126A4F864614025C4F8605122
:104900002B4600228021204602F042FCA68425622C
:10491000002070BD0320704701740020704790F89C
:104920009C32DBB280F89D32042380F89C32002058
:10493000704790F89C32DBB2042B01D00020704706
:1049400090F89D32DBB280F89C32F7E7D0F8B822BD
:1049500062B108B590F89C32DBB2032B01D0002085
:1049600008BDD36923B198470020F9E703207047B9
:104970000020F5E70346002002E00130C0B2013319
:104980001A78002AF9D1704708B54B88012B00D05E
:1049900008BDC0F8A43200F07BFBF9E70B78037088
:1049A0004B7843708B78CA7843EA022343800B79B3
:1049B0004A7943EA022383808B79CA7943EA022346
:1049C000C380704710B50446802102F0F4FB00213B
:1049D000204602F0F0FB10BD30B583B004460D4612
:1049E0000023ADF806304A88130A013B0E2B00F273
:1049F000BC80DFE803F0153044BABA9EABBABABA4D
:104A0000BABABABA0800D0F8B432DB6923B10DF1F2
:104A10000601007C98470AE02946FFF7D3FF18E01B
:104A2000D0F8B4321B680DF10601007C9847EA8883
:104A3000002A00F0A380BDF80630002B00F099801A
:104A40009A4228BF1A46ADF806200146204600F0DB
:104A5000F3FA03B030BD037C43B9D0F8B8329B6A97
:104A60000DF10600984702234370E0E7D0F8B83212
:104A7000DB6A0DF10600984702234370D7E7D2B2F4
:104A8000052A52D8DFE802F003101D2A3744D0F877
:104A9000B4325B6823B10DF10601007C9847C6E78C
:104AA0002946FFF78FFFD4E7D0F8B4329B6823B1D3
:104AB0000DF10601007C9847B9E72946FFF782FF10
:104AC000C7E7D0F8B432DB6823B10DF10601007CF2
:104AD0009847ACE72946FFF775FFBAE7D0F8B4323C
:104AE0001B6923B10DF10601007C98479FE7294619
:104AF000FFF768FFADE7D0F8B4325B6923B10DF181
:104B00000601007C984792E72946FFF75BFFA0E784
:104B1000D0F8B4329B6923B10DF10601007C9847AF
:104B200085E72946FFF74EFF93E72946FFF74AFF3F
:104B30008FE7037C33B9D0F8B8325B6B0DF1060018
:104B4000984774E72946FFF73DFF82E7037C43B9A6
:104B5000D0F8B8321B6B0DF106009847072343705D
:104B600065E72946FFF72EFF73E72946FFF72AFF7F
:104B70006FE729462046FFF725FF6AE7204600F049
:104B800087FA66E738B504468B88FBB9CB88EBB962
:104B90004B887F2B1AD803F07F0590F89C32DBB24C
:104BA000032B0CD080F89E52294602F02AFB2046A7
:104BB00000F06EFA35B1022384F89C3209E0FFF769
:104BC00001FF06E0012384F89C3202E02046FFF753
:104BD000F9FE38BD70B504460E468D782E4B1D701B
:104BE000012D10D890F89C32DBB2022B0FD0032B92
:104BF00023D0FFF7E7FE284B19782046FFF790FDFA
:104C00000325284670BDFFF7DDFE0325F9E78DB1CA
:104C100045602946FFF77BFD054620B13146204619
:104C2000FFF7D0FEEDE7204600F032FA032384F8C8
:104C30009C32E6E700F02CFAE3E7CDB141688D4203
:104C400025D0C9B2FFF76CFD134B1978616020467F
:104C5000FFF75DFD0546B0B131462046FFF7B2FED5
:104C600021792046FFF75CFD022384F89C32C8E7D7
:104C7000022380F89C3245602946FFF751FD20460B
:104C800000F006FABDE7204600F002FAB9E700F0AE
:104C9000FFF90025B5E700BF0C08002008B5CB8858
:104CA000012B0BD190F89C32DBB2022B09D9032BDC
:104CB00011D10122011D00F0BFF901E0FFF782FED2
:104CC00008BD5BB23BB10146002341F8083F012219
:104CD00000F0B2F9F4E7FFF775FEF1E708B590F8D8
:104CE0009C32013B022B12D8CB88022B0CD1012322
:104CF000C360D0F8A4320BB10323C360022200F1D9
:104D00000C0100F099F908BDFFF75CFEFBE7FFF727
:104D100059FEF8E708B590F89C32013B022B09D800
:104D20004B88012B00D008BD0023C0F8A43200F04E
:104D3000AFF9F8E7FFF746FEF5E738B50C7804F071
:104D40006004202C06D0402C04D054B1FFF73AFE6A
:104D5000002404E0D0F8B8329B6898470446204607
:104D600038BD4D78092D1DD8DFE805F012191C1645
:104D70001C08051C0F0BFFF72FFEF0E7FFF702FFE3
:104D8000EDE7FFF727FF0446E9E7FFF787FFE6E7D0
:104D9000FFF7A4FF2C46E2E7FFF7F6FDDFE7FFF79A
:104DA000B9FFDCE7FFF70EFED9E770B505460C4604
:104DB0000B7803F06003202B07D0402B05D023B1E4
:104DC000FFF700FE0026304670BD95F89C32013B8F
:104DD000022B18D82379012B0FD8D5F8B8329B684D
:104DE0002146284698470646E388002BEBD1002849
:104DF000E9D1284600F04CF9E5E721462846FFF7BF
:104E0000E1FD0026DFE721462846FFF7DBFD00260F
:104E1000D9E7F8B506460D468B880C7804F0600497
:104E2000202C08D0D9B2402C05D06CB12946FFF710
:104E3000C9FD002406E0D6F8B8329B682946304602
:104E4000984704462046F8BD6F78012F2FD0032FD6
:104E500005D0002F59D02946FFF7B4FDF2E790F8AE
:104E60009C32DBB2022B05D0032B12D02946FFF770
:104E7000A9FDE7E709B1802904D129463046FFF7AB
:104E8000A1FDDFE702F097F98021304602F093F9A7
:104E9000D8E76B8823B919B1802901D0EB881BB101
:104EA000304600F0F5F8CDE702F085F9F8E790F824
:104EB0009C32DBB2022B05D0032B12D02946FFF720
:104EC00081FDBFE709B1802904D129463046FFF7AB
:104ED00079FDB7E702F06FF98021304602F06BF9F7
:104EE000B0E76B88002BADD111F07F0F0AD13046AF
:104EF00000F0CEF8D6F8B8329B682946304698477D
:104F000004469FE702F05FF9F1E790F89C22D2B2E5
:104F1000022A06D0032A29D02946FFF753FD3C4632
:104F200090E709B1802913D113F0800F15D101F05A
:104F30007F0101EB8101890001F5A8713144043141
:104F400000230B600222304600F076F83C4679E7F9
:104F50002946FFF737FD3C4674E701F07F0101EB7E
:104F600081018900103131440431E9E75BB2002B43
:104F70001FDB01F00F0202EB820200EB8202B2F8AB
:104F8000642122B3002B27DB01F07F0303EB8303B3
:104F90009C0004F5A8743444043409B1802924D158
:104FA0000023236002222146304600F045F83C46AB
:104FB00048E701F00F0202EB820200EB8202928CC2
:104FC000002ADFD12946FFF7FDFC3C463AE7294697
:104FD000FFF7F8FC3C4635E701F07F0303EB830362
:104FE0009C00103434440434D7E7304602F0F3F820
:104FF00010B101232360D5E700232360D2E7D0B1AD
:1050000070B50D4616460446FFF7B4FC431C5B0022
:105010009BB233802B7003236B70022307E0EA54AA
:1050200001345A1CD2B20021A9540233DBB22278D7
:10503000002AF4D170BD704708B513460222C0F8AB
:1050400094228361C3610A46002102F0E2F8002045
:1050500008BD08B513460A46002102F0DAF8002020
:1050600008BD08B513460322C0F89422C0F8583191
:10507000C0F85C310A46002102F0D3F8002008BDD8
:1050800008B513460A46002102F0CBF8002008BDFF
:1050900008B50422C0F8942200231A46194602F0EB
:1050A000B8F8002008BD08B50522C0F894220023F6
:1050B0001A46194602F0B5F8002008BD08B54FF0B1
:1050C000E0231B6901F010FC012800D108BD00F0AD
:1050D000D1F9FBE7EFF305832BB9064B186828B924
:1050E00001221A6070476FF0050070474FF0FF30E3
:1050F000704700BF50110020EFF3058373B90A4BCE
:105100001B68012B0DD110B50024084BDC77064B32
:1051100002221A6001F036F9204610BD6FF005003A
:1051200070474FF0FF3070475011002000ED00E055
:10513000F0B587B000240594EFF305847CBB70B311
:105140002AB31568936903B918235C1E372C4AD813
:10515000546814F0010F48D1566976B14FEA960CA5
:10516000946834B1D768B7F5D07F02D3176907B117
:10517000C6B92CB14FF0FF340EE04FF0800CEFE7D2
:10518000D4688CB9146994B14FF0FF3404E015462B
:10519000002418234FF0800C012C0AD0ACB10598E4
:1051A00007B0F0BD0124F7E74FF0FF34F4E7002427
:1051B000F2E7146992680292019400930B466246EA
:1051C000294601F06FF80590E9E705AA01920093DE
:1051D0000B461FFA8CF2294601F0A1F80128DED017
:1051E00000230593DBE70020DAE70020D8E708B5C5
:1051F000EFF3058333B908B9002008BD01F02EFA9A
:105200000020FAE76FF00500F7E70000034B0360AA
:10521000034B0B6080231360704700BFB00F00206A
:10522000B00D0020034B0360034B0B604FF4807301
:1052300013607047100C00201008002000F10803D4
:1052400043604FF0FF328260C3600361002303605C
:10525000704700230361704743684B609A688A6017
:10526000516099600861036801330360704730B48E
:105270000D68B5F1FF3F11D000F108031C465B68D3
:105280001A68AA42FAD963684B6099608C606160C1
:10529000086103680133036030BC70470469F2E7BA
:1052A0000369416882688A60416851605A68824235
:1052B00006D0002202611A68013A1A601868704725
:1052C00082685A60F5E7000082B0002301930D4B1D
:1052D0001B68B3F1FF3F08D04FF0500383F31188F0
:1052E000BFF36F8FBFF34F8FFEE74FF0500383F391
:1052F0001188BFF36F8FBFF34F8F019B002BFCD042
:1053000002B070471C01002008480068006880F364
:1053100008884FF0000080F3148862B661B6BFF3CE
:105320004F8FBFF36F8F00DF00BF000008ED00E07C
:10533000DFF80C00016841F4700101607047000063
:1053400088ED00E04FF0807340F8043C21F001014B
:1053500040F8081C054B40F80C3C40F8202C6FF03E
:10536000020340F8243C4438704700BFC95200088B
:10537000074B19680868B0E8F04F80F30988BFF35D
:105380006F8F4FF0000080F311887047AFF30080FB
:10539000B82200204FF0500383F31188BFF36F8FC2
:1053A000BFF34F8F0B4A136801331360012B00D0FA
:1053B00070474FF0E023D3F8043D13F0FF0FF7D010
:1053C0004FF0500383F31188BFF36F8FBFF34F8FFC
:1053D000FEE700BF1C010020094B1B6843B94FF0DA
:1053E000500383F31188BFF36F8FBFF34F8FFEE736
:1053F000013B034A13600BB983F31188704700BF68
:105400001C0100200000000000000000000000005F
:10541000EFF30980BFF36F8F154B1A681EF0100F62
:1054200008BF20ED108A20E9F04F10602DE9090037
:105430004FF0500080F31188BFF34F8FBFF36F8F91
:1054400001F032F94FF0000080F3118809BC1968AF
:105450000868B0E8F04F1EF0100F08BFB0EC108ADB
:1054600080F30988BFF36F8F704700BFAFF30080F0
:10547000B822002008B54FF0500383F31188BFF322
:105480006F8FBFF34F8F00F0E1FF28B14FF0E023A3
:105490004FF08052C3F8042D002383F3118808BD18
:1054A0004FF0E022002313619361054B1B6805490F
:1054B000A1FB03139B09013B536107231361704751
:1054C00000000020D34D62104FF0E023D3F8002DF0
:1054D0003D4B9A421CD04FF0E023D3F8002D3B4BBC
:1054E0009A421ED030B583B0394B1A78D2B20192AD
:1054F000FF221A701B78DBB28DF803309DF8033061
:1055000003F05003334A1370334B07221A601BE039
:105510004FF0500383F31188BFF36F8FBFF34F8FAA
:10552000FEE74FF0500383F31188BFF36F8FBFF393
:105530004F8FFEE7284A1368013B13609DF8033044
:105540005B00DBB28DF803309DF8033013F0800F61
:10555000F0D1214B1B68032B08D04FF0500383F38D
:105560001188BFF36F8FBFF34F8FFEE71B021A4AFC
:10557000136003F4E0631360019BDBB2144A137001
:105580004FF0E024D4F8203D43F47003C4F8203DEC
:10559000D4F8203D43F07043C4F8203DFFF780FF6E
:1055A00000250E4B1D60FFF7C3FED4F8343F43F0D7
:1055B0004043C4F8343FFFF7A7FE01F075F8FFF74A
:1055C00083FE284603B030BD71C20F4170C20F4147
:1055D00000E400E058110020541100201C010020BC
:1055E000EFF305830F2B0FD9114A9B5CDBB2114AF5
:1055F00012789A4208D94FF0500383F31188BFF311
:105600006F8FBFF34F8FFEE74FF0E023D3F80C3DD1
:1056100003F4E063084A1268934208D94FF050033C
:1056200083F31188BFF36F8FBFF34F8FFEE770478F
:10563000F0E300E05811002054110020124A12F04B
:10564000070F1ED0D11D21F00701C1F5406313449F
:105650000A460E480260002141601344083B23F0D3
:1056600007030B48036059601960991A5160136071
:10567000084B1960084B1960084B4FF000421A6044
:1056800070474FF44063E4E77C1100207411002060
:1056900070110020681100206C1100205C110020A6
:1056A000164B1A461B688342FBD3516802EB010C70
:1056B000844509D0416800EB010C634509D00360C3
:1056C000904219D010607047406801445160104604
:1056D000F0E710B40A4C2468A3420BD05B6819446D
:1056E000416013681B680360904200D010605DF851
:1056F000044B70470460F7E7704700BF7411002047
:105700007011002038B5044600F092FE384B1B683B
:10571000B3B1384B1B681C4250D1002C50D004F15F
:10572000080214F0070F02D022F007020832002A04
:1057300055D0314B1B68934253D330490C6804E079
:10574000FFF77CFFE5E721461C466368934202D2DF
:105750002368002BF7D1264B1B68A34243D00D686A
:10576000083523680B6063689B1A102B10D9A018AA
:1057700010F0070F08D04FF0500383F31188BFF3E8
:105780006F8FBFF34F8FFEE743606260FFF788FFC4
:10579000626819490B689B1A0B60194909688B42AA
:1057A00001D217490B60134B1B681343636000233E
:1057B0002360144A13680133136002E0002500E0FF
:1057C000002500F0CFFE15F0070F0ED04FF050036C
:1057D00083F31188BFF36F8FBFF34F8FFEE7002570
:1057E000EFE70025EDE70025EBE7284638BD00BFD1
:1057F000701100205C1100206C1100207411002039
:105800006811002064110020002834D038B5044607
:10581000A0F1080550F8043C174A1268134208D159
:105820004FF0500383F31188BFF36F8FBFF34F8F97
:10583000FEE750F8081C41B14FF0500383F3118884
:10584000BFF36F8FBFF34F8FFEE723EA020340F8E9
:10585000043C00F0EDFD54F8041C084A13680B44A6
:1058600013602846FFF71CFF054A136801331360D5
:1058700000F078FE38BD70475C1100206C110020EC
:105880006011002010B50446FFF784FDA26BE36BA6
:105890009A4204D00024FFF79FFD204610BD01244A
:1058A000F9E710B50446FFF775FDA36B23B9012492
:1058B000FFF792FD204610BD0024F9E770B50446BD
:1058C0001546866B026C5AB903681BB1002001367D
:1058D000A66370BD806801F017F80023A360F6E7A7
:1058E0006DB94068FAF77CFC6368226C134463600E
:1058F000A268934219D3236863602846E7E7C0682B
:10590000FAF76EFCE368226C51429B1AE36022684E
:10591000934202D2A3680B44E360022D01D0002021
:10592000D5E726B1013E0020D1E72846CFE7002089
:10593000CDE70346026C6AB110B50846D968114438
:10594000D9609C68A14201D31968D960D968FAF777
:1059500047FC10BD704738B50546FFF71BFD95F8AD
:10596000454064B201E0013C64B2002C0ADD6B6A80
:1059700043B105F1240000F01DFF0028F3D000F032
:10598000ADFFF0E7FF2385F84530FFF725FDFFF772
:1059900001FD95F8444064B201E0013C64B2002C82
:1059A0000ADD2B6943B105F1100000F003FF002868
:1059B000F3D000F093FFF0E7FF2385F84430FFF7C2
:1059C0000BFD38BD38B5E0B10D460446FFF7E2FCEB
:1059D0002368E26B216C01FB0230A0600020A06311
:1059E0006360013A02FB0133E360FF2384F8443033
:1059F00084F84530FDB9236963B9FFF7EDFC012058
:105A000038BD4FF0500383F31188BFF36F8FBFF39E
:105A10004F8FFEE704F1100000F0CCFE0028ECD020
:105A20004FF0E0234FF08052C3F8042DBFF34F8FA7
:105A3000BFF36F8FE1E704F11000FFF7FFFB04F104
:105A40002400FFF7FBFBD8E738B51D46049C0B4646
:105A500049B92460E063236401212046FFF7B2FFC7
:105A600084F84C5038BD2260F4E740B94FF0500341
:105A700083F31188BFF36F8FBFF34F8FFEE710B52D
:105A800084B01C46844653B192B189B94FF050039B
:105A900083F31188BFF36F8FBFF34F8FFEE74FF093
:105AA000500383F31188BFF36F8FBFF34F8FFEE76F
:105AB0006AB150230393039B502B13D04FF0500334
:105AC00083F31188BFF36F8FBFF34F8FFEE7002979
:105AD000EFD04FF0500383F31188BFF36F8FBFF304
